:100000000C945E000C9486000C9486000C94860080
:100010000C9486000C9486000C9486000C94860048
:100020000C9486000C9486000C9486000C94860038
:100030000C9486000C9486000C9486000C94860028
:100040000C948E0E0C9486000C945C0E0C94360E60
:100050000C9486000C9486000C9486000C94860008
:100060000C9486000C9486000000000024002700F9
:100070002A0000000000250028002B0004040404CE
:100080000404040402020202020203030303030342
:10009000010204081020408001020408102001021F
:1000A00004081020000000080002010000030407FB
:1000B0000000000000000000D80EBD1211241FBE79
:1000C000CFEFD8E0DEBFCDBF12E0A0E0B1E0E8E7BF
:1000D000FCE202C005900D92AC33B107D9F722E0E3
:1000E000ACE3B2E001C01D92AF3EB207E1F710E011
:1000F000CDE5D0E004C02197FE010E94EC14CC3580
:10010000D107C9F70E941D0F0C942F160C94000004
:10011000E1EBF0E02491EDE9F0E09491E9E8F0E022
:10012000E491EE23C9F0222339F0233001F1A8F441
:10013000213019F1223029F1F0E0EE0FFF1FEE58C7
:10014000FF4FA591B4912FB7F894EC91811126C07F
:1001500090959E239C932FBF08952730A9F02830B7
:10016000C9F0243049F7209180002F7D03C02091F1
:1001700080002F7720938000DFCF24B52F7724BD18
:10018000DBCF24B52F7DFBCF2091B0002F772093BC
:10019000B000D2CF2091B0002F7DF9CF9E2BDACFC7
:1001A000AF92BF92CF92DF92EF92FF920F931F9385
:1001B000CF93DF936C017B018B01040F151FEB01C3
:1001C0005E01AE18BF08C017D10759F06991D6017A
:1001D000ED91FC910190F081E02DC6010995892BEC
:1001E00079F7C501DF91CF911F910F91FF90EF90AB
:1001F000DF90CF90BF90AF900895FC01538D448D58
:10020000252F30E0842F90E0821B930B541710F0C1
:10021000CF96089501970895FC01918D828D9817CE
:1002200061F0A28DAE0FBF2FB11D5D968C91928DA6
:100230009F5F9F73928F90E008958FEF9FEF0895D7
:10024000FC01918D828D981731F0828DE80FF11DA0
:10025000858D90E008958FEF9FEF0895FC01918DBB
:10026000228D892F90E0805C9F4F821B91098F73B4
:100270009927089586E492E00E942E0121E0892BBF
:1002800009F420E0822F089580E090E0892B29F086
:100290000E943A0181110C9400000895FC01A48D84
:1002A000A80FB92FB11DA35ABF4F2C91848D90E098
:1002B00001968F739927848FA689B7892C93A0897B
:1002C000B1898C91837080648C93938D848D981305
:1002D00006C00288F389E02D80818F7D8083089598
:1002E000EF92FF920F931F93CF93DF93EC0181E086
:1002F000888F9B8D8C8D98131AC0E889F98980812D
:1003000085FF15C09FB7F894EE89FF896083E8895F
:10031000F98980818370806480839FBF81E090E051
:10032000DF91CF911F910F91FF90EF900895F62EDE
:100330000B8D10E00F5F1F4F0F731127E02E8C8D78
:100340008E110CC00FB607FCFACFE889F9898081BD
:1003500085FFF5CFCE010E944E01F1CFEB8DEC0F62
:10036000FD2FF11DE35AFF4FF0829FB7F8940B8FDA
:10037000EA89FB8980818062CFCFCF93DF93EC0144
:10038000888D8823B9F0AA89BB89E889F9898C917D
:1003900085FD03C0808186FD0DC00FB607FCF7CF39
:1003A0008C9185FFF2CF808185FFEDCFCE010E9439
:1003B0004E01E9CFDF91CF9108953FB7F894809136
:1003C000410290914202A0914302B091440226B5AD
:1003D000A89B05C02F3F19F00196A11DB11D3FBF7D
:1003E000BA2FA92F982F8827BC01CD01620F711D4C
:1003F000811D911D43E0660F771F881F991F4A9545
:10040000D1F70895FC019B01AB01770F660B770BC9
:100410009481907837FD07C098609483408351831E
:100420006283738308959A60948370956095509564
:1004300041955F4F6F4F7F4FF1CFFC0184819581D4
:1004400008950895CF93DF93EC0188819981DC01B1
:10045000ED91FC910190F081E02D09952A813B817D
:10046000820F931F9B838A83DF91CF910895DC01D4
:100470008D919C91DC01ED91FC910280F381E02D46
:100480000994EF92FF920F931F93CF93DF93CDB711
:10049000DEB766970FB6F894DEBF0FBECDBF8C01F6
:1004A000CB01FE0177969F014AE0E42EF12CB701C3
:1004B0000E949714805D8293CB010097C1F7A90138
:1004C0004E1B5F0BBF01C8010E943702F801228159
:1004D0003381820F931F9383828366960FB6F894BD
:1004E000DEBF0FBECDBFDF91CF911F910F91FF9067
:1004F000EF9008958F929F92AF92BF92CF92DF922A
:10050000EF92FF920F931F93CF93DF93CDB7DEB798
:1005100066970FB6F894DEBF0FBECDBF7C018E018B
:10052000095E1F4F68018AE0882E912CA12CB12C06
:10053000CB01BA01A50194010E94AB14942F852F21
:10054000605DF80162938F01A901692F782F411531
:1005500051056105710561F7A6014E1B5F0BBF01D7
:10056000C7010E943702F70122813381820F931F56
:100570009383828366960FB6F894DEBF0FBECDBF1D
:10058000DF91CF911F910F91FF90EF90DF90CF906F
:10059000BF90AF909F908F900895EF92FF920F932E
:1005A0001F93CF93DF93EC017B0162E20E94220252
:1005B0008701F80161918F01662391F0E4EBF1E08E
:1005C000F280FF2049F0329681816813F9CF6CE503
:1005D000CE010E9422026F2DCE010E942202E9CF9D
:1005E00062E2CE01DF91CF911F910F91FF90EF90CA
:1005F0000C9422024F925F926F927F928F929F9201
:10060000AF92BF92DF92EF92FF920F931F93CF931F
:10061000DF938C01EB0188818B32D1F18D32C9F5EA
:100620002196EE24E394888190ED980F9A3010F093
:100630008E3289F560E070E0CB01FE012191A0EDE2
:100640008A2E820E39E0381508F440C06A3929E94B
:100650007207820729E1920708F04DC0AAE0B0E0D6
:100660009B01AC010E94CD14912CB12CA12C240132
:10067000350140945094609470944616570668066D
:100680007906C8F1680D791D8A1D9B1DEF01D5CF34
:100690002196E12CC8CFF8011082118212821382B8
:1006A00014821582168217821086C801DF91CF91BD
:1006B0001F910F91FF90EF90DF90BF90AF909F90B0
:1006C0008F907F906F905F904F900895211113C08D
:1006D000F80160837183828393830E947313F8010E
:1006E00064837583868397838AE0E11001C088E084
:1006F000F8018087DACFF12CEAE08E2E912CA12C24
:10070000B12C61157105F0E88F07910540F0A50146
:1007100094010E94AB14CA01B901F394F2CFFE0117
:10072000299130ED320F3A3010F4F394F8CF2E3295
:10073000F1F4EF012196FE012196208150EDD52E96
:10074000D20E29E02D1598F06C3C3CEC73073CE090
:100750008307910580F7AAE0B0E09B01AC010E94FD
:10076000CD146D0D711D811D911DFA94E4CF208172
:100770002F7DD0E0C0E0253409F04FC021812D321B
:10078000A9F53296BB24B394DF01D0E0C0E02F2D51
:100790000F2C000C330B4AE0A42EFD01DD9040ED40
:1007A0004D0D4A30A8F5AC9EA001AD9E500D112410
:1007B000CD2DDD0CDD0BE097C40FD51FAE01420F30
:1007C000531F473251054CF3BB20B9F080E090E055
:1007D000A0E0B0E8E11003C080E090E0DC01F801A7
:1007E00084839583A683B7838CE083CF2B3219F063
:1007F0003196B12CC9CF3296FCCF80E090E0A0E8D2
:10080000BFEFE110ECCF80E090E0A0E8BFE7E7CFDA
:10081000BB2019F0D195C195D109208121113BCF81
:10082000CF0DD11DF7FCDA950E9473131C161D061F
:10083000E4F4F12CC0FF0CC024E0F29EF00111247E
:10084000E25BFE4F20813181428153810E942A1454
:10085000D595C795F394209769F7E1109058F80162
:100860006483758386839783BFCFD195C195D10962
:10087000F12C209791F3C0FF0CC024E0F29EF00110
:100880001124EA5CFE4F20813181428153810E9414
:100890002A14D595C795F394ECCFCF92DF92EF92BF
:1008A000FF92CF93DF93CDB7DEB729970FB6F894B9
:1008B000DEBF0FBECDBFDC0114969C9114979F77CD
:1008C000963079F0FD01973028F4943088F570E087
:1008D00060E020C09A3089F09C3009F45AC098300A
:1008E000B1F78D919D910D90BC91A02DBC0181150A
:1008F0009048A105B10570F0EACF80819181A28175
:10090000B38166277727681B790B81309048A10552
:10091000B105E8F6CB0129960FB6F894DEBF0FBEFD
:10092000CDBFDF91CF91FF90EF90DF90CF900895F2
:1009300060817181CE0101960E94FA0289819A81BB
:10094000AB81BC8129852A30E1F22C3021F028309E
:1009500009F0BDCFCBCFCD80DE80EF80F88420E0E2
:1009600030E040E057ECC701B6010E94251487FD36
:10097000AECF20E03EEF4FEF56E4C701B6010E9434
:10098000381318160CF4A3CFC701B6010E943D130B
:10099000C1CFC080D180E280F380E1CFCF93DF93DD
:1009A000FC01C281D38190E080E04115510519F02E
:1009B000CA010E944D0499838883DF91CF910895E5
:1009C000CF92DF92EF92FF920F931F93CF93DF931B
:1009D000CDB7DEB729970FB6F894DEBF0FBECDBFF7
:1009E000FC0102811381FA01309739F084818F77FD
:1009F000863071F030F48430C8F560E070E0CB01EF
:100A000021C08A3061F08C3009F46BC08830A9F7BE
:100A1000608171818281938197FF14C0EECF8081C4
:100A20009181A281B38181309105A105F0E8BF07D2
:100A300020F79C01AD0166277727CB01621B730B62
:100A4000840B950BF80160837183828393832996CD
:100A50000FB6F894DEBF0FBECDBFDF91CF911F91CF
:100A60000F91FF90EF90DF90CF900895608171819A
:100A7000CE0101960E94FA0289819A81AB81BC81E4
:100A800029852A3041F02C3071F0283009F0B5CF9B
:100A9000BC01CD01C1CF81309105A10530E8B3077C
:100AA00008F0ABCFC6CFCD80DE80EF80F88420E0A9
:100AB00030E040E05FECC701B6010E94251487FDDD
:100AC0009CCF20E030E040E05FE4C701B6010E9427
:100AD000381318160CF491CFC701B6010E943D13CC
:100AE000B1CFC080D180E280F380E1CF80339CF031
:100AF0008A3324F08F3524F08B3724F481E0089575
:100B000081344CF08B35D4F393ED980F81E0923023
:100B1000B0F380E008958B32B9F7F0CFFC01878104
:100B200081110AC0A481B581CD010196958384838A
:100B30008C91868381E0878386810895FF920F934D
:100B40001F93CF93DF93EC010A811B810E948E05D6
:100B5000F82E1F82CE010E948E051F82F816A9F181
:100B600081110AC061E070E080E090E0DF91CF91F8
:100B70001F910F91FF9008958C35F1F4CE010E94E2
:100B80008E05882379F3853729F464E070E080E0EE
:100B900090E0ECCFE4EBF1E09081992329F0891308
:100BA00008C08181811107C062E070E080E090E0C0
:100BB000DDCF3296F1CF1F82EA81FB819F012F5F4B
:100BC0003F4F3B832A838083C5CFEA81FB81CF01DE
:100BD00001969B838A83108263E070E080E090E05E
:100BE0000115110519F260E070E0CB01C801BECF1C
:100BF0001F93CF93DF93EC01162F0E948E05811374
:100C000006C01F8281E0DF91CF911F91089580E09F
:100C1000FACFCF93DF93EC01CE010E948E058B308B
:100C20003CF489304CF4882349F090E080E008C01F
:100C30008D3011F08032C9F71F82EECF81E090E055
:100C4000DF91CF910895FC0180819181938382830C
:100C50008681978195838483848580788062848768
:100C60001186108613861286BF01685F7F4FCF0101
:100C70000895FC0180819181892B21F460E070E06E
:100C8000CB01089567E476E090E080E00895089550
:100C9000CF93DF93DC01EB01EC81FD818A819B81A5
:100CA0000896E817F90730F4F0E0E0E0CF01DF91B3
:100CB000CF9108953897FD83EC833097A9F312966E
:100CC000CD91DC911397209791F0CF018C1B9D0B58
:100CD00023E0959587952A95E1F78D831396FC93EC
:100CE000EE9312971582148217821682DFCF119627
:100CF000FC93EE93F3CFFC011182108281E082839A
:100D000014821382168215824115510591F0DA0181
:100D100016962D913C91179714968C918095881F6B
:100D20008827881F3183208382835483438376837B
:100D300065830895FC012581222339F0F8E02F0214
:100D400090011124820F931F089590E080E0089590
:100D5000CF92DF92EF92FF921F93CF93DF93FA012E
:100D60003097F1F0248126FF1BC06C01C081D18136
:100D700010E02097A9F0812F90E0880F991FF601CD
:100D8000E280F380E80EF91ECE010E944D04F701C7
:100D9000918380831F5FCE010E949A06EC01E9CF08
:100DA000DF91CF911F91FF90EF90DF90CF9008954A
:100DB000EF92FF920F931F93CF93DF93EC018B0180
:100DC0007A01892B29F18C81982F9F7739F48078CB
:100DD00080648C83198218821B821A828C8186FF20
:100DE00017C088819981009741F00115110591F094
:100DF0000E949A0601501109F6CF015011090E3FC9
:100E00002FEF120739F0B701CE010E944806F5CF47
:100E100090E080E0DF91CF911F910F91FF90EF90D4
:100E2000089542E050E065EC71E086E492E00C94B5
:100E3000D000CF93DF93EC01FB0101900020E9F794
:100E40003197AF01461B570B0E9437022A813B8125
:100E5000820F931F9B838A83DF91CF9108952F92F6
:100E60003F924F925F926F927F928F929F92AF923A
:100E7000BF92CF92DF92EF92FF920F931F93CF9387
:100E8000DF93CDB7DEB76A970FB6F894DEBF0FBE1B
:100E9000CDBF8C014B01DC0114968C9114978F7798
:100EA000863009F46BC2C8F4823000F1843008F057
:100EB0004BC2F8014281538160817181C4010E945B
:100EC0003702D40112962D913C911397820F931FF4
:100ED00013969C938E931297EBC18C3051F148F48A
:100EE000883009F446C28A3009F434C268EC71E0F3
:100EF00052C2803209F403C28034C1F76BE5C401E9
:100F00000E942202F801008111810115110509F4E6
:100F1000F1C1B401C8010E942F07C8010E949A06BE
:100F20008C01892B09F4E6C16CE2C4010E94220203
:100F3000ECCFF8014080518062807380A301920160
:100F4000C301B2010E9438138111D0CF20E030E0FC
:100F5000A901C301B2010E943813882379F0A301CB
:100F60009201C301B2010E94CC129B01AC01C301EA
:100F7000B2010E943813882309F4B8CF20E030E092
:100F8000A901C301B2010E94381387FF08C06DE2B6
:100F9000C4010E94220277FA709477F8709420E8D6
:100FA00036E948E15BE4C301B2010E94251487FDE4
:100FB00079C046E6E42E41E0F42E56E3C52E51E01A
:100FC000D52E6EE4A62E61E0B62E00E210E0312CA4
:100FD000212CD7015E914E913E912E917D01C3014E
:100FE000B2010E94251487FD0DC0F60124893589C0
:100FF00046895789C301B2010E942A142B013C0182
:10100000200E311E15950795F4E0CF1AD108AE14C5
:10101000BF04F9F68FEF8B8B20E030E0A901C3010C
:10102000B2010E94251418160CF043C02CEA35ECCE
:1010300047E257E3C301B2010E9438131816CCF1FE
:10104000AB89B4E0AB0250011124D12CC12CEB8947
:10105000EF3F79F17501EC0CFD1CF701E25EFE4FEC
:10106000A301920160817181828193810E94251484
:1010700018167CF4F701E25BFE4F2081318142813A
:101080005381C301B2010E942A142B013C01201A92
:10109000310A15950795FB89F150FB8B84E0C81A3E
:1010A000D108D5CF00E210E095E09B8B312C212CAC
:1010B000B3CFC301B2010E9444136B8B7C8B8D8B29
:1010C0009E8B6B017C0116E080E492E4AFE0B0E01F
:1010D0008F8B988FA98FBA8F012F11509AE0C91664
:1010E000D104E104F104C8F06F89788D898D9A8D5F
:1010F0002AE030E040E050E00E94AB142F8B388FA4
:10110000498F5A8FC701B6012AE030E040E050E035
:101110000E94AB1469017A01DFCF6B897C898D89CC
:101120009E890E9473139B01AC01C301B2010E940E
:10113000CB126B017C016F89788D898D9A8D0E940D
:1011400073139B01AC01C701B6010E942A142B0145
:101150003C010E9444136B017C010E9473139B01AC
:10116000AC01C301B2010E94CB129B01AC010E94F1
:10117000CC120E944413C60ED71EE81EF91E8F899A
:10118000988DA98DBA8DC816D906EA06FB0600F11E
:101190008B899C89AD89BE890196A11DB11D8B8B60
:1011A0009C8BAD8BBE8B2114310439F10A97A105BC
:1011B000B10518F19FEF291A390AC12CD12C7601FB
:1011C00081E090E0A0E0B0E08B8B9C8BAD8BBE8B80
:1011D0009AE0492E512C612C712CC701B601A30154
:1011E00092010E94AB14672B682B692B51F41016E7
:1011F00044F469017A010150F0CFC12CD12C760161
:10120000E7CF4B895C896D897E89C4010E947A028F
:10121000002309F43FC05E0191E1A90EB11C102F1B
:10122000BA8AA98A8AE0482E512C612C712C11505F
:1012300068F0C701B601A30192010E94AB14605D82
:10124000D5016E935D0169017A01F1CF802F90E0A5
:10125000BC0160957095E989FA89E81BF90B319713
:101260008EE2808344275527461B570BE1E1F0E0CF
:10127000EC0FFD1F6E0F7F1FC4010E943702D401C7
:1012800012962D913C911397820F931F13969C9366
:101290008E93129737FE25C06DEC71E0C4010E9459
:1012A00019076627772762197309C4010E94410252
:1012B0006A960FB6F894DEBF0FBECDBFDF91CF9117
:1012C0001F910F91FF90EF90DF90CF90BF90AF9064
:1012D0009F908F907F906F905F904F903F902F9056
:1012E00008952114310421F365E6C4010E9422020D
:1012F000B101DBCF6DE5C4010E942202D9CF6BE7BB
:10130000C4010E942202D8010D911C910115110502
:10131000C9F0F80166817781C4010E94CD026AE3B9
:10132000C4010E942202B401C8010E942F07C80113
:101330000E949A068C01892B29F06CE2C4010E945C
:101340002202E4CF6DE7D7CF6D917C91C4010E945A
:10135000CD02AECFF801C080D180E280F3806DE293
:10136000C4010E942202B701A601C4010E947A02B0
:101370009FCF4D915D916D917C91F7CFF801808168
:101380009181A281B38160ED71E0892B8A2B8B2B37
:1013900011F465ED71E0C4010E94190789CFCF9364
:1013A000DF9300D000D0CDB7DEB77A8369831C828B
:1013B0001B82BE016F5F7F4F08960E942F078B81B3
:1013C0009C810F900F900F900F90DF91CF91089517
:1013D0000F931F93CF93DF938B01EC01892BA1F027
:1013E0006E817F816017710779F00115110541F059
:1013F0006115710529F0C8010E942616892B21F07C
:10140000CE010E949A06E9CFCE01DF91CF911F91C4
:101410000F9108958F929F92AF92BF92CF92DF92D9
:10142000EF92FF920F931F93CF93DF93CDB7DEB769
:10143000CB54D1090FB6F894DEBF0FBECDBF8C01DF
:101440007B01D42E0E9409062C969FAF8EAF2C975D
:10145000CE01865B9F4F0E943906672B09F099C029
:1014600080FD97C0C8010E948E05873209F48BC1A8
:1014700014F5823209F487C1C8010E948E05C82E76
:10148000CE0101964C01D12C5C018C2D0E94760579
:10149000882309F492C19FE3D91609F48EC1D801BB
:1014A00017961C92D394F401C1924F01C8010E9477
:1014B0008E05C82EEACF8B3509F485C08B37E1F64F
:1014C000F701848180788062848311821082138284
:1014D0001282DD2009F455C1D80117961C92C8016B
:1014E0000E9409069A838983CE0101960E943906DB
:1014F000672B09F0B4C080FDB2C06DE7C8010E943F
:10150000F8058111B7C0DA94C8010E948E058732B0
:1015100009F4BAC0823209F4B7C0F801828093801E
:10152000C8010E948E05A82E0E94760522E030E0B8
:10153000882361F1D80117961C9217971296ED91A6
:10154000FC911397CF01019613969C938E9312975B
:10155000A082C8010E948E05A82E0E9476058111E6
:10156000E9CFD8011296ED91FC911397CF01019626
:1015700013969C938E931297108223E030E081148F
:10158000910421F0B82CC92C30E020E09B2CAC2C2D
:1015900083C02B968FAD2B972C969FAD2C97C55B58
:1015A000DF4F0FB6F894DEBF0FBECDBFDF91CF91F6
:1015B0001F910F91FF90EF90DF90CF90BF90AF9071
:1015C0009F908F900895D70114968C9114978078EE
:1015D000806414968C93149711961C921E92139605
:1015E0001C921E921297DD2009F4CBC0F8011782DD
:1015F000C8010E9409069A838983CE0101960E9440
:101600003906672B61F580FD2AC06DE5C8010E948F
:10161000F80581112FC0DA94D8016D917C91C70132
:101620000E944806009709F4A9C04D2DBC01C801CD
:101630000E940A0A9A838983CE0101960E94390684
:10164000672B69F480FD0BC0C8010E9409069A83CC
:101650008983CE0101960E943906672B19F0898192
:101660009A819DCF80FDFBCF6DE5C8010E94F805F2
:10167000882311F080E083C06CE2C8010E94F80565
:101680008111CACF82E07BC0C8010E949E059B01E8
:101690009B2CAC2CB82EC92E3A832983CE010196FF
:1016A0000E943906672BD9F680FDD9CFC8010E9468
:1016B00009069A838983CE0101960E943906672B19
:1016C00071F680FDCCCF6AE3C8010E94F80588233B
:1016D000C9F26B2D7C2DF701808191810E94E80970
:1016E000BC01892B81F4D8016D917C91C7010E94C6
:1016F0004806FC01892B09F441C0848180688483F9
:10170000B682C782BF014D2DC8010E940A0A9A8382
:101710008983CE0101960E943906672B09F09FCF7D
:1017200080FD9DCFC8010E9409069A838983CE015E
:1017300001960E943906672B09F091CF80FD8FCF6B
:101740006DE7C8010E94F805811194CF6CE2C801D1
:101750000E94F805882309F495CFC8010E94090664
:101760009A838983CE0101960E943906672B09F07E
:1017700076CF80FD74CFB92CCA2CC6CE83E090E022
:101780000ECF85E0FCCFC8010E949E0569837A8355
:101790008B839C83CE0101960E943906672B09F04A
:1017A0005ECF80FD5CCF2B813C81F7018481807806
:1017B00085608483318320835DCFF501ED0DF11DBC
:1017C000108289818437B9F4D70114968C911497CB
:1017D0008078866014968C9381E090E0A0E0B0E081
:1017E000F70180839183A283B38390E0F4E0DF125A
:1017F000D6CE80E0D4CE863689F4D70114968C916B
:1018000014978078866014968C93F7011082118269
:101810001282138281E090E0F5E0E9CF8E3631F458
:1018200081E090E024E0D212BACEE3CFB501CE0140
:101830008F5B9F4F0E94FA0225964CAD5DAD6EAD59
:101840007FAD25972A968FAD2A978A3061F08C302C
:10185000C1F0883009F016CFD70114968C911497F7
:101860008078886006C0D70114968C911497807890
:101870008A6014968C93F70140835183628373834B
:10188000F9CE29964CAD5DAD6EAD7FAD2997D701F0
:1018900014968C91149780788C6014968C93F70131
:1018A0004083518362837383E5CEEF92FF920F935F
:1018B0001F93CF93DF93009701F161157105E9F054
:1018C0007A01EB018C01FC01808191810E94E80981
:1018D000009761F4B701C8010E944806009731F0F3
:1018E000FC0124812F772483D783C683DF91CF9196
:1018F0001F910F91FF90EF90089590E080E0F6CF58
:10190000CF93DF93FC01DB01CA01C281D3816481E3
:101910007581AD010E94550CFC01892B71F0488145
:1019200059816A817B819481907877FD09C09860A4
:1019300094834083518362837383DF91CF910895B1
:101940009A60948370956095509541955F4F6F4F65
:101950007F4FEFCFEF92FF920F931F93CF93DF93C1
:10196000CDB7DEB765970FB6F894DEBF0FBECDBF1B
:101970008C01CE010E969A8389839C838B83089673
:101980009E838D8398878F838D8580788D87CE0108
:1019900001960E942306DC01CB01F801E280F3806E
:1019A00064817581AD010E94550CFC01892B79F091
:1019B000D7014D915D916D917C919481907877FDE7
:1019C0001BC098609483408351836283738366E471
:1019D00072E0CE0101960E94CF090E941107659620
:1019E0000FB6F894DEBF0FBECDBFDF91CF911F9130
:1019F0000F91FF90EF9008959A6094837095609591
:101A0000509541955F4F6F4F7F4FDDCFCF93DF9361
:101A1000FC01DB01CA01C281D38164817581AD0102
:101A20000E94550C009731F068817981DF91CF9148
:101A30000C940202DF91CF910895EF92FF920F93E1
:101A40001F93CF93DF93CDB7DEB765970FB6F894AA
:101A5000DEBF0FBECDBF8C01CE010E969A83898367
:101A60009C838B8308969E838D8398878F838D8537
:101A700080788D87CE0101960E942306DC01CB0180
:101A8000F801E280F38064817581AD010E94550CFC
:101A9000009729F0F701608171810E94020266E4DB
:101AA00072E0CE0101960E94CF090E94110765964F
:101AB0000FB6F894DEBF0FBECDBFDF91CF911F915F
:101AC0000F91FF90EF9008954F925F926F927F92E7
:101AD000AF92BF92CF92DF92EF92FF920F931F933C
:101AE000CF93DF9300D000D000D01F92CDB7DEB7E8
:101AF0006C012A013B0110E000E0F601E280F38076
:101B000064817581C2014A825B826C827D82AC8075
:101B1000BD80A5010E94550CA501B8010E94D80600
:101B2000009751F09801220F331FE20EF31EF701C8
:101B3000608171810E9402020F5F1F4F0330110507
:101B4000E1F627960FB6F894DEBF0FBECDBFDF914A
:101B5000CF911F910F91FF90EF90DF90CF90BF90AA
:101B6000AF907F906F905F904F9008954F925F92EB
:101B70006F927F928F929F92AF92BF92CF92DF929D
:101B8000EF92FF920F931F93CF93DF93CDB7DEB702
:101B9000E4970FB6F894DEBF0FBECDBF5C01CE0157
:101BA0000E969A8389839C838B837E018EE2E80E56
:101BB000F11CFE82ED82F886EF828D8580788D871C
:101BC000CE0101960E9423062B013C0110E000E0AB
:101BD000F501C280D38064817581C2014FA658AAE5
:101BE00069AA7AAA89A89AA8A4010E94550CA401FE
:101BF000B8010E94D806009751F09801220F331FB8
:101C0000C20ED31EF601608171810E9402020F5F35
:101C10001F4F03301105E1F686E492E09FA78EA7DF
:101C200019AA18AAB701CE0109960E942F070E948F
:101C30001107E4960FB6F894DEBF0FBECDBFDF915B
:101C4000CF911F910F91FF90EF90DF90CF90BF90B9
:101C5000AF909F908F907F906F905F904F9008957E
:101C60000C949D150C949D150C949D151F920F922C
:101C70000FB60F9211242F933F934F935F936F935F
:101C80007F938F939F93AF93BF93EF93FF9386E4DC
:101C900092E00E944E01FF91EF91BF91AF919F9111
:101CA0008F917F916F915F914F913F912F910F9005
:101CB0000FBE0F901F9018951F920F920FB60F92A4
:101CC00011242F938F939F93EF93FF93E0915602EC
:101CD000F09157028081E0915C02F0915D0282FDFB
:101CE0001BC0908180915F028F5F8F732091600293
:101CF000821741F0E0915F02F0E0EA5BFD4F958FC3
:101D000080935F02FF91EF919F918F912F910F90A0
:101D10000FBE0F901F9018958081F4CF1F920F92E5
:101D20000FB60F9211242F933F938F939F93AF93EE
:101D3000BF9380913D0290913E02A0913F02B091ED
:101D4000400230913C0226E0230F2D3758F50296D1
:101D5000A11DB11D20933C0280933D0290933E0251
:101D6000A0933F02B09340028091410290914202C1
:101D7000A0914302B09144020196A11DB11D809330
:101D8000410290934202A0934302B0934402BF9158
:101D9000AF919F918F913F912F910F900FBE0F9018
:101DA0001F90189529E8230F0396A11DB11DD2CFCE
:101DB000CF93DF93E6E4F2E01382128288EE93E0A1
:101DC000A0E0B0E084839583A683B78386EA91E0A0
:101DD0009183808385EC90E09587848784EC90E004
:101DE0009787868780EC90E0918B808B81EC90E0E8
:101DF000938B828B82EC90E0958B848B86EC90E0C9
:101E0000978B868B118E128E138E148EC3EED2E0BA
:101E10001882198280E490E09F838E8382E090E0B4
:101E20000E9401159B838A8382E090E00E94011545
:101E30009D838C83DF91CF910895CF93DF93CDB7AE
:101E4000DEB7C555D1090FB6F894DEBF0FBECDBFC2
:101E5000789484B5826084BD84B5816084BD85B585
:101E6000826085BD85B5816085BD80916E00816091
:101E700080936E0010928100809181008260809337
:101E80008100809181008160809381008091800039
:101E90008160809380008091B10084608093B10064
:101EA0008091B00081608093B00080917A0084605E
:101EB00080937A0080917A00826080937A0080918A
:101EC0007A008E7F80937A0080917A008068809378
:101ED0007A001092C100E0915602F091570282E020
:101EE0008083E0915202F09153021082E0915402FB
:101EF000F091550287E6808310925E02E0915A02CB
:101F0000F0915B0286E08083E0915802F0915902E3
:101F1000808180618083E0915802F0915902808134
:101F200088608083E0915802F09159028081806836
:101F30008083E0915802F091590280818F7D8083E7
:101F4000EDE9F0E02491E9E8F0E08491882399F04C
:101F500090E0880F991FFC01E859FF4FA591B491BB
:101F6000FC01EE58FF4F859194918FB7F894EC9156
:101F7000E22BEC938FBFF090E3020091E502109109
:101F8000E602FF20F1F08F2D90E00196880F991F57
:101F90000E940115D82EE92ED801E82FF92F80E0F4
:101FA0002D913D91219331938F5FF812F9CF011557
:101FB000110519F0C8010E949D15D092E502E0922A
:101FC000E60286E090E00E940115DC018AE691E0DD
:101FD00011969C938E938EE091E013969C938E9332
:101FE00012978FED91E015969C938E931497E09045
:101FF000E502F090E6021091E302E12FF0E0EE0F2F
:10200000FF1FEE0DFF1DB183A0831F5F1093E3023E
:102010001123F1F0812F90E00196880F991F0E9403
:102020000115D82E092FD701E82FF92F80E02D9127
:102030003D91219331938F5F8117C8F3E114F1042F
:1020400019F0C7010E949D15D092E5020093E602A7
:1020500086E090E00E940115DC018AE791E011968C
:102060009C938E938CE091E013969C938E931297A1
:1020700084EE91E015969C938E931497E090E50280
:10208000F090E6021091E302E12FF0E0EE0FFF1F67
:10209000EE0DFF1DB183A0831F5F1093E302112398
:1020A000F1F0812F90E00196880F991F0E94011591
:1020B000D82E092FD701E82FF92F80E02D913D91DF
:1020C000219331938F5F8117C8F3E114F10419F064
:1020D000C7010E949D15D092E5020093E60286E0BA
:1020E00090E00E940115FC018AE891E091838083D1
:1020F00086E091E09383828389EE91E095838483E7
:102100009091E302292F30E0220F331FA091E502C6
:10211000B091E602A20FB31FED93FC939F5F9093E3
:10212000E302F090E4020091E7021091E802FF2040
:10213000F1F08F2D90E00196880F991F0E940115F4
:10214000D82EE92ED801E82FF92F80E02D913D916E
:10215000219331938F5FF812F9CF0115110519F012
:10216000C8010E949D15D092E702E092E80286E045
:1021700090E00E940115DC018AE691E011969C93A3
:102180008E9382E091E013969C938E9312978EEE3D
:1021900091E015969C938E931497E090E702F0904F
:1021A000E8021091E402E12FF0E0EE0FFF1FEE0DC8
:1021B000FF1DB183A0831F5F1093E4021123F1F090
:1021C000812F90E00196880F991F0E940115D82E4B
:1021D000092FD701E82FF92F80E02D913D91219310
:1021E00031938F5F8117C8F3E114F10419F0C7012F
:1021F0000E949D15D092E7020093E80286E090E0ED
:102200000E940115DC018AE791E011969C938E9360
:1022100080E091E013969C938E93129783EF91E068
:1022200015969C938E931497E090E702F090E80245
:102230001091E402E12FF0E0EE0FFF1FEE0DFF1D05
:10224000B183A0831F5F1093E4021123F1F0812F6B
:1022500090E00196880F991F0E940115D82E092F32
:10226000D701E82FF92F80E02D913D9121933193F3
:102270008F5F8117C8F3E114F10419F0C7010E94C0
:102280009D15D092E7020093E80286E090E00E945C
:102290000115FC018AE891E09183808382E191E05D
:1022A0009383828388EF91E0958384839091E40205
:1022B000292F30E0220F331FA091E702B091E802EE
:1022C000A20FB31FED93FC939F5F9093E4024DB672
:1022D0005EB68091E9029091EA022DB73EB7281BC5
:1022E000390B0FB6F8943EBF0FBE2DBF8DB79EB70A
:1022F00001963C015E019EE0A90EB11C8E01025CBC
:102300001F4FDE0111964D0186E492E00E942E01DE
:10231000181619060CF0EFC086E492E00E940C013A
:1023200090914502F301E90FF11D8A3081F080831D
:1023300081E0890F809345022091E9023091EA0201
:10234000821713060CF3215020934502DDCF108233
:1023500010924502BA82A982BC82AB821E830D8391
:1023600018870F838D8580788D879FAE8EAE2296DD
:102370007FAE6EAE229724967FAE6EAE24972696E1
:102380001FAE26974AE0BE01675F7F4FC8010E94DB
:102390000A0A2F969FAF8EAF2F97CE01835B9F4F78
:1023A0000E943906672BA9F480FD13C025968FADD6
:1023B0002597882371F08D85982F9F779C3019F091
:1023C0008D77883031F482E090E02F969FAF8EAF0A
:1023D0002F972F96EEACFFAC2F976696FFAEEEAE22
:1023E0006697CE018C5A9F4F0E943906672B09F0E1
:1023F00060C080FD5EC08D85E984FA8485FF84CF4E
:10240000E114F10409F480CFA701B401C8010E94CE
:102410007B0687E0F801DE01AA5BBF4F01900D92B9
:102420008A95E1F787E0FE01EA5BFF4FDE01A35BDF
:10243000BF4F01900D928A95E1F7312C8091E40213
:10244000381690F5C32CD12CCC0CDD1CE091E702A2
:10245000F091E802EC0DFD1D80819181DC01ED9190
:10246000FC910680F781E02D0995BC012F968EAD79
:102470009FAD2F970E942616892BD9F564964CADF7
:102480005DAD6EAD7FAD64978091E7029091E802FB
:10249000C80ED91EF60180819181DC01ED91FC917D
:1024A0000480F581E02D0995C7010E949A067C0100
:1024B000A7CFB6E0EB16F104C8F4F701EE0FFF1F4B
:1024C000EA56FE4F608171816115710561F0FB0173
:1024D00001900020E9F73197AF01461B570B86E4C6
:1024E00092E00E94D0000E9411070ECF6BED71E0C8
:1024F000EECF3394A3CF0FB6F8945EBE0FBE4DBEA1
:1025000080911401909115010797A9F581E00E942F
:1025100088000E94DD016B017C0188EE882E83E03B
:10252000982EA12CB12C0E94DD016C197D098E0919
:102530009F09683E734081059105A8F3B1E08B1AAD
:102540009108A108B108E8EECE0EE3E0DE1EE11C22
:10255000F11C81149104A104B10429F780E090E0FA
:10256000892B09F4B4CE0E943A01882309F4AFCE36
:102570000E940000ACCE80E0CACFCF93DF93C3EEC1
:10258000D2E08A819B810E949D158C819D81DF9183
:10259000CF910C949D155058BB27AA270E94E31297
:1025A0000C94EB130E94DD1338F00E94E41320F02A
:1025B00039F49F3F19F426F40C94DA130EF4E095E5
:1025C000E7FB0C94D413E92F0E94FC1358F3BA17BD
:1025D000620773078407950720F079F4A6F50C9439
:1025E0001E140EF4E0950B2EBA2FA02D0B01B9018D
:1025F00090010C01CA01A0011124FF27591B99F079
:10260000593F50F4503E68F11A16F040A22F232F84
:10261000342F4427585FF3CF469537952795A795D4
:10262000F0405395C9F77EF41F16BA0B620B730B7B
:10263000840BBAF09150A1F0FF0FBB1F661F771FEC
:10264000881FC2F70EC0BA0F621F731F841F48F4A1
:10265000879577956795B795F7959E3F08F0B0CF2A
:102660009395880F08F09927EE0F97958795089511
:102670000E94B01308F481E008950E944413689406
:10268000B1110C941F1408950E94041488F09F57F0
:1026900098F0B92F9927B751B0F0E1F0660F771F86
:1026A000881F991F1AF0BA95C9F714C0B13091F07C
:1026B0000E941E14B1E008950C941E14672F782F09
:1026C0008827B85F39F0B93FCCF386957795679541
:1026D000B395D9F73EF490958095709561957F4FAD
:1026E0008F4F9F4F0895E89409C097FB3EF4909553
:1026F0008095709561957F4F8F4F9F4F9923A9F0DB
:10270000F92F96E9BB279395F69587957795679569
:10271000B795F111F8CFFAF4BB0F11F460FF1BC0AD
:102720006F5F7F4F8F4F9F4F16C0882311F096E940
:1027300011C0772321F09EE8872F762F05C06623EE
:1027400071F096E8862F70E060E02AF09A95660FA7
:10275000771F881FDAF7880F9695879597F9089560
:10276000990F0008550FAA0BE0E8FEEF16161706A2
:10277000E807F907C0F012161306E407F50798F00A
:10278000621B730B840B950B39F40A2661F0232B23
:10279000242B252B21F408950A2609F4A140A6959F
:1027A0008FEF811D811D089597F99F6780E870E084
:1027B00060E008959FEF80EC089500240A941616B7
:1027C000170618060906089500240A94121613061F
:1027D000140605060895092E0394000C11F48823AD
:1027E00052F0BB0F40F4BF2B11F460FF04C06F5FC9
:1027F0007F4F8F4F9F4F089557FD9058440F551F9F
:1028000059F05F3F71F04795880F97FB991F61F072
:102810009F3F79F087950895121613061406551FE9
:10282000F2CF4695F1DF08C0161617061806991F55
:10283000F1CF86957105610508940895E894BB274A
:1028400066277727CB0197F908950E94B01308F403
:102850008FEF08950E943D140C94EB130E94DD133A
:1028600038F00E94E41320F0952311F00C94D41357
:102870000C94DA1311240C941F140E94FC1370F3AF
:10288000959FC1F3950F50E0551F629FF001729F15
:10289000BB27F00DB11D639FAA27F00DB11DAA1F24
:1028A000649F6627B00DA11D661F829F2227B00D71
:1028B000A11D621F739FB00DA11D621F839FA00DFC
:1028C000611D221F749F3327A00D611D231F849F4C
:1028D000600D211D822F762F6A2F11249F575040A3
:1028E0009AF0F1F088234AF0EE0FFF1FBB1F661F1E
:1028F000771F881F91505040A9F79E3F510580F0E7
:102900000C94D4130C941F145F3FE4F3983ED4F35B
:10291000869577956795B795F795E7959F5FC1F78A
:10292000FE2B880F911D9695879597F9089597FB33
:10293000072E16F4009407D077FD09D00E94D81412
:1029400007FC05D03EF4909581959F4F08957095B2
:1029500061957F4F0895A1E21A2EAA1BBB1BFD01B2
:102960000DC0AA1FBB1FEE1FFF1FA217B307E4076E
:10297000F50720F0A21BB30BE40BF50B661F771FC6
:10298000881F991F1A9469F76095709580959095A6
:102990009B01AC01BD01CF0108950E94F214A59FD7
:1029A000900DB49F900DA49F800D911D112408954A
:1029B000AA1BBB1B51E107C0AA1FBB1FA617B70765
:1029C00010F0A61BB70B881F991F5A95A9F7809581
:1029D0009095BC01CD010895EE0FFF1F0590F49175
:1029E000E02D0994A29FB001B39FC001A39F700D79
:1029F000811D1124911DB29F700D811D1124911D07
:102A000008950F931F93CF93DF938230910510F4B5
:102A100082E090E0E091ED02F091EE0230E020E003
:102A2000B0E0A0E0309799F42115310509F44AC0CF
:102A3000281B390B24303105D8F58A819B8161151B
:102A4000710589F1FB0193838283FE0111C04081EE
:102A500051810281138148175907E0F0481759073F
:102A600099F4109761F012960C93129713961C9399
:102A70003296CF01DF91CF911F910F91089500936E
:102A8000ED021093EE02F4CF2115310551F04217FB
:102A9000530738F0A901DB019A01BD01DF01F801FC
:102AA000C1CFEF01F9CF9093EE028093ED02CDCF2D
:102AB000FE01E20FF31F8193919322503109398374
:102AC0002883D7CF2091EB023091EC02232B41F4E5
:102AD00020911A0130911B013093EC022093EB02FC
:102AE00020911801309119012115310541F42DB7BC
:102AF0003EB740911C0150911D01241B350BE09104
:102B0000EB02F091EC02E217F307A0F42E1B3F0B4F
:102B10002817390778F0AC014E5F5F4F241735074F
:102B200048F04E0F5F1F5093EC024093EB028193ED
:102B300091939FCFF0E0E0E09CCFCF93DF9300979D
:102B4000E9F0FC01329713821282A091ED02B0915C
:102B5000EE02ED0130E020E01097A1F420813181F8
:102B6000820F931F2091EB023091EC022817390756
:102B700009F061C0F093EC02E093EB02DF91CF919A
:102B80000895EA01CE17DF07E8F54A815B819E01CF
:102B900041155105B1F7E901FB83EA834991599148
:102BA000C40FD51FEC17FD0761F480819181029657
:102BB000840F951FE90199838883828193819B8388
:102BC0008A83F0E0E0E012968D919C911397009734
:102BD000B9F52D913C911197CD010296820F931F6B
:102BE0002091EB023091EC022817390739F6309723
:102BF00051F51092EE021092ED02B093EC02A09308
:102C0000EB02BCCFD383C28340815181840F951FD7
:102C1000C817D90761F44E5F5F4F88819981480FCB
:102C2000591F518340838A819B819383828321151D
:102C3000310509F0B0CFF093EE02E093ED029ECFA4
:102C4000FD01DC01C0CF13821282D7CFFB01DC0172
:102C50008D91019080190110D9F3990B089510E01E
:102C6000CDE5D0E004C0FE010E94EC142196CE35E3
:082C7000D107C9F7F894FFCF6A
:102C78000200010000000100020003000200010040
:102C880000000100020003000000EF0280000000C5
:102C9800803FCDCCCC3D6F12833A95BFD6337D1D96
:102CA8009026B3CE010CCDCCCC3D0AD7233C17B728
:102CB800D13877CC2B329595E6241FB14F0A000006
:102CC80020410000C84200401C4620BCBE4CCA1B24
:102CD8000E5AAEC59D74000000002102300EE004BB
:102CE8001D02AA0C800C000000002102320ECE0446
:102CF8001D021D0D060D000000002102340EA8065D
:102D08001D02B60D640DFD01000210021D0226020F
:102D18003302000000007001D000FD00BD012E014B
:102D28000C0120012F2F22225C5C6208660C6E0ABF
:102D3800720D7409000D0A006E756C6C00652D002B
:102D4800747275650066616C7365003F3F3F006B88
:102D5800657931006B657932006B657933006B6595
:102D68007934006B657935006B657936004F6B00F7
:102D7800496E636F6D706C657465496E707574002B
:102D8800496E76616C6964496E707574004E6F4D5A
:102D9800656D6F7279004E6F74537570706F7274D1
:0C2DA800656400546F6F446565700000A6
:00000001FF
