:100000000C9436000C945E000C945E000C945E0020
:100010000C945E000C945E000C945E000C945E00E8
:100020000C945E000C945E000C945E000C945E00D8
:100030000C945E000C945E000C945E000C945E00C8
:100040000C9476080C945E000C9444080C941E08E2
:100050000C945E000C945E000C945E000C945E00A8
:100060000C945E000C945E00C008A10A11241FBE0F
:10007000CFEFD8E0DEBFCDBF11E0A0E0B1E0EEEE03
:10008000FBE102C005900D92AC3CB107D9F722E02C
:10009000ACECB1E001C01D92AC38B207E1F710E062
:1000A000C5E3D0E004C02197FE010E94B60CC43322
:1000B000D107C9F70E9427090C94EA0D0C9400009F
:1000C000AF92BF92CF92DF92EF92FF920F931F9366
:1000D000CF93DF936C017B018B01040F151FEB01A4
:1000E0005E01AE18BF08C017D10759F06991D6015B
:1000F000ED91FC910190F081E02DC6010995892BCD
:1001000079F7C501DF91CF911F910F91FF90EF908B
:10011000DF90CF90BF90AF90089542E050E066E945
:1001200071E085ED91E00C946000FC01538D448DED
:10013000252F30E0842F90E0821B930B541710F092
:10014000CF96089501970895FC01918D828D98179F
:1001500061F0A28DAE0FBF2FB11D5D968C91928D77
:100160009F5F9F73928F90E008958FEF9FEF0895A8
:10017000FC01918D828D981731F0828DE80FF11D71
:10018000858D90E008958FEF9FEF0895FC01918D8C
:10019000228D892F90E0805C9F4F821B91098F7385
:1001A0009927089585ED91E00E94C60021E0892BF2
:1001B00009F420E0822F089580E090E0892B29F057
:1001C0000E94D20081110C9400000895FC01A48DBE
:1001D000A80FB92FB11DA35ABF4F2C91848D90E069
:1001E00001968F739927848FA689B7892C93A0894C
:1001F000B1898C91837080648C93938D848D9813D6
:1002000006C00288F389E02D80818F7D8083089568
:10021000EF92FF920F931F93CF93DF93EC0181E056
:10022000888F9B8D8C8D98131AC0E889F9898081FD
:1002300085FF15C09FB7F894EE89FF896083E88930
:10024000F98980818370806480839FBF81E090E022
:10025000DF91CF911F910F91FF90EF900895F62EAF
:100260000B8D10E00F5F1F4F0F731127E02E8C8D49
:100270008E110CC00FB607FCFACFE889F98980818E
:1002800085FFF5CFCE010E94E600F1CFEB8DEC0F9C
:10029000FD2FF11DE35AFF4FF0829FB7F8940B8FAB
:1002A000EA89FB8980818062CFCFCF93DF93EC0115
:1002B000888D8823B9F0AA89BB89E889F9898C914E
:1002C00085FD03C0808186FD0DC00FB607FCF7CF0A
:1002D0008C9185FFF2CF808185FFEDCFCE010E940A
:1002E000E600E9CFDF91CF9108953FB7F894809170
:1002F000D1019091D201A091D301B091D40126B542
:10030000A89B05C02F3F19F00196A11DB11D3FBF4D
:10031000BA2FA92F982F8827BC01CD01620F711D1C
:10032000811D911D43E0660F771F881F991F4A9515
:10033000D1F708958F929F92AF92BF92CF92DF92A2
:10034000EF92FF924B015C010E9475016B017C01F1
:100350000E9475016C197D098E099F09683E7340E2
:1003600081059105A8F321E0821A9108A108B1083E
:1003700088EEC80E83E0D81EE11CF11C81149104A4
:10038000A104B10429F7FF90EF90DF90CF90BF90C8
:10039000AF909F908F90089508950895CF93DF9325
:1003A000EC0188819981DC01ED91FC910190F08153
:1003B000E02D09952A813B81820F931F9B838A83BD
:1003C000DF91CF910895DC018D919C91DC01ED913D
:1003D000FC910280F381E02D0994EF92FF920F933C
:1003E0001F93CF93DF93CDB7DEB766970FB6F89420
:1003F000DEBF0FBECDBF8C01CB01FE0177969F0102
:100400004AE0E42EF12CB7010E946C0C805D8293CF
:10041000CB010097C1F7A9014E1B5F0BBF01C801BB
:100420000E94E301F80122813381820F931F93839D
:10043000828366960FB6F894DEBF0FBECDBFDF9104
:10044000CF911F910F91FF90EF9008958F929F92FF
:10045000AF92BF92CF92DF92EF92FF920F931F93D2
:10046000CF93DF93CDB7DEB766970FB6F894DEBFB4
:100470000FBECDBF7C018E01095E1F4F68018AE06F
:10048000882E912CA12CB12CCB01BA01A50194018D
:100490000E94800C942F852F605DF80162938F017C
:1004A000A901692F782F411551056105710561F783
:1004B000A6014E1B5F0BBF01C7010E94E301F701BC
:1004C00022813381820F931F9383828366960FB6B6
:1004D000F894DEBF0FBECDBFDF91CF911F910F917A
:1004E000FF90EF90DF90CF90BF90AF909F908F9054
:1004F0000895EF92FF920F931F93CF93DF93EC0138
:100500007B0162E20E94CE018701F80161918F01B7
:10051000662391F0E9E9F1E0F280FF2049F032969C
:1005200081816813F9CF6CE5CE010E94CE016F2D59
:10053000CE010E94CE01E9CF62E2CE01DF91CF91E0
:100540001F910F91FF90EF900C94CE01FC019B0145
:10055000AB01770F660B770B9481907837FD07C05E
:1005600098609483408351836283738308959A6073
:10057000948370956095509541955F4F6F4F7F4F75
:10058000F1CFFC0180819181938382838681978161
:100590009583848384858078806284871186108621
:1005A00013861286BF01685F7F4FCF010895CF93F6
:1005B000DF93DC01EB01EC81FD818A819B81089650
:1005C000E817F90730F4F0E0E0E0CF01DF91CF91D8
:1005D00008953897FD83EC833097A9F31296CD9157
:1005E000DC911397209791F0CF018C1B9D0B23E09A
:1005F000959587952A95E1F78D831396FC93EE9355
:1006000012971582148217821682DFCF1196FC93FF
:10061000EE93F3CFFC012581222339F0F8E02F027D
:1006200090011124820F931F089590E080E00895B7
:10063000EF92FF920F931F93CF93DF93EC018B0107
:100640007A01892B29F18C81982F9F7739F4807852
:1006500080648C83198218821B821A828C8186FFA7
:1006600017C088819981009741F00115110591F01B
:100670000E940A0301501109F6CF015011090E3FE3
:100680002FEF120739F0B701CE010E94D702F5CF44
:1006900090E080E0DF91CF911F910F91FF90EF905C
:1006A0000895CF93DF93EC01FB0101900020E9F75F
:1006B0003197AF01461B570B0E94E3012A813B8112
:1006C000820F931F9B838A83DF91CF9108952F928E
:1006D0003F924F925F926F927F928F929F92AF92D2
:1006E000BF92CF92DF92EF92FF920F931F93CF931F
:1006F000DF93CDB7DEB76A970FB6F894DEBF0FBEB3
:10070000CDBF8C014B01DC0114968C9114978F772F
:10071000863009F46BC2C8F4823000F1843008F0EE
:100720004BC2F8014281538160817181C4010E94F2
:10073000E301D40112962D913C911397820F931FE0
:1007400013969C938E931297EBC18C3051F148F421
:10075000883009F446C28A3009F434C26AEA71E08A
:1007600052C2803209F403C28034C1F76BE5C40180
:100770000E94CE01F801008111810115110509F4D3
:10078000F1C1B401C8010E946703C8010E940A03B5
:100790008C01892B09F4E6C16CE2C4010E94CE01F0
:1007A000ECCFF8014080518062807380A3019201F8
:1007B000C301B2010E94140B8111D0CF20E030E0C0
:1007C000A901C301B2010E94140B882379F0A3018F
:1007D0009201C301B2010E94A80A9B01AC01C301AE
:1007E000B2010E94140B882309F4B8CF20E030E056
:1007F000A901C301B2010E94140B87FF08C06DE27A
:10080000C4010E94CE0177FA709477F8709420E8C2
:1008100036E948E15BE4C301B2010E94FA0B87FDAF
:1008200079C04AE5E42E41E0F42E5AE2C52E51E0AB
:10083000D52E62E4A62E61E0B62E00E210E0312C47
:10084000212CD7015E914E913E912E917D01C301E5
:10085000B2010E94FA0B87FD0DC0F601248935898B
:1008600046895789C301B2010E94FF0B2B013C014D
:10087000200E311E15950795F4E0CF1AD108AE145D
:10088000BF04F9F68FEF8B8B20E030E0A901C301A4
:10089000B2010E94FA0B18160CF043C02CEA35EC9A
:1008A00047E257E3C301B2010E94140B1816CCF1C2
:1008B000AB89B4E0AB0250011124D12CC12CEB89DF
:1008C000EF3F79F17501EC0CFD1CF701EE5EFE4F78
:1008D000A301920160817181828193810E94FA0B50
:1008E00018167CF4F701EE5BFE4F208131814281C6
:1008F0005381C301B2010E94FF0B2B013C01201A5E
:10090000310A15950795FB89F150FB8B84E0C81AD5
:10091000D108D5CF00E210E095E09B8B312C212C43
:10092000B3CFC301B2010E94190B6B8B7C8B8D8BF3
:100930009E8B6B017C0116E080E492E4AFE0B0E0B6
:100940008F8B988FA98FBA8F012F11509AE0C916FB
:10095000D104E104F104C8F06F89788D898D9A8DF6
:100960002AE030E040E050E00E94800C2F8B388F6E
:10097000498F5A8FC701B6012AE030E040E050E0CD
:100980000E94800C69017A01DFCF6B897C898D8997
:100990009E890E94480B9B01AC01C301B2010E94D9
:1009A000A70A6B017C016F89788D898D9A8D0E94D1
:1009B000480B9B01AC01C701B6010E94FF0B2B0144
:1009C0003C010E94190B6B017C010E94480B9B01AA
:1009D000AC01C301B2010E94A70A9B01AC010E94B5
:1009E000A80A0E94190BC60ED71EE81EF91E8F8991
:1009F000988DA98DBA8DC816D906EA06FB0600F1B6
:100A00008B899C89AD89BE890196A11DB11D8B8BF7
:100A10009C8BAD8BBE8B2114310439F10A97A10553
:100A2000B10518F19FEF291A390AC12CD12C760192
:100A300081E090E0A0E0B0E08B8B9C8BAD8BBE8B17
:100A40009AE0492E512C612C712CC701B601A301EB
:100A500092010E94800C672B682B692B51F41016B1
:100A600044F469017A010150F0CFC12CD12C7601F8
:100A7000E7CF4B895C896D897E89C4010E9426027B
:100A8000002309F43FC05E0191E1A90EB11C102FB3
:100A9000BA8AA98A8AE0482E512C612C712C1150F7
:100AA00068F0C701B601A30192010E94800C605D4D
:100AB000D5016E935D0169017A01F1CF802F90E03D
:100AC000BC0160957095E989FA89E81BF90B3197AB
:100AD0008EE2808344275527461B570BE1E1F0E067
:100AE000EC0FFD1F6E0F7F1FC4010E94E301D401B4
:100AF00012962D913C911397820F931F13969C93FE
:100B00008E93129737FE25C06FEA71E0C4010E94F0
:100B100051036627772762197309C4010E94ED010A
:100B20006A960FB6F894DEBF0FBECDBFDF91CF91AE
:100B30001F910F91FF90EF90DF90CF90BF90AF90FB
:100B40009F908F907F906F905F904F903F902F90ED
:100B500008952114310421F365E6C4010E94CE01F9
:100B6000B101DBCF6DE5C4010E94CE01D9CF6BE7A7
:100B7000C4010E94CE01D8010D911C9101151105EF
:100B8000C9F0F80166817781C4010E9479026AE3A5
:100B9000C4010E94CE01B401C8010E946703C801CC
:100BA0000E940A038C01892B29F06CE2C4010E9487
:100BB000CE01E4CF6DE7D7CF6D917C91C4010E9447
:100BC0007902AECFF801C080D180E280F3806DE27F
:100BD000C4010E94CE01B701A601C4010E942602F1
:100BE0009FCF4D915D916D917C91F7CFF801808100
:100BF0009181A281B38162EB71E0892B8A2B8B2BCF
:100C000011F467EB71E0C4010E94510389CF9B018D
:100C1000009711F00C9467036AEA71E0C9010C9423
:100C200051030C94580D0C94580D0C94580DCF9200
:100C3000DF92EF92FF920F931F93CF93DF93009772
:100C4000E9F061157105D1F06A018B017C01FC01AD
:100C5000C081D1812097B9F06E817F8160177107C3
:100C600081F06115710529F0C8010E94E10D892B01
:100C700041F0CE010E940A03EC01ECCF90E080E04D
:100C80000EC0CE010CC0B601C7010E94D70200976A
:100C900031F0FC0124812F77248317830683DF91B1
:100CA000CF911F910F91FF90EF90DF90CF9008951B
:100CB000CF93DF93FC01DB01CA01C281D381648140
:100CC0007581AD010E941706FC01892B71F04881E6
:100CD00059816A817B819481907877FD09C0986001
:100CE00094834083518362837383DF91CF9108950E
:100CF0009A60948370956095509541955F4F6F4FC2
:100D00007F4FEFCFCF93DF93FC01DB01CA01C2819C
:100D1000D38164817581AD010E941706009731F07F
:100D200068817981DF91CF910C94A602DF91CF91F8
:100D300008954F925F926F927F92AF92BF92CF923F
:100D4000DF92EF92FF920F931F93CF93DF9300D028
:100D500000D000D01F92CDB7DEB76C012A013B0155
:100D600010E000E0F601E280F38064817581C20149
:100D70004A825B826C827D82AC80BD80A5010E942C
:100D80001706A501B8010E941803009751F09801B9
:100D9000220F331FE20EF31EF701608171810E9462
:100DA000A6020F5F1F4F03301105E1F627960FB61D
:100DB000F894DEBF0FBECDBFDF91CF911F910F9191
:100DC000FF90EF90DF90CF90BF90AF907F906F90AB
:100DD0005F904F9008954F925F926F927F928F92A3
:100DE0009F92AF92BF92CF92DF92EF92FF920F93BA
:100DF0001F93CF93DF93CDB7DEB7E4970FB6F89488
:100E0000DEBF0FBECDBF5C01CE010E969A838983F3
:100E10009C838B837E018EE2E80EF11CFE82ED82C4
:100E2000F886EF828D8580788D87CE0101960E94AD
:100E3000C1022B013C0110E000E0F501C280D3802B
:100E400064817581C2014FA658AA69AA7AAA89A8A5
:100E50009AA8A4010E941706A401B8010E941803D1
:100E6000009751F09801220F331FC20ED31EF601D6
:100E7000608171810E94A6020F5F1F4F0330110530
:100E8000E1F685ED91E09FA78EA719AA18AAB701F0
:100E9000CE0109960E9407060E948D00E4960FB6C7
:100EA000F894DEBF0FBECDBFDF91CF911F910F91A0
:100EB000FF90EF90DF90CF90BF90AF909F908F907A
:100EC0007F906F905F904F900895CF92DF92EF9256
:100ED000FF920F931F93CF93DF93CDB7DEB7699740
:100EE0000FB6F894DEBF0FBECDBF7C01CE010E96CB
:100EF0009A8389839C838B838E010A5E1F4F1E8396
:100F00000D8318870F838D8580788D87CE0101969C
:100F10000E94C102DC01CB01F701C280D380648151
:100F20007581AD010E941706009729F0F6016081D6
:100F300071810E94A60285ED91E09F8B8E8B198EA8
:100F4000188EB801CE0109960E9407060E948D00F6
:100F500069960FB6F894DEBF0FBECDBFDF91CF917B
:100F60001F910F91FF90EF90DF90CF900895CF9257
:100F7000DF92EF92FF920F931F93CF93DF93CDB742
:100F8000DEB769970FB6F894DEBF0FBECDBF7C0108
:100F9000CE010E969A8389839C838B838E010A5E91
:100FA0001F4F1E830D8318870F838D8580788D8753
:100FB000CE0101960E94C102DC01CB01F701C28083
:100FC000D38064817581AD010E941706FC01892BD5
:100FD00079F0D6014D915D916D917C9194819078DD
:100FE00077FD22C09860948340835183628373832A
:100FF00085ED91E09F8B8E8B198E188EB801CE01F6
:1010000009960E9407060E948D0069960FB6F89413
:10101000DEBF0FBECDBFDF91CF911F910F91FF902B
:10102000EF90DF90CF9008959A60948370956095CB
:10103000509541955F4F6F4F7F4FD6CF1F920F92C4
:101040000FB60F9211242F933F934F935F936F939B
:101050007F938F939F93AF93BF93EF93FF9385ED10
:1010600091E00E94E600FF91EF91BF91AF919F91B7
:101070008F917F916F915F914F913F912F910F9041
:101080000FBE0F901F9018951F920F920FB60F92E0
:1010900011242F938F939F93EF93FF93E091E5019A
:1010A000F091E6018081E091EB01F091EC0182FD8D
:1010B0001BC090818091EE018F5F8F732091EF01B3
:1010C000821741F0E091EE01F0E0EB52FE4F958F78
:1010D0008093EE01FF91EF919F918F912F910F904F
:1010E0000FBE0F901F9018958081F4CF1F920F9222
:1010F0000FB60F9211242F933F938F939F93AF932B
:10110000BF938091CD019091CE01A091CF01B0917C
:10111000D0013091CC0126E0230F2D3758F50296EF
:10112000A11DB11D2093CC018093CD019093CE01E0
:10113000A093CF01B093D0018091D1019091D201C1
:10114000A091D301B091D4010196A11DB11D80934E
:10115000D1019093D201A093D301B093D401BF9158
:10116000AF919F918F913F912F910F900FBE0F9054
:101170001F90189529E8230F0396A11DB11DD2CF0A
:10118000CF93DF93E5EDF1E01382128288EE93E0D6
:10119000A0E0B0E084839583A683B7838EE591E0D9
:1011A0009183808385EC90E09587848784EC90E040
:1011B0009787868780EC90E0918B808B81EC90E024
:1011C000938B828B82EC90E0958B848B86EC90E005
:1011D000978B868B118E128E138E148EE2E8F2E0BE
:1011E0008CE891E09183808388E091E0938382830F
:1011F0008DEB91E095838483ECE7F2E08EE791E05C
:101200009183808386E091E09383828382EC91E0F6
:1012100095838483E6E7F2E080E791E09183808321
:1012200080E091E09383828387EC91E095838483CF
:10123000C2E7D2E083E090E09983888386E090E083
:101240000E94BC0C9B838A83DF91CF910895CF933A
:10125000DF93CDB7DEB7C154D1090FB6F894DEBF26
:101260000FBECDBF789484B5826084BD84B58160A3
:1012700084BD85B5826085BD85B5816085BD809161
:101280006E00816080936E001092810080918100D9
:1012900082608093810080918100816080938100D1
:1012A000809180008160809380008091B100846093
:1012B0008093B1008091B00081608093B0008091F4
:1012C0007A00846080937A0080917A0082608093B3
:1012D0007A0080917A008E7F80937A0080917A00E4
:1012E000806880937A001092C100E091E501F0914E
:1012F000E60182E08083E091E101F091E201108259
:10130000E091E301F091E40187E680831092ED0122
:10131000E091E901F091EA0186E08083E091E70144
:10132000F091E801808180618083E091E701F09194
:10133000E801808188608083E091E701F091E80115
:10134000808180688083E091E701F091E8018081ED
:101350008F7D8083E0917402F091750282E892E0C3
:10136000918380838CE792E09383828386E792E087
:10137000958384836E014EE0C40ED11C8E01025C05
:101380001F4F65EDA62E61E0B62E70E0872E70E04F
:10139000972EF12CE12C8091720290917302E81645
:1013A000F906FCF4E0917402F0917502C701880F10
:1013B000991FE80FF91F80819181009771F0DC017E
:1013C00012962D913C912850314039F4DC01ED9179
:1013D000FC910680F781E02D0995BFEFEB1AFB0A1F
:1013E000DACF68EE73E080E090E00E949A01F12C81
:1013F000E12C8091720290917302E816F906F4F4E0
:10140000E0917402F0917502C701880F991FE80FEF
:10141000F91F80819181009769F0FC01228133815D
:101420002650314039F4DC01ED91FC910680F781C2
:10143000E02D0995BFEFEB1AFB0ADBCF68EE73E0F6
:1014400080E090E00E949A01F12CE12C80917202E0
:1014500090917302E816F906F4F4E0917402F091A9
:101460007502C701880F991FE80FF91F80819181CC
:10147000009769F0FC01228133812050314039F41A
:10148000DC01ED91FC910680F781E02D0995BFEF1D
:10149000EB1AFB0ADBCF68EE73E080E090E00E947D
:1014A0009A01DA82C982DC82CB821E830D8318877F
:1014B0000F838D8580788D87CE0101960E94C102B1
:1014C0002B013C01F12CE12C80917202909173026E
:1014D000E816F906C4F4C701880F991FE091740259
:1014E000F0917502E80FF91F80819181DC01ED9187
:1014F000FC910084F185E02DB301A2010995BFEFB5
:10150000EB1AFB0AE1CFBFAEAEAEF8011382128236
:10151000B801CE0109960E9407060E948D0060E482
:101520007FE180E090E00E949A018114910409F427
:1015300030CF0E94D200882309F42BCF0E940000F4
:1015400028CF80917402909175020C94580D5058D8
:10155000BB27AA270E94BF0A0C94C00B0E94B20BA3
:1015600038F00E94B90B20F039F49F3F19F426F4AB
:101570000C94AF0B0EF4E095E7FB0C94A90BE92F4C
:101580000E94D10B58F3BA176207730784079507B7
:1015900020F079F4A6F50C94F30B0EF4E0950B2EE5
:1015A000BA2FA02D0B01B90190010C01CA01A001B5
:1015B0001124FF27591B99F0593F50F4503E68F110
:1015C0001A16F040A22F232F342F4427585FF3CF51
:1015D000469537952795A795F0405395C9F77EF422
:1015E0001F16BA0B620B730B840BBAF09150A1F06B
:1015F000FF0FBB1F661F771F881FC2F70EC0BA0FF1
:10160000621F731F841F48F4879577956795B79578
:10161000F7959E3F08F0B0CF9395880F08F0992773
:10162000EE0F9795879508950E94850B08F481E049
:1016300008950E94D90B88F09F5798F0B92F9927E9
:10164000B751B0F0E1F0660F771F881F991F1AF0AD
:10165000BA95C9F714C0B13091F00E94F30BB1E014
:1016600008950C94F30B672F782F8827B85F39F013
:10167000B93FCCF3869577956795B395D9F73EF446
:1016800090958095709561957F4F8F4F9F4F0895EE
:10169000E89409C097FB3EF490958095709561950C
:1016A0007F4F8F4F9F4F9923A9F0F92F96E9BB27C2
:1016B0009395F695879577956795B795F111F8CF3E
:1016C000FAF4BB0F11F460FF1BC06F5F7F4F8F4FA9
:1016D0009F4F16C0882311F096E911C0772321F09F
:1016E0009EE8872F762F05C0662371F096E8862F37
:1016F00070E060E02AF09A95660F771F881FDAF78E
:10170000880F9695879597F90895990F0008550FBA
:10171000AA0BE0E8FEEF16161706E807F907C0F077
:1017200012161306E407F50798F0621B730B840B7F
:10173000950B39F40A2661F0232B242B252B21F459
:1017400008950A2609F4A140A6958FEF811D811DF9
:10175000089597F99F6780E870E060E008959FEF33
:1017600080EC089500240A94161617061806090638
:10177000089500240A941216130614060506089507
:10178000092E0394000C11F4882352F0BB0F40F48F
:10179000BF2B11F460FF04C06F5F7F4F8F4F9F4FCF
:1017A000089557FD9058440F551F59F05F3F71F051
:1017B0004795880F97FB991F61F09F3F79F08795B8
:1017C0000895121613061406551FF2CF4695F1DF41
:1017D00008C0161617061806991FF1CF86957105D1
:1017E000610508940895E894BB2766277727CB0105
:1017F00097F908950E94850B08F48FEF08950E94D1
:10180000120C0C94C00B0E94B20B38F00E94B90B62
:1018100020F0952311F00C94A90B0C94AF0B11241C
:101820000C94F40B0E94D10B70F3959FC1F3950FAC
:1018300050E0551F629FF001729FBB27F00DB11D54
:10184000639FAA27F00DB11DAA1F649F6627B00DE4
:10185000A11D661F829F2227B00DA11D621F739FCD
:10186000B00DA11D621F839FA00D611D221F749FDB
:101870003327A00D611D231F849F600D211D822F22
:10188000762F6A2F11249F5750409AF0F1F0882349
:101890004AF0EE0FFF1FBB1F661F771F881F915076
:1018A0005040A9F79E3F510580F00C94A90B0C9471
:1018B000F40B5F3FE4F3983ED4F3869577956795F4
:1018C000B795F795E7959F5FC1F7FE2B880F911DA0
:1018D0009695879597F9089597FB072E16F400942F
:1018E00007D077FD09D00E94A20C07FC05D03EF47A
:1018F000909581959F4F0895709561957F4F0895BC
:10190000A1E21A2EAA1BBB1BFD010DC0AA1FBB1F03
:10191000EE1FFF1FA217B307E407F50720F0A21B75
:10192000B30BE40BF50B661F771F881F991F1A94E2
:1019300069F760957095809590959B01AC01BD010C
:10194000CF010895AA1BBB1B51E107C0AA1FBB1FF3
:10195000A617B70710F0A61BB70B881F991F5A953B
:10196000A9F780959095BC01CD010895EE0FFF1F5A
:101970000590F491E02D09940F931F93CF93DF937B
:101980008230910510F482E090E0E0918A02F091BB
:101990008B0230E020E0B0E0A0E0309799F4211510
:1019A000310509F44AC0281B390B24303105D8F51C
:1019B0008A819B816115710589F1FB019383828383
:1019C000FE0111C0408151810281138148175907DE
:1019D000E0F04817590799F4109761F012960C93AC
:1019E000129713961C933296CF01DF91CF911F91DE
:1019F0000F91089500938A0210938B02F4CF211562
:101A0000310551F04217530738F0A901DB019A0163
:101A1000BD01DF01F801C1CFEF01F9CF90938B0237
:101A200080938A02CDCFFE01E20FF31F8193919341
:101A30002250310939832883D7CF209188023091F1
:101A40008902232B41F420910E0130910F01309334
:101A500089022093880220910C0130910D012115FB
:101A6000310541F42DB73EB740911001509111015D
:101A7000241B350BE0918802F0918902E217F307ED
:101A8000A0F42E1B3F0B2817390778F0AC014E5FEE
:101A90005F4F2417350748F04E0F5F1F50938902A0
:101AA00040938802819391939FCFF0E0E0E09CCF38
:101AB000CF93DF930097E9F0FC01329713821282F3
:101AC000A0918A02B0918B02ED0130E020E01097E6
:101AD000A1F420813181820F931F209188023091DF
:101AE00089022817390709F061C0F0938902E09351
:101AF0008802DF91CF910895EA01CE17DF07E8F55C
:101B00004A815B819E0141155105B1F7E901FB83D3
:101B1000EA8349915991C40FD51FEC17FD0761F471
:101B2000808191810296840F951FE90199838883B2
:101B3000828193819B838A83F0E0E0E012968D910D
:101B40009C9113970097B9F52D913C911197CD0178
:101B50000296820F931F20918802309189022817E4
:101B6000390739F6309751F510928B0210928A029C
:101B7000B0938902A0938802BCCFD383C2834081F3
:101B80005181840F951FC817D90761F44E5F5F4FCD
:101B900088819981480F591F518340838A819B8195
:101BA000938382832115310509F0B0CFF0938B0226
:101BB000E0938A029ECFFD01DC01C0CF1382128226
:101BC000D7CFFB01DC018D91019080190110D9F371
:101BD000990B089510E0C5E3D0E004C0FE010E9417
:0E1BE000B60C2196C633D107C9F7F894FFCF93
:101BEE0001000200030002000100000000008C0250
:101BFE0080000000803FCDCCCC3D6F12833A95BF64
:101C0E00D6337D1D9026B3CE010CCDCCCC3D0AD75C
:101C1E00233C17B7D13877CC2B329595E6241FB1DC
:101C2E004F0A000020410000C84200401C4620BC64
:101C3E00BE4CCA1B0E5AAEC59D74000000000801B2
:101C4E00600095005501C600A400B8000000000019
:101C5E00CD011506CC01EB06990600000000CD0162
:101C6E001306CC016507820600000000CD011106A7
:101C7E00CC01B70758060D0A002F2F22225C5C629A
:101C8E0008660C6E0A720D7409006E756C6C006538
:101C9E002D00747275650066616C7365006B6579F5
:0C1CAE0031006B657932006B6579330002
:107800000C94343C0C94513C0C94513C0C94513CE1
:107810000C94513C0C94513C0C94513C0C94513CB4
:107820000C94513C0C94513C0C94513C0C94513CA4
:107830000C94513C0C94513C0C94513C0C94513C94
:107840000C94513C0C94513C0C94513C0C94513C84
:107850000C94513C0C94513C0C94513C0C94513C74
:107860000C94513C0C94513C11241FBECFEFD8E036
:10787000DEBFCDBF11E0A0E0B1E0EAE8FFE702C063
:1078800005900D92A230B107D9F712E0A2E0B1E065
:1078900001C01D92AD30B107E1F70E942D3D0C945F
:1078A000C33F0C94003C982F95959595959595958B
:1078B000905D8F708A307CF0282F295A8091C0000B
:1078C00085FFFCCF9093C6008091C00085FFFCCF60
:1078D0002093C6000895282F205DF0CF982F809127
:1078E000C00085FFFCCF9093C6000895EF92FF92F1
:1078F0000F931F93EE24FF2487018091C00087FD22
:1079000017C00894E11CF11C011D111D81E2E8164D
:1079100081EAF80687E0080780E0180770F3E09135
:107920000401F091050109958091C00087FFE9CF1E
:107930008091C6001F910F91FF90EF9008950E94D3
:10794000763C982F8091C00085FFFCCF9093C600B5
:1079500091362CF490330CF09053892F089597555D
:10796000892F08951F930E949F3C182F0E949F3CCF
:107970001295107F810F1F9108951F93182F882350
:1079800021F00E94763C1150E1F71F9108951F935A
:10799000182F0E94763C803249F0809103018F5F5E
:1079A000809303018530C1F01F9108958091C0003C
:1079B00085FFFCCF84E18093C6008091C00085FFE5
:1079C000FCCF1093C6008091C00085FFFCCF80E102
:1079D0008093C6001F910895E0910401F091050184
:1079E00009951F9108950E94763C803241F0809164
:1079F00003018F5F80930301853081F008958091AA
:107A0000C00085FFFCCF84E18093C6008091C00058
:107A100085FFFCCF80E18093C6000895E0910401CA
:107A2000F09105010995089548EC50E08823A1F0F4
:107A30002D9A28EE33E0FA013197F1F721503040CA
:107A4000D1F72D9828EE33E0FA013197F1F7215064
:107A50003040D1F7815061F708953F924F925F9285
:107A60006F927F928F929F92AF92BF92CF92DF924E
:107A7000EF92FF920F931F93CF93DF93000082E06A
:107A80008093C00080E18093C4001092C50088E11B
:107A90008093C10086E08093C2005098589A259A3E
:107AA00081E00E94143D24E1F22E9EE1E92E85E959
:107AB000D82E0FE0C02E10E1B12EAA24A394B1E479
:107AC0009B2EA6E58A2EF2E57F2EE0E26E2E79E46B
:107AD000572E63E5462E50E5352E0E94763C8033C6
:107AE000B1F18133B9F1803409F46FC0813409F404
:107AF00076C0823409F485C0853409F488C08035A5
:107B000031F1823521F1813511F1853509F485C0D6
:107B1000863509F48DC0843609F496C0843709F49B
:107B200003C1853709F472C1863709F466C08091B4
:107B300003018F5F80930301853079F6E0910401A2
:107B4000F091050109950E94763C803351F60E9420
:107B5000F33CC3CF0E94763C803249F78091C0004D
:107B600085FFFCCFF092C6008091C00085FFFCCF5E
:107B70009092C6008091C00085FFFCCF8092C60025
:107B80008091C00085FFFCCF7092C6008091C0003C
:107B900085FFFCCF6092C6008091C00085FFFCCFBE
:107BA0005092C6008091C00085FFFCCF4092C60075
:107BB0008091C00085FFFCCF3092C6008091C0004C
:107BC00085FFFCCFB092C60088CF0E94763C8638F5
:107BD00008F4BDCF0E94763C0E94F33C7ECF0E9409
:107BE000763C803809F49CC0813809F40BC1823896
:107BF00009F430C1883909F48FC080E00E94C73C85
:107C00006CCF84E10E94BD3C0E94F33C66CF85E0CE
:107C10000E94BD3C0E94F33C60CF0E94763C809362
:107C200006010E94763C809307010E94F33C55CFE9
:107C30000E94763C803309F411C183E00E94BD3C70
:107C400080E00E94C73C49CF0E94763C80930902A5
:107C50000E94763C8093080280910C028E7F809374
:107C60000C020E94763C853409F409C18091080217
:107C700090910902892B89F000E010E00E94763C87
:107C8000F801E85FFE4F80830F5F1F4F809108026D
:107C9000909109020817190788F30E94763C8032F8
:107CA00009F045CF80910C0280FFF5C0609106017C
:107CB00070910701660F771F7093070160930601AB
:107CC000A0910802B09109021097C9F0E8E0F1E034
:107CD0009B01AD014E0F5F1FF999FECF32BD21BD53
:107CE000819180BDFA9AF99A2F5F3F4FE417F5070B
:107CF00099F76A0F7B1F70930701609306018091CB
:107D0000C00085FFFCCFF092C6008091C00085FFC7
:107D1000FCCFB092C600E1CE83E00E94C73CDDCE2E
:107D200082E00E94C73CD9CE0E94763C8093090233
:107D30000E94763C80930802809106019091070191
:107D4000880F991F90930701809306010E94763C4B
:107D5000853409F49AC080910C028E7F80930C02C6
:107D60000E94763C803209F0B8CE8091C00085FF39
:107D7000FCCFF092C600A0910802B09109021097C2
:107D8000C1F180910C02082F0170182F1695117007
:107D9000E0910601F0910701AF014F5F5F4FBA011B
:107DA00020E030E00023B1F4112339F49491809164
:107DB000C00085FFFCCF9093C6002F5F3F4FCB01E3
:107DC0000196FA012A173B0780F4BC014F5F5F4F11
:107DD000002351F3F999FECFF2BDE1BDF89A90B5B9
:107DE0008091C00085FFFCCFE6CF709307016093C0
:107DF00006018091C00085FDE5CE8091C00085FF21
:107E0000F8CFE0CE81E00E94C73C67CE0E94763C6E
:107E1000803209F08CCE8091C00085FFFCCFF092BB
:107E2000C6008091C00085FFFCCFE092C600809123
:107E3000C00085FFFCCFD092C6008091C00085FFB6
:107E4000FCCFC092C6008091C00085FFFCCFB092ED
:107E5000C60043CE80E10E94C73C3FCE0E94763CE4
:107E60000E94763C182F0E94763C112309F483C0AF
:107E7000113009F484C08FE00E94C73C2ECE80915F
:107E80000C02816080930C02F1CE80910C02816023
:107E900080930C0265CF809107018823880F880B9F
:107EA0008A2180930B028091060190910701880F2F
:107EB000991F90930701809306018091080280FF2B
:107EC00009C08091080290910902019690930902DD
:107ED00080930802F894F999FECF1127E0910601EA
:107EE000F0910701C8E0D1E0809108029091090269
:107EF000103091F40091570001700130D9F303E084
:107F000000935700E8950091570001700130D9F3B4
:107F100001E100935700E8950990199000915700EE
:107F200001700130D9F301E000935700E8951395F3
:107F3000103498F011270091570001700130D9F3E7
:107F400005E000935700E89500915700017001305B
:107F5000D9F301E100935700E8953296029709F0B2
:107F6000C7CF103011F00296E5CF11248091C000E8
:107F700085FFC5CEC8CE8EE10E94C73CAECD85E957
:0A7F80000E94C73CAACDF894FFCF81
:027F8A00800075
:040000030000780081
:00000001FF
