:100000000C9462000C94960D0C946F0D0C948A0065
:100010000C948A000C948A000C94D80E0C948A00DC
:100020000C948A000C948A000C948A000C948A0028
:100030000C948A000C948A000C948A000C948A0018
:100040000C94250D0C948A000C94F30C0C94CD0C9C
:100050000C948A000C948A000C948A000C948A00F8
:100060000C94BD0D0C948A000000000024002700B1
:100070002A0000000000250028002B0000000000DE
:1000800023002600290004040404040404040202DA
:100090000202020203030303030301020408102007
:1000A0004080010204081020010204081020000012
:1000B0000008000201000003040700000000000027
:1000C0000000EF0E11241FBECFEFD8E0DEBFCDBF82
:1000D00012E0A0E0B1E0E2E3FBE202C005900D9285
:1000E000A631B107D9F723E0A6E1B2E001C01D9225
:1000F000A036B207E1F710E0C2E6D0E004C02197D5
:10010000FE010E947915C136D107C9F70E94640F1C
:100110000C9497150C9400008EE6809319010895B5
:1001200088E7809319010895AF92BF92CF92DF9232
:10013000EF92FF920F931F93CF93DF936C017B019C
:100140008B01040F151FEB015E01AE18BF08C0172D
:10015000D10759F06991D601ED91FC910190F081A0
:10016000E02DC6010995892B79F7C501DF91CF9163
:100170001F910F91FF90EF90DF90CF90BF90AF90C5
:100180000895FC01538D448D252F30E0842F90E09D
:10019000821B930B541710F0CF9608950197089582
:1001A000FC01918D828D981761F0A28DAE0FBF2F4B
:1001B000B11D5D968C91928D9F5F9F73928F90E0A1
:1001C00008958FEF9FEF0895FC01918D828D981710
:1001D00031F0828DE80FF11D858D90E008958FEF4D
:1001E0009FEF0895FC01918D228D892F90E0805C16
:1001F0009F4F821B91098F73992708958EEB92E090
:100200000E94F20021E0892B09F420E0822F08955A
:1002100080E090E0892B29F00E94FE0081110C946F
:1002200000000895FC01A48DA80FB92FB11DA35A99
:10023000BF4F2C91848D90E001968F739927848F06
:10024000A689B7892C93A089B1898C918370806429
:100250008C93938D848D981306C00288F389E02DCA
:1002600080818F7D80830895EF92FF920F931F937B
:10027000CF93DF93EC0181E0888F9B8D8C8D981359
:100280001AC0E889F989808185FF15C09FB7F89465
:10029000EE89FF896083E889F989808183708064B1
:1002A00080839FBF81E090E0DF91CF911F910F91FC
:1002B000FF90EF900895F62E0B8D10E00F5F1F4F0B
:1002C0000F731127E02E8C8D8E110CC00FB607FC1A
:1002D000FACFE889F989808185FFF5CFCE010E94A8
:1002E0001201F1CFEB8DEC0FFD2FF11DE35AFF4F03
:1002F000F0829FB7F8940B8FEA89FB898081806236
:10030000CFCFCF93DF93EC01888D8823B9F0AA89F2
:10031000BB89E889F9898C9185FD03C0808186FDC0
:100320000DC00FB607FCF7CF8C9185FFF2CF80810F
:1003300085FFEDCFCE010E941201E9CFDF91CF9171
:100340000895833081F028F4813099F08230A9F04B
:1003500008958730A9F08830C9F08430B1F48091D5
:1003600080008F7D03C0809180008F778093800014
:10037000089584B58F7784BD089584B58F7DFBCFB4
:100380008091B0008F778093B00008958091B00085
:100390008F7DF9CFCF93DF93282F30E0F901E2551D
:1003A000FF4F8491F901E656FF4FD491F901EA57C6
:1003B000FF4FC491CC23A1F081110E94A101EC2F29
:1003C000F0E0EE0FFF1FE458FF4FA591B491EC91C0
:1003D000ED2381E090E009F480E0DF91CF91089572
:1003E00080E090E0FACF1F93CF93DF93282F30E087
:1003F000F901E255FF4F8491F901E656FF4FD49180
:10040000F901EA57FF4FC491CC23A9F0162F8111AF
:100410000E94A101EC2FF0E0EE0FFF1FEE58FF4FFE
:10042000A591B4918FB7F894EC91111108C0D095B3
:10043000DE23DC938FBFDF91CF911F910895DE2BD8
:10044000F8CFCF93DF9390E0FC01E656FF4F249165
:100450008A579F4FFC0184918823D1F090E0880F48
:10046000991FFC01E859FF4FA591B491FC01EE588A
:10047000FF4FC591D49161110EC09FB7F8948C9134
:10048000E22FE0958E238C932881E223E8839FBF9F
:10049000DF91CF9108958FB7F894EC91E22BEC9314
:1004A0008FBFF6CF8E3008F08E50877080648093B7
:1004B0007C0080917A00806480937A0080917A0039
:1004C00086FDFCCF809178009091790008953FB728
:1004D000F8948091860290918702A0918802B09151
:1004E000890226B5A89B05C02F3F19F00196A11DD2
:1004F000B11D3FBFBA2FA92F982F8827BC01CD016E
:10050000620F711D811D911D43E0660F771F881FCB
:10051000991F4A95D1F708952FB7F89460918202F8
:100520007091830280918402909185022FBF08957B
:10053000089585ED8093BC008091BC0084FDFCCFC4
:1005400010925B02089520913702260F3327331F44
:1005500021323105ECF420915B02FC0190E080E057
:10056000243069F082E00895A09137022191AC0116
:10057000495E5D4FA40FB52FB11D2C9301968617D0
:1005800098F380913702680F6093370280E00895F6
:1005900081E0089508958FEF9FEF08958FEF9FEF0B
:1005A00008958091160290E09195819591090895A2
:1005B000CF93DF93CB01EA01642F0E94A302CE0107
:1005C000DF91CF910895CF93DF931F92CDB7DEB720
:1005D000698361E0CE0101960E94A30281E090E070
:1005E0000F90DF91CF91089590E080E0089541153C
:1005F000510529F4EAE7F0E080818F7780836A3043
:100600007105B9F0CB01880F991F880F991F80726F
:1006100067706860682B88E10FB6F894A89580939E
:1006200060000FBE60936000E0E6F0E080818064CF
:100630008083232BD9F483B7817F846083BFF894B0
:1006400083B7816083BF85B7806685BF8F7D85BF97
:100650007894889583B78E7F83BF7894452B29F44F
:10066000EAE7F0E0808180688083089583B7817F26
:10067000846083BFF89483B7816083BF7894889542
:1006800083B78E7F83BF7894E9CFCF93DF93EC015C
:1006900088819981DC01ED91FC910190F081E02D40
:1006A00009952A813B81820F931F9B838A83DF9167
:1006B000CF910895DC018D919C91DC01ED91FC912D
:1006C0000280F381E02D0994EF92FF920F931F9324
:1006D000CF93DF93CDB7DEB766970FB6F894DEBF42
:1006E0000FBECDBF8C01CB01FE0177969F014AE082
:1006F000E42EF12CB7010E942415805D8293CB017A
:100700000097C1F7A9014E1B5F0BBF01C8010E94F2
:100710005A03F80122813381820F931F93838283CE
:1007200066960FB6F894DEBF0FBECDBFDF91CF91B6
:100730001F910F91FF90EF9008958F929F92AF922B
:10074000BF92CF92DF92EF92FF920F931F93CF93BE
:10075000DF93CDB7DEB766970FB6F894DEBF0FBE56
:10076000CDBF7C018E01095E1F4F68018AE0882E93
:10077000912CA12CB12CCB01BA01A50194010E94AE
:100780003815942F852F605DF80162938F01A901C0
:10079000692F782F411551056105710561F7A60193
:1007A0004E1B5F0BBF01C7010E945A03F701228154
:1007B0003381820F931F9383828366960FB6F894DA
:1007C000DEBF0FBECDBFDF91CF911F910F91FF9084
:1007D000EF90DF90CF90BF90AF909F908F90089553
:1007E000EF92FF920F931F93CF93DF93EC017B0166
:1007F00062E20E9445038701F80161918F0166233F
:1008000091F0E1E9F1E0F280FF2049F03296818138
:100810006813F9CF6CE5CE010E9445036F2DCE0120
:100820000E944503E9CF62E2CE01DF91CF911F9193
:100830000F91FF90EF900C9445034F925F926F924F
:100840007F928F929F92AF92BF92DF92EF92FF9230
:100850000F931F93CF93DF938C01EB0188818B3231
:10086000D1F18D32C9F52196EE24E394888190ED83
:10087000980F9A3010F08E3289F560E070E0CB016D
:10088000FE012191A0ED8A2E820E39E0381508F480
:1008900040C06A3929E97207820729E1920708F006
:1008A0004DC0AAE0B0E09B01AC010E945A15912C0A
:1008B000B12CA12C24013501409450946094709483
:1008C0004616570668067906C8F1680D791D8A1D17
:1008D0009B1DEF01D5CF2196E12CC8CFF8011082E6
:1008E0001182128213821482158216821782108658
:1008F000C801DF91CF911F910F91FF90EF90DF9092
:10090000BF90AF909F908F907F906F905F904F902F
:100910000895211113C0F80160837183828393834A
:100920000E940014F80164837583868397838AE0AC
:10093000E11001C088E0F8018087DACFF12CEAE00D
:100940008E2E912CA12CB12C61157105F0E88F072A
:10095000910540F0A50194010E943815CA01B90122
:10096000F394F2CFFE01299130ED320F3A3010F4BA
:10097000F394F8CF2E32F1F4EF012196FE01219687
:10098000208150EDD52ED20E29E02D1598F06C3C2B
:100990003CEC73073CE08307910580F7AAE0B0E0E8
:1009A0009B01AC010E945A156D0D711D811D911D99
:1009B000FA94E4CF20812F7DD0E0C0E0253409F007
:1009C0004FC021812D32A9F53296BB24B394DF01AB
:1009D000D0E0C0E02F2D0F2C000C330B4AE0A42EEA
:1009E000FD01DD9040ED4D0D4A30A8F5AC9EA00113
:1009F000AD9E500D1124CD2DDD0CDD0BE097C40F05
:100A0000D51FAE01420F531F473251054CF3BB2097
:100A1000B9F080E090E0A0E0B0E8E11003C080E031
:100A200090E0DC01F80184839583A683B7838CE092
:100A300083CF2B3219F03196B12CC9CF3296FCCF2F
:100A400080E090E0A0E8BFEFE110ECCF80E090E024
:100A5000A0E8BFE7E7CFBB2019F0D195C195D10938
:100A6000208121113BCFCF0DD11DF7FCDA950E94DB
:100A700000141C161D06E4F4F12CC0FF0CC024E089
:100A8000F29EF0011124E65BFE4F2081318142810C
:100A900053810E94B714D595C795F394209769F7B1
:100AA000E1109058F8016483758386839783BFCFE4
:100AB000D195C195D109F12C209791F3C0FF0CC0BD
:100AC00024E0F29EF0011124EE5CFE4F2081318182
:100AD000428153810E94B714D595C795F394ECCF0A
:100AE00080339CF08A3324F08F3524F08B3724F444
:100AF00081E0089581344CF08B35D4F393ED980F59
:100B000081E09230B0F380E008958B32B9F7F0CFF6
:100B1000FC01878181110AC0A481B581CD010196B4
:100B2000958384838C91868381E087838681089571
:100B3000FF920F931F93CF93DF93EC010A811B81E8
:100B40000E948805F82E1F82CE010E9488051F8210
:100B5000F816A9F181110AC061E070E080E090E030
:100B6000DF91CF911F910F91FF9008958C35F1F493
:100B7000CE010E948805882379F3853729F464E043
:100B800070E080E090E0ECCFE1E9F1E09081992322
:100B900029F0891308C08181811107C062E070E0EB
:100BA00080E090E0DDCF3296F1CF1F82EA81FB81B9
:100BB0009F012F5F3F4F3B832A838083C5CFEA810C
:100BC000FB81CF0101969B838A83108263E070E0F2
:100BD00080E090E00115110519F260E070E0CB01B2
:100BE000C801BECF1F93CF93DF93EC01162F0E9455
:100BF0008805811306C01F8281E0DF91CF911F918C
:100C0000089580E0FACFCF93DF93EC01CE010E94EC
:100C100088058B303CF489304CF4882349F090E00F
:100C200080E008C08D3011F08032C9F71F82EECF0E
:100C300081E090E0DF91CF91089508950895FC013F
:100C400080819181892B21F460E070E0CB010895CF
:100C50006DE276E090E080E008950895CF93DF9311
:100C6000DC01EB01EC81FD818A819B810896E8170C
:100C7000F90730F4F0E0E0E0CF01DF91CF91089583
:100C80003897FD83EC833097A9F31296CD91DC91D0
:100C90001397209791F0CF018C1B9D0B23E0959526
:100CA00087952A95E1F78D831396FC93EE9312971F
:100CB0001582148217821682DFCF1196FC93EE9371
:100CC000F3CFFC011182108281E0828314821382AF
:100CD000168215824115510591F0DA0116962D9173
:100CE0003C91179714968C918095881F8827881FB0
:100CF000318320838283548343837683658308957D
:100D0000FC012581222339F0F8E02F029001112403
:100D1000820F931F089590E080E0089580915B0317
:100D2000882319F010925D03089560E084E00E942A
:100D3000F301F8CF8F929F92AF92BF920F931F93C0
:100D4000CF93DF93CDB7DEB7A1970FB6F894DEBF90
:100D50000FBECDBF19A2423008F44AE08E010F5DEC
:100D60001F4F842E912CB12CA12CA50194010E941F
:100D70003815E62FB901CA01EA3044F5E05DD80123
:100D8000EE938D01232B242B252B79F790E080E027
:100D9000109769F0FD0101900020E9F73197AF014C
:100DA0004A1B5B0BBD018EEB92E00E949400A19662
:100DB0000FB6F894DEBF0FBECDBFDF91CF911F916C
:100DC0000F91BF90AF909F908F900895E95CD7CF1F
:100DD00042E050E062EA71E08EEB92E00C94940005
:100DE000CF93DF93BC01990F880B990B4AE00E94C7
:100DF0009A06EC010E94E8068C0F9D1FDF91CF91AF
:100E0000089584E090E00C94F00683E090E00C9468
:100E1000F00682E090E00C94F00681E090E00C9403
:100E2000F00690E080E00C94F006CF93DF93EC01A5
:100E3000FB0101900020E9F73197AF01461B570BEA
:100E40000E945A032A813B81820F931F9B838A83CE
:100E5000DF91CF9108952F923F924F925F926F92C0
:100E60007F928F929F92AF92BF92CF92DF92EF923A
:100E7000FF920F931F93CF93DF93CDB7DEB76A979F
:100E80000FB6F894DEBF0FBECDBF8C014B01DC0165
:100E900014968C9114978F77863009F46BC2C8F43E
:100EA000823000F1843008F04BC2F8014281538156
:100EB00060817181C4010E945A03D40112962D9160
:100EC0003C911397820F931F13969C938E931297C6
:100ED000EBC18C3051F148F4883009F446C28A30B5
:100EE00009F434C265EA71E052C2803209F403C2E7
:100EF0008034C1F76BE5C4010E944503F80100810D
:100F000011810115110509F4F1C1B401C8010E9454
:100F10002B07C8010E9480068C01892B09F4E6C1C9
:100F20006CE2C4010E944503ECCFF801408051807F
:100F300062807380A3019201C301B2010E94CC13AD
:100F40008111D0CF20E030E0A901C301B2010E949D
:100F5000CC13882379F0A3019201C301B2010E944E
:100F600060139B01AC01C301B2010E94CC13882322
:100F700009F4B8CF20E030E0A901C301B2010E941A
:100F8000CC1387FF08C06DE2C4010E94450377FAC5
:100F9000709477F8709420E836E948E15BE4C30187
:100FA000B2010E94B21487FD79C042E6E42E41E00E
:100FB000F42E52E3C52E51E0D52E6AE4A62E61E050
:100FC000B62E00E210E0312C212CD7015E914E911B
:100FD0003E912E917D01C301B2010E94B21487FDA2
:100FE0000DC0F6012489358946895789C301B201AC
:100FF0000E94B7142B013C01200E311E1595079558
:10100000F4E0CF1AD108AE14BF04F9F68FEF8B8B42
:1010100020E030E0A901C301B2010E94B214181609
:101020000CF043C02CEA35EC47E257E3C301B201B0
:101030000E94CC131816CCF1AB89B4E0AB0250017E
:101040001124D12CC12CEB89EF3F79F17501EC0C07
:10105000FD1CF701E65EFE4FA301920160817181E4
:10106000828193810E94B21418167CF4F701E65B2A
:10107000FE4F2081318142815381C301B2010E9420
:10108000B7142B013C01201A310A15950795FB89ED
:10109000F150FB8B84E0C81AD108D5CF00E210E0F4
:1010A00095E09B8B312C212CB3CFC301B2010E9460
:1010B000D1136B8B7C8B8D8B9E8B6B017C0116E02F
:1010C00080E492E4AFE0B0E08F8B988FA98FBA8F65
:1010D000012F11509AE0C916D104E104F104C8F0BF
:1010E0006F89788D898D9A8D2AE030E040E050E05C
:1010F0000E9438152F8B388F498F5A8FC701B60140
:101100002AE030E040E050E00E94381569017A01A1
:10111000DFCF6B897C898D899E890E9400149B0199
:10112000AC01C301B2010E945F136B017C016F89A6
:10113000788D898D9A8D0E9400149B01AC01C701A6
:10114000B6010E94B7142B013C010E94D1136B0120
:101150007C010E9400149B01AC01C301B2010E94FA
:101160005F139B01AC010E9460130E94D113C60E55
:10117000D71EE81EF91E8F89988DA98DBA8DC816C5
:10118000D906EA06FB0600F18B899C89AD89BE89E8
:101190000196A11DB11D8B8B9C8BAD8BBE8B211439
:1011A000310439F10A97A105B10518F19FEF291A09
:1011B000390AC12CD12C760181E090E0A0E0B0E0AA
:1011C0008B8B9C8BAD8BBE8B9AE0492E512C612C66
:1011D000712CC701B601A30192010E943815672B3B
:1011E000682B692B51F4101644F469017A010150FF
:1011F000F0CFC12CD12C7601E7CF4B895C896D896A
:101200007E89C4010E949D03002309F43FC05E0152
:1012100091E1A90EB11C102FBA8AA98A8AE0482E42
:10122000512C612C712C115068F0C701B601A3013B
:1012300092010E943815605DD5016E935D016901D0
:101240007A01F1CF802F90E0BC0160957095E9891B
:10125000FA89E81BF90B31978EE2808344275527E2
:10126000461B570BE1E1F0E0EC0FFD1F6E0F7F1FF7
:10127000C4010E945A03D40112962D913C911397F8
:10128000820F931F13969C938E93129737FE25C05F
:101290006AEA71E0C4010E94150766277727621980
:1012A0007309C4010E9464036A960FB6F894DEBF06
:1012B0000FBECDBFDF91CF911F910F91FF90EF90A7
:1012C000DF90CF90BF90AF909F908F907F906F9066
:1012D0005F904F903F902F9008952114310421F397
:1012E00065E6C4010E944503B101DBCF6DE5C40191
:1012F0000E944503D9CF6BE7C4010E944503D80182
:101300000D911C9101151105C9F0F80166817781D5
:10131000C4010E94F0036AE3C4010E944503B401C2
:10132000C8010E942B07C8010E9480068C01892BEE
:1013300029F06CE2C4010E944503E4CF6DE7D7CFEA
:101340006D917C91C4010E94F003AECFF801C08082
:10135000D180E280F3806DE2C4010E944503B701B1
:10136000A601C4010E949D039FCF4D915D916D9197
:101370007C91F7CFF80180819181A281B3816DEAE0
:1013800071E0892B8A2B8B2B11F462EB71E0C40185
:101390000E94150789CFCF93DF9300D000D0CDB73F
:1013A000DEB77A8369831C821B82BE016F5F7F4F29
:1013B00008960E942B078B819C810F900F900F90B5
:1013C0000F90DF91CF9108950F931F93CF93DF93E9
:1013D0008B01EC01892BA1F06E817F816017710771
:1013E00079F00115110541F06115710529F0C80169
:1013F0000E948E15892B21F0CE010E948006E9CF34
:10140000CE01DF91CF911F910F9108958F929F92FE
:10141000AF92BF92CF92DF92EF92FF920F931F9302
:10142000CF93DF93CDB7DEB7CB54D1090FB6F89485
:10143000DEBF0FBECDBF8C017B01D42E0E94030600
:101440002C969FAF8EAF2C97CE01865B9F4F0E944C
:101450001F06672B09F099C080FD97C0C8010E9444
:101460008805873209F48BC114F5823209F487C1EB
:10147000C8010E948805C82ECE0101964C01D12CCE
:101480005C018C2D0E947005882309F492C19FE3B2
:10149000D91609F48EC1D80117961C92D394F40181
:1014A000C1924F01C8010E948805C82EEACF8B3532
:1014B00009F485C08B37E1F6F7018481807880627A
:1014C00084831182108213821282DD2009F455C1B7
:1014D000D80117961C92C8010E9403069A8389833B
:1014E000CE0101960E941F06672B09F0B4C080FD53
:1014F000B2C06DE7C8010E94F2058111B7C0DA944D
:10150000C8010E948805873209F4BAC0823209F402
:10151000B7C0F80182809380C8010E948805A82E78
:101520000E94700522E030E0882361F1D80117960F
:101530001C9217971296ED91FC911397CF0101968B
:1015400013969C938E931297A082C8010E948805DF
:10155000A82E0E9470058111E9CFD8011296ED9155
:10156000FC911397CF01019613969C938E9312973B
:10157000108223E030E08114910421F0B82CC92CB2
:1015800030E020E09B2CAC2C83C02B968FAD2B97AA
:101590002C969FAD2C97C55BDF4F0FB6F894DEBF3E
:1015A0000FBECDBFDF91CF911F910F91FF90EF90B4
:1015B000DF90CF90BF90AF909F908F900895D7010C
:1015C00014968C9114978078806414968C93149759
:1015D00011961C921E9213961C921E921297DD2059
:1015E00009F4CBC0F8011782C8010E9403069A8350
:1015F0008983CE0101960E941F06672B61F580FD4D
:101600002AC06DE5C8010E94F20581112FC0DA944D
:10161000D8016D917C91C7010E942E06009709F4B4
:10162000A9C04D2DBC01C8010E94060A9A83898376
:10163000CE0101960E941F06672B69F480FD0BC046
:10164000C8010E9403069A838983CE0101960E94F5
:101650001F06672B19F089819A819DCF80FDFBCFF2
:101660006DE5C8010E94F205882311F080E083C077
:101670006CE2C8010E94F2058111CACF82E07BC0F2
:10168000C8010E9498059B019B2CAC2CB82EC92E3A
:101690003A832983CE0101960E941F06672BD9F653
:1016A00080FDD9CFC8010E9403069A838983CE01A9
:1016B00001960E941F06672B71F680FDCCCF6AE36E
:1016C000C8010E94F2058823C9F26B2D7C2DF70119
:1016D000808191810E94E409BC01892B81F4D801A9
:1016E0006D917C91C7010E942E06FC01892B09F4A3
:1016F00041C0848180688483B682C782BF014D2D3A
:10170000C8010E94060A9A838983CE0101960E942D
:101710001F06672B09F09FCF80FD9DCFC8010E9457
:1017200003069A838983CE0101960E941F06672BC8
:1017300009F091CF80FD8FCF6DE7C8010E94F205BF
:10174000811194CF6CE2C8010E94F205882309F44C
:1017500095CFC8010E9403069A838983CE01019622
:101760000E941F06672B09F076CF80FD74CFB92C3D
:10177000CA2CC6CE83E090E00ECF85E0FCCFC80136
:101780000E94980569837A838B839C83CE0101969E
:101790000E941F06672B09F05ECF80FD5CCF2B8176
:1017A0003C81F70184818078856084833183208344
:1017B0005DCFF501ED0DF11D108289818437B9F4FB
:1017C000D70114968C9114978078866014968C9328
:1017D00081E090E0A0E0B0E0F70180839183A283F4
:1017E000B38390E0F4E0DF12D6CE80E0D4CE86362C
:1017F00089F4D70114968C9114978078866014969A
:101800008C93F701108211821282138281E090E0A2
:10181000F5E0E9CF8E3631F481E090E024E0D21299
:10182000BACEE3CFB501CE018F5B9F4F0E941D045E
:1018300025964CAD5DAD6EAD7FAD25972A968FADEB
:101840002A978A3061F08C30C1F0883009F016CFC9
:10185000D70114968C9114978078886006C0D701C0
:1018600014968C91149780788A6014968C93F70163
:101870004083518362837383F9CE29964CAD5DAD6D
:101880006EAD7FAD2997D70114968C91149780780F
:101890008C6014968C93F701408351836283738329
:1018A000E5CEEF92FF920F931F93CF93DF93EC015E
:1018B0008C81982F9F7739F4807880628C8319828D
:1018C00018821B821A828C8185FF1EC061157105EA
:1018D000D9F07A018B01888199810E94E4090097EF
:1018E00061F4B701CE010E942E06009731F0FC0191
:1018F00024812F77248317830683DF91CF911F9153
:101900000F91FF90EF90089590E080E0F6CF1F9345
:10191000CF93DF93CDB7DEB765970FB6F894DEBFF0
:101920000FBECDBFFC01162F9E01225F3F4F3A83B1
:1019300029833C832B83285F3F4F3E832D83388749
:101940002F839D8590789D87AE014F5F5F4FBF01CC
:10195000CE0109960E94510CFC01892B61F0948103
:10196000907898609483812F90E0B0E0A0E080832D
:101970009183A283B3836EEB72E0CE0101960E9445
:10198000CB090E94E80665960FB6F894DEBF0FBE3D
:10199000CDBFDF91CF911F9108951F920F920FB687
:1019A0000F9211242F933F934F935F936F937F93E5
:1019B0008F939F93AF93BF93EF93FF938EEB92E040
:1019C0000E941201FF91EF91BF91AF919F918F9172
:1019D0007F916F915F914F913F912F910F900FBE2B
:1019E0000F901F9018951F920F920FB60F9211240F
:1019F0002F938F939F93EF93FF93E091CE02F091FB
:101A0000CF028081E091D402F091D50282FD1BC00B
:101A100090818091D7028F5F8F732091D8028217B7
:101A200041F0E091D702F0E0E254FD4F958F8093B2
:101A3000D702FF91EF919F918F912F910F900FBE41
:101A40000F901F9018958081F4CF1F920F920FB6C0
:101A50000F9211242F933F938F939F93AF93BF9334
:101A60008091820290918302A0918402B0918502BC
:101A70003091810226E0230F2D3758F50296A11DE3
:101A8000B11D209381028093820290938302A093E0
:101A90008402B09385028091860290918702A09182
:101AA0008802B09189020196A11DB11D8093860222
:101AB00090938702A0938802B0938902BF91AF915F
:101AC0009F918F913F912F910F900FBE0F901F907C
:101AD000189529E8230F0396A11DB11DD2CF1F929F
:101AE0000F920FB60F9211242F933F934F935F9352
:101AF0006F937F938F939F93AF93BF93EF93FF93D6
:101B0000E0910201F09103010995FF91EF91BF91DE
:101B1000AF919F918F917F916F915F914F913F9185
:101B20002F910F900FBE0F901F9018951F920F923C
:101B30000FB60F9211242F933F934F935F936F93A0
:101B40007F938F939F93AF93BF93EF93FF93E09116
:101B50000001F09101010995FF91EF91BF91AF91C3
:101B60009F918F917F916F915F914F913F912F91B5
:101B70000F900FBE0F901F9018951F920F920FB6E7
:101B80000F9211242F933F934F935F936F937F9303
:101B90008F939F93AF93BF93EF93FF938091B9007F
:101BA000887F803609F44AC0F0F5883209F4A5C070
:101BB00018F5803109F499C0B8F4882309F4F5C008
:101BC000883009F492C0FF91EF91BF91AF919F913E
:101BD0008F917F916F915F914F913F912F910F90D6
:101BE0000FBE0F901F901895883109F486C080327F
:101BF00051F780935A0214C0803409F49BC040F41A
:101C00008033B9F38833F9F680935A0285ECAEC07D
:101C1000803509F483C0883509F494C0883499F676
:101C20000E949902D0CF883909F48AC038F58837E4
:101C300029F050F4883611F0803729F683E080933C
:101C40005B021092590255C0883809F479C0803976
:101C500019F0803809F0B7CF80915902803208F02E
:101C60006FC0E091590281E08E0F809359028091FC
:101C7000BB00F0E0E75CFD4F80833BC0803B39F068
:101C8000D0F4803A09F477C0883A09F09CCF84E018
:101C900080935B021092380210923702F0E0E0E08D
:101CA00009958091370281110FC081E0809337023E
:101CB0001092170209C0803C09F4A8CF883C09F4AF
:101CC000A5CF883B09F07FCFE091380281E08E0FED
:101CD00080933802F0E0E95EFD4F80818093BB0085
:101CE000909138028091370229C0809180028093C0
:101CF000BB0085EC8093BC0066CF90917F02809101
:101D00007E02981758F5E0917F0281E08E0F809354
:101D10007F02F0E0E25AFD4F8081E9CFE0917F023F
:101D200081E08E0F80937F028091BB00F0E0E25A49
:101D3000FD4F808390917F0280917E029817C8F2B8
:101D400085E8D8CFE0917F0281E08E0F80937F02FB
:101D50008091BB00F0E0E25AFD4F808380915D02EC
:101D600081115ECF81E080935C0284EA8093BC00A5
:101D700010925B0228CF85EC8093BC0010925B022E
:101D800080915902803230F4E0915902F0E0E75C32
:101D9000FD4F10826091590270E089E392E0F0E01B
:101DA000E0E00995109259020ECF10925A0238CFF6
:101DB0001F920F920FB60F9211248F930FB6F894C3
:101DC000A895809160008861809360001092600007
:101DD0000FBE8F910F900FBE0F901F90189510920D
:101DE000C1021092C00288EE93E0A0E0B0E08093C0
:101DF000C2029093C302A093C402B093C50283E8C9
:101E000091E09093BF028093BE0285EC90E09093A6
:101E1000CB028093CA0284EC90E09093CD02809331
:101E2000CC0280EC90E09093CF028093CE0281ECC4
:101E300090E09093D1028093D00282EC90E0909356
:101E4000D3028093D20286EC90E09093D5028093E7
:101E5000D4021092D7021092D8021092D902109296
:101E6000DA0210925B0310925F0310925E031092ED
:101E70005C0310925D0361E080E10E942102809189
:101E80005B038823E1F010925C0361E084E00E9430
:101E900021020E948E0661E081E10E94210260E041
:101EA00081E10E94F30160E087E00E94210260E08E
:101EB00083E00E94210260E082E00C94210260E055
:101EC00080E10E94F301DFCFCF93DF93CDB7DEB780
:101ED000C858D1090FB6F894DEBF0FBECDBF7894B5
:101EE00084B5826084BD84B5816084BD85B582601F
:101EF00085BD85B5816085BD80916E0081608093D0
:101F00006E00109281008091810082608093810038
:101F10008091810081608093810080918000816048
:101F2000809380008091B10084608093B1008091A3
:101F3000B00081608093B00080917A0084608093CB
:101F40007A0080917A00826080937A0080917A0092
:101F50008E7F80937A0080917A00806880937A00E7
:101F60001092C10080915B03882309F4A9C01092EC
:101F70005C030E948E0660E083E00E94210260E024
:101F800082E00E942102E091CE02F091CF0282E035
:101F90008083E091CA02F091CB021082E091CC02E2
:101FA000F091CD0287E680831092D602E091D202B2
:101FB000F091D30286E08083E091D002F091D102CB
:101FC000808180618083E091D002F091D102808194
:101FD00088608083E091D002F091D1028081806896
:101FE0008083E091D002F091D10280818F7D808347
:101FF0000CE611E0BAE9EB2EB2E0FB2EF801D1902D
:102000008F0160E08D2D0E9421028D2D0E94CA015A
:10201000F70181937F01F1E003371F0779F761E052
:1020200087E00E94210260E087E00E94F30161E006
:102030008AE00E94210260E08AE00E94F30161E0F0
:102040008DE00E94210260E08DE00E94F3018E018C
:102050000F5B1F4FA801435F5F4FCB57DF4F598383
:102060004883C558D040AEE52A2E312C2C0E3D1E9B
:102070005DE0250E311C809119018E3609F476C081
:1020800020F58A3009F443C0823309F440C08091BE
:1020900018018E3649F008F084C0843129F082336B
:1020A00019F08A3009F0ABC080915B03882309F4F2
:1020B00074C181E080935C0388E78093180177C046
:1020C00060E080E10E94F30152CF863981F0883CC4
:1020D00071F08837E1F680911801893728F061E0C6
:1020E0008CEB91E00E94870C82E8809319010E949A
:1020F0008E0660E089E00E9421026091190181EC66
:1021000091E00E94870C8AEC80931901C0CF8CE883
:1021100090E09093030180930201809169008C60AC
:1021200080936900E99A80E990E09093010180939F
:10213000000180916900836080936900E89A30E033
:1021400020E050E040E06AE070E08BE593E00E9420
:10215000F7020E948C0260938A0270938B02809334
:102160008C0290938D028EE680931801C0908A02B3
:10217000D0908B02E0908C02F0908D022EE1C20E86
:10218000D11CE11CF11C0E948C026C157D058E0592
:102190009F0508F0A0CF8AE0809318018093190171
:1021A0009ACF823821F08C3899F0883741F58091A8
:1021B0009202813069F40E948C0260938E027093C7
:1021C0008F02809390029093910286E98093180188
:1021D000C0908E02D0908F02E0909002F090910219
:1021E0004EE1C40ED11CE11CF11C0E948C026C1546
:1021F0007D058E059F0518F480EA80931801809173
:102200001901853608F48FC071EAC72E72E0D72E07
:10221000E3E9EE2EE2E0FE2EFAE98F2EF2E09F2EA9
:10222000B12CA12C0E948C02F6014080518062806A
:102230007380641575058605970538F40E948C0235
:10224000F6016083718382839383F601408051801D
:1022500062807380FAE04F0E511C611C711C0E9459
:102260008C02641575058605970580F0F501E45923
:10227000FE4F80810E94CA01F7019081F401208104
:10228000821390C0913011F4F7011082FFEFAF1A62
:10229000BF0A24E0C20ED11C4FEFE41AF40A5FEF2C
:1022A000851A950A87E0A816B10409F0BBCFE12C86
:1022B000FE2CFF0CE4E0F1E0FE0E8F2D0E94520296
:1022C0008F2D0E94520256E0D52E0E9467024B01CC
:1022D0005C014AE0442E512C612C712C0E94670253
:1022E000681979098A099B09683E7340810591053F
:1022F000A8F3F1E04F1A51086108710828EE820E28
:1023000023E0921EA11CB11C41145104610471040C
:1023100029F78F2D0E945202DA94D110D6CFE39480
:1023200058E0E512C5CF80911801853608F4BAC18E
:1023300058018DE1A80EB11CF8013896C957DF4F3E
:10234000F983E883C758D0403EE5832E912C8C0E4C
:102350009D1EF5E18F0E911C8EEB92E00E94F20023
:10236000181619060CF09EC18EEB92E00E94D00068
:102370009091BD02292F30E041E050E04C0F5D1FED
:10238000240F351FF9018A3059F180839F5F903403
:1023900020F18FE38093BD02DFCF61E080E10E94F6
:1023A000F30187CE9130A9F4F7011082F401808304
:1023B000F501EE0FFF1FEE59FE4F0190F081E02D69
:1023C00009950E948C02F601608371838283938356
:1023D0005DCF21E0F7012083F4CF9093BD02BCCF05
:1023E00010821092BD02CB57DF4F48815981C558EA
:1023F000D040F8015183408353834283B582A48245
:10240000B782A682848580788487A0961FAF0EAF9E
:10241000A09781E090E08C0F9D1FA2969FAF8EAF9A
:10242000A297A4969FAF8EAFA497A6961FAEA6972D
:102430004AE0C957DF4F68817981C758D040CE0143
:10244000825A9F4F0E94060AEC969FAF8EAFEC9780
:10245000CE0186589F4F0E941F06672BB1F480FD66
:1024600014C0A5968FADA597882379F0F8018485CF
:10247000982F9F779C3019F08D77883031F482E067
:1024800090E0EC969FAF8EAFEC97EC96EEACFFAC85
:10249000EC97CF57DF4FF982E882C158D040CE0188
:1024A0008F579F4F0E941F06672B09F058C080FD71
:1024B00056C0F801848585FF4FCFE084F184E11494
:1024C000F10409F449CFA701B801CE01825A9F4F08
:1024D0000E94610687E0FE01E25AFF4FDE01AD581F
:1024E000BF4F01900D928A95E1F787E0FE01ED580C
:1024F000FF4FDE01A658BF4F01900D928A95E1F77C
:102500008CE0C82E81E0D82EF6010280F381E02D08
:10251000CD57DF4FF983E883C358D040EF2B09F440
:1025200082C0F60160817181EC968EAD9FADEC9713
:102530000E948E15892B09F0B1C0EF96EEADFFAD6C
:10254000EF97309751F084818F77863009F459C026
:1025500008F04DC0843008F06BC080E05DC0F6E04C
:10256000EF16F104E8F5F701EE0FFF1FED58FE4FEF
:10257000E080F180A0963FAE2EAEA097A2963FAE2F
:102580002EAEA297A4969FAE8EAEA497A6969FAEAF
:102590008EAEA697AB968FADAB978078AB968FAF8C
:1025A000AB97AE01425A5F4F67EC71E0CA010896E3
:1025B0000E94510CFC01892B49F094819078E11420
:1025C000F10499F094609483F182E0826EEB72E002
:1025D000CE01825A9F4F0E94CB090E94E806BCCED2
:1025E00098EBE92E91E0F92EC5CF9483EFCF883098
:1025F00041F08C3009F0B1CF40805180628073800F
:102600002CC080819181A281B3818F3F9105A1056A
:10261000B10511F008F0A1CFCD57DF4FE881F98166
:10262000C358D0400995C7010E9480067C0147CF5E
:1026300060817181CE01825A9F4F0E941D04A7962E
:102640008FADA797883019F18C3009F086CFA69608
:102650004CAC5DAC6EAC7FACA69720E030E0A9013D
:10266000C301B2010E94B21487FD77CF20E030E0B1
:102670004FE753E4C301B2010E94CC1318160CF4C7
:102680006CCFC301B2010E94D113862FC5CFA29691
:102690008CAD9DADAEADBFADA297B7CFF4E0CF0E80
:1026A000D11C32CF80E090E0892B09F4E4CC0E9469
:1026B000FE00882309F4DFCC0E940000DCCC5058D7
:1026C000BB27AA270E9477130C9478140E946A14DF
:1026D00038F00E94711420F039F49F3F19F426F469
:1026E0000C9467140EF4E095E7FB0C946114E92F49
:1026F0000E94891458F3BA17620773078407950775
:1027000020F079F4A6F50C94AB140EF4E0950B2EA2
:10271000BA2FA02D0B01B90190010C01CA01A00133
:102720001124FF27591B99F0593F50F4503E68F18E
:102730001A16F040A22F232F342F4427585FF3CFCF
:10274000469537952795A795F0405395C9F77EF4A0
:102750001F16BA0B620B730B840BBAF09150A1F0E9
:10276000FF0FBB1F661F771F881FC2F70EC0BA0F6F
:10277000621F731F841F48F4879577956795B795F7
:10278000F7959E3F08F0B0CF9395880F08F09927F2
:10279000EE0F9795879508950E943D1408F481E007
:1027A00008950E94911488F09F5798F0B92F9927A7
:1027B000B751B0F0E1F0660F771F881F991F1AF02C
:1027C000BA95C9F714C0B13091F00E94AB14B1E0D2
:1027D00008950C94AB14672F782F8827B85F39F0D1
:1027E000B93FCCF3869577956795B395D9F73EF4C5
:1027F00090958095709561957F4F8F4F9F4F08956D
:10280000E89409C097FB3EF490958095709561958A
:102810007F4F8F4F9F4F9923A9F0F92F96E9BB2740
:102820009395F695879577956795B795F111F8CFBC
:10283000FAF4BB0F11F460FF1BC06F5F7F4F8F4F27
:102840009F4F16C0882311F096E911C0772321F01D
:102850009EE8872F762F05C0662371F096E8862FB5
:1028600070E060E02AF09A95660F771F881FDAF70C
:10287000880F9695879597F90895990F0008550F39
:10288000AA0BE0E8FEEF16161706E807F907C0F0F6
:1028900012161306E407F50798F0621B730B840BFE
:1028A000950B39F40A2661F0232B242B252B21F4D8
:1028B00008950A2609F4A140A6958FEF811D811D78
:1028C000089597F99F6780E870E060E008959FEFB2
:1028D00080EC089500240A941616170618060906B7
:1028E000089500240A941216130614060506089586
:1028F000092E0394000C11F4882352F0BB0F40F40E
:10290000BF2B11F460FF04C06F5F7F4F8F4F9F4F4D
:10291000089557FD9058440F551F59F05F3F71F0CF
:102920004795880F97FB991F61F09F3F79F0879536
:102930000895121613061406551FF2CF4695F1DFBF
:1029400008C0161617061806991FF1CF869571054F
:10295000610508940895E894BB2766277727CB0183
:1029600097F908950E943D1408F48FEF08950E948E
:10297000CA140C9478140E946A1438F00E947114DE
:1029800020F0952311F00C9461140C946714112419
:102990000C94AC140E94891470F3959FC1F3950FA9
:1029A00050E0551F629FF001729FBB27F00DB11DD3
:1029B000639FAA27F00DB11DAA1F649F6627B00D63
:1029C000A11D661F829F2227B00DA11D621F739F4C
:1029D000B00DA11D621F839FA00D611D221F749F5A
:1029E0003327A00D611D231F849F600D211D822FA1
:1029F000762F6A2F11249F5750409AF0F1F08823C8
:102A00004AF0EE0FFF1FBB1F661F771F881F9150F4
:102A10005040A9F79E3F510580F00C9461140C942E
:102A2000AC145F3FE4F3983ED4F3869577956795B1
:102A3000B795F795E7959F5FC1F7FE2B880F911D1E
:102A40009695879597F9089597FB072E16F40094AD
:102A500007D077FD09D00E94651507FC05D03EF42C
:102A6000909581959F4F0895709561957F4F08953A
:102A7000A1E21A2EAA1BBB1BFD010DC0AA1FBB1F82
:102A8000EE1FFF1FA217B307E407F50720F0A21BF4
:102A9000B30BE40BF50B661F771F881F991F1A9461
:102AA00069F760957095809590959B01AC01BD018B
:102AB000CF0108950E947F15A59F900DB49F900DA2
:102AC000A49F800D911D11240895AA1BBB1B51E1E9
:102AD00007C0AA1FBB1FA617B70710F0A61BB70B8E
:102AE000881F991F5A95A9F780959095BC01CD0133
:102AF0000895EE0FFF1F0590F491E02D0994A29F19
:102B0000B001B39FC001A39F700D811D1124911DC1
:102B1000B29F700D811D1124911D0895FB01DC01F0
:102B20008D91019080190110D9F3990B0895F894B3
:022B3000FFCFD5
:102B32009802980241304131413441350C021D0660
:102B420011021E060000000032320000803FCDCC90
:102B5200CC3D6F12833A95BFD6337D1D9026B3CEFE
:102B6200010CCDCCCC3D0AD7233C17B7D13877CC5A
:102B72002B329595E6241FB14F0A00002041000038
:102B8200C84200401C4620BCBE4CCA1B0E5AAEC5F1
:102B92009D7411070D0709070507010702030506C2
:102BA200080B0CCE01D101E101EE01F70104020094
:102BB20000000034019400C1008101F200D000E461
:102BC200002F2F22225C5C6208660C6E0A720D7462
:102BD20009000D0A006E756C6C00652D007472752B
:102BE200650066616C7365003F3F3F006469737006
:102BF20000737461746500657272536572004F6B85
:102C020000496E636F6D706C657465496E707574A2
:102C120000496E76616C6964496E707574004E6F1E
:102C22004D656D6F7279004E6F74537570706F726F
:102C320074656400546F6F4465657000737472410B
:062C4200007374724200F1
:00000001FF
