:100000000C9463000C9475140C944E140C948B0097
:100010000C948B000C948B000C94B7150C948B00F3
:100020000C948B000C948B000C948B000C948B0024
:100030000C948B000C948B000C948B000C948B0014
:100040000C9404140C948B000C94D2130C94AC13E9
:100050000C948B000C948B000C948B000C948B00F4
:100060000C949C140C948B000000000024002700CA
:100070002A0000000000250028002B0000000000DE
:1000800023002600290004040404040404040202DA
:100090000202020203030303030301020408102007
:1000A0004080010204081020010204081020000012
:1000B0000008000201000003040700000000000027
:1000C00000007016C61D11241FBECFEFD8E0DEBFA2
:1000D000CDBF12E0A0E0B1E0EEE9F2E402C005908D
:1000E0000D92A639B107D9F724E0A6E9B2E001C024
:1000F0001D92A637B207E1F710E0C2E6D0E004C0D7
:100100002197FE010E94E01FC136D107C9F70E9466
:1001100097180C9442210C940000982F20916D03A5
:1001200081E0213208F043C0809149038111FCCF66
:1001300080916C0332E030934903909348039FEF22
:10014000909347031092460320934503ACE4B3E039
:10015000E5E2F3E090E0291331C01092240390917E
:100160002403880F892B80932403809123038130FB
:1001700049F510922303809124038093BB00809162
:10018000BC0083FDF8CF85EC8093BC0080914903CF
:100190008230E1F3809147038F3FB1F080914703B4
:1001A0008032A1F080914703803391F084E0109277
:1001B0004B0310926D0310924A0308953D913193C1
:1001C0009F5FC9CF85EEE0CF80E0F1CF82E0EFCF37
:1001D00083E0EDCF089581E0809338040895089579
:1001E000AF92BF92CF92DF92EF92FF920F931F9345
:1001F000CF93DF936C017B018B01040F151FEB0183
:100200005E01AE18BF08C017D10759F06991D60139
:10021000ED91FC910190F081E02DC6010995892BAB
:1002200079F7C501DF91CF911F910F91FF90EF906A
:10023000DF90CF90BF90AF900895FC01538D448D17
:10024000252F30E0842F90E0821B930B541710F081
:10025000CF96089501970895FC01918D828D98178E
:1002600061F0A28DAE0FBF2FB11D5D968C91928D66
:100270009F5F9F73928F90E008958FEF9FEF089597
:10028000FC01918D828D981731F0828DE80FF11D60
:10029000858D90E008958FEF9FEF0895FC01918D7B
:1002A000228D892F90E0805C9F4F821B91098F7374
:1002B000992708958EE693E00E944E0121E0892B54
:1002C00009F420E0822F089580E090E0892B29F046
:1002D0000E945A0181110C9400000895FC01A48D24
:1002E000A80FB92FB11DA35ABF4F2C91848D90E058
:1002F00001968F739927848FA689B7892C93A0893B
:10030000B1898C91837080648C93938D848D9813C4
:1003100006C00288F389E02D80818F7D8083089557
:10032000EF92FF920F931F93CF93DF93EC0181E045
:10033000888F9B8D8C8D98131AC0E889F9898081EC
:1003400085FF15C09FB7F894EE89FF896083E8891F
:10035000F98980818370806480839FBF81E090E011
:10036000DF91CF911F910F91FF90EF900895F62E9E
:100370000B8D10E00F5F1F4F0F731127E02E8C8D38
:100380008E110CC00FB607FCFACFE889F98980817D
:1003900085FFF5CFCE010E946E01F1CFEB8DEC0F02
:1003A000FD2FF11DE35AFF4FF0829FB7F8940B8F9A
:1003B000EA89FB8980818062CFCFCF93DF93EC0104
:1003C000888D8823B9F0AA89BB89E889F9898C913D
:1003D00085FD03C0808186FD0DC00FB607FCF7CFF9
:1003E0008C9185FFF2CF808185FFEDCFCE010E94F9
:1003F0006E01E9CFDF91CF910895833081F028F429
:10040000813099F08230A9F008958730A9F08830C2
:10041000C9F08430B1F4809180008F7D03C0809159
:1004200080008F7780938000089584B58F7784BD96
:10043000089584B58F7DFBCF8091B0008F77809336
:10044000B00008958091B0008F7DF9CFCF93DF93F6
:10045000282F30E0F901E255FF4F8491F901E6566B
:10046000FF4FD491F901EA57FF4FC491CC23A1F07B
:1004700081110E94FD01EC2FF0E0EE0FFF1FE45808
:10048000FF4FA591B491EC91ED2381E090E009F448
:1004900080E0DF91CF91089580E090E0FACF1F9344
:1004A000CF93DF93282F30E0F901E255FF4F84917D
:1004B000F901E656FF4FD491F901EA57FF4FC49175
:1004C000CC23A9F0162F81110E94FD01EC2FF0E042
:1004D000EE0FFF1FEE58FF4FA591B4918FB7F89420
:1004E000EC91111108C0D095DE23DC938FBFDF9112
:1004F000CF911F910895DE2BF8CFCF93DF9390E03B
:10050000FC01E656FF4F24918A579F4FFC018491CE
:100510008823C9F090E0880F991FFC01E859FF4F2C
:10052000A591B491FC01EE58FF4FC591D491611192
:100530000DC09FB7F8948C91209582238C9388816D
:10054000282328839FBFDF91CF910895623051F413
:100550009FB7F8943C91822F809583238C93E881F8
:100560002E2BEFCF8FB7F894EC912E2B2C938FBFBF
:10057000EACF8E3008F08E508770806480937C00C4
:1005800080917A00806480937A0080917A0086FD61
:10059000FCCF809178009091790008953FB7F8944E
:1005A0008091DE029091DF02A091E002B091E10221
:1005B00026B5A89B05C02F3F19F00196A11DB11DBE
:1005C0003FBFBA2FA92F982F8827BC01CD01620FFA
:1005D000711D811D911D43E0660F771F881F991FB4
:1005E0004A95D1F708958F929F92AF92BF92CF9282
:1005F000DF92EF92FF920E94CE024B015C018AE0F3
:10060000C82ED12CE12CF12C0E94CE026819790958
:100610008A099B09683E734081059105A8F321E092
:10062000C21AD108E108F10888EE880E83E0981E0E
:10063000A11CB11CC114D104E104F10429F7FF90FD
:10064000EF90DF90CF90BF90AF909F908F900895E4
:100650002FB7F8946091DA027091DB028091DC028E
:100660009091DD022FBF089585ED8093BC008091AD
:10067000BC0084FDFCCF1092490308952091B6027E
:10068000260F3327331F21323105ECF42091490323
:10069000FC0190E080E0243069F082E00895A091B0
:1006A000B6022191AC014A565D4FA40FB52FB11D82
:1006B0002C930196861798F38091B602680F609389
:1006C000B60280E0089581E008950895E091020364
:1006D00080910103E81730F4F0E0ED5FFC4F80817A
:1006E00090E008958FEF9FEF08959091020380911D
:1006F00001032FEF3FEF981748F4E92FF0E0ED5F8B
:10070000FC4F208130E09F5F90930203C901089560
:100710008091010390910203891B990B0895CF9258
:10072000DF92EF92FF920F931F93CF93DF937C01A1
:10073000CB018A0120914A03222389F0EB016B014E
:10074000C40ED51ECC15DD0569F06991D701ED9178
:10075000FC910190F081E02DC7010995F3CF642F42
:100760000E943E03C801DF91CF911F910F91FF902E
:10077000EF90DF90CF900895CF93DF931F92CDB786
:10078000DEB7698320914A032223F9F020916D039B
:10079000203258F021E030E0FC013383228390E0E6
:1007A00080E00F90DF91CF91089580914B03E82F67
:1007B000F0E0E45BFC4F998190838F5F80934B0363
:1007C00080936D0381E090E0ECCF61E0CE01019673
:1007D0000E943E03F7CFCF93DF93EB0191E090931C
:1007E0004A0398E690936C0310924B0310926D03AA
:1007F000682F8BE094E00E94BC0368818BE094E05A
:100800000E94BC0381E0DF91CF910C948D0090E0B9
:1008100080E008954115510529F4EAE7F0E0808170
:100820008F7780836A307105B9F0CB01880F991FEB
:10083000880F991F807267706860682B88E10FB617
:10084000F894A895809360000FBE60936000E0E686
:10085000F0E0808180648083232BD9F483B7817F8B
:10086000846083BFF89483B7816083BF85B7806657
:1008700085BF8F7D85BF7894889583B78E7F83BF32
:100880007894452B29F4EAE7F0E080818068808342
:10089000089583B7817F846083BFF89483B78160B4
:1008A00083BF7894889583B78E7F83BF7894E9CF90
:1008B000FC01848195810895FC01848195810895CE
:1008C00008950895CF93DF93EC0188819981DC012D
:1008D000ED91FC910190F081E02D09952A813B81F9
:1008E000820F931F9B838A83DF91CF910895DC0150
:1008F0008D919C91DC01ED91FC910280F381E02DC2
:100900000994EF92FF920F931F93CF93DF93CDB78C
:10091000DEB766970FB6F894DEBF0FBECDBF8C0171
:10092000CB01FE0177969F014AE0E42EF12CB7013E
:100930000E94AA1F805D8293CB010097C1F7A90195
:100940004E1B5F0BBF01C8010E947704F801228192
:100950003381820F931F9383828366960FB6F89438
:10096000DEBF0FBECDBFDF91CF911F910F91FF90E2
:10097000EF9008958F929F92AF92BF92CF92DF92A5
:10098000EF92FF920F931F93CF93DF93CDB7DEB714
:1009900066970FB6F894DEBF0FBECDBF7C018E0107
:1009A000095E1F4F68018AE0882E912CA12CB12C82
:1009B000CB01BA01A50194010E94BE1F942F852F7F
:1009C000605DF80162938F01A901692F782F4115AD
:1009D00051056105710561F7A6014E1B5F0BBF0153
:1009E000C7010E947704F70122813381820F931F90
:1009F0009383828366960FB6F894DEBF0FBECDBF99
:100A0000DF91CF911F910F91FF90EF90DF90CF90EA
:100A1000BF90AF909F908F900895EF92FF920F93A9
:100A20001F93CF93DF93EC017B0162E20E9462048B
:100A30008701F80161918F01662391F0E8EFF1E001
:100A4000F280FF2049F0329681816813F9CF6CE57E
:100A5000CE010E9462046F2DCE010E946204E9CF94
:100A600062E2CE01DF91CF911F910F91FF90EF9045
:100A70000C9462044F925F926F927F928F929F923A
:100A8000AF92BF92DF92EF92FF920F931F93CF939B
:100A9000DF938C01EB0188818B32D1F18D32C9F566
:100AA0002196EE24E394888190ED980F9A3010F00F
:100AB0008E3289F560E070E0CB01FE012191A0ED5E
:100AC0008A2E820E39E0381508F440C06A3929E9C7
:100AD0007207820729E1920708F04DC0AAE0B0E052
:100AE0009B01AC010E94E61F912CB12CA12C24018A
:100AF00035014094509460947094461657066806E9
:100B00007906C8F1680D791D8A1D9B1DEF01D5CFAF
:100B10002196E12CC8CFF801108211821282138233
:100B200014821582168217821086C801DF91CF9138
:100B30001F910F91FF90EF90DF90BF90AF909F902B
:100B40008F907F906F905F904F900895211113C008
:100B5000F80160837183828393830E947A1EF80177
:100B600064837583868397838AE0E11001C088E0FF
:100B7000F8018087DACFF12CEAE08E2E912CA12C9F
:100B8000B12C61157105F0E88F07910540F0A501C2
:100B900094010E94BE1FCA01B901F394F2CFFE0175
:100BA000299130ED320F3A3010F4F394F8CF2E3211
:100BB000F1F4EF012196FE012196208150EDD52E12
:100BC000D20E29E02D1598F06C3C3CEC73073CE00C
:100BD0008307910580F7AAE0B0E09B01AC010E9479
:100BE000E61F6D0D711D811D911DFA94E4CF2081CA
:100BF0002F7DD0E0C0E0253409F04FC021812D3297
:100C0000A9F53296BB24B394DF01D0E0C0E02F2DCC
:100C10000F2C000C330B4AE0A42EFD01DD9040EDBB
:100C20004D0D4A30A8F5AC9EA001AD9E500D11248B
:100C3000CD2DDD0CDD0BE097C40FD51FAE01420FAB
:100C4000531F473251054CF3BB20B9F080E090E0D0
:100C5000A0E0B0E8E11003C080E090E0DC01F80122
:100C600084839583A683B7838CE083CF2B3219F0DE
:100C70003196B12CC9CF3296FCCF80E090E0A0E84D
:100C8000BFEFE110ECCF80E090E0A0E8BFE7E7CF56
:100C9000BB2019F0D195C195D109208121113BCFFD
:100CA000CF0DD11DF7FCDA950E947A1E1C161D0689
:100CB000E4F4F12CC0FF0CC024E0F29EF0011124FA
:100CC000EE59FE4F20813181428153810E94311FB4
:100CD000D595C795F394209769F7E1109058F801DE
:100CE0006483758386839783BFCFD195C195D109DE
:100CF000F12C209791F3C0FF0CC024E0F29EF0018C
:100D00001124E65BFE4F20813181428153810E9494
:100D1000311FD595C795F394ECCFCF92DF92EF9228
:100D2000FF920F931F93CF93DF93CDB7DEB7299731
:100D30000FB6F894DEBF0FBECDBFFC010281138158
:100D4000FA01309739F084818F77863071F020F482
:100D5000843038F560E014C0883039F08C30D1F739
:100D6000C080D180E280F3802BC080819181A281FC
:100D7000B381682F8F3F9105A105B10509F050F7A8
:100D8000F801608329960FB6F894DEBF0FBECDBF81
:100D9000DF91CF911F910F91FF90EF90DF90CF9057
:100DA000089560817181CE0101960E943A0589857E
:100DB0008830F9F08C3071F6CD80DE80EF80F884D9
:100DC00020E030E0A901C701B6010E942C1F87FD79
:100DD000C1CF20E030E04FE753E4C701B6010E94E5
:100DE0003F1E18160CF4B6CFC701B6010E944B1E69
:100DF000C7CF89819A81AB81BC81BBCF80339CF006
:100E00008A3324F08F3524F08B3724F481E0089561
:100E100081344CF08B35D4F393ED980F81E0923010
:100E2000B0F380E008958B32B9F7F0CFFC018781F1
:100E300081110AC0A481B581CD0101969583848377
:100E40008C91868381E0878386810895FF920F933A
:100E50001F93CF93DF93EC010A811B810E94160739
:100E6000F82E1F82CE010E9416071F82F816A9F1E4
:100E700081110AC061E070E080E090E0DF91CF91E5
:100E80001F910F91FF9008958C35F1F4CE010E94CF
:100E90001607882379F3853729F464E070E080E051
:100EA00090E0ECCFE8EFF1E09081992329F08913ED
:100EB00008C08181811107C062E070E080E090E0AD
:100EC000DDCF3296F1CF1F82EA81FB819F012F5F38
:100ED0003F4F3B832A838083C5CFEA81FB81CF01CB
:100EE00001969B838A83108263E070E080E090E04B
:100EF0000115110519F260E070E0CB01C801BECF09
:100F00001F93CF93DF93EC01162F0E9416078113D6
:100F100006C01F8281E0DF91CF911F91089580E08C
:100F2000FACFCF93DF93EC01CE010E9416078B30EE
:100F30003CF489304CF4882349F090E080E008C00C
:100F40008D3011F08032C9F71F82EECF81E090E042
:100F5000DF91CF910895CF93FC01892B91F094817B
:100F60009F77983029F078F4992359F0963079F4E6
:100F7000C1E080819181A281B381892B8A2B8B2B47
:100F800039F4C0E005C09A3099F39C3021F0C1E0FB
:100F90008C2FCF910895C1E020E030E0A90160815D
:100FA0007181828193810E943F1E8111F1CFE9CF2F
:100FB000CF93DF93EC01CA010E94AB07EA81FB816A
:100FC0008083DF91CF910895EF92FF920F931F934B
:100FD000CF938C017B01C0E0D8018C91C817E0F45D
:100FE0008C2F90E0880F991F1296ED91FC91E80FDD
:100FF000F91F80819181009769F0FC012281338182
:10100000E216F30639F40190F081E02D0084F185B9
:10101000E02D0995CF5FE0CFCF911F910F91FF9009
:10102000EF900895CF93C82F0E9428036093200467
:10103000709321048093220490932304C093390475
:1010400069E374E08091190490911A040E94E40706
:1010500087E0C33009F086E080931B04CF910895A8
:10106000CF93DF93C7E1D4E081E08AA369E374E022
:101070008A819B810E94E4070E94280369877A87FE
:101080008B879C871C82DF91CF910895FC01808122
:1010900091819383828386819781958384838485DC
:1010A0008078806284871186108613861286BF013D
:1010B000685F7F4FCF010895089508950895FC015A
:1010C00064A70895FC0165A70895FC0191E06111F2
:1010D00001C090E094A30895FC0180819181892B47
:1010E00021F460E070E0CB0108956AE778E090E0D9
:1010F00080E008950895AB01009751F0FC01248130
:1011000026FF06C0382F292F632F722FCA0108959A
:1011100030E020E0F9CFCF93DF93DC01EB01EC81ED
:10112000FD818A819B810896E817F90730F4F0E089
:10113000E0E0CF01DF91CF9108953897FD83EC83F4
:101140003097A9F31296CD91DC911397209791F0E7
:10115000CF018C1B9D0B23E0959587952A95E1F790
:101160008D831396FC93EE93129715821482178247
:101170001682DFCF1196FC93EE93F3CFFC01118220
:10118000108281E0828314821382168215824115B7
:10119000510591F0DA0116962D913C91179714960E
:1011A0008C918095881F8827881F318320838283B4
:1011B00054834383768365830895FC01892B71F002
:1011C0009481907896609483862F90E0B0E0A0E0C0
:1011D00080839183A283B38381E0089580E00895A2
:1011E000FC012581222339F0F8E02F02900111241F
:1011F000820F931F089590E080E00895CF92DF92D0
:10120000FF920F931F93CF93DF938C01CA010E942B
:101210007B0861157105B1F0FB01C081D181F12C12
:10122000209781F0F801C280D380CF0CD11CCE0171
:101230000E94AB07F6018083F394CE010E94F00870
:10124000EC01EECFDF91CF911F910F91FF90DF90D6
:10125000CF9008954F925F926F927F92BF92CF92FC
:10126000DF92EF92FF920F931F93CF93DF93CDB74F
:10127000DEB729970FB6F894DEBF0FBECDBF6C0165
:10128000CA010E947B086115710509F482C0FB0147
:1012900000811181B12C0115110509F47AC0EB2CE4
:1012A000F12CEE0CFF1CF60182819381E80EF91EF1
:1012B000F80184818F77863069F028F4843068F5EE
:1012C00070E060E021C08A3091F08C3009F45CC09D
:1012D0008830B1F7F80180819181A281B3818115B5
:1012E000F0E89F07A105B10558F7BC010DC080814A
:1012F0009181A281B38166277727681B790B8130A2
:101300009048A105B105E0F6F70171836083B394BD
:10131000C8010E94F0088C01BECF60817181CE01AE
:1013200001960E943A0589819A81AB81BC81298509
:101330002A3009F32C3051F0283011F6811520E8BD
:101340009207A105B10508F0BBCFCFCF4D805E80DD
:101350006F80788420E030E040E057ECC301B201B8
:101360000E942C1F87FDACCF20E03EEF4FEF56E4EC
:10137000C301B2010E943F1E18160CF4A1CFC30195
:10138000B2010E94441EC0CF4080518062807380B1
:10139000E1CF29960FB6F894DEBF0FBECDBFDF9127
:1013A000CF911F910F91FF90EF90DF90CF90BF9062
:1013B0007F906F905F904F900895CF92DF92FF9251
:1013C0000F931F93CF93DF938C01CA010E947B0878
:1013D00061157105B1F0FB01C081D181F12C20971D
:1013E00081F0F801C280D380CF0CD11CCE010E94C5
:1013F000AB07F6018083F394CE010E94F008EC0164
:10140000EECFDF91CF911F910F91FF90DF90CF90A2
:101410000895EF92FF920F931F93CF93DF93EC0108
:101420008B017A01892B29F18C81982F9F7739F4D0
:10143000807880648C83198218821B821A828C8146
:1014400086FF17C088819981009741F00115110529
:1014500091F00E94F00801501109F6CF01501109D6
:101460000E3F2FEF120739F0B701CE010E948B0813
:10147000F5CF90E080E0DF91CF911F910F91FF9029
:10148000EF900895CF93DF93C0911704D091180483
:101490008881882381F081E08983809138048130BC
:1014A00089F480914304813059F484E080931B04D3
:1014B000DF91CF91089561E080E10E944F02EBCF70
:1014C00085E0F4CF83E0F2CFCF93DF93EC0181E0AE
:1014D00080934A0388E680936C0310924B0310922A
:1014E0006D038BE094E00E94BC0381E00E948D00BC
:1014F000809149038111FCCF81E08093490380935F
:1015000048039FEF909347031092460310924503C0
:101510008093240380912403806D80932403809121
:101520002303813059F51092230380912403809383
:10153000BB008091BC0083FDF8CF85EC8093BC009C
:10154000809149038130E1F38091460391E081115C
:1015500002C090914603A5E2B3E0E3E0F3E080E04F
:1015600089130EC010920203809301038BE094E074
:101570000E9475038883DF91CF91089585EEDECFB9
:101580002D9121938F5FECCF0F931F93CF93DF9318
:10159000EC018B01CB010E941420080F191F00974A
:1015A00011F410E000E09A8389839C838B831E836F
:1015B0000D8318870F838D8580788D87DF91CF917C
:1015C0001F910F9108950C94B0200C94B0200C94AE
:1015D000B0200C94B0200C94B020FC018181928149
:1015E000009711F00C94B020089542E050E069E0BB
:1015F00072E08EE693E00C94F000CF93DF93EC0161
:10160000FB0101900020E9F73197AF01461B570B12
:101610000E9477042A813B81820F931F9B838A83D8
:10162000DF91CF9108952F923F924F925F926F92E8
:101630007F928F929F92AF92BF92CF92DF92EF9262
:10164000FF920F931F93CF93DF93CDB7DEB76A97C7
:101650000FB6F894DEBF0FBECDBF8C014B01DC018D
:1016600014968C9114978F77863009F46BC2C8F466
:10167000823000F1843008F04BC2F801428153817E
:1016800060817181C4010E947704D40112962D916A
:101690003C911397820F931F13969C938E931297EE
:1016A000EBC18C3051F148F4883009F446C28A30DD
:1016B00009F434C26CE072E052C2803209F403C211
:1016C0008034C1F76BE5C4010E946204F801008117
:1016D00011810115110509F4F1C1B401C8010E947D
:1016E000130BC8010E94F0088C01892B09F4E6C194
:1016F0006CE2C4010E946204ECCFF801408051808A
:1017000062807380A3019201C301B2010E943F1E57
:101710008111D0CF20E030E0A901C301B2010E94C5
:101720003F1E882379F0A3019201C301B2010E94F8
:10173000D31D9B01AC01C301B2010E943F1E88234F
:1017400009F4B8CF20E030E0A901C301B2010E9442
:101750003F1E87FF08C06DE2C4010E94620477FA51
:10176000709477F8709420E836E948E15BE4C301AF
:10177000B2010E942C1F87FD79C04AE7E42E41E0A8
:10178000F42E5AE4C52E51E0D52E62E6A62E61E075
:10179000B62E00E210E0312C212CD7015E914E9143
:1017A0003E912E917D01C301B2010E942C1F87FD45
:1017B0000DC0F6012489358946895789C301B201D4
:1017C0000E94311F2B013C01200E311E15950795FB
:1017D000F4E0CF1AD108AE14BF04F9F68FEF8B8B6B
:1017E00020E030E0A901C301B2010E942C1F1816AD
:1017F0000CF043C02CEA35EC47E257E3C301B201D9
:101800000E943F1E1816CCF1AB89B4E0AB02500128
:101810001124D12CC12CEB89EF3F79F17501EC0C2F
:10182000FD1CF701EE5CFE4FA30192016081718106
:10183000828193810E942C1F18167CF4F701EE59C7
:10184000FE4F2081318142815381C301B2010E9448
:10185000311F2B013C01201A310A15950795FB8990
:10186000F150FB8B84E0C81AD108D5CF00E210E01C
:1018700095E09B8B312C212CB3CFC301B2010E9488
:101880004B1E6B8B7C8B8D8B9E8B6B017C0116E0D2
:1018900080E492E4AFE0B0E08F8B988FA98FBA8F8D
:1018A000012F11509AE0C916D104E104F104C8F0E7
:1018B0006F89788D898D9A8D2AE030E040E050E084
:1018C0000E94BE1F2F8B388F498F5A8FC701B601D8
:1018D0002AE030E040E050E00E94BE1F69017A013A
:1018E000DFCF6B897C898D899E890E947A1E9B013E
:1018F000AC01C301B2010E94D21D6B017C016F8952
:10190000788D898D9A8D0E947A1E9B01AC01C7014A
:10191000B6010E94311F2B013C010E944B1E6B013E
:101920007C010E947A1E9B01AC01C301B2010E949E
:10193000D21D9B01AC010E94D31D0E944B1EC60EFE
:10194000D71EE81EF91E8F89988DA98DBA8DC816ED
:10195000D906EA06FB0600F18B899C89AD89BE8910
:101960000196A11DB11D8B8B9C8BAD8BBE8B211461
:10197000310439F10A97A105B10518F19FEF291A31
:10198000390AC12CD12C760181E090E0A0E0B0E0D2
:101990008B8B9C8BAD8BBE8B9AE0492E512C612C8E
:1019A000712CC701B601A30192010E94BE1F672BD3
:1019B000682B692B51F4101644F469017A01015027
:1019C000F0CFC12CD12C7601E7CF4B895C896D8992
:1019D0007E89C4010E94BA04002309F43FC05E015D
:1019E00091E1A90EB11C102FBA8AA98A8AE0482E6B
:1019F000512C612C712C115068F0C701B601A30164
:101A000092010E94BE1F605DD5016E935D01690168
:101A10007A01F1CF802F90E0BC0160957095E98943
:101A2000FA89E81BF90B31978EE28083442755270A
:101A3000461B570BE1E1F0E0EC0FFD1F6E0F7F1F1F
:101A4000C4010E947704D40112962D913C91139702
:101A5000820F931F13969C938E93129737FE25C087
:101A600061E172E0C4010E94FD0A662777276219CE
:101A70007309C4010E9481046A960FB6F894DEBF10
:101A80000FBECDBFDF91CF911F910F91FF90EF90CF
:101A9000DF90CF90BF90AF909F908F907F906F908E
:101AA0005F904F903F902F9008952114310421F3BF
:101AB00065E6C4010E946204B101DBCF6DE5C4019B
:101AC0000E946204D9CF6BE7C4010E946204D8016E
:101AD0000D911C9101151105C9F0F80166817781FE
:101AE000C4010E940D056AE3C4010E946204B401AE
:101AF000C8010E94130BC8010E94F0088C01892BB9
:101B000029F06CE2C4010E946204E4CF6DE7D7CFF4
:101B10006D917C91C4010E940D05AECFF801C0808B
:101B2000D180E280F3806DE2C4010E946204B701BB
:101B3000A601C4010E94BA049FCF4D915D916D91A1
:101B40007C91F7CFF80180819181A281B38164E11A
:101B500072E0892B8A2B8B2B11F469E172E0C401AE
:101B60000E94FD0A89CFCF93DF9300D000D0CDB77C
:101B7000DEB77A8369831C821B82BE016F5F7F4F51
:101B800009960E94130B8B819C810F900F900F90F0
:101B90000F90DF91CF910895CF93DF9300D000D0C5
:101BA000CDB7DEB77A8369831C821B82BE016F5F6B
:101BB0007F4F08960E94130B8B819C810F900F9092
:101BC0000F900F90DF91CF9108950F931F93CF93B4
:101BD000DF938B01EC01892BA1F06E817F8160176F
:101BE000710779F00115110541F06115710529F0B2
:101BF000C8010E943921892B21F0CE010E94F008F2
:101C0000E9CFCE01DF91CF911F910F9108958F926F
:101C10009F92AF92BF92CF92DF92EF92FF920F937B
:101C20001F93CF93DF93CDB7DEB7CB54D1090FB657
:101C3000F894DEBF0FBECDBF8C017B01D42E0E9475
:101C400091072C969FAF8EAF2C97CE01865B9F4F4E
:101C50000E946C08672B09F099C080FD97C0C801ED
:101C60000E941607873209F48BC114F5823209F4F9
:101C700087C1C8010E941607C82ECE0101964C01EB
:101C8000D12C5C018C2D0E94FE06882309F492C1A0
:101C90009FE3D91609F48EC1D80117961C92D394EC
:101CA000F401C1924F01C8010E941607C82EEACF65
:101CB0008B3509F485C08B37E1F6F7018481807894
:101CC000806284831182108213821282DD2009F4E3
:101CD00055C1D80117961C92C8010E9491079A839A
:101CE0008983CE0101960E946C08672B09F0B4C06D
:101CF00080FDB2C06DE7C8010E9480078111B7C0A6
:101D0000DA94C8010E941607873209F4BAC08232F9
:101D100009F4B7C0F80182809380C8010E941607B9
:101D2000A82E0E94FE0622E030E0882361F1D8014F
:101D300017961C9217971296ED91FC911397CF016D
:101D4000019613969C938E931297A082C8010E94CD
:101D50001607A82E0E94FE068111E9CFD80112961F
:101D6000ED91FC911397CF01019613969C938E935E
:101D70001297108223E030E08114910421F0B82CF6
:101D8000C92C30E020E09B2CAC2C83C02B968FAD6F
:101D90002B972C969FAD2C97C55BDF4F0FB6F89411
:101DA000DEBF0FBECDBFDF91CF911F910F91FF908E
:101DB000EF90DF90CF90BF90AF909F908F9008955D
:101DC000D70114968C9114978078806414968C9324
:101DD000149711961C921E9213961C921E921297A3
:101DE000DD2009F4CBC0F8011782C8010E949107D9
:101DF0009A838983CE0101960E946C08672B61F556
:101E000080FD2AC06DE5C8010E94800781112FC0A6
:101E1000DA94D8016D917C91C7010E948B080097DC
:101E200009F4A9C04D2DBC01C8010E94070E9A8378
:101E30008983CE0101960E946C08672B69F480FDAE
:101E40000BC0C8010E9491079A838983CE01019635
:101E50000E946C08672B19F089819A819DCF80FDC3
:101E6000FBCF6DE5C8010E948007882311F080E058
:101E700083C06CE2C8010E9480078111CACF82E052
:101E80007BC0C8010E9426079B019B2CAC2CB82E5E
:101E9000C92E3A832983CE0101960E946C08672BD4
:101EA000D9F680FDD9CFC8010E9491079A83898312
:101EB000CE0101960E946C08672B71F680FDCCCF95
:101EC0006AE3C8010E9480078823C9F26B2D7C2D2C
:101ED000F701808191810E94E50DBC01892B81F47D
:101EE000D8016D917C91C7010E948B08FC01892B60
:101EF00009F441C0848180688483B682C782BF01AF
:101F00004D2DC8010E94070E9A838983CE01019648
:101F10000E946C08672B09F09FCF80FD9DCFC80100
:101F20000E9491079A838983CE0101960E946C08D2
:101F3000672B09F091CF80FD8FCF6DE7C8010E941C
:101F40008007811194CF6CE2C8010E94800788232A
:101F500009F495CFC8010E9491079A838983CE0125
:101F600001960E946C08672B09F076CF80FD74CF34
:101F7000B92CCA2CC6CE83E090E00ECF85E0FCCF12
:101F8000C8010E94260769837A838B839C83CE01D4
:101F900001960E946C08672B09F05ECF80FD5CCF34
:101FA0002B813C81F7018481807885608483318333
:101FB00020835DCFF501ED0DF11D108289818437FD
:101FC000B9F4D70114968C91149780788660149692
:101FD0008C9381E090E0A0E0B0E0F70180839183F2
:101FE000A283B38390E0F4E0DF12D6CE80E0D4CEBB
:101FF000863689F4D70114968C9114978078866080
:1020000014968C93F701108211821282138281E060
:1020100090E0F5E0E9CF8E3631F481E090E024E005
:10202000D212BACEE3CFB501CE018F5B9F4F0E9493
:102030003A0525964CAD5DAD6EAD7FAD25972A96E0
:102040008FAD2A978A3061F08C30C1F0883009F06A
:1020500016CFD70114968C9114978078886006C0AB
:10206000D70114968C91149780788A6014968C937B
:10207000F7014083518362837383F9CE29964CAD77
:102080005DAD6EAD7FAD2997D70114968C911497F5
:1020900080788C6014968C93F7014083518362831F
:1020A0007383E5CEEF92FF920F931F93CF93DF934D
:1020B000009701F161157105E9F07A01EB018C01DE
:1020C000FC01808191810E94E50D009761F4B701C8
:1020D000C8010E948B08009731F0FC0124812F7702
:1020E0002483D783C683DF91CF911F910F91FF90F7
:1020F000EF90089590E080E0F6CF4F925F926F925C
:102100007F92AF92BF92CF92DF92EF92FF920F93A6
:102110001F93CF93DF9300D000D000D01F92CDB794
:10212000DEB75C012A013B0110E000E0F501E2802E
:10213000F380E00EF11E64817581C2014A825B82E8
:102140006C827D82CC80DD80A6010E945210A601A7
:10215000B8010E94090AF70160810E94DD080F5F43
:102160001F4F0630110511F727960FB6F894DEBF02
:102170000FBECDBFDF91CF911F910F91FF90EF90D8
:10218000DF90CF90BF90AF907F906F905F904F9017
:1021900008954F925F926F927F92AF92BF92CF92CB
:1021A000DF92EF92FF920F931F93CF93DF9300D0B4
:1021B00000D000D01F92CDB7DEB76C012A013B01E1
:1021C00010E000E0D6011296ED90FC901397149663
:1021D0006D917C91C2014A825B826C827D82AC806F
:1021E000BD80A5010E945210A501B8010E94090AF4
:1021F000FC01892BB9F0C801880F991FE80EF91E60
:10220000D7012D913C91A901032E000C660B770B91
:102210009481907837FD20C09860948340835183E7
:10222000628373830F5F1F4F0330110559F62796A2
:102230000FB6F894DEBF0FBECDBFDF91CF911F91D7
:102240000F91FF90EF90DF90CF90BF90AF907F9075
:102250006F905F904F9008959A6094837095609509
:10226000509541955F4F6F4F7F4FD8CF4F925F9200
:102270006F927F92AF92BF92CF92DF92EF92FF92D6
:102280000F931F93CF93DF93CDB7DEB765970FB64C
:10229000F894DEBF0FBECDBF7C01DC0116966C91B9
:1022A00070E06F5F7F4F33E0660F771F3A95E1F77D
:1022B000CE0101960E94C40ACE0102960E944608F1
:1022C0002B013C0110E000E0F701C280D380648163
:1022D0007581C201488A598A6A8A7B8AAA88BB8822
:1022E000A5010E945210A501B8010E94090AFC0133
:1022F000892BB9F0C801880F991FC80ED91ED601C5
:102300002D913C91A901032E000C660B770B948153
:10231000907837FD2CC0986094834083518362830A
:1023200073830F5F1F4F0330110571F66EE673E084
:10233000CE0101960E94B30D0E94F50ACE010196CE
:102340000E94ED0A65960FB6F894DEBF0FBECDBFB2
:10235000DF91CF911F910F91FF90EF90DF90CF9081
:10236000BF90AF907F906F905F904F9008959A606C
:10237000948370956095509541955F4F6F4F7F4F57
:10238000CCCFCF93DF93FC01DB01CA01C281D381A3
:1023900064817581AD010E945210FC01892B61F0AE
:1023A0008881948190789860948390E0B0E0A0E078
:1023B00080839183A283B383DF91CF910895CF93DC
:1023C000DF93FC01DB01CA01C281D3816481758185
:1023D000AD010E9452106881DF91CF910C94DD080D
:1023E000EF92FF920F931F93CF93DF93CDB7DEB79A
:1023F00065970FB6F894DEBF0FBECDBF8C01CE013E
:102400000E969A8389839C838B8308969E838D8303
:1024100098878F838D8580788D87CE0101960E9465
:102420004608DC01CB01F801E280F380648175810C
:10243000AD010E945210F70160810E94DD086EE636
:1024400073E0CE0101960E94CC0D0E94F50A6596BC
:102450000FB6F894DEBF0FBECDBFDF91CF911F91B5
:102460000F91FF90EF9008954F925F926F927F923D
:10247000AF92BF92CF92DF92EF92FF920F931F9392
:10248000CF93DF9300D000D000D01F92CDB7DEB73E
:102490005C012A013B0110E000E0F501E280F380DD
:1024A000E00EF11E64817581C2014A825B826C82FA
:1024B0007D82CC80DD80A6010E945210A601B80169
:1024C0000E94090AF70160810E94DD080F5F1F4F1B
:1024D0000330110511F727960FB6F894DEBF0FBE33
:1024E000CDBFDF91CF911F910F91FF90EF90DF90C3
:1024F000CF90BF90AF907F906F905F904F90089576
:102500004F925F926F927F92AF92BF92CF92DF9283
:10251000EF92FF920F931F93CF93DF93CDB7DEB768
:1025200065970FB6F894DEBF0FBECDBF8C01FC01DE
:10253000668170E06F5F7F4F83E0660F771F8A953B
:10254000E1F7CE0101960E94C40ACE0102960E94D4
:1025500046082B013C01F12CE12CF801C280D3800C
:10256000CE0CDF1C64817581C201488A598A6A8A4F
:102570007B8AAA88BB88A5010E945210A501B701D9
:102580000E94090AF60160810E94DD08FFEFEF1A40
:10259000FF0A83E0E816F10401F76EE673E0CE016E
:1025A00001960E94B30D0E94F50ACE0101960E9489
:1025B000ED0A65960FB6F894DEBF0FBECDBFDF9172
:1025C000CF911F910F91FF90EF90DF90CF90BF9030
:1025D000AF907F906F905F904F9008954F925F9271
:1025E0006F927F92AF92BF92CF92DF92EF92FF9263
:1025F0000F931F93CF93DF93CDB7DEB765970FB6D9
:10260000F894DEBF0FBECDBF8C01FC01668170E087
:102610006F5F7F4F83E0660F771F8A95E1F7CE01EA
:1026200001960E94C40ACE0102960E9446082B0120
:102630003C01F12CE12CF801C280D380CE0CDF1CD0
:1026400064817581C201488A598A6A8A7B8AAA880C
:10265000BB88A5010E945210A501B7010E94090A7A
:10266000F60160810E94DD08FFEFEF1AFF0A86E0A5
:10267000E816F10401F76EE673E0CE0101960E94C0
:10268000B30D0E94F50ACE0101960E94ED0A6596EF
:102690000FB6F894DEBF0FBECDBFDF91CF911F9173
:1026A0000F91FF90EF90DF90CF90BF90AF907F9011
:1026B0006F905F904F900895EF92FF920F931F934A
:1026C000CF93DF93CDB7DEB765970FB6F894DEBF33
:1026D0000FBECDBF8C01CE010E969A8389839C8359
:1026E0008B8308969E838D8398878F838D858078D2
:1026F0008D87CE0101960E944608DC01CB01F801CE
:10270000E280F38064817581AD010E945210FC016A
:10271000892B69F0D7018C9194819078986094838B
:1027200090E0B0E0A0E080839183A283B3836EE663
:1027300073E0CE0101960E94CC0D0E94F50A6596C9
:102740000FB6F894DEBF0FBECDBFDF91CF911F91C2
:102750000F91FF90EF9008951F920F920FB60F9276
:1027600011242F933F934F935F936F937F938F9396
:102770009F93AF93BF93EF93FF938EE693E00E94F6
:102780006E01FF91EF91BF91AF919F918F917F91DA
:102790006F915F914F913F912F910F900FBE0F90CE
:1027A0001F9018951F920F920FB60F9211242F931E
:1027B0008F939F93EF93FF93E0917E03F0917F03BC
:1027C0008081E0918403F091850382FD1BC090819C
:1027D000809187038F5F8F7320918803821741F068
:1027E000E0918703F0E0E259FC4F958F80938703D7
:1027F000FF91EF919F918F912F910F900FBE0F90AE
:102800001F9018958081F4CF1F920F920FB60F92F0
:1028100011242F933F938F939F93AF93BF938091F6
:10282000DA029091DB02A091DC02B091DD023091DE
:10283000D90226E0230F2D3758F50296A11DB11DB0
:102840002093D9028093DA029093DB02A093DC02FA
:10285000B093DD028091DE029091DF02A091E00250
:10286000B091E1020196A11DB11D8093DE0290930B
:10287000DF02A093E002B093E102BF91AF919F917C
:102880008F913F912F910F900FBE0F901F90189531
:1028900029E8230F0396A11DB11DD2CF1F920F92DD
:1028A0000FB60F9211242F933F934F935F936F9323
:1028B0007F938F939F93AF93BF93EF93FF93E09199
:1028C0000201F09103010995FF91EF91BF91AF9142
:1028D0009F918F917F916F915F914F913F912F9138
:1028E0000F900FBE0F901F9018951F920F920FB66A
:1028F0000F9211242F933F934F935F936F937F9386
:102900008F939F93AF93BF93EF93FF93E091000159
:10291000F09101010995FF91EF91BF91AF919F91C6
:102920008F917F916F915F914F913F912F910F9078
:102930000FBE0F901F9018951F920F920FB60F9217
:1029400011242F933F934F935F936F937F938F93B4
:102950009F93AF93BF93EF93FF938091B900887FCC
:10296000803609F44AC0F0F5883209F4A5C018F59C
:10297000803109F499C0B8F4882309F4F5C088308F
:1029800009F492C0FF91EF91BF91AF919F918F9108
:102990007F916F915F914F913F912F910F900FBE5B
:1029A0000F901F901895883109F486C0803251F736
:1029B0008093470314C0803409F49BC040F48033F3
:1029C000B9F38833F9F68093470385ECAEC08035C0
:1029D00009F483C0883509F494C0883499F60E94BC
:1029E0003403D0CF883909F48AC038F5883729F004
:1029F00050F4883611F0803729F683E0809349033C
:102A00001092D80255C0883809F479C0803919F07D
:102A1000803809F0B7CF8091D802803208F06FC0BB
:102A2000E091D80281E08E0F8093D8028091BB00A4
:102A3000F0E0E854FD4F80833BC0803B39F0D0F498
:102A4000803A09F477C0883A09F09CCF84E08093FB
:102A500049031092B7021092B602F0E0E0E0099547
:102A60008091B60281110FC081E08093B60210926E
:102A7000960209C0803C09F4A8CF883C09F4A5CF90
:102A8000883B09F07FCFE091B70281E08E0F809301
:102A9000B702F0E0EA56FD4F80818093BB00909131
:102AA000B7028091B60229C0809124038093BB00B5
:102AB00085EC8093BC0066CF9091460380914503DE
:102AC000981758F5E091460381E08E0F80934603F6
:102AD000F0E0EB5DFC4F8081E9CFE091460381E0BF
:102AE0008E0F809346038091BB00F0E0EB5DFC4FBE
:102AF000808390914603809145039817C8F285E83A
:102B0000D8CFE091460381E08E0F809346038091F9
:102B1000BB00F0E0EB5DFC4F8083809148038111A6
:102B20005ECF81E08093230384EA8093BC001092FF
:102B3000490328CF85EC8093BC0010924903809113
:102B4000D802803230F4E091D802F0E0E854FD4F32
:102B500010826091D80270E088EB92E0F0E0E0E053
:102B600009951092D8020ECF1092470338CF1F92CA
:102B70000F920FB60F9211248F930FB6F894A89569
:102B800080916000886180936000109260000FBEA9
:102B90008F910F900FBE0F901F901895BF92CF92FC
:102BA000DF92EF92FF920F931F93CF93DF93EC018D
:102BB0006B017A01B980BB20F1F08B2D90E001967A
:102BC000880F991F0E9414208C018C819D81F8012F
:102BD00020E0DF01A01BB10BA80FB91F4D915C9144
:102BE000419351932F5FB212F4CF009711F00E94DE
:102BF000B0201D830C8386E090E00E941420FC012D
:102C000086E291E091838083D382C282F582E4825E
:102C10009981292F30E0220F331FAC81BD81A20F93
:102C2000B31FED93FC939F5F9983DF91CF911F9129
:102C30000F91FF90EF90DF90CF90BF900895BF92DB
:102C4000CF92DF92EF92FF920F931F93CF93DF9378
:102C5000EC016B017A01B880BB20F1F08B2D90E084
:102C60000196880F991F0E9414208C018A819B81F4
:102C7000F80120E0DF01A01BB10BA80FB91F4D9197
:102C80005C91419351932F5FB212F4CF009711F0F2
:102C90000E94B0201B830A8386E090E00E941420EB
:102CA000FC0186E291E091838083D382C282F58227
:102CB000E4829881292F30E0220F331FAA81BB8143
:102CC000A20FB31FED93FC939F5F9883DF91CF9189
:102CD0001F910F91FF90EF90DF90CF90BF900895DC
:102CE000CF92DF92EF92FF920F931F93CF93DF93D8
:102CF000109271031092700388EE93E0A0E0B0E0B0
:102D00008093720390937303A0937403B09375033D
:102D100028E931E030936F0320936E0325EC30E017
:102D200030937B0320937A0324EC30E030937D03CF
:102D300020937C0320EC30E030937F0320937E03CC
:102D400021EC30E0309381032093800322EC30E0CB
:102D5000309383032093820326EC30E03093850385
:102D600020938403109287031092880310928903A2
:102D700010928A0310920E0410920D0480930F0497
:102D800090931004A0931104B09312048AEA91E086
:102D900090930C0480930B0410926D0410927104B4
:102DA0001092700410926E0410926F0461E080E142
:102DB0000E947D0280916D04882309F405C1109260
:102DC0006E0461E084E00E947D0280916D0488239E
:102DD00009F4FFC010926F0461E081E10E947D025E
:102DE00060E081E10E944F0260E087E00E947D0286
:102DF00060E083E00E947D0260E082E00E947D024C
:102E0000109262041092680410926A0480E490E0C8
:102E100090936C0480936B0482E090E00E941420F5
:102E20007C01909364048093630482E090E00E94AC
:102E3000142090936604809365048DE694E090934B
:102E400018048093170481E694E090931A04809309
:102E5000190416E01093290484E080932A0483E087
:102E600080932B040CE2C02E04E0D02ED601E12F7B
:102E70001D92EA95E9F7E2E3F4E0DF01812F1D926C
:102E80008A95E9F710923D0410923E0410923F0497
:102E900081E090E0909346048093450410924804AA
:102EA0001092470488E1EAE0F1E0A9E4B4E001907F
:102EB0000D928A95E1F787E090E00E941420EC01E2
:102EC0008CEE91E099838883DB82CA828FE192E065
:102ED0009D838C831E83D701CD93DC9381E0809307
:102EE0006104109367048093690484E090E00E9479
:102EF00014208C01FC01D183C083E114F10419F08A
:102F0000C7010E94B020109364040093630487E01B
:102F100090E00E941420FC018CED91E0918380836D
:102F200082E394E09383828383E292E095838483B7
:102F300083E08683D8011396FC93EE93129782E088
:102F400080936104809369044AE252E068E374E08C
:102F500081E694E00E941F164FE252E069E374E0BC
:102F60008091190490911A040E941F1643E352E0C5
:102F70006AE374E08091190490911A040E941F166C
:102F8000C0911904D0911A048881882379F190E0C6
:102F90000196880F991F0E9414207C014A815B8151
:102FA00090E088819817D0F4292F30E0220F331F4A
:102FB000FA01E20FF31F608171812E0D3F1DF901AF
:102FC000718360839F5FEDCF60E080E10E944F02DC
:102FD000F6CE60E084E00E944F02FCCE4115510520
:102FE00019F0CA010E94B020FB82EA8286E090E0DC
:102FF0000E941420FC018CEC91E0918380838BE390
:1030000094E09383828388E392E09583848398811C
:10301000292F30E0220F331FAA81BB81A20FB31FDB
:10302000ED93FC939F5F98834EE352E06CE374E072
:103030008091190490911A040E941F16C0911904DE
:10304000D0911A048981882329F190E00196880F94
:10305000991F0E9414207C014C815D8190E0898140
:10306000981780F4292F30E0220F331FFA01E20F66
:10307000F31F608171812E0D3F1DD9016D937C93EB
:103080009F5FEDCF4115510519F0CA010E94B02094
:10309000FD82EC8287E090E00E941420FC018CEB22
:1030A00091E0918380838DE394E09383828383E432
:1030B00092E09583848393E096838981282F30E082
:1030C000220F331FAC81BD81A20FB31FED93FC9380
:1030D0008F5F89838F81833008F49F8389858F5F19
:1030E000898747E452E060E474E08091190490918C
:1030F0001A040E94CE154EE352E061E474E0809120
:10310000190490911A040E94CE154DE452E062E435
:1031100074E08091190490911A04DF91CF911F916E
:103120000F91FF90EF90DF90CF900C94CE15CF933E
:10313000DF93CDB7DEB7A8970FB6F894DEBF0FBE0A
:10314000CDBF789484B5826084BD84B5816084BD30
:1031500085B5826085BD85B5816085BD80916E0035
:10316000816080936E001092810080918100826066
:1031700080938100809181008160809381008091A3
:1031800080008160809380008091B1008460809392
:10319000B1008091B00081608093B00080917A008E
:1031A000846080937A0080917A00826080937A00B4
:1031B00080917A008E7F80937A0080917A00806877
:1031C00080937A001092C100E0917E03F0917F031A
:1031D00082E08083E0917A03F0917B031082E0919A
:1031E0007C03F0917D0387E6808310928603E09153
:1031F0008203F091830386E08083E0918003F09165
:103200008103808180618083E0918003F09181035C
:10321000808188608083E0918003F09181038081C8
:1032200080688083E0918003F091810380818F7DAD
:10323000808380916D04882309F475C010926E0418
:1032400080916D04882309F473C010926F0462E0CA
:1032500082E00E947D020BE711E07DE2E72E74E040
:10326000F72EE0E8AE2EE1E0BE2ED801DD908D0114
:1032700060E08D2D0E947D028D2D0E94260221E0AE
:10328000892B09F420E0F70121937F01A016B106F4
:1032900061F761E087E00E947D0260E087E00E94C4
:1032A0004F0261E08AE00E947D0260E08AE00E94B5
:1032B0004F0261E08DE00E947D0260E08DE00E949F
:1032C0004F026FE0CE0101960E94640A89818863F3
:1032D00088A7BE01685D7F4F8FE00E94EB0360E02E
:1032E000CE0101960E94640A1FA2BE01695D7F4F54
:1032F00081E00E94EB035E01F2E0AF0EB11C772487
:103300007394E0911B04E83008F088C0F0E0E557C2
:10331000F64E0C94E01F9D19D4190E1A001B2A1B9F
:103320005D1B3C1B6B1B60E080E10E944F0286CF5F
:1033300060E084E00E944F0288CF00911704109152
:103340001804D8018C91882309F433C111968C910B
:10335000119790E013967C92181619060CF02DC167
:10336000F801738270922804C0902004D090210448
:10337000E0902204F0902304F0E3CF0EF5E7DF1E87
:10338000E11CF11C0E9428036C157D058E059F052C
:1033900058F484E08093390469E374E0809119045F
:1033A00090911A040E94E4078AEE90E09093030142
:1033B0008093020180916900837F88608093690017
:1033C000E99A8BEE90E09093010180930001809147
:1033D00069008C7F826080936900E89A30E020E089
:1033E00050E040E06AE070E080911704909118048A
:1033F0000E940A04E9988FEE90E090930301809375
:103400000201E89890930101809300010E94F30269
:1034100080913B048111E7C01092380458EEC52E0C
:1034200052E0D52E62EEE62E62E0F62E10E000E0CD
:103430000E942803D6012D913D914D915C91621718
:1034400073078407950738F40E942803F601608308
:10345000718382839383D6012D903D904D905C9033
:10346000BAE02B0E311C411C511C0E94280362152E
:1034700073058405950588F0F801E658FE4F8081B4
:103480000E942602F801E95EFB4FD7019C91258935
:10349000821342C1913009F41C920F5F1F4FB4E0B8
:1034A000CB0ED11CEFEFEE1AFE0A0630110509F023
:1034B000BFCFB2E3EB2EB4E0FB2E9E012F5F3F4F58
:1034C000690100E010E8812E11E0912E86E0682E5F
:1034D000102F110F180D812F0E94B902812F0E9409
:1034E000B902A6E05A2E0E94F302812F0E94B9026F
:1034F0005A945110F8CF662D0E949E1F90E0D7017C
:103500002D913D917D01F601419151916F01BC01D9
:10351000621B730B9B0177FF03C031952195310925
:103520004217530724F4F7013297918380830F5F8A
:10353000043071F60091190410911A042DB63EB6AC
:10354000D8011A968D919C91EDB7FEB7E81BF90B47
:103550000FB6F894FEBF0FBEEDBF2DB73EB72F5F7D
:103560003F4F6901F2E04F2E512C8EE693E00E940E
:103570004E01181619060CF0F6C18EE693E00E9473
:103580002C0190910003F601E90FF11D8A3009F436
:1035900019C1808381E0890F80930003D8011A96B6
:1035A0002D913C918217130604F3215020930003C0
:1035B000DCCF87E00E942602CFCE10922804009133
:1035C000170410911804D8018C91882329F01196C2
:1035D0001C9270921B04C8CE60E080E10E944F02F2
:1035E000F8011182F6CF0E9428036093240470939F
:1035F000250480932604909327040E94420A0ECF4C
:1036000080914304813021F080914204813059F44B
:103610007092380468E374E08091190490911A0460
:103620000E94E407FBCEC0902404D0902504E090D3
:103630002604F090270420E3C20E25E7D21EE11CE9
:10364000F11C0E9428036C157D058E059F0510F462
:103650000E94300880914304811107C08091440486
:10366000813019F482E00E94120880913B0481119C
:1036700003C083E00E941208C0902004D09021046F
:10368000E0902204F090230430E3C30E35E7D31E0C
:10369000E11CF11C0E9428036C157D058E059F0519
:1036A00010F40E94300880914304813021F0809111
:1036B0004204813011F40E94420A80913B0481113E
:1036C00003C082E00E94120880914304813019F403
:1036D00084E080931B04C0902004D0902104E090EB
:1036E0002204F090230440E3C40E45E7D41EE11CFD
:1036F000F11C0E9428036C157D058E059F0510F4B2
:103700000E94300880913B04811177CF8091420460
:10371000813009F083CE71CF913009F048C01C92FE
:1037200061E0811101C060E0658BF801EE0FFF1FC1
:10373000EE0FFF1FE95EFB4F24A935A9C90195953E
:103740008795895E9B4F02A8F3A9E02D20FF08C052
:10375000DC012D913C91E20FF31F0190F081E02DEF
:1037600009958090190490901A04612CF4018081CD
:103770006816F8F4862D90E0880F991F0280F38177
:10378000E02DE80FF91F80819181009771F0DC0135
:1037900012962D913C912C52344039F4DC01ED917C
:1037A000FC910084F185E02D09956394DFCFF7014A
:1037B00070820E942803D6016D937D938D939C9314
:1037C00013976BCE108210920003F80191858781C8
:1037D000618170E0989F600D711D1124E3E0660F18
:1037E000771FEA95E1F7CE0101960E94C40A8A810B
:1037F0009B819D838C83888599859F838E838E850D
:1038000080788E87B88AAF86DA8AC98ADC8ACB8AC2
:103810001E8A4AE0BE01665F7F4FCE010F960E946E
:10382000070E9F8F8E8FCE014E960E946C08672BDD
:1038300079F480FD0DC08D89882351F08E85982FF5
:103840009F779C3019F08D77883011F45F8E4E8E03
:10385000EE8CFF8CFEA2EDA2CE0185960E946C0834
:10386000672B61F480FD0AC08E85EA84FB8485FDA8
:1038700025C0CE0101960E94ED0A77CEF6E0EF1644
:10388000F104C8F4F701EE0FFF1FE857FE4F608107
:1038900071816115710561F0FB0101900020E9F76C
:1038A0003197AF01461B570B8EE693E00E94F00064
:1038B0000E94F50ADECF63E572E0EECFE114F10479
:1038C000C1F2A701B501CE010F960E94BE0887E0A4
:1038D000FE013F96DE01579601900D928A95E1F721
:1038E00087E0FE017796DE015E9601900D928A9543
:1038F000E1F7612CD80111968C911197681660F54B
:10390000862C912C880C991C1496ED91FC91E80D55
:10391000F91D80819181DC01ED91FC910680F78198
:10392000E02D0995BC018E8D9F8D0E943921892B38
:10393000C1F449A15AA16BA17CA1F80184819581B0
:10394000880E991ED4018D919C91DC01ED91FC9122
:103950000480F581E02D0995C7010E94F0087C01E3
:10396000ADCF6394C7CF0FB6F8943EBE0FBE2DBE49
:1039700080914704909148048130910509F494C0E6
:1039800080F0029709F4D9C080E090E0892B09F417
:10399000B8CC0E945A01882309F4B1CC0E940000DF
:1039A000AECC80914004813009F054C080933C0437
:1039B0000091190410911A04F801908586816081A4
:1039C00070E0989F600D711D112433E0660F771F22
:1039D0003A95E1F7CE0101960E94C40AC5010E9402
:1039E00046081B012C01F12CD8018C91F816B0F47B
:1039F0008F2D90E0880F991F1296ED91FC91E80FA2
:103A0000F91F80819181DC01ED91FC910284F385A5
:103A1000E02DB201A1010995F394E6CF6EE673E0C3
:103A2000CE0101960E94B30D0E94F50ACE010196C7
:103A30000E94ED0A0E94280360931C0470931D04E9
:103A400080931E0490931F0481E090E090934804BB
:103A500080934704C0901C04D0901D04E0901E0485
:103A6000F0901F04B0E3CB0EB5E7DB1EE11CF11CA8
:103A70000E9428036C157D058E059F05A8F483E040
:103A800080933C046CE374E08091190490911A04D3
:103A90000E94E4070E94280360931C0470931D0495
:103AA00080931E0490931F04809141048130D9F4C7
:103AB00082E080933C046CE374E08091190490915F
:103AC0001A040E94E4070E94280360931C04709368
:103AD0001D0480931E0490931F0482E090E0909355
:103AE000480480934704C0901C04D0901D04E090CB
:103AF0001E04F0901F04E0E3CE0EE5E7DE1EE11C9D
:103B0000F11C0E9428036C157D058E059F05A8F405
:103B100084E080933C046CE374E0809119049091FC
:103B20001A040E94E4070E94280360931C04709307
:103B30001D0480931E0490931F04C0901C04D09019
:103B40001D04E0901E04F0901F04F0E3CF0EF5E793
:103B5000DF1EE11CF11C0E9428036C157D058E05FB
:103B60009F0508F011CF1092410410923C040E946E
:103B7000280360931C0470931D0480931E0490938B
:103B80001F041092480410924704FECE8CE294E089
:103B90000E94B02082E394E00E94B0208DE394E084
:103BA0000C94B0205058BB27AA270E94EA1D0C9401
:103BB000F21E0E94E41E38F00E94EB1E20F039F441
:103BC0009F3F19F426F40C94E11E0EF4E095E7FBF8
:103BD0000C94DB1EE92F0E94031F58F3BA176207EB
:103BE00073078407950720F079F4A6F50C94251F38
:103BF0000EF4E0950B2EBA2FA02D0B01B901900108
:103C00000C01CA01A0011124FF27591B99F0593F4B
:103C100050F4503E68F11A16F040A22F232F342F93
:103C20004427585FF3CF469537952795A795F040E1
:103C30005395C9F77EF41F16BA0B620B730B840BF6
:103C4000BAF09150A1F0FF0FBB1F661F771F881FAE
:103C5000C2F70EC0BA0F621F731F841F48F4879506
:103C600077956795B795F7959E3F08F0B0CF9395F8
:103C7000880F08F09927EE0F9795879508950E9471
:103C8000B71E08F481E008950E944B1E6894B1119C
:103C90000C94261F08950E940B1F88F09F5798F0E0
:103CA000B92F9927B751B0F0E1F0660F771F881F41
:103CB000991F1AF0BA95C9F714C0B13091F00E945B
:103CC000251FB1E008950C94251F672F782F8827B2
:103CD000B85F39F0B93FCCF3869577956795B39582
:103CE000D9F73EF490958095709561957F4F8F4FF1
:103CF0009F4F0895E89409C097FB3EF490958095F6
:103D0000709561957F4F8F4F9F4F9923A9F0F92FA1
:103D100096E9BB279395F695879577956795B7951F
:103D2000F111F8CFFAF4BB0F11F460FF1BC06F5F05
:103D30007F4F8F4F9F4F16C0882311F096E911C017
:103D4000772321F09EE8872F762F05C0662371F038
:103D500096E8862F70E060E02AF09A95660F771F4C
:103D6000881FDAF7880F9695879597F90895990F28
:103D70000008550FAA0BE0E8FEEF16161706E80735
:103D8000F907C0F012161306E407F50798F0621B56
:103D9000730B840B950B39F40A2661F0232B242B2B
:103DA000252B21F408950A2609F4A140A6958FEF4A
:103DB000811D811D089597F99F6780E870E060E09C
:103DC00008959FEF80EC089500240A9416161706B4
:103DD00018060906089500240A94121613061406FC
:103DE00005060895092E0394000C11F4882352F05F
:103DF000BB0F40F4BF2B11F460FF04C06F5F7F4F17
:103E00008F4F9F4F089557FD9058440F551F59F0FD
:103E10005F3F71F04795880F97FB991F61F09F3FB7
:103E200079F087950895121613061406551FF2CFE0
:103E30004695F1DF08C0161617061806991FF1CF30
:103E400086957105610508940895E894BB27662757
:103E50007727CB0197F908950E94B71E08F48FEFDA
:103E600008950E94441F0C94F21E0E94E41E38F034
:103E70000E94EB1E20F0952311F00C94DB1E0C9495
:103E8000E11E11240C94261F0E94031F70F3959FBE
:103E9000C1F3950F50E0551F629FF001729FBB2741
:103EA000F00DB11D639FAA27F00DB11DAA1F649FDD
:103EB0006627B00DA11D661F829F2227B00DA11D90
:103EC000621F739FB00DA11D621F839FA00D611D16
:103ED000221F749F3327A00D611D231F849F600D37
:103EE000211D822F762F6A2F11249F5750409AF060
:103EF000F1F088234AF0EE0FFF1FBB1F661F771FEC
:103F0000881F91505040A9F79E3F510580F00C94B6
:103F1000DB1E0C94261F5F3FE4F3983ED4F3869596
:103F200077956795B795F795E7959F5FC1F7FE2B56
:103F3000880F911D9695879597F90895991B79E0BB
:103F400004C0991F961708F0961B881F7A95C9F729
:103F50008095089597FB072E16F4009407D077FDFF
:103F600009D00E94F11F07FC05D03EF49095819581
:103F70009F4F0895709561957F4F0895A1E21A2E85
:103F8000AA1BBB1BFD010DC0AA1FBB1FEE1FFF1FFD
:103F9000A217B307E407F50720F0A21BB30BE40B4D
:103FA000F50B661F771F881F991F1A9469F7609594
:103FB0007095809590959B01AC01BD01CF0108954E
:103FC000EE0FFF1F0590F491E02D09940E9405204B
:103FD000A59F900DB49F900DA49F800D911D11245D
:103FE0000895AA1BBB1B51E107C0AA1FBB1FA61740
:103FF000B70710F0A61BB70B881F991F5A95A9F792
:1040000080959095BC01CD010895A29FB001B39F0A
:10401000C001A39F700D811D1124911DB29F700DD1
:10402000811D1124911D08950F931F93CF93DF934A
:104030008230910510F482E090E0E0917404F091F8
:10404000750430E020E0B0E0A0E0309799F421154D
:10405000310509F44AC0281B390B24303105D8F545
:104060008A819B816115710589F1FB0193838283AC
:10407000FE0111C040815181028113814817590707
:10408000E0F04817590799F4109761F012960C93D5
:10409000129713961C933296CF01DF91CF911F9107
:1040A0000F9108950093740410937504F4CF2115B3
:1040B000310551F04217530738F0A901DB019A018D
:1040C000BD01DF01F801C1CFEF01F9CF9093750475
:1040D00080937404CDCFFE01E20FF31F819391937F
:1040E0002250310939832883D7CF2091720430912F
:1040F0007304232B41F42091060130910701309382
:10410000730420937204209104013091050121155C
:10411000310541F42DB73EB7409108015091090196
:10412000241B350BE0917204F0917304E217F3073E
:10413000A0F42E1B3F0B2817390778F0AC014E5F17
:104140005F4F2417350748F04E0F5F1F50937304DD
:1041500040937204819391939FCFF0E0E0E09CCF75
:10416000CF93DF930097E9F0FC013297138212821C
:10417000A0917404B0917504ED0130E020E0109737
:10418000A1F420813181820F931F2091720430911C
:1041900073042817390709F061C0F0937304E093A2
:1041A0007204DF91CF910895EA01CE17DF07E8F599
:1041B0004A815B819E0141155105B1F7E901FB83FD
:1041C000EA8349915991C40FD51FEC17FD0761F49B
:1041D000808191810296840F951FE90199838883DC
:1041E000828193819B838A83F0E0E0E012968D9137
:1041F0009C9113970097B9F52D913C911197CD01A2
:104200000296820F931F2091720430917304281735
:10421000390739F6309751F51092750410927404ED
:10422000B0937304A0937204BCCFD383C283408144
:104230005181840F951FC817D90761F44E5F5F4FF6
:1042400088819981480F591F518340838A819B81BE
:10425000938382832115310509F0B0CFF093750463
:10426000E09374049ECFFD01DC01C0CF1382128263
:10427000D7CFFB01DC018D91019080190110D9F39A
:10428000990B089510E0C2E6D0E004C0FE010E9440
:0E429000E01F2196C336D107C9F7F894FFCF7F
:10429E00EF00EF0000007604800065080000620861
:1042AE0000005F0800005C0800005E0800005D086A
:1042BE000000000000006104E70A8D065C045C1338
:1042CE00C1110000803FCDCCCC3D6F12833A95BF1B
:1042DE00D6337D1D9026B3CE010CCDCCCC3D0AD766
:1042EE00233C17B7D13877CC2B329595E6241FB1E6
:1042FE004F0A000020410000C84200401C4620BC6E
:10430E00BE4CCA1B0E5AAEC59D74020305060B0C9D
:10431E00413041314134413557025A026A02770227
:10432E0080028D02000000009001F0001D01DD01F1
:10433E004E012C01400100000000BC038F03070456
:10434E006503880375036603000000006004EB0A32
:10435E00DD09580480123412000000006104E90ADD
:10436E00D8075C04F011DF11000000006004E50ABC
:10437E002A0958043611C910000000006004E30A2F
:10438E00FE085804EE127D102F2F22225C5C62086C
:10439E00660C6E0A720D7409000D0A006E756C6C57
:1043AE0000652D00747275650066616C736500643E
:1043BE00696700616E616C6F670064697370006F8E
:1043CE006666006D6F646500766F6C53770068618A
:1043DE006E64006F7574006177616B6500616C6966
:1043EE007665003F3F3F004F6B00496E636F6D7007
:1043FE006C657465496E70757400496E76616C6992
:10440E0064496E707574004E6F4D656D6F727900F4
:10441E004E6F74537570706F7274656400546F6F65
:06442E004465657000000A
:00000001FF
