:100000000C9463000C94AB150C9484150C948B0029
:100010000C948B000C948B000C94ED160C948B00BC
:100020000C948B000C948B000C948B000C948B0024
:100030000C948B000C948B000C948B000C948B0014
:100040000C943A150C948B000C9408150C94E21443
:100050000C948B000C948B000C948B000C948B00F4
:100060000C94D2150C948B00000000002400270093
:100070002A0000000000250028002B0000000000DE
:1000800023002600290004040404040404040202DA
:100090000202020203030303030301020408102007
:1000A0004080010204081020010204081020000012
:1000B0000008000201000003040700000000000027
:1000C0000000A617151F11241FBECFEFD8E0DEBF1A
:1000D000CDBF12E0A0E0B1E0ECE3F5E402C0059092
:1000E0000D92A038B107D9F724E0A0E8B2E001C032
:1000F0001D92A736B207E1F710E0C2E6D0E004C0D7
:100100002197FE010E942F21C136D107C9F70E9415
:100110008C190C9491220C940000089581E0809336
:10012000290408950895AF92BF92CF92DF92EF9283
:10013000FF920F931F93CF93DF936C017B018B0191
:10014000040F151FEB015E01AE18BF08C017D107E1
:1001500059F06991D601ED91FC910190F081E02D6B
:10016000C6010995892B79F7C501DF91CF911F91C0
:100170000F91FF90EF90DF90CF90BF90AF900895D8
:10018000FC01538D448D252F30E0842F90E0821B9D
:10019000930B541710F0CF96089501970895FC0122
:1001A000918D828D981761F0A28DAE0FBF2FB11D7A
:1001B0005D968C91928D9F5F9F73928F90E00895D2
:1001C0008FEF9FEF0895FC01918D828D981731F08C
:1001D000828DE80FF11D858D90E008958FEF9FEFE0
:1001E0000895FC01918D228D892F90E0805C9F4FB6
:1001F000821B91098F73992708958EE593E00E94E1
:10020000F10021E0892B09F420E0822F089580E09D
:1002100090E0892B29F00E94FD0081110C940000D0
:100220000895FC01A48DA80FB92FB11DA35ABF4F8B
:100230002C91848D90E001968F739927848FA689E5
:10024000B7892C93A089B1898C91837080648C9339
:10025000938D848D981306C00288F389E02D8081E8
:100260008F7D80830895EF92FF920F931F93CF931A
:10027000DF93EC0181E0888F9B8D8C8D98131AC0E1
:10028000E889F989808185FF15C09FB7F894EE89C8
:10029000FF896083E889F989808183708064808325
:1002A0009FBF81E090E0DF91CF911F910F91FF9070
:1002B000EF900895F62E0B8D10E00F5F1F4F0F7318
:1002C0001127E02E8C8D8E110CC00FB607FCFACFD3
:1002D000E889F989808185FFF5CFCE010E9411015F
:1002E000F1CFEB8DEC0FFD2FF11DE35AFF4FF082A4
:1002F0009FB7F8940B8FEA89FB8980818062CFCF0A
:10030000CF93DF93EC01888D8823B9F0AA89BB894C
:10031000E889F9898C9185FD03C0808186FD0DC037
:100320000FB607FCF7CF8C9185FFF2CF808185FF58
:10033000EDCFCE010E941101E9CFDF91CF91089559
:10034000833081F028F4813099F08230A9F008954B
:100350008730A9F08830C9F08430B1F480918000F2
:100360008F7D03C0809180008F77809380000895F7
:1003700084B58F7784BD089584B58F7DFBCF809140
:10038000B0008F778093B00008958091B0008F7D8A
:10039000F9CFCF93DF93282F30E0F901E255FF4FDB
:1003A0008491F901E656FF4FD491F901EA57FF4FC6
:1003B000C491CC23A1F081110E94A001EC2FF0E0A8
:1003C000EE0FFF1FE458FF4FA591B491EC91ED2380
:1003D00081E090E009F480E0DF91CF91089580E022
:1003E00090E0FACF1F93CF93DF93282F30E0F901ED
:1003F000E255FF4F8491F901E656FF4FD491F90180
:10040000EA57FF4FC491CC23A9F0162F81110E9407
:10041000A001EC2FF0E0EE0FFF1FEE58FF4FA5916B
:10042000B4918FB7F894EC91111108C0D095DE23E8
:10043000DC938FBFDF91CF911F910895DE2BF8CF12
:10044000CF93DF9390E0FC01E656FF4F24918A574B
:100450009F4FFC0184918823C9F090E0880F991F79
:10046000FC01E859FF4FA591B491FC01EE58FF4FF4
:10047000C591D49161110DC09FB7F8948C912095CE
:1004800082238C938881282328839FBFDF91CF917B
:100490000895623051F49FB7F8943C91822F809573
:1004A00083238C93E8812E2BEFCF8FB7F894EC91B8
:1004B0002E2B2C938FBFEACF8E3008F08E50877092
:1004C000806480937C0080917A00806480937A00BD
:1004D00080917A0086FDFCCF809178009091790020
:1004E00008953FB7F8948091C9029091CA02A091F3
:1004F000CB02B091CC0226B5A89B05C02F3F19F0C6
:100500000196A11DB11D3FBFBA2FA92F982F882793
:10051000BC01CD01620F711D811D911D43E0660F6D
:10052000771F881F991F4A95D1F708958F929F9240
:10053000AF92BF92CF92DF92EF92FF920E94710230
:100540004B015C018AE0C82ED12CE12CF12C0E94D9
:100550007102681979098A099B09683E734081050F
:100560009105A8F321E0C21AD108E108F10888EE4C
:10057000880E83E0981EA11CB11CC114D104E104B3
:10058000F10429F7FF90EF90DF90CF90BF90AF90EC
:100590009F908F9008952FB7F8946091C502709145
:1005A000C6028091C7029091C8022FBF08951F9381
:1005B000CF93DF93C1E0C0938002882399F1D0915B
:1005C000B8001091BA008091BC008A7B8093BC0077
:1005D00060E082E10E94F20160E083E10E94F201AA
:1005E00010923403C093330310920E0361E082E152
:1005F0000E94F20161E083E10E94F2018091B90062
:100600008E7F8093B9008091B9008D7F8093B9006F
:1006100080E28093B80085E48093BC001093BA0018
:10062000D093B800DF91CF911F9108958F929F9240
:10063000AF92BF92CF92DF92EF92FF920F931F93F0
:10064000CF93DF93D0915D03D13208F0D7C0182F3C
:10065000C0915C030E9471026B017C0180913403A4
:1006600081116BC082E080933403109333038FEFCA
:100670008093320310923103D0933003ACE3B3E0A4
:10068000E0E1F3E080E0D81391C010920F03809175
:100690000F03CC0FC82BC0930F0380910E03813042
:1006A00009F088C010920E030E9471026B017C0158
:1006B00080910F038093BB008091360390913703A4
:1006C000A0913803B0913903892B8A2B8B2BA1F091
:1006D0000E94710200913603109137032091380374
:1006E000309139036C197D098E099F090617170788
:1006F0002807390708F442C08091BC0083FDD8CF99
:1007000085EC8093BC000E9471026B017C0180919A
:100710003403823009F450C0809132038F3F09F4D2
:100720006FC080913203803209F46CC08091320333
:10073000803309F469C084E026C08091360390912B
:100740003703A0913803B0913903892B8A2B8B2B67
:1007500009F484CF0E947102809036039090370391
:10076000A0903803B09039036C197D098E099F0958
:1007700086169706A806B90608F070CF8091350353
:100780000E94D70285E010923B0310925D03109205
:100790003A03DF91CF911F910F91FF90EF90DF907F
:1007A000CF90BF90AF909F908F9008959D9191931F
:1007B0008F5F69CF85EEA5CF809136039091370387
:1007C000A0913803B0913903892B8A2B8B2B09F424
:1007D0009ECF0E9471020091360310913703209141
:1007E0003803309139036C197D098E099F0906176A
:1007F00017072807390708F08ACFC0CF81E0C3CF99
:1008000080E0C1CF82E0BFCF83E0BDCF2091A102C5
:10081000260F3327331F21323105ECF420913403A6
:10082000FC0190E080E0243069F082E00895A0911E
:10083000A1022191AC014F575D4FA40FB52FB11DFF
:100840002C930196861798F38091A102680F60930C
:10085000A10280E0089581E008950895E091ED02FD
:100860008091EC02E81730F4F0E0E251FD4F808116
:1008700090E008958FEF9FEF08959091ED028091A1
:10088000EC022FEF3FEF981748F4E92FF0E0E25128
:10089000FD4F208130E09F5F9093ED02C9010895E4
:1008A0008091EC029091ED02891B990B0895CF92F3
:1008B000DF92EF92FF920F931F93CF93DF937C0110
:1008C000CB018A0120913A03222389F0EB016B01CD
:1008D000C40ED51ECC15DD0569F06991D701ED91E7
:1008E000FC910190F081E02DC7010995F3CF642FB1
:1008F0000E940604C801DF91CF911F910F91FF90D4
:10090000EF90DF90CF900895CF93DF931F92CDB7F4
:10091000DEB7698320913A032223F9F020915D0329
:10092000203258F021E030E0FC013383228390E054
:1009300080E00F90DF91CF91089580913B03E82FE5
:10094000F0E0E45CFC4F998190838F5F80933B03E0
:1009500080935D0381E090E0ECCF61E0CE010196F1
:100960000E940604F7CFCF93DF93EB0191E09093C1
:100970003A0398E690935C0310923B0310925D0358
:10098000682F8BEF93E00E94840468818BEF93E0E3
:100990000E94840481E0DF91CF910C94160390E0D3
:1009A00080E008954115510529F4EAE7F0E08081DF
:1009B0008F7780836A307105B9F0CB01880F991F5A
:1009C000880F991F807267706860682B88E10FB686
:1009D000F894A895809360000FBE60936000E0E6F5
:1009E000F0E0808180648083232BD9F483B7817FFA
:1009F000846083BFF89483B7816083BF85B78066C6
:100A000085BF8F7D85BF7894889583B78E7F83BFA0
:100A10007894452B29F4EAE7F0E0808180688083B0
:100A2000089583B7817F846083BFF89483B7816022
:100A300083BF7894889583B78E7F83BF7894E9CFFE
:100A4000FC01848195810895FC018481958108953C
:100A500008950895CF93DF93EC0188819981DC019B
:100A6000ED91FC910190F081E02D09952A813B8167
:100A7000820F931F9B838A83DF91CF910895DC01BE
:100A80008D919C91DC01ED91FC910280F381E02D30
:100A90000994EF92FF920F931F93CF93DF93CDB7FB
:100AA000DEB766970FB6F894DEBF0FBECDBF8C01E0
:100AB000CB01FE0177969F014AE0E42EF12CB701AD
:100AC0000E94F920805D8293CB010097C1F7A901B4
:100AD0004E1B5F0BBF01C8010E943F05F801228138
:100AE0003381820F931F9383828366960FB6F894A7
:100AF000DEBF0FBECDBFDF91CF911F910F91FF9051
:100B0000EF9008958F929F92AF92BF92CF92DF9213
:100B1000EF92FF920F931F93CF93DF93CDB7DEB782
:100B200066970FB6F894DEBF0FBECDBF7C018E0175
:100B3000095E1F4F68018AE0882E912CA12CB12CF0
:100B4000CB01BA01A50194010E940D21942F852F9C
:100B5000605DF80162938F01A901692F782F41151B
:100B600051056105710561F7A6014E1B5F0BBF01C1
:100B7000C7010E943F05F70122813381820F931F35
:100B80009383828366960FB6F894DEBF0FBECDBF07
:100B9000DF91CF911F910F91FF90EF90DF90CF9059
:100BA000BF90AF909F908F900895EF92FF920F9318
:100BB0001F93CF93DF93EC017B0162E20E942A0531
:100BC0008701F80161918F01662391F0E8EEF1E071
:100BD000F280FF2049F0329681816813F9CF6CE5ED
:100BE000CE010E942A056F2DCE010E942A05E9CF71
:100BF00062E2CE01DF91CF911F910F91FF90EF90B4
:100C00000C942A054F925F926F927F928F929F92DF
:100C1000AF92BF92DF92EF92FF920F931F93CF9309
:100C2000DF938C01EB0188818B32D1F18D32C9F5D4
:100C30002196EE24E394888190ED980F9A3010F07D
:100C40008E3289F560E070E0CB01FE012191A0EDCC
:100C50008A2E820E39E0381508F440C06A3929E935
:100C60007207820729E1920708F04DC0AAE0B0E0C0
:100C70009B01AC010E943521912CB12CA12C2401A7
:100C80003501409450946094709446165706680657
:100C90007906C8F1680D791D8A1D9B1DEF01D5CF1E
:100CA0002196E12CC8CFF8011082118212821382A2
:100CB00014821582168217821086C801DF91CF91A7
:100CC0001F910F91FF90EF90DF90BF90AF909F909A
:100CD0008F907F906F905F904F900895211113C077
:100CE000F80160837183828393830E94C91FF80196
:100CF00064837583868397838AE0E11001C088E06E
:100D0000F8018087DACFF12CEAE08E2E912CA12C0D
:100D1000B12C61157105F0E88F07910540F0A50130
:100D200094010E940D21CA01B901F394F2CFFE0192
:100D3000299130ED320F3A3010F4F394F8CF2E327F
:100D4000F1F4EF012196FE012196208150EDD52E80
:100D5000D20E29E02D1598F06C3C3CEC73073CE07A
:100D60008307910580F7AAE0B0E09B01AC010E94E7
:100D700035216D0D711D811D911DFA94E4CF2081E7
:100D80002F7DD0E0C0E0253409F04FC021812D3205
:100D9000A9F53296BB24B394DF01D0E0C0E02F2D3B
:100DA0000F2C000C330B4AE0A42EFD01DD9040ED2A
:100DB0004D0D4A30A8F5AC9EA001AD9E500D1124FA
:100DC000CD2DDD0CDD0BE097C40FD51FAE01420F1A
:100DD000531F473251054CF3BB20B9F080E090E03F
:100DE000A0E0B0E8E11003C080E090E0DC01F80191
:100DF00084839583A683B7838CE083CF2B3219F04D
:100E00003196B12CC9CF3296FCCF80E090E0A0E8BB
:100E1000BFEFE110ECCF80E090E0A0E8BFE7E7CFC4
:100E2000BB2019F0D195C195D109208121113BCF6B
:100E3000CF0DD11DF7FCDA950E94C91F1C161D06A7
:100E4000E4F4F12CC0FF0CC024E0F29EF001112468
:100E5000EE59FE4F20813181428153810E948020D2
:100E6000D595C795F394209769F7E1109058F8014C
:100E70006483758386839783BFCFD195C195D1094C
:100E8000F12C209791F3C0FF0CC024E0F29EF001FA
:100E90001124E65BFE4F20813181428153810E9403
:100EA0008020D595C795F394ECCFCF92DF92EF9247
:100EB000FF920F931F93CF93DF93CDB7DEB72997A0
:100EC0000FB6F894DEBF0FBECDBFFC0102811381C7
:100ED000FA01309739F084818F77863071F020F4F1
:100EE000843038F560E014C0883039F08C30D1F7A8
:100EF000C080D180E280F3802BC080819181A2816B
:100F0000B381682F8F3F9105A105B10509F050F716
:100F1000F801608329960FB6F894DEBF0FBECDBFEF
:100F2000DF91CF911F910F91FF90EF90DF90CF90C5
:100F3000089560817181CE0101960E940206898523
:100F40008830F9F08C3071F6CD80DE80EF80F88447
:100F500020E030E0A901C701B6010E947B2087FD97
:100F6000C1CF20E030E04FE753E4C701B6010E9453
:100F70008E1F18160CF4B6CFC701B6010E949A1F37
:100F8000C7CF89819A81AB81BC81BBCF80339CF074
:100F90008A3324F08F3524F08B3724F481E00895D0
:100FA00081344CF08B35D4F393ED980F81E092307F
:100FB000B0F380E008958B32B9F7F0CFFC01878160
:100FC00081110AC0A481B581CD01019695838483E6
:100FD0008C91868381E0878386810895FF920F93A9
:100FE0001F93CF93DF93EC010A811B810E94DE07E0
:100FF000F82E1F82CE010E94DE071F82F816A9F18B
:1010000081110AC061E070E080E090E0DF91CF9153
:101010001F910F91FF9008958C35F1F4CE010E943D
:10102000DE07882379F3853729F464E070E080E0F7
:1010300090E0ECCFE8EEF1E09081992329F089135C
:1010400008C08181811107C062E070E080E090E01B
:10105000DDCF3296F1CF1F82EA81FB819F012F5FA6
:101060003F4F3B832A838083C5CFEA81FB81CF0139
:1010700001969B838A83108263E070E080E090E0B9
:101080000115110519F260E070E0CB01C801BECF77
:101090001F93CF93DF93EC01162F0E94DE0781137D
:1010A00006C01F8281E0DF91CF911F91089580E0FB
:1010B000FACFCF93DF93EC01CE010E94DE078B3095
:1010C0003CF489304CF4882349F090E080E008C07B
:1010D0008D3011F08032C9F71F82EECF81E090E0B1
:1010E000DF91CF910895EF92FF920F931F93CF93CB
:1010F0008C017B01C0E0D8018C91C817E0F48C2FE3
:1011000090E0880F991F1296ED91FC91E80FF91F5E
:1011100080819181009769F0FC0122813381E21680
:10112000F30639F40190F081E02D0084F185E02D83
:101130000995CF5FE0CFCF911F910F91FF90EF9076
:101140000895CF93C82F0E94CB0260930F04709331
:1011500010048093110490931204C0932A046AE24D
:1011600074E08091090490910A040E94730887E05A
:1011700090E0C33011F086E090E0909337048093C4
:101180003604CF910895CF93DF93C7E0D4E081E098
:101190008BA36AE274E08A819B810E9473080E949B
:1011A000CB02688779878A879B8718AA1FA6DF9159
:1011B000CF910895089508950895FC0164A70895B6
:1011C000FC0165A70895FC0191E0611190E096A7EC
:1011D0000895FC0180819181938382838681978128
:1011E00095838483848580788062848711861086C5
:1011F00013861286BF01685F7F4FCF010895FC01FF
:1012000080819181892B21F460E070E0CB01089509
:101210006DE079E090E080E008950895CF93FC01BF
:1012200094819F77983029F078F4992359F096307B
:1012300079F4C1E080819181A281B381892B8A2BCD
:101240008B2B39F4C0E005C09A3099F39C3021F023
:10125000C1E08C2FCF910895C1E020E030E0A901DA
:1012600060817181828193810E948E1F8111F1CFF3
:10127000E9CFAB01009751F0FC01248126FF06C0A5
:10128000382F292F632F722FCA01089530E020E0F4
:10129000F9CFCF93DF93DC01EB01EC81FD818A81F3
:1012A0009B810896E817F90730F4F0E0E0E0CF0101
:1012B000DF91CF9108953897FD83EC833097A9F3A0
:1012C0001296CD91DC911397209791F0CF018C1B52
:1012D0009D0B23E0959587952A95E1F78D831396CD
:1012E000FC93EE9312971582148217821682DFCF39
:1012F0001196FC93EE93F3CFFC011182108281E0F2
:10130000828314821382168215824115510591F051
:10131000DA0116962D913C91179714968C91809531
:10132000881F8827881F31832083828354834383C7
:10133000768365830895FC012581222339F0F8E046
:101340002F0290011124820F931F089590E080E0F6
:101350000895CF92DF92FF920F931F93CF93DF9365
:101360008C01CA010E94390961157105B1F0FB01B8
:10137000C081D181F12C209781F0F801C280D38007
:10138000CF0CD11CCE010E940E09F6018083F3948C
:10139000CE010E949B09EC01EECFDF91CF911F910E
:1013A0000F91FF90DF90CF9008954F925F926F92D0
:1013B0007F92BF92CF92DF92EF92FF920F931F9393
:1013C000CF93DF93CDB7DEB729970FB6F894DEBF82
:1013D0000FBECDBF6C01CA010E94390961157105AC
:1013E00009F482C0FB0100811181B12C01151105A6
:1013F00009F47AC0EB2CF12CEE0CFF1CF601828173
:101400009381E80EF91EF80184818F77863069F0A8
:1014100028F4843068F570E060E021C08A3091F0F3
:101420008C3009F45CC08830B1F7F801808191817B
:10143000A281B3818115F0E89F07A105B10558F796
:10144000BC010DC080819181A281B381662777277D
:10145000681B790B81309048A105B105E0F6F701D2
:1014600071836083B394C8010E949B098C01BECF35
:1014700060817181CE0101960E94020689819A8164
:10148000AB81BC8129852A3009F32C3051F02830FA
:1014900011F6811520E89207A105B10508F0BBCF30
:1014A000CFCF4D805E806F80788420E030E040E0D8
:1014B00057ECC301B2010E947B2087FDACCF20E036
:1014C0003EEF4FEF56E4C301B2010E948E1F181683
:1014D0000CF4A1CFC301B2010E94931FC0CF408082
:1014E000518062807380E1CF29960FB6F894DEBFF9
:1014F0000FBECDBFDF91CF911F910F91FF90EF9065
:10150000DF90CF90BF907F906F905F904F90089545
:10151000CF92DF92FF920F931F93CF93DF938C01B3
:10152000CA010E94390961157105B1F0FB01C08142
:10153000D181F12C209781F0F801C280D380CF0CAB
:10154000D11CCE010E940E09F6018083F394CE01D6
:101550000E949B09EC01EECFDF91CF911F910F917B
:10156000FF90DF90CF900895EF92FF920F931F931B
:10157000CF93DF93EC018B017A01892B29F18C81C8
:10158000982F9F7739F4807880648C831982188231
:101590001B821A828C8186FF17C0888199810097EF
:1015A00041F00115110591F00E949B0901501109AC
:1015B000F6CF015011090E3F2FEF120739F0B70196
:1015C000CE010E944909F5CF90E080E0DF91CF91F4
:1015D0001F910F91FF90EF900895CF92DF92EF92BD
:1015E000FF920F931F93CF93DF93EC0181E08093E1
:1015F0003A0388E680935C0310923B0310925D03EC
:101600008BEF93E00E94840481E00E9416030E9405
:1016100071026B017C0180913403811163C081E010
:1016200080933403809333039FEF9093320310929F
:1016300031031092300380930F0380910F03806D6C
:1016400080930F0380910E03813009F083C01092C4
:101650000E030E9471026B017C0180910F03809345
:10166000BB008091360390913703A0913803B0916D
:101670003903892B8A2B8B2BA1F00E9471020091D8
:1016800036031091370320913803309139036C19D8
:101690007D098E099F09061717072807390708F4DF
:1016A00042C08091BC0083FDD8CF85EC8093BC0004
:1016B0000E9471026B017C0180913403813009F436
:1016C0004BC080913103811169C080913103E0E109
:1016D000F3E0AEEEB2E090E0981751F121912D9336
:1016E0009F5FFACF8091360390913703A091380322
:1016F000B0913903892B8A2B8B2B09F48CCF0E9454
:101700007102009136031091370320913803309114
:1017100039036C197D098E099F09061717072807D9
:10172000390708F078CF809135030E94D70280E016
:101730001092ED028093EC028BEF93E00E943D0447
:101740008883DF91CF911F910F91FF90EF90DF90F1
:10175000CF90089585EEAACF8091360390913703FC
:10176000A0913803B0913903892B8A2B8B2B09F474
:10177000A3CF0E947102009136031091370320918C
:101780003803309139036C197D098E099F090617BA
:1017900017072807390708F08FCFC5CF81E097CF0B
:1017A000CF93DF93C0910704D091080488818823E8
:1017B00099F081E08983809129048130A9F4809196
:1017C0003304813071F484E090E090933704809387
:1017D0003604DF91CF91089561E080E10E94F2012B
:1017E000E8CF85E090E0F1CF83E090E0EECF0F937B
:1017F0001F93CF93DF93EC018B01CB010E946321F8
:10180000080F191F009711F410E000E09A838983F4
:101810009C838B831E830D8318870F838D8580782F
:101820008D87DF91CF911F910F9108950C94FF2127
:101830000C94FF210C94FF210C94FF21FC01818169
:101840009281009711F00C94FF2108950F931F933C
:10185000CF93DF938B01EC01892BA1F06E817F8107
:101860006017710779F00115110541F061157105D7
:1018700029F0C8010E948822892B21F0CE010E9404
:101880009B09E9CFCE01DF91CF911F910F91089570
:101890008F929F92AF92BF92CF92DF92EF92FF9280
:1018A0000F931F93CF93DF93CDB7DEB7CB54D109FE
:1018B0000FB6F894DEBF0FBECDBF8C017B01D42ED6
:1018C0000E9459082C969FAF8EAF2C97CE01865B55
:1018D0009F4F0E94FF08672B09F099C080FD97C0B9
:1018E000C8010E94DE07873209F48BC114F58232E9
:1018F00009F487C1C8010E94DE07C82ECE010196F7
:101900004C01D12C5C018C2D0E94C607882309F460
:1019100092C19FE3D91609F48EC1D80117961C9283
:10192000D394F401C1924F01C8010E94DE07C82E72
:10193000EACF8B3509F485C08B37E1F6F701848156
:101940008078806284831182108213821282DD206B
:1019500009F455C1D80117961C92C8010E94590874
:101960009A838983CE0101960E94FF08672B09F0B4
:10197000B4C080FDB2C06DE7C8010E944808811163
:10198000B7C0DA94C8010E94DE07873209F4BAC0F2
:10199000823209F4B7C0F80182809380C8010E94A6
:1019A000DE07A82E0E94C60722E030E0882361F1FE
:1019B000D80117961C9217971296ED91FC911397E8
:1019C000CF01019613969C938E931297A082C80123
:1019D0000E94DE07A82E0E94C6078111E9CFD80118
:1019E0001296ED91FC911397CF01019613969C935B
:1019F0008E931297108223E030E08114910421F03D
:101A0000B82CC92C30E020E09B2CAC2C83C02B964A
:101A10008FAD2B972C969FAD2C97C55BDF4F0FB6E4
:101A2000F894DEBF0FBECDBFDF91CF911F910F9114
:101A3000FF90EF90DF90CF90BF90AF909F908F90EE
:101A40000895D70114968C91149780788064149629
:101A50008C93149711961C921E9213961C921E92B0
:101A60001297DD2009F4CBC0F8011782C8010E944B
:101A700059089A838983CE0101960E94FF08672B3B
:101A800061F580FD2AC06DE5C8010E9448088111FA
:101A90002FC0DA94D8016D917C91C7010E94490949
:101AA000009709F4A9C04D2DBC01C8010E94480C43
:101AB0009A838983CE0101960E94FF08672B69F4FF
:101AC00080FD0BC0C8010E9459089A838983CE010A
:101AD00001960E94FF08672B19F089819A819DCF9A
:101AE00080FDFBCF6DE5C8010E944808882311F0F6
:101AF00080E083C06CE2C8010E9448088111CACF0F
:101B000082E07BC0C8010E94EE079B019B2CAC2C9D
:101B1000B82EC92E3A832983CE0101960E94FF0870
:101B2000672BD9F680FDD9CFC8010E9459089A8346
:101B30008983CE0101960E94FF08672B71F680FD14
:101B4000CCCF6AE3C8010E9448088823C9F26B2DF4
:101B50007C2DF701808191810E94260CBC01892B8C
:101B600081F4D8016D917C91C7010E944909FC0163
:101B7000892B09F441C0848180688483B682C7823E
:101B8000BF014D2DC8010E94480C9A838983CE0164
:101B900001960E94FF08672B09F09FCF80FD9DCF23
:101BA000C8010E9459089A838983CE0101960E9438
:101BB000FF08672B09F091CF80FD8FCF6DE7C8013B
:101BC0000E944808811194CF6CE2C8010E94480825
:101BD000882309F495CFC8010E9459089A83898304
:101BE000CE0101960E94FF08672B09F076CF80FD99
:101BF00074CFB92CCA2CC6CE83E090E00ECF85E01E
:101C0000FCCFC8010E94EE0769837A838B839C8393
:101C1000CE0101960E94FF08672B09F05ECF80FD80
:101C20005CCF2B813C81F70184818078856084833F
:101C3000318320835DCFF501ED0DF11D1082898187
:101C40008437B9F4D70114968C9114978078866004
:101C500014968C9381E090E0A0E0B0E0F7018083DF
:101C60009183A283B38390E0F4E0DF12D6CE80E0CC
:101C7000D4CE863689F4D70114968C911497807847
:101C8000866014968C93F70110821182128213825F
:101C900081E090E0F5E0E9CF8E3631F481E090E02C
:101CA00024E0D212BACEE3CFB501CE018F5B9F4FB5
:101CB0000E94020625964CAD5DAD6EAD7FAD2597B9
:101CC0002A968FAD2A978A3061F08C30C1F0883027
:101CD00009F016CFD70114968C91149780788860FC
:101CE00006C0D70114968C91149780788A60149658
:101CF0008C93F7014083518362837383F9CE2996D5
:101D00004CAD5DAD6EAD7FAD2997D70114968C912A
:101D1000149780788C6014968C93F70140835183DC
:101D200062837383E5CEEF92FF920F931F93CF935D
:101D3000DF93009701F161157105E9F07A01EB017C
:101D40008C01FC01808191810E94260C009761F436
:101D5000B701C8010E944909009731F0FC012481B4
:101D60002F772483D783C683DF91CF911F910F9163
:101D7000FF90EF90089590E080E0F6CF4F925F9251
:101D80006F927F92AF92BF92CF92DF92EF92FF92CB
:101D90000F931F93CF93DF9300D000D000D01F92FA
:101DA000CDB7DEB76C012A013B0110E000E0F6017F
:101DB000E280F38064817581C2014A825B826C8219
:101DC0007D82AC80BD80A5010E94930EA501B80163
:101DD0000E94B40AFC01892B79F0D701A00FB11F32
:101DE0008C91948190789660948390E0B0E0A0E02C
:101DF00080839183A283B3830F5F1F4F0630110549
:101E0000B1F627960FB6F894DEBF0FBECDBFDF91B7
:101E1000CF911F910F91FF90EF90DF90CF90BF90E7
:101E2000AF907F906F905F904F9008954F925F9228
:101E30006F927F92AF92BF92CF92DF92EF92FF921A
:101E40000F931F93CF93DF9300D000D000D01F9249
:101E5000CDB7DEB76C012A013B0110E000E0D601EE
:101E60001296ED90FC90139714966D917C91C2019F
:101E70004A825B826C827D82AC80BD80A5010E941B
:101E8000930EA501B8010E94B40AFC01892BB9F098
:101E9000C801880F991FE80EF91ED7012D913C91BA
:101EA000A901032E000C660B770B9481907837FD07
:101EB00020C09860948340835183628373830F5F53
:101EC0001F4F0430110559F627960FB6F894DEBF60
:101ED0000FBECDBFDF91CF911F910F91FF90EF907B
:101EE000DF90CF90BF90AF907F906F905F904F90BA
:101EF00008959A60948370956095509541955F4FD1
:101F00006F4F7F4FD8CFCF93DF93FC01DB01CA0126
:101F1000C281D38164817581AD010E94930EFC0161
:101F2000892B61F0488150E070E060E09481907806
:101F3000986094834083518362837383DF91CF9150
:101F400008954F925F926F927F92AF92BF92CF921D
:101F5000DF92EF92FF920F931F93CF93DF9300D006
:101F600000D000D01F92CDB7DEB76C012A013B0133
:101F700010E000E0F601E280F38064817581C20127
:101F80004A825B826C827D82AC80BD80A5010E940A
:101F9000930EA501B8010E94B40AFC01892B79F0C7
:101FA000D701A00FB11F8C91948190789660948393
:101FB00090E0B0E0A0E080839183A283B3830F5FC1
:101FC0001F4F03301105B1F627960FB6F894DEBF08
:101FD0000FBECDBFDF91CF911F910F91FF90EF907A
:101FE000DF90CF90BF90AF907F906F905F904F90B9
:101FF0000895CF93DF93EC01FB0101900020E9F7F6
:102000003197AF01461B570B0E943F052A813B8148
:10201000820F931F9B838A83DF91CF9108952F9224
:102020003F924F925F926F927F928F929F92AF9268
:10203000BF92CF92DF92EF92FF920F931F93CF93B5
:10204000DF93CDB7DEB76A970FB6F894DEBF0FBE49
:10205000CDBF8C014B01DC0114968C9114978F77C6
:10206000863009F46BC2C8F4823000F1843008F085
:102070004BC2F8014281538160817181C4010E9489
:102080003F05D40112962D913C911397820F931F17
:1020900013969C938E931297EBC18C3051F148F4B8
:1020A000883009F446C28A3009F434C269EF71E01D
:1020B00052C2803209F403C28034C1F76BE5C40117
:1020C0000E942A05F801008111810115110509F40A
:1020D000F1C1B401C8010E940F10C8010E949B0900
:1020E0008C01892B09F4E6C16CE2C4010E942A0527
:1020F000ECCFF8014080518062807380A30192018F
:10210000C301B2010E948E1F8111D0CF20E030E0C8
:10211000A901C301B2010E948E1F882379F0A30197
:102120009201C301B2010E94221F9B01AC01C301B5
:10213000B2010E948E1F882309F4B8CF20E030E05E
:10214000A901C301B2010E948E1F87FF08C06DE282
:10215000C4010E942A0577FA709477F8709420E8F9
:1021600036E948E15BE4C301B2010E947B2087FDB0
:1021700079C04AE7E42E41E0F42E5AE4C52E51E03E
:10218000D52E62E6A62E61E0B62E00E210E0312CDC
:10219000212CD7015E914E913E912E917D01C3017C
:1021A000B2010E947B2087FD0DC0F601248935898C
:1021B00046895789C301B2010E9480202B013C014E
:1021C000200E311E15950795F4E0CF1AD108AE14F4
:1021D000BF04F9F68FEF8B8B20E030E0A901C3013B
:1021E000B2010E947B2018160CF043C02CEA35EC9B
:1021F00047E257E3C301B2010E948E1F1816CCF1CB
:10220000AB89B4E0AB0250011124D12CC12CEB8975
:10221000EF3F79F17501EC0CFD1CF701EE5CFE4F10
:10222000A301920160817181828193810E947B2050
:1022300018167CF4F701EE59FE4F2081318142815E
:102240005381C301B2010E9480202B013C01201A5E
:10225000310A15950795FB89F150FB8B84E0C81A6C
:10226000D108D5CF00E210E095E09B8B312C212CDA
:10227000B3CFC301B2010E949A1F6B8B7C8B8D8BF5
:102280009E8B6B017C0116E080E492E4AFE0B0E04D
:102290008F8B988FA98FBA8F012F11509AE0C91692
:1022A000D104E104F104C8F06F89788D898D9A8D8D
:1022B0002AE030E040E050E00E940D212F8B388F63
:1022C000498F5A8FC701B6012AE030E040E050E064
:1022D0000E940D2169017A01DFCF6B897C898D898C
:1022E0009E890E94C91F9B01AC01C301B2010E94DB
:1022F000211F6B017C016F89788D898D9A8D0E94D9
:10230000C91F9B01AC01C701B6010E9480202B01AF
:102310003C010E949A1F6B017C010E94C91F9B0116
:10232000AC01C301B2010E94211F9B01AC010E94BC
:10233000221F0E949A1FC60ED71EE81EF91E8F8903
:10234000988DA98DBA8DC816D906EA06FB0600F14C
:102350008B899C89AD89BE890196A11DB11D8B8B8E
:102360009C8BAD8BBE8B2114310439F10A97A105EA
:10237000B10518F19FEF291A390AC12CD12C760129
:1023800081E090E0A0E0B0E08B8B9C8BAD8BBE8BAE
:102390009AE0492E512C612C712CC701B601A30182
:1023A00092010E940D21672B682B692B51F41016A6
:1023B00044F469017A010150F0CFC12CD12C76018F
:1023C000E7CF4B895C896D897E89C4010E948205B3
:1023D000002309F43FC05E0191E1A90EB11C102F4A
:1023E000BA8AA98A8AE0482E512C612C712C11508E
:1023F00068F0C701B601A30192010E940D21605D42
:10240000D5016E935D0169017A01F1CF802F90E0D3
:10241000BC0160957095E989FA89E81BF90B319741
:102420008EE2808344275527461B570BE1E1F0E0FD
:10243000EC0FFD1F6E0F7F1FC4010E943F05D401EA
:1024400012962D913C911397820F931F13969C9394
:102450008E93129737FE25C06EEF71E0C4010E9483
:10246000F90F6627772762197309C4010E9449058D
:102470006A960FB6F894DEBF0FBECDBFDF91CF9145
:102480001F910F91FF90EF90DF90CF90BF90AF9092
:102490009F908F907F906F905F904F903F902F9084
:1024A00008952114310421F365E6C4010E942A0530
:1024B000B101DBCF6DE5C4010E942A05D9CF6BE7DE
:1024C000C4010E942A05D8010D911C910115110526
:1024D000C9F0F80166817781C4010E94D5056AE3DD
:1024E000C4010E942A05B401C8010E940F10C8014E
:1024F0000E949B098C01892B29F06CE2C4010E9487
:102500002A05E4CF6DE7D7CF6D917C91C4010E947D
:10251000D505AECFF801C080D180E280F3806DE2B6
:10252000C4010E942A05B701A601C4010E948205C8
:102530009FCF4D915D916D917C91F7CFF801808196
:102540009181A281B38161E072E0892B8A2B8B2B70
:1025500011F466E072E0C4010E94F90F89CFCF93B5
:10256000DF9300D000D0CDB7DEB77A8369831C82B9
:102570001B82BE016F5F7F4F09960E940F108B81F7
:102580009C810F900F900F900F90DF91CF91089545
:102590004F925F926F927F92AF92BF92CF92DF92F3
:1025A000EF92FF920F931F93CF93DF93CDB7DEB7D8
:1025B00065970FB6F894DEBF0FBECDBF7C01DC017E
:1025C00016966C9170E06F5F7F4F33E0660F771F58
:1025D0003A95E1F7CE0101960E94F70BCE010296E3
:1025E0000E94E9082B013C0110E000E0F701C280E5
:1025F000D38064817581C201488A598A6A8A7B8A3C
:10260000AA88BB88A5010E94930EA501B8010E946B
:10261000B40AFC01892BB9F0C801880F991FC80EB4
:10262000D91ED6012D913C91A901032E000C660BF9
:10263000770B9481907837FD2EC098609483408307
:102640005183628373830F5F1F4F0430110571F64E
:102650006EE573E0CE0101960E94AF128EE593E025
:102660000E948001CE0101960E941E0C65960FB655
:10267000F894DEBF0FBECDBFDF91CF911F910F91B8
:10268000FF90EF90DF90CF90BF90AF907F906F90D2
:102690005F904F9008959A609483709560955095DF
:1026A00041955F4F6F4F7F4FCACF4F925F926F92AE
:1026B0007F92AF92BF92CF92DF92EF92FF920F93F1
:1026C0001F93CF93DF93CDB7DEB765970FB6F8941E
:1026D000DEBF0FBECDBF8C01FC01668170E06F5F75
:1026E0007F4F83E0660F771F8A95E1F7CE01019651
:1026F0000E94F70BCE0102960E94E9082B013C01D3
:10270000F12CE12CF801C280D38064817581C20173
:10271000488A598A6A8A7B8AAA88BB88A5010E944E
:10272000930EA501B7010E94B40AFC01892B79F030
:10273000D601AE0DBF1D8C919481907896609483E4
:1027400090E0B0E0A0E080839183A283B383FFEFA9
:10275000EF1AFF0A83E0E816F104A1F66EE573E0D4
:10276000CE0101960E94AF128EE593E00E94800197
:10277000CE0101960E941E0C65960FB6F894DEBF3E
:102780000FBECDBFDF91CF911F910F91FF90EF90C2
:10279000DF90CF90BF90AF907F906F905F904F9001
:1027A00008954F925F926F927F92AF92BF92CF92B5
:1027B000DF92EF92FF920F931F93CF93DF93CDB7EA
:1027C000DEB765970FB6F894DEBF0FBECDBF8C01A4
:1027D000FC01668170E06F5F7F4F83E0660F771FBB
:1027E0008A95E1F7CE0101960E94F70BCE01029681
:1027F0000E94E9082B013C01F12CE12CF801C28078
:10280000D38064817581C201488A598A6A8A7B8A29
:10281000AA88BB88A5010E94930EA501B7010E945A
:10282000B40AFC01892B79F0D601AE0DBF1D8C9145
:10283000948190789660948390E0B0E0A0E08083EB
:102840009183A283B383FFEFEF1AFF0A86E0E816B5
:10285000F104A1F66EE573E0CE0101960E94AF127D
:102860008EE593E00E948001CE0101960E941E0C2D
:1028700065960FB6F894DEBF0FBECDBFDF91CF9146
:102880001F910F91FF90EF90DF90CF90BF90AF908E
:102890007F906F905F904F900895CF92DF92EF926C
:1028A000FF920F931F93CF93DF93CDB7DEB7699756
:1028B0000FB6F894DEBF0FBECDBF7C01CE010E96E1
:1028C0009A8389839C838B838E010A5E1F4F1E83AC
:1028D0000D8318870F838D8580788D87CE010196B3
:1028E0000E94E908DC01CB01F701C280D38064813A
:1028F0007581AD010E94930EFC01892B69F0D60110
:102900004C9150E070E060E09481907898609483FE
:1029100040835183628373838EE593E09F8B8E8B1C
:10292000198E188EB801CE0109960E940F108EE5FF
:1029300093E00E94800169960FB6F894DEBF0FBE47
:10294000CDBFDF91CF911F910F91FF90EF90DF905E
:10295000CF90089585ED8093BC00809136039091CF
:102960003703A0913803B09139030796A11DB11D1B
:1029700023E0B695A795979587952A95D1F720914D
:10298000BC0024FD03C01092340308954091360327
:10299000509137036091380370913903452B462BD2
:1029A000472B69F30097A105B10541F02AE12A956B
:1029B000F1F700C00197A109B109E1CF809135037A
:1029C0000C94D7021F920F920FB60F9211242F93DF
:1029D0003F934F935F936F937F938F939F93AF93A7
:1029E000BF93EF93FF938EE593E00E941101FF9157
:1029F000EF91BF91AF919F918F917F916F915F9177
:102A00004F913F912F910F900FBE0F901F901895EF
:102A10001F920F920FB60F9211242F938F939F93B3
:102A2000EF93FF93E0916E03F0916F038081E0914B
:102A30007403F091750382FD1BC090818091770330
:102A40008F5F8F7320917803821741F0E0917703B5
:102A5000F0E0E25AFC4F958F80937703FF91EF915E
:102A60009F918F912F910F900FBE0F901F901895EF
:102A70008081F4CF1F920F920FB60F9211242F93E3
:102A80003F938F939F93AF93BF938091C502909193
:102A9000C602A091C702B091C8023091C40226E0DC
:102AA000230F2D3758F50296A11DB11D2093C402A6
:102AB0008093C5029093C602A093C702B093C80248
:102AC0008091C9029091CA02A091CB02B091CC0230
:102AD0000196A11DB11D8093C9029093CA02A093D3
:102AE000CB02B093CC02BF91AF919F918F913F9158
:102AF0002F910F900FBE0F901F90189529E8230F6C
:102B00000396A11DB11DD2CF1F920F920FB60F9247
:102B100011242F933F934F935F936F937F938F93E2
:102B20009F93AF93BF93EF93FF93E0910201F091D6
:102B300003010995FF91EF91BF91AF919F918F9103
:102B40007F916F915F914F913F912F910F900FBEA9
:102B50000F901F9018951F920F920FB60F9211248D
:102B60002F933F934F935F936F937F938F939F9395
:102B7000AF93BF93EF93FF93E0910001F0910101B8
:102B80000995FF91EF91BF91AF919F918F917F91A7
:102B90006F915F914F913F912F910F900FBE0F90CA
:102BA0001F9018951F920F920FB60F9211242F931A
:102BB0003F934F935F936F937F938F939F93AF93C5
:102BC000BF93EF93FF938091B900887F803609F41B
:102BD0004AC0F0F5883209F4A5C018F5803109F42F
:102BE00099C0B8F4882309F4F5C0883009F492C07C
:102BF000FF91EF91BF91AF919F918F917F916F91D5
:102C00005F914F913F912F910F900FBE0F901F90AA
:102C10001895883109F486C0803251F780933203C9
:102C200014C0803409F49BC040F48033B9F3883376
:102C3000F9F68093320385ECAEC0803509F483C089
:102C4000883509F494C0883499F60E94AA14D0CF2C
:102C5000883909F48AC038F5883729F050F4883665
:102C600011F0803729F683E0809334031092C30279
:102C700055C0883809F479C0803919F0803809F0D6
:102C8000B7CF8091C302803208F06FC0E091C302D9
:102C900081E08E0F8093C3028091BB00F0E0ED5580
:102CA000FD4F80833BC0803B39F0D0F4803A09F47B
:102CB00077C0883A09F09CCF84E080933403109267
:102CC000A2021092A102F0E0E0E009958091A10239
:102CD00081110FC081E08093A1021092810209C08E
:102CE000803C09F4A8CF883C09F4A5CF883B09F0C3
:102CF0007FCFE091A20281E08E0F8093A202F0E0EC
:102D0000EF57FD4F80818093BB009091A20280918C
:102D1000A10229C080910F038093BB0085EC8093B2
:102D2000BC0066CF9091310380913003981758F51D
:102D3000E091310381E08E0F80933103F0E0E05F9A
:102D4000FC4F8081E9CFE091310381E08E0F8093C9
:102D500031038091BB00F0E0E05FFC4F80839091F5
:102D60003103809130039817C8F285E8D8CFE091FD
:102D7000310381E08E0F809331038091BB00F0E03E
:102D8000E05FFC4F80838091330381115ECF81E04F
:102D900080930E0384EA8093BC001092340328CF02
:102DA00085EC8093BC00109234038091C302803282
:102DB00030F4E091C302F0E0ED55FD4F10826091D8
:102DC000C30270E083EA92E0F0E0E0E0099510923F
:102DD000C3020ECF1092320338CF1F920F920FB65C
:102DE0000F9211248F930FB6F894A89580916000EC
:102DF000886180936000109260000FBE8F910F90E9
:102E00000FBE0F901F901895BF92CF92DF92EF9256
:102E1000FF920F931F93CF93DF93EC016B017A0125
:102E2000B980BB20F1F08B2D90E00196880F991F9F
:102E30000E9463218C018C819D81F80120E0DF01DB
:102E4000A01BB10BA80FB91F4D915C9141935193F9
:102E50002F5FB212F4CF009711F00E94FF211D8363
:102E60000C8386E090E00E946321FC0186E291E001
:102E700091838083D382C282F582E4829981292F53
:102E800030E0220F331FAC81BD81A20FB31FED9341
:102E9000FC939F5F9983DF91CF911F910F91FF90DA
:102EA000EF90DF90CF90BF900895BF92CF92DF92C6
:102EB000EF92FF920F931F93CF93DF93EC016B017F
:102EC0007A01B880BB20F1F08B2D90E00196880F3D
:102ED000991F0E9463218C018A819B81F80120E067
:102EE000DF01A01BB10BA80FB91F4D915C9141935D
:102EF00051932F5FB212F4CF009711F00E94FF217F
:102F00001B830A8386E090E00E946321FC0186E235
:102F100091E091838083D382C282F582E48298819A
:102F2000292F30E0220F331FAA81BB81A20FB31FCC
:102F3000ED93FC939F5F9883DF91CF911F910F9149
:102F4000FF90EF90DF90CF90BF900895CF92DF92E7
:102F5000EF92FF920F931F93CF93DF931092610331
:102F60001092600388EE93E0A0E0B0E080936203EB
:102F700090936303A0936403B093650328E931E061
:102F800030935F0320935E0325EC30E030936B03B6
:102F900020936A0324EC30E030936D0320936C039C
:102FA00020EC30E030936F0320936E0321EC30E08F
:102FB000309371032093700322EC30E0309373035D
:102FC0002093720326EC30E0309375032093740352
:102FD00010927703109278031092790310927A037B
:102FE0001092FE031092FD038093FF039093000460
:102FF000A0930104B09302048AEA91E09093FC0349
:103000008093FB0310925E0410926204109261049C
:1030100010925F041092600461E080E10E9420023F
:1030200080915E04882309F418C110925F0461E066
:1030300084E00E94200280915E04882309F412C17A
:103040001092600461E081E10E94200260E081E171
:103050000E94F20160E087E00E94200260E083E0CD
:103060000E94200260E082E00E942002109253043D
:103070001092590410925B0480E490E090935D04F8
:1030800080935C0482E090E00E9463218C01909325
:1030900055048093540482E090E00E946321909351
:1030A0005704809356048EE594E09093080480932F
:1030B000070482E594E090930A0480930904109237
:1030C0000B0410920C0410920D0410920E04E6E012
:1030D000FE2EF092180484E08093190483E080931C
:1030E0001A04FBE1CF2EF4E0DF2ED601EF2D1D9266
:1030F000EA95E9F7E1E2F4E088E0DF011D928A95C4
:10310000E9F710922D0410922E0410922F0481E002
:1031100090E0909337048093360410923904109213
:10312000380488E1EAE0F1E0AAE3B4E001900D920E
:103130008A95E1F787E090E00E946321EC018CED35
:1031400091E099838883DB82CA828CE092E09D8340
:103150008C83FE82F801D183C08381E08093520486
:10316000F092580480935A0484E090E00E94632116
:103170007C01DC01CD93DC930115110519F0C80128
:103180000E94FF21F0925504E092540487E090E001
:103190000E946321FC018CEC91E09183808381E2A9
:1031A00094E09383828380E192E09583848384E03A
:1031B0008683D7011396FC93EE93129782E0809357
:1031C000520480935A0447E152E069E274E082E5D8
:1031D00094E00E9455174CE152E06AE274E080915D
:1031E000090490910A040E94551740E252E06BE2F4
:1031F00074E08091090490910A040E94551745E2F9
:1032000052E06CE274E08091090490910A040E94FB
:103210005517C0910904D0910A048981882379F156
:1032200090E00196880F991F0E9463218C014C81C8
:103230005D8190E089819817D0F4292F30E0220F2A
:10324000331FFA01E20FF31F60817181200F311FDC
:10325000F901718360839F5FEDCF60E080E10E94A0
:10326000F201E3CE60E084E00E94F201E9CE411574
:10327000510519F0CA010E94FF211D830C8387E0CC
:1032800090E00E946321FC018CEB91E091838083AC
:103290008DE294E0938382838AE292E09583848333
:1032A00093E096838981282F30E0220F331FAC8171
:1032B000BD81A20FB31FED93FC938F5F89838F8134
:1032C000833008F49F8389858F5F89874EE252E0BF
:1032D00060E374E08091090490910A040E9404174D
:1032E00045E252E061E374E08091090490910A04A0
:1032F0000E94041744E352E062E374E08091090401
:1033000090910A04DF91CF911F910F91FF90EF9060
:10331000DF90CF900C940417CF93DF93CDB7DEB737
:10332000A8970FB6F894DEBF0FBECDBF789484B5D2
:10333000826084BD84B5816084BD85B5826085BDB1
:1033400085B5816085BD80916E00816080936E003F
:103350001092810080918100826080938100809131
:1033600081008160809381008091800081608093E2
:1033700080008091B10084608093B1008091B000A2
:1033800081608093B00080917A00846080937A009D
:1033900080917A00826080937A0080917A008E7F9B
:1033A00080937A0080917A00806880937A001092EE
:1033B000C100E0916E03F0916F0382E08083E091A1
:1033C0006A03F0916B031082E0916C03F0916D033E
:1033D00087E6808310927603E0917203F091730385
:1033E00086E08083E0917003F091710380818061B9
:1033F0008083E0917003F091710380818860808305
:10340000E0917003F0917103808180688083E09186
:103410007003F091710380818F7D808380915E04C1
:10342000882309F475C010925F0480915E0488239C
:1034300009F473C01092600462E082E00E942002EE
:103440000BE711E0ECE1EE2EE4E0FE2ED801DD907A
:103450008D0160E08D2D0E9420028D2D0E94C901FA
:1034600021E0892B09F420E0F70121937F01F1E0AD
:1034700000381F0759F761E087E00E94200260E0F2
:1034800087E00E94F20161E08AE00E94200260E091
:103490008AE00E94F20161E08DE00E94200260E07B
:1034A0008DE00E94F2016FE0CE0101960E94ED0ACC
:1034B0008981886388A7BE01685D7F4F8FE00E9485
:1034C000B30460E0CE0101960E94ED0A1FA2BE0186
:1034D000695D7F4F81E00E94B3045E0122E0A20E8D
:1034E000B11C74E0272E312CE0913604F0913704A2
:1034F000E830F10508F066C0E058F54E0C942F2135
:10350000921AD21BE21A361C641C971C751CA71C4D
:1035100060E080E10E94F20186CF60E084E00E94DA
:10352000F20188CF009107041091080485E10E9400
:103530005C028430910514F490E080E0BC01990FA6
:10354000880B990B0E94CB1F2BE734E14EE450E42B
:103550000E94802020E030E044EB52E40E947B2077
:1035600087FD06C181E0D80113968C9380931704E0
:10357000C0900F04D0901004E0901104F090120459
:10358000B0E3CB0EB5E7DB1EE11CF11C0E94CB02C1
:10359000C616D706E806F906A8F484E080932A0444
:1035A0006AE274E08091090490910A040E94730811
:1035B0000E94CB0260930F04709310048093110457
:1035C0009093120453EDC52E52E0D52E6DECE62EED
:1035D00062E0F62E10E000E00E94CB02D6014D9092
:1035E0005D906D907C90641575058605970538F49F
:1035F0000E94CB02F6016083718382839383D6019C
:103600004D905D906D907C90BAE04B0E511C611C0A
:10361000711C0E94CB02641575058605970588F01C
:10362000F801E658FE4F80810E94C901F801E95F68
:10363000FB4FD7019C9124898213A5C1913009F4D5
:103640001C920F5F1F4FB4E0CB0ED11CEFEFEE1AB0
:10365000FE0A0630110509F0BFCF01E214E09E0119
:103660002F5F3F4F7901812CA0E8CA2EA1E0DA2E0E
:10367000B6E07B2E982C990C9C0C892D0E945C0244
:10368000892D0E945C02F6E06F2E0E949602892D21
:103690000E945C026A946110F8CF672D0E94ED20B1
:1036A00090E0D8012D913D918D01F701419151910B
:1036B0007F01BC01621B730B9B0177FF03C0319537
:1036C000219531094217530724F4F8013297918369
:1036D0008083839474E08712CDCF60912D0487E0BE
:1036E0000E94F20160912E048AE00E94F201609132
:1036F0002F048DE00E94F2010091090410910A0448
:103700006DB67EB6D8011A968D919C91EDB7FEB735
:10371000E81BF90B0FB6F894FEBF0FBEEDBF2DB737
:103720003EB72F5F3F4F49018EE593E00E94F100C5
:10373000181619060CF05BC28EE593E00E94CF00CC
:103740009091EB02F401E90FF11D8A3009F472C186
:10375000808381E0890F8093EB02D8011A962D9126
:103760003C918217130604F321502093EB02DCCF27
:10377000109217040091070410910804F801808149
:10378000882341F0118281E090E090933704809388
:103790003604EECE60E080E10E94F201D80111967D
:1037A0001C92F1CF87E080932C046CE274E080914E
:1037B000090490910A040E9473088DE890E09093A8
:1037C00003018093020180916900837F8860809368
:1037D0006900E99A8EE890E09093010180930001DE
:1037E000809169008C7F826080936900E89A30E064
:1037F00020E050E040E06AE070E0809107049091A2
:1038000008040E94D204E99882E990E090930301B1
:1038100080930201E89890930101809300010E9437
:10382000960282E00E94C90121E0009709F020E0A1
:1038300020933504892B19F010922904C3CE0E94DD
:10384000CB02609313047093140480931504909337
:1038500016040E94CB0260930B0470930C048093B7
:103860000D0490930E040E94D00BACCE80913304D3
:10387000813021F080913204813061F481E08093C5
:10388000290469E274E08091090490910A040E947D
:10389000730898CEC0901304D0901404E0901504DF
:1038A000F0901604E0E3CE0EE5E7DE1EE11CF11C0D
:1038B0000E94CB02C616D706E806F90608F082CEAB
:1038C00082E00E94A1087ECE80913304811107C05E
:1038D00080913404813019F482E00E94A108809123
:1038E000350481116FCE83E0ECCFC0900F04D090EF
:1038F0001004E0901104F0901204F0E3CF0EF5E70D
:10390000DF1EE11CF11C0E94CB02C616D706E8069A
:10391000F90610F40E94C30880913304813009F441
:10392000A2CF80913204813009F04CCE9CCF80919F
:103930003504811102C00E94C30880913304813094
:1039400009F040CE30923704209236043BCEC0902E
:103950000F04D0901004E0901104F090120420E3C2
:10396000C20E25E7D21EE11CF11C0E94CB02C61636
:10397000D706E806F90610F40E94C30880913504C2
:10398000882379F270CF913009F048C01C9261E031
:10399000811101C060E0648BF801EE0FFF1FEE0F94
:1039A000FF1FE95FFB4F25A936A9C90195958795AA
:1039B000895F9B4F03A8F4A9E02D20FF08C0DC011C
:1039C0002D913C91E20FF31F0190F081E02D0995BC
:1039D0008090090490900A04712CF401808178167B
:1039E00000F5872D90E0880F991F0280F381E02D6C
:1039F000E80FF91F80819181009771F0DC01129628
:103A00002D913C912B51344039F4DC01ED91FC9126
:103A10000084F185E02D09957394DFCF21E0F70153
:103A200020830E94CB02D6016D937D938D939C934E
:103A3000139707CE10821092EB02F80191858781CF
:103A4000618170E0989F600D711D1124E3E0660FA5
:103A5000771FEA95E1F7CE0101960E94F70B8A8164
:103A60009B819D838C83888599859F838E838E859A
:103A700080788E87B88AAF869A8A898A9C8A8B8A50
:103A80001E8A4AE0BE01665F7F4FCE010F960E94FC
:103A9000480C9F8F8E8FCE014E960E94FF08672B99
:103AA00089F480FD0FC08D89882361F08E85982F61
:103AB0009F779C3019F08D77883021F482E090E078
:103AC0009F8F8E8FEE8CFF8CFEA2EDA2CE0185968D
:103AD0000E94FF08672B61F480FD0AC08E85EA848E
:103AE000FB8485FD2FC0CE0101960E941E0C1CCECA
:103AF000F6E0EF16F10418F5F701EE0FFF1FE85797
:103B0000FE4F608171816115710561F0FB010190CB
:103B10000020E9F73197AF01461B570B8EE593E084
:103B20000E94930042E050E06EE372E08EE593E085
:103B30000E9493008EE593E00E948001D4CF6AE357
:103B400072E0E4CFE114F10471F2A701B501CE01F6
:103B50000F960E947C0987E0FE013F96DE01579692
:103B600001900D928A95E1F787E0FE017796DE01DC
:103B70005E9601900D928A95E1F7512CD80111962D
:103B80008C911197581660F5C52CD12CCC0CDD1CEE
:103B90001496ED91FC91EC0DFD1D80819181DC016D
:103BA000ED91FC910680F781E02D0995BC018E8D89
:103BB0009F8D0E948822892BC1F449A15AA16BA133
:103BC0007CA1F80184819581C80ED91ED6018D9102
:103BD0009C91DC01ED91FC910480F581E02D09952B
:103BE000C7010E949B097C01ADCF5394C7CF0FB68C
:103BF000F8947EBE0FBE6DBE0E94CB0200910B04F6
:103C000010910C0420910D0430910E04601771077F
:103C10008207930750F40E94CB0260930B047093C9
:103C20000C0480930D0490930E04809138049091BD
:103C300039048130910509F498C080F0029709F4A5
:103C4000CBC080E090E0892B09F44ECC0E94FD00AF
:103C5000882309F446CC0E94000043CC80913004B4
:103C6000813009F056C080932C0400910904109112
:103C70000A04F80190858681608170E0989F600D4C
:103C8000711D112433E0660F771F3A95E1F7CE01DD
:103C900001960E94F70BC5010E94E9082B013C0127
:103CA000F12CD8018C91F816B0F48F2D90E0880F8C
:103CB000991F1296ED91FC91E80FF91F8081918177
:103CC000DC01ED91FC910284F385E02DB301A201AA
:103CD0000995F394E6CF6EE573E0CE0101960E945C
:103CE000AF128EE593E00E948001CE0101960E9402
:103CF0001E0C0E94CB0260930B0470930C04809303
:103D00000D0490930E0481E090E090933904809329
:103D10003804C0900B04D0900C04E0900D04F09097
:103D20000E04B0E3CB0EB5E7DB1EE11CF11C0E94D4
:103D3000CB02C616D706E806F90608F082CF83E064
:103D400080932C046CE274E08091090490910A0441
:103D50000E9473080E94CB0260930B0470930C04C2
:103D600080930D0490930E046CCF809131048130C8
:103D7000D9F482E080932C046CE274E08091090411
:103D800090910A040E9473080E94CB0260930B0476
:103D900070930C0480930D0490930E0482E090E0E5
:103DA0009093390480933804C0900B04D0900C0495
:103DB000E0900D04F0900E04E0E3CE0EE5E7DE1E89
:103DC000E11CF11C0E94CB02C616D706E806F906D4
:103DD00008F037CF84E0B4CFC0900B04D0900C042F
:103DE000E0900D04F0900E04F0E3CF0EF5E7DF1E37
:103DF000E11CF11C0E94CB02C616D706E806F906A4
:103E000008F01FCF1092310410922C040E94CB02B4
:103E100060930B0470930C0480930D0490930E0434
:103E200010923904109238040CCF8BE194E00E9478
:103E3000FF2181E294E00E94FF218DE294E00C9446
:103E4000FF215058BB27AA270E94391F0C944120FC
:103E50000E94332038F00E943A2020F039F49F3F2E
:103E600019F426F40C9430200EF4E095E7FB0C9442
:103E70002A20E92F0E94522058F3BA1762077307CD
:103E80008407950720F079F4A6F50C9474200EF4BD
:103E9000E0950B2EBA2FA02D0B01B90190010C015A
:103EA000CA01A0011124FF27591B99F0593F50F472
:103EB000503E68F11A16F040A22F232F342F4427CA
:103EC000585FF3CF469537952795A795F0405395C2
:103ED000C9F77EF41F16BA0B620B730B840BBAF092
:103EE0009150A1F0FF0FBB1F661F771F881FC2F7FD
:103EF0000EC0BA0F621F731F841F48F48795779511
:103F00006795B795F7959E3F08F0B0CF9395880FCA
:103F100008F09927EE0F9795879508950E9406203F
:103F200008F481E008950E949A1F6894B1110C94DE
:103F3000752008950E945A2088F09F5798F0B92F55
:103F40009927B751B0F0E1F0660F771F881F991FCE
:103F50001AF0BA95C9F714C0B13091F00E947420DC
:103F6000B1E008950C947420672F782F8827B85FEC
:103F700039F0B93FCCF3869577956795B395D9F726
:103F80003EF490958095709561957F4F8F4F9F4F30
:103F90000895E89409C097FB3EF49095809570953C
:103FA00061957F4F8F4F9F4F9923A9F0F92F96E985
:103FB000BB279395F695879577956795B795F111FA
:103FC000F8CFFAF4BB0F11F460FF1BC06F5F7F4F97
:103FD0008F4F9F4F16C0882311F096E911C07723A9
:103FE00021F09EE8872F762F05C0662371F096E8B2
:103FF000862F70E060E02AF09A95660F771F881F81
:10400000DAF7880F9695879597F90895990F000824
:10401000550FAA0BE0E8FEEF16161706E807F9079A
:10402000C0F012161306E407F50798F0621B730B35
:10403000840B950B39F40A2661F0232B242B252BB6
:1040400021F408950A2609F4A140A6958FEF811D59
:10405000811D089597F99F6780E870E060E00895FA
:104060009FEF80EC089500240A9416161706180690
:104070000906089500240A9412161306140605066C
:104080000895092E0394000C11F4882352F0BB0FFD
:1040900040F4BF2B11F460FF04C06F5F7F4F8F4F60
:1040A0009F4F089557FD9058440F551F59F05F3F9B
:1040B00071F04795880F97FB991F61F09F3F79F04A
:1040C00087950895121613061406551FF2CF4695CC
:1040D000F1DF08C0161617061806991FF1CF86954E
:1040E0007105610508940895E894BB276627772732
:1040F000CB0197F908950E94062008F48FEF0895E8
:104100000E9493200C9441200E94332038F00E949A
:104110003A2020F0952311F00C942A200C943020A2
:1041200011240C9475200E94522070F3959FC1F3C6
:10413000950F50E0551F629FF001729FBB27F00D55
:10414000B11D639FAA27F00DB11DAA1F649F6627AA
:10415000B00DA11D661F829F2227B00DA11D621FF9
:10416000739FB00DA11D621F839FA00D611D221FB3
:10417000749F3327A00D611D231F849F600D211D97
:10418000822F762F6A2F11249F5750409AF0F1F01A
:1041900088234AF0EE0FFF1FBB1F661F771F881F83
:1041A00091505040A9F79E3F510580F00C942A2071
:1041B0000C9475205F3FE4F3983ED4F38695779591
:1041C0006795B795F795E7959F5FC1F7FE2B880F29
:1041D000911D9695879597F90895991B79E004C0EC
:1041E000991F961708F0961B881F7A95C9F7809536
:1041F000089597FB072E16F4009407D077FD09D099
:104200000E94402107FC05D03EF4909581959F4F78
:104210000895709561957F4F0895A1E21A2EAA1B0B
:10422000BB1BFD010DC0AA1FBB1FEE1FFF1FA21766
:10423000B307E407F50720F0A21BB30BE40BF50B63
:10424000661F771F881F991F1A9469F760957095EC
:10425000809590959B01AC01BD01CF010895EE0FB3
:10426000FF1F0590F491E02D09940E945421A59F11
:10427000900DB49F900DA49F800D911D1124089561
:10428000AA1BBB1B51E107C0AA1FBB1FA617B7077C
:1042900010F0A61BB70B881F991F5A95A9F7809598
:1042A0009095BC01CD010895A29FB001B39FC001BC
:1042B000A39F700D811D1124911DB29F700D811D52
:1042C0001124911D08950F931F93CF93DF93823094
:1042D000910510F482E090E0E0916504F0916604AD
:1042E00030E020E0B0E0A0E0309799F421153105EE
:1042F00009F44AC0281B390B24303105D8F58A81CE
:104300009B816115710589F1FB0193838283FE0115
:1043100011C0408151810281138148175907E0F093
:104320004817590799F4109761F012960C93129759
:1043300013961C933296CF01DF91CF911F910F916D
:1043400008950093650410936604F4CF2115310598
:1043500051F04217530738F0A901DB019A01BD0162
:10436000DF01F801C1CFEF01F9CF9093660480938C
:104370006504CDCFFE01E20FF31F8193919322508C
:10438000310939832883D7CF2091630430916404A5
:10439000232B41F4209106013091070130936404EE
:1043A000209363042091040130910501211531050A
:1043B00041F42DB73EB74091080150910901241BEB
:1043C000350BE0916304F0916404E217F307A0F465
:1043D0002E1B3F0B2817390778F0AC014E5F5F4F5B
:1043E0002417350748F04E0F5F1F50936404409325
:1043F0006304819391939FCFF0E0E0E09CCFCF9353
:10440000DF930097E9F0FC01329713821282A091AA
:104410006504B0916604ED0130E020E01097A1F44E
:1044200020813181820F931F2091630430916404B5
:104430002817390709F061C0F0936404E09363041E
:10444000DF91CF910895EA01CE17DF07E8F54A81A1
:104450005B819E0141155105B1F7E901FB83EA83B8
:1044600049915991C40FD51FEC17FD0761F4808164
:1044700091810296840F951FE90199838883828137
:1044800093819B838A83F0E0E0E012968D919C916A
:1044900013970097B9F52D913C911197CD01029694
:1044A000820F931F20916304309164042817390709
:1044B00039F6309751F51092660410926504B09366
:1044C0006404A0936304BCCFD383C2834081518131
:1044D000840F951FC817D90761F44E5F5F4F88811D
:1044E0009981480F591F518340838A819B8193830F
:1044F00082832115310509F0B0CFF0936604E09373
:1045000065049ECFFD01DC01C0CF13821282D7CF9C
:10451000FB01DC018D91019080190110D9F3990BF9
:10452000089510E0C2E6D0E004C0FE010E942F21F1
:0C4530002196C336D107C9F7F894FFCFDD
:10453C0092009200000067048000E3080000E0088D
:10454C000000DD080000DA080000DC080000DB08D1
:10455C0000000000000029051C0C550724054D1413
:10456C00830F0000803FCDCCCC3D6F12833A95BFBA
:10457C00D6337D1D9026B3CE010CCDCCCC3D0AD7C5
:10458C00233C17B7D13877CC2B329595E6241FB145
:10459C004F0A000020410000C84200401C4620BCCD
:1045AC00BE4CCA1B0E5AAEC59D74020305060B0CFD
:1045BC0041304131413441354102440254026102DF
:1045CC006A0277020000000033019300C0008001F2
:1045DC00F100CF00E3000000000084045704CF0476
:1045EC002D0450043D042E04000000002805160C78
:1045FC00880A20055513A10F0000000028051A0C8D
:10460C00D5092005C812160F000000002805180C4B
:10461C00A9092005D113BE0E2F2F22225C5C620843
:10462C00660C6E0A720D7409006E756C6C00652D4B
:10463C0000747275650066616C736500646967006F
:10464C00616E616C6F670064697370006F66660001
:10465C006D6F64650068616E64006F7574006177DE
:10466C00616B6500616C697665003F3F3F000D0A28
:10467C00004F6B00496E636F6D706C657465496EAD
:10468C0070757400496E76616C6964496E707574EE
:10469C00004E6F4D656D6F7279004E6F745375706F
:1046AC00706F7274656400546F6F446565700000C0
:00000001FF
