:100000000C9462000C94930D0C946C0D0C948A006B
:100010000C948A000C948A000C94D50E0C948A00DF
:100020000C948A000C948A000C948A000C948A0028
:100030000C948A000C948A000C948A000C948A0018
:100040000C94220D0C948A000C94F00C0C94CA0CA5
:100050000C948A000C948A000C948A000C948A00F8
:100060000C94BA0D0C948A000000000024002700B4
:100070002A0000000000250028002B0000000000DE
:1000800023002600290004040404040404040202DA
:100090000202020203030303030301020408102007
:1000A0004080010204081020010204081020000012
:1000B0000008000201000003040700000000000027
:1000C0000000EC0E11241FBECFEFD8E0DEBFCDBF85
:1000D00012E0A0E0B1E0E4E8FEE202C005900D927B
:1000E000AA31B107D9F723E0AAE1B2E001C01D921D
:1000F000A336B207E1F710E0C2E6D0E004C02197D2
:10010000FE010E94FD15C136D107C9F70E947E0F7E
:100110000C9440170C94000008950895AF92BF927C
:10012000CF92DF92EF92FF920F931F93CF93DF93C3
:100130006C017B018B01040F151FEB015E01AE18F2
:10014000BF08C017D10759F06991D601ED91FC9114
:100150000190F081E02DC6010995892B79F7C50141
:10016000DF91CF911F910F91FF90EF90DF90CF9093
:10017000BF90AF900895FC01538D448D252F30E042
:10018000842F90E0821B930B541710F0CF960895A4
:1001900001970895FC01918D828D981761F0A28DD1
:1001A000AE0FBF2FB11D5D968C91928D9F5F9F7397
:1001B000928F90E008958FEF9FEF0895FC01918D4D
:1001C000828D981731F0828DE80FF11D858D90E0BA
:1001D00008958FEF9FEF0895FC01918D228D892F57
:1001E00090E0805C9F4F821B91098F73992708953F
:1001F00089EB92E00E94EC0021E0892B09F420E0D9
:10020000822F089580E090E0892B29F00E94F80069
:1002100081110C9400000895FC01A48DA80FB92F42
:10022000B11DA35ABF4F2C91848D90E001968F731E
:100230009927848FA689B7892C93A089B1898C913D
:10024000837080648C93938D848D981306C002888C
:10025000F389E02D80818F7D80830895EF92FF9256
:100260000F931F93CF93DF93EC0181E0888F9B8DD9
:100270008C8D98131AC0E889F989808185FF15C093
:100280009FB7F894EE89FF896083E889F9898081B6
:100290008370806480839FBF81E090E0DF91CF9185
:1002A0001F910F91FF90EF900895F62E0B8D10E0A7
:1002B0000F5F1F4F0F731127E02E8C8D8E110CC016
:1002C0000FB607FCFACFE889F989808185FFF5CF61
:1002D000CE010E940C01F1CFEB8DEC0FFD2FF11D33
:1002E000E35AFF4FF0829FB7F8940B8FEA89FB899E
:1002F00080818062CFCFCF93DF93EC01888D8823FC
:10030000B9F0AA89BB89E889F9898C9185FD03C078
:10031000808186FD0DC00FB607FCF7CF8C9185FF5D
:10032000F2CF808185FFEDCFCE010E940C01E9CF95
:10033000DF91CF910895833081F028F4813099F0D6
:100340008230A9F008958730A9F08830C9F0843050
:10035000B1F4809180008F7D03C0809180008F7701
:1003600080938000089584B58F7784BD089584B507
:100370008F7DFBCF8091B0008F778093B000089580
:100380008091B0008F7DF9CFCF93DF93282F30E09D
:10039000F901E255FF4F8491F901E656FF4FD491E0
:1003A000F901EA57FF4FC491CC23A1F081110E94BB
:1003B0009B01EC2FF0E0EE0FFF1FE458FF4FA591DB
:1003C000B491EC91ED2381E090E009F480E0DF91BD
:1003D000CF91089580E090E0FACF1F93CF93DF9301
:1003E000282F30E0F901E255FF4F8491F901E656DC
:1003F000FF4FD491F901EA57FF4FC491CC23A9F0E4
:10040000162F81110E949B01EC2FF0E0EE0FFF1FD1
:10041000EE58FF4FA591B4918FB7F894EC9111115C
:1004200008C0D095DE23DC938FBFDF91CF911F9161
:100430000895DE2BF8CFCF93DF9390E0FC01E656D2
:10044000FF4F24918A579F4FFC0184918823D1F05C
:1004500090E0880F991FFC01E859FF4FA591B491D6
:10046000FC01EE58FF4FC591D49161110EC09FB7AA
:10047000F8948C91E22FE0958E238C932881E223CF
:10048000E8839FBFDF91CF9108958FB7F894EC91E7
:10049000E22BEC938FBFF6CF8E3008F08E50877032
:1004A000806480937C0080917A00806480937A00DD
:1004B00080917A0086FDFCCF809178009091790040
:1004C00008953FB7F89480918A0290918B02A09191
:1004D0008C02B0918D0226B5A89B05C02F3F19F064
:1004E0000196A11DB11D3FBFBA2FA92F982F8827B4
:1004F000BC01CD01620F711D811D911D43E0660F8E
:10050000771F881F991F4A95D1F708952FB7F89440
:100510006091860270918702809188029091890291
:100520002FBF0895089585ED8093BC008091BC0095
:1005300084FDFCCF10925F02089520913B02260FAC
:100540003327331F21323105ECF420915F02FC0187
:1005500090E080E0243069F082E00895A0913B02B1
:100560002191AC01455E5D4FA40FB52FB11D2C93B9
:100570000196861798F380913B02680F60933B02C7
:1005800080E0089581E0089508958FEF9FEF08952A
:100590008FEF9FEF089580911A0290E091958195D9
:1005A00091090895CF93DF93CB01EA01642F0E9454
:1005B0009D02CE01DF91CF910895CF93DF931F92DB
:1005C000CDB7DEB7698361E0CE0101960E949D023E
:1005D00081E090E00F90DF91CF91089590E080E06E
:1005E00008954115510529F4EAE7F0E080818F77FD
:1005F00080836A307105B9F0CB01880F991F880F8D
:10060000991F807267706860682B88E10FB6F89454
:10061000A895809360000FBE60936000E0E6F0E074
:10062000808180648083232BD9F483B7817F8460A9
:1006300083BFF89483B7816083BF85B7806685BF29
:100640008F7D85BF7894889583B78E7F83BF78949C
:10065000452B29F4EAE7F0E08081806880830895E3
:1006600083B7817F846083BFF89483B7816083BF41
:100670007894889583B78E7F83BF7894E9CFCF93A2
:10068000DF93EC0188819981DC01ED91FC9101906F
:10069000F081E02D09952A813B81820F931F9B8376
:1006A0008A83DF91CF910895DC018D919C91DC01CB
:1006B000ED91FC910280F381E02D0994EF92FF927D
:1006C0000F931F93CF93DF93CDB7DEB766970FB627
:1006D000F894DEBF0FBECDBF8C01CB01FE01779633
:1006E0009F014AE0E42EF12CB7010E94A815805D1D
:1006F0008293CB010097C1F7A9014E1B5F0BBF018D
:10070000C8010E945403F80122813381820F931F94
:100710009383828366960FB6F894DEBF0FBECDBF7B
:10072000DF91CF911F910F91FF90EF9008958F92DD
:100730009F92AF92BF92CF92DF92EF92FF920F9370
:100740001F93CF93DF93CDB7DEB766970FB6F894BC
:10075000DEBF0FBECDBF7C018E01095E1F4F680159
:100760008AE0882E912CA12CB12CCB01BA01A501D5
:1007700094010E94BC15942F852F605DF80162934F
:100780008F01A901692F782F411551056105710568
:1007900061F7A6014E1B5F0BBF01C7010E94540306
:1007A000F70122813381820F931F938382836696A0
:1007B0000FB6F894DEBF0FBECDBFDF91CF911F9172
:1007C0000F91FF90EF90DF90CF90BF90AF909F90F0
:1007D0008F900895EF92FF920F931F93CF93DF9323
:1007E000EC017B0162E20E943F038701F801619105
:1007F0008F01662391F0E5E9F1E0F280FF2049F0F6
:10080000329681816813F9CF6CE5CE010E943F03D7
:100810006F2DCE010E943F03E9CF62E2CE01DF914E
:10082000CF911F910F91FF90EF900C943F034F9247
:100830005F926F927F928F929F92AF92BF92DF9260
:10084000EF92FF920F931F93CF93DF938C01EB01F5
:1008500088818B32D1F18D32C9F52196EE24E39453
:10086000888190ED980F9A3010F08E3289F560E013
:1008700070E0CB01FE012191A0ED8A2E820E39E0BD
:10088000381508F440C06A3929E97207820729E15E
:10089000920708F04DC0AAE0B0E09B01AC010E94B5
:1008A000DE15912CB12CA12C2401350140945094DB
:1008B000609470944616570668067906C8F1680D6C
:1008C000791D8A1D9B1DEF01D5CF2196E12CC8CF44
:1008D000F80110821182128213821482158216820C
:1008E00017821086C801DF91CF911F910F91FF9061
:1008F000EF90DF90BF90AF909F908F907F906F9020
:100900005F904F900895211113C0F80160837183A7
:10091000828393830E948414F801648375838683A1
:1009200097838AE0E11001C088E0F8018087DACF80
:10093000F12CEAE08E2E912CA12CB12C61157105C1
:10094000F0E88F07910540F0A50194010E94BC15C5
:10095000CA01B901F394F2CFFE01299130ED320FB3
:100960003A3010F4F394F8CF2E32F1F4EF012196DF
:10097000FE012196208150EDD52ED20E29E02D15B5
:1009800098F06C3C3CEC73073CE08307910580F7E2
:10099000AAE0B0E09B01AC010E94DE156D0D711D57
:1009A000811D911DFA94E4CF20812F7DD0E0C0E01D
:1009B000253409F04FC021812D32A9F53296BB2490
:1009C000B394DF01D0E0C0E02F2D0F2C000C330BCF
:1009D0004AE0A42EFD01DD9040ED4D0D4A30A8F512
:1009E000AC9EA001AD9E500D1124CD2DDD0CDD0B74
:1009F000E097C40FD51FAE01420F531F4732510578
:100A00004CF3BB20B9F080E090E0A0E0B0E8E1104A
:100A100003C080E090E0DC01F80184839583A68325
:100A2000B7838CE083CF2B3219F03196B12CC9CF2C
:100A30003296FCCF80E090E0A0E8BFEFE110ECCF71
:100A400080E090E0A0E8BFE7E7CFBB2019F0D195A8
:100A5000C195D109208121113BCFCF0DD11DF7FCCC
:100A6000DA950E9484141C161D06E4F4F12CC0FFD4
:100A70000CC024E0F29EF0011124E25BFE4F2081C5
:100A80003181428153810E943B15D595C795F394DE
:100A9000209769F7E1109058F80164837583868385
:100AA0009783BFCFD195C195D109F12C209791F3B0
:100AB000C0FF0CC024E0F29EF0011124EA5CFE4F5E
:100AC00020813181428153810E943B15D595C79584
:100AD000F394ECCF80339CF08A3324F08F3524F0EC
:100AE0008B3724F481E0089581344CF08B35D4F3B6
:100AF00093ED980F81E09230B0F380E008958B324F
:100B0000B9F7F0CFFC01878181110AC0A481B581BA
:100B1000CD010196958384838C91868381E08783C0
:100B200086810895FF920F931F93CF93DF93EC017B
:100B30000A811B810E948205F82E1F82CE010E942D
:100B400082051F82F816A9F181110AC061E070E0E8
:100B500080E090E0DF91CF911F910F91FF90089579
:100B60008C35F1F4CE010E948205882379F3853714
:100B700029F464E070E080E090E0ECCFE5E9F1E09A
:100B80009081992329F0891308C08181811107C0C0
:100B900062E070E080E090E0DDCF3296F1CF1F821E
:100BA000EA81FB819F012F5F3F4F3B832A83808334
:100BB000C5CFEA81FB81CF0101969B838A83108296
:100BC00063E070E080E090E00115110519F260E04B
:100BD00070E0CB01C801BECF1F93CF93DF93EC0130
:100BE000162F0E948205811306C01F8281E0DF91CB
:100BF000CF911F91089580E0FACFCF93DF93EC015E
:100C0000CE010E9482058B303CF489304CF488235D
:100C100049F090E080E008C08D3011F08032C9F7D3
:100C20001F82EECF81E090E0DF91CF91089508958B
:100C30000895FC0180819181892B21F460E070E0AE
:100C4000CB01089567E276E090E080E00895089592
:100C5000CF93DF93DC01EB01EC81FD818A819B81E5
:100C60000896E817F90730F4F0E0E0E0CF01DF91F3
:100C7000CF9108953897FD83EC833097A9F31296AE
:100C8000CD91DC911397209791F0CF018C1B9D0B98
:100C900023E0959587952A95E1F78D831396FC932C
:100CA000EE9312971582148217821682DFCF119667
:100CB000FC93EE93F3CFFC011182108281E08283DA
:100CC00014821382168215824115510591F0DA01C2
:100CD00016962D913C91179714968C918095881FAC
:100CE0008827881F318320838283548343837683BC
:100CF00065830895FC012581222339F0F8E02F0255
:100D000090011124820F931F089590E080E00895D0
:100D1000CF93DF93EC012881222321F01A82DF9107
:100D2000CF91089560E084E00E94ED01F7CF8F92AB
:100D30009F92AF92BF920F931F93CF93DF93CDB744
:100D4000DEB7A1970FB6F894DEBF0FBECDBF19A2D4
:100D5000423008F44AE08E010F5D1F4F842E912C23
:100D6000B12CA12CA50194010E94BC15E62FB9015C
:100D7000CA01EA3044F5E05DD801EE938D01232BE2
:100D8000242B252B79F790E080E0109769F0FD0186
:100D900001900020E9F73197AF014A1B5B0BBD01C1
:100DA00089EB92E00E948E00A1960FB6F894DEBF08
:100DB0000FBECDBFDF91CF911F910F91BF90AF902C
:100DC0009F908F900895E95CD7CF42E050E066EAAB
:100DD00071E089EB92E00C948E00CF93DF93BC011D
:100DE000990F880B990B4AE00E949706EC010E942C
:100DF000E5068C0F9D1FDF91CF91089584E090E070
:100E00000C94ED0683E090E00C94ED0682E090E017
:100E10000C94ED0681E090E00C94ED0690E080E00B
:100E20000C94ED06CF93DF93EC01FB0101900020C1
:100E3000E9F73197AF01461B570B0E9454032A81F3
:100E40003B81820F931F9B838A83DF91CF9108950B
:100E50002F923F924F925F926F927F928F929F92CA
:100E6000AF92BF92CF92DF92EF92FF920F931F93B8
:100E7000CF93DF93CDB7DEB76A970FB6F894DEBF96
:100E80000FBECDBF8C014B01DC0114968C911497E1
:100E90008F77863009F46BC2C8F4823000F1843059
:100EA00008F04BC2F8014281538160817181C40115
:100EB0000E945403D40112962D913C911397820FF6
:100EC000931F13969C938E931297EBC18C3051F124
:100ED00048F4883009F446C28A3009F434C269EA19
:100EE00071E052C2803209F403C28034C1F76BE56D
:100EF000C4010E943F03F801008111810115110511
:100F000009F4F1C1B401C8010E942807C8010E9478
:100F10007A068C01892B09F4E6C16CE2C4010E94B7
:100F20003F03ECCFF8014080518062807380A301C1
:100F30009201C301B2010E9450148111D0CF20E070
:100F400030E0A901C301B2010E945014882379F056
:100F5000A3019201C301B2010E94E4139B01AC0101
:100F6000C301B2010E945014882309F4B8CF20E0D5
:100F700030E0A901C301B2010E94501487FF08C0EC
:100F80006DE2C4010E943F0377FA709477F8709481
:100F900020E836E948E15BE4C301B2010E9436155E
:100FA00087FD79C046E6E42E41E0F42E56E3C52ED7
:100FB00051E0D52E6EE4A62E61E0B62E00E210E0E0
:100FC000312C212CD7015E914E913E912E917D01C5
:100FD000C301B2010E94361587FD0DC0F6012489B8
:100FE000358946895789C301B2010E943B152B01FF
:100FF0003C01200E311E15950795F4E0CF1AD1085B
:10100000AE14BF04F9F68FEF8B8B20E030E0A9011E
:10101000C301B2010E94361518160CF043C02CEA29
:1010200035EC47E257E3C301B2010E945014181691
:10103000CCF1AB89B4E0AB0250011124D12CC12C0E
:10104000EB89EF3F79F17501EC0CFD1CF701E25ED5
:10105000FE4FA301920160817181828193810E9480
:10106000361518167CF4F701E25BFE4F20813181C2
:1010700042815381C301B2010E943B152B013C0107
:10108000201A310A15950795FB89F150FB8B84E0F6
:10109000C81AD108D5CF00E210E095E09B8B312C27
:1010A000212CB3CFC301B2010E9455146B8B7C8BF2
:1010B0008D8B9E8B6B017C0116E080E492E4AFE0A7
:1010C000B0E08F8B988FA98FBA8F012F11509AE0C3
:1010D000C916D104E104F104C8F06F89788D898DB7
:1010E0009A8D2AE030E040E050E00E94BC152F8B42
:1010F000388F498F5A8FC701B6012AE030E040E0AF
:1011000050E00E94BC1569017A01DFCF6B897C89B0
:101110008D899E890E9484149B01AC01C301B20198
:101120000E94E3136B017C016F89788D898D9A8D04
:101130000E9484149B01AC01C701B6010E943B15BB
:101140002B013C010E9455146B017C010E94841408
:101150009B01AC01C301B2010E94E3139B01AC01EE
:101160000E94E4130E945514C60ED71EE81EF91EF5
:101170008F89988DA98DBA8DC816D906EA06FB0607
:1011800000F18B899C89AD89BE890196A11DB11D95
:101190008B8B9C8BAD8BBE8B2114310439F10A975C
:1011A000A105B10518F19FEF291A390AC12CD12CDC
:1011B000760181E090E0A0E0B0E08B8B9C8BAD8B62
:1011C000BE8B9AE0492E512C612C712CC701B601BF
:1011D000A30192010E94BC15672B682B692B51F467
:1011E000101644F469017A010150F0CFC12CD12CC2
:1011F0007601E7CF4B895C896D897E89C4010E94A5
:101200009703002309F43FC05E0191E1A90EB11CD0
:10121000102FBA8AA98A8AE0482E512C612C712C91
:10122000115068F0C701B601A30192010E94BC15DC
:10123000605DD5016E935D0169017A01F1CF802F68
:1012400090E0BC0160957095E989FA89E81BF90B7B
:1012500031978EE2808344275527461B570BE1E1E7
:10126000F0E0EC0FFD1F6E0F7F1FC4010E945403BE
:10127000D40112962D913C911397820F931F1396D0
:101280009C938E93129737FE25C06EEA71E0C401DD
:101290000E9412076627772762197309C4010E940A
:1012A0005E036A960FB6F894DEBF0FBECDBFDF9126
:1012B000CF911F910F91FF90EF90DF90CF90BF9053
:1012C000AF909F908F907F906F905F904F903F90E6
:1012D0002F9008952114310421F365E6C4010E9482
:1012E0003F03B101DBCF6DE5C4010E943F03D9CFBD
:1012F0006BE7C4010E943F03D8010D911C910115B9
:101300001105C9F0F80166817781C4010E94EA03E2
:101310006AE3C4010E943F03B401C8010E94280788
:10132000C8010E947A068C01892B29F06CE2C40165
:101330000E943F03E4CF6DE7D7CF6D917C91C4014C
:101340000E94EA03AECFF801C080D180E280F38032
:101350006DE2C4010E943F03B701A601C4010E94CF
:1013600097039FCF4D915D916D917C91F7CFF801DF
:1013700080819181A281B38161EB71E0892B8A2BFD
:101380008B2B11F466EB71E0C4010E94120789CF28
:10139000CF93DF9300D000D0CDB7DEB77A836983D7
:1013A0001C821B82BE016F5F7F4F08960E94280738
:1013B0008B819C810F900F900F900F90DF91CF91B8
:1013C00008950F931F93CF93DF938B01EC01892B2B
:1013D000A1F06E817F816017710779F00115110509
:1013E00041F06115710529F0C8010E943717892B5A
:1013F00021F0CE010E947A06E9CFCE01DF91CF9194
:101400001F910F9108958F929F92AF92BF92CF92AA
:10141000DF92EF92FF920F931F93CF93DF93CDB79D
:10142000DEB7CB54D1090FB6F894DEBF0FBECDBFE7
:101430008C017B01D42E0E94FD052C969FAF8EAFB0
:101440002C97CE01865B9F4F0E941906672B09F0EF
:1014500099C080FD97C0C8010E948205873209F4B7
:101460008BC114F5823209F487C1C8010E9482053C
:10147000C82ECE0101964C01D12C5C018C2D0E940E
:101480006A05882309F492C19FE3D91609F48EC135
:10149000D80117961C92D394F401C1924F01C80150
:1014A0000E948205C82EEACF8B3509F485C08B37A0
:1014B000E1F6F70184818078806284831182108252
:1014C00013821282DD2009F455C1D80117961C92AF
:1014D000C8010E94FD059A838983CE0101960E946E
:1014E0001906672B09F0B4C080FDB2C06DE7C801D2
:1014F0000E94EC058111B7C0DA94C8010E948205F0
:10150000873209F4BAC0823209F4B7C0F801828088
:101510009380C8010E948205A82E0E946A0522E0DD
:1015200030E0882361F1D80117961C921797129624
:10153000ED91FC911397CF01019613969C938E9396
:101540001297A082C8010E948205A82E0E946A05F7
:101550008111E9CFD8011296ED91FC911397CF013B
:10156000019613969C938E931297108223E030E09D
:101570008114910421F0B82CC92C30E020E09B2C80
:10158000AC2C83C02B968FAD2B972C969FAD2C97B0
:10159000C55BDF4F0FB6F894DEBF0FBECDBFDF9146
:1015A000CF911F910F91FF90EF90DF90CF90BF9060
:1015B000AF909F908F900895D70114968C911497B7
:1015C0008078806414968C93149711961C921E92C6
:1015D00013961C921E921297DD2009F4CBC0F801DD
:1015E0001782C8010E94FD059A838983CE01019666
:1015F0000E941906672B61F580FD2AC06DE5C801C0
:101600000E94EC0581112FC0DA94D8016D917C9174
:10161000C7010E942806009709F4A9C04D2DBC01FE
:10162000C8010E94030A9A838983CE0101960E9411
:101630001906672B69F480FD0BC0C8010E94FD05E7
:101640009A838983CE0101960E941906672B19F0AF
:1016500089819A819DCF80FDFBCF6DE5C8010E94F5
:10166000EC05882311F080E083C06CE2C8010E9481
:10167000EC058111CACF82E07BC0C8010E949205AF
:101680009B019B2CAC2CB82EC92E3A832983CE010A
:1016900001960E941906672BD9F680FDD9CFC801A3
:1016A0000E94FD059A838983CE0101960E94190646
:1016B000672B71F680FDCCCF6AE3C8010E94EC0570
:1016C0008823C9F26B2D7C2DF701808191810E94C6
:1016D000E109BC01892B81F4D8016D917C91C7018E
:1016E0000E942806FC01892B09F441C0848180688E
:1016F0008483B682C782BF014D2DC8010E94030AB0
:101700009A838983CE0101960E941906672B09F0FE
:101710009FCF80FD9DCFC8010E94FD059A838983DC
:10172000CE0101960E941906672B09F091CF80FD2A
:101730008FCF6DE7C8010E94EC05811194CF6CE258
:10174000C8010E94EC05882309F495CFC8010E94C6
:10175000FD059A838983CE0101960E941906672BA5
:1017600009F076CF80FD74CFB92CCA2CC6CE83E0A9
:1017700090E00ECF85E0FCCFC8010E9492056983FE
:101780007A838B839C83CE0101960E941906672B76
:1017900009F05ECF80FD5CCF2B813C81F701848115
:1017A000807885608483318320835DCFF501ED0DE2
:1017B000F11D108289818437B9F4D70114968C9178
:1017C00014978078866014968C9381E090E0A0E076
:1017D000B0E0F70180839183A283B38390E0F4E0CB
:1017E000DF12D6CE80E0D4CE863689F4D7011496A7
:1017F0008C9114978078866014968C93F7011082F0
:1018000011821282138281E090E0F5E0E9CF8E36FA
:1018100031F481E090E024E0D212BACEE3CFB501FA
:10182000CE018F5B9F4F0E94170425964CAD5DAD96
:101830006EAD7FAD25972A968FAD2A978A3061F0DD
:101840008C30C1F0883009F016CFD70114968C91F6
:1018500014978078886006C0D70114968C911497ED
:1018600080788A6014968C93F70140835183628359
:101870007383F9CE29964CAD5DAD6EAD7FAD2997E2
:10188000D70114968C91149780788C6014968C9361
:10189000F7014083518362837383E5CEEF92FF9219
:1018A0000F931F93CF93DF93EC018C81982F9F7739
:1018B00039F4807880628C83198218821B821A82A4
:1018C0008C8185FF1EC061157105D9F07A018B01ED
:1018D000888199810E94E109009761F4B701CE01E6
:1018E0000E942806009731F0FC0124812F77248381
:1018F00017830683DF91CF911F910F91FF90EF9097
:10190000089590E080E0F6CF1F93CF93DF93CDB79B
:10191000DEB765970FB6F894DEBF0FBECDBFFC01F2
:10192000162F9E01225F3F4F3A8329833C832B83EE
:10193000285F3F4F3E832D8338872F839D85907886
:101940009D87AE014F5F5F4FBF01CE0109960E9498
:101950004E0CFC01892B61F09481907898609483FF
:10196000812F90E0B0E0A0E080839183A283B383D5
:1019700069EB72E0CE0101960E94C8090E94E5065B
:1019800065960FB6F894DEBF0FBECDBFDF91CF9145
:101990001F9108951F920F920FB60F9211242F934B
:1019A0003F934F935F936F937F938F939F93AF93E7
:1019B000BF93EF93FF9389EB92E00E940C01FF919C
:1019C000EF91BF91AF919F918F917F916F915F91B7
:1019D0004F913F912F910F900FBE0F901F90189530
:1019E0001F920F920FB60F9211242F938F939F93F4
:1019F000EF93FF93E091C902F091CA028081E091D8
:101A0000CF02F091D00282FD1BC090818091D20262
:101A10008F5F8F732091D302821741F0E091D20241
:101A2000F0E0E754FD4F958F8093D202FF91EF9144
:101A30009F918F912F910F900FBE0F901F9018952F
:101A40008081F4CF1F920F920FB60F9211242F9323
:101A50003F938F939F93AF93BF9380918602909112
:101A60008702A0918802B09189023091850226E018
:101A7000230F2D3758F50296A11DB11D2093850225
:101A80008093860290938702A0938802B093890284
:101A900080918A0290918B02A0918C02B0918D026C
:101AA0000196A11DB11D80938A0290938B02A09391
:101AB0008C02B0938D02BF91AF919F918F913F9116
:101AC0002F910F900FBE0F901F90189529E8230FAC
:101AD0000396A11DB11DD2CF1F920F920FB60F9288
:101AE00011242F933F934F935F936F937F938F9323
:101AF0009F93AF93BF93EF93FF93E0910201F09117
:101B000003010995FF91EF91BF91AF919F918F9143
:101B10007F916F915F914F913F912F910F900FBEE9
:101B20000F901F9018951F920F920FB60F921124CD
:101B30002F933F934F935F936F937F938F939F93D5
:101B4000AF93BF93EF93FF93E0910001F0910101F8
:101B50000995FF91EF91BF91AF919F918F917F91E7
:101B60006F915F914F913F912F910F900FBE0F900A
:101B70001F9018951F920F920FB60F9211242F935A
:101B80003F934F935F936F937F938F939F93AF9305
:101B9000BF93EF93FF938091B900887F803609F45B
:101BA0004AC0F0F5883209F4A5C018F5803109F46F
:101BB00099C0B8F4882309F4F5C0883009F492C0BC
:101BC000FF91EF91BF91AF919F918F917F916F9115
:101BD0005F914F913F912F910F900FBE0F901F90EB
:101BE0001895883109F486C0803251F780935E02DF
:101BF00014C0803409F49BC040F48033B9F38833B7
:101C0000F9F680935E0285ECAEC0803509F483C09E
:101C1000883509F494C0883499F60E949302D0CF95
:101C2000883909F48AC038F5883729F050F48836A5
:101C300011F0803729F683E080935F0210925D02F5
:101C400055C0883809F479C0803919F0803809F016
:101C5000B7CF80915D02803208F06FC0E0915D02E5
:101C600081E08E0F80935D028091BB00F0E0E35C29
:101C7000FD4F80833BC0803B39F0D0F4803A09F4BB
:101C800077C0883A09F09CCF84E080935F0210927D
:101C90003C0210923B02F0E0E0E0099580913B02AB
:101CA00081110FC081E080933B0210921B0209C09A
:101CB000803C09F4A8CF883C09F4A5CF883B09F003
:101CC0007FCFE0913C0281E08E0F80933C02F0E0F8
:101CD000E55EFD4F80818093BB0090913C02809136
:101CE0003B0229C0809184028093BB0085EC8093E5
:101CF000BC0066CF9091830280918202981758F5BC
:101D0000E091830281E08E0F80938302F0E0EE5930
:101D1000FD4F8081E9CFE091830281E08E0F8093B7
:101D200083028091BB00F0E0EE59FD4F80839091DB
:101D30008302809182029817C8F285E8D8CFE0919B
:101D4000830281E08E0F809383028091BB00F0E0DC
:101D5000EE59FD4F80838091610281115ECF81E059
:101D60008093600284EA8093BC0010925F0228CFC7
:101D700085EC8093BC0010925F0280915D028032FE
:101D800030F4E0915D02F0E0E35CFD4F1082609181
:101D90005D0270E08DE392E0F0E0E0E009951092E2
:101DA0005D020ECF10925E0238CF1F920F920FB6D7
:101DB0000F9211248F930FB6F894A895809160002C
:101DC000886180936000109260000FBE8F910F9029
:101DD0000FBE0F901F9018950F931F93CF93DF9313
:101DE0001092BC021092BB0288EE93E0A0E0B0E03B
:101DF0008093BD029093BE02A093BF02B093C00235
:101E000087E891E09093BA028093B90285EC90E064
:101E10009093C6028093C50284EC90E09093C80230
:101E20008093C70280EC90E09093CA028093C9022D
:101E300081EC90E09093CC028093CB0282EC90E016
:101E40009093CE028093CD0286EC90E09093D002E6
:101E50008093CF021092D2021092D3021092D40239
:101E60001092D50287E090E00E941216EC0189E002
:101E700090E00E9412168C011092560310925A03A1
:101E800010925903109257031092580361E080E1B9
:101E90000E941B0280915603882359F11092570328
:101EA00061E084E00E941B0286E593E00E948806C0
:101EB00061E081E10E941B0260E081E10E94ED018E
:101EC00060E087E00E941B0260E083E00E941B024A
:101ED00060E082E00E941B0210935C0300935B03AE
:101EE000D0935E03C0935D03DF91CF911F910F915B
:101EF000089560E080E10E94ED01D0CFCF93DF93A1
:101F0000CDB7DEB7C858D1090FB6F894DEBF0FBE03
:101F1000CDBF789484B5826084BD84B5816084BD72
:101F200085B5826085BD85B5816085BD80916E0077
:101F3000816080936E0010928100809181008260A8
:101F400080938100809181008160809381008091E5
:101F500080008160809380008091B10084608093D4
:101F6000B1008091B00081608093B00080917A00D0
:101F7000846080937A0080917A00826080937A00F6
:101F800080917A008E7F80937A0080917A008068B9
:101F900080937A001092C100E091C902F091CA02C8
:101FA00082E08083E091C502F091C6021082E09148
:101FB000C702F091C80287E680831092D102E091B7
:101FC000CD02F091CE0286E08083E091CB02F091C9
:101FD000CC02808180618083E091CB02F091CC02C1
:101FE000808188608083E091CB02F091CC02808177
:101FF00080688083E091CB02F091CC0280818F7D5C
:10200000808380915603882309F486C01092570379
:1020100086E593E00E94880660E083E00E941B0250
:1020200060E082E00E941B0200E711E0B5E9EB2EC0
:10203000B2E0FB2ED801DD908D0160E08D2D0E9475
:102040001B028D2D0E94C401F70181937F01F1E0F5
:1020500007371F0779F761E087E00E941B0260E005
:1020600087E00E94ED0161E08AE00E941B0260E0CF
:102070008AE00E94ED0161E08DE00E941B0260E0B9
:102080008DE00E94ED018E010F5B1F4FA801435FA1
:102090005F4FCB57DF4F59834883C558D040AEE5DB
:1020A0002A2E312C2C0E3D1E5DE0250E311CE090B9
:1020B0005D03F0905E03D70112968C918E3609F481
:1020C0008EC078F58A3009F457C0823309F454C0C1
:1020D000E0905B03F0905C03F70182818E3609F497
:1020E000AAC108F09AC0843131F0823309F4A3C147
:1020F0008A3009F0BDC0D701CD90DC901197F60170
:102100008081882309F48BC1818191E093838111BF
:102110008CC118961C92ACC160E080E10E94ED0178
:1021200075CF8639A9F0883C99F0883789F6D701B0
:10213000ED91FC910580F681E02D8281893728F0B0
:1021400061E080EC91E00E94840C82E8F7018283D8
:10215000D7018D919C910E94880660E089E00E94E1
:102160001B02F701628185EC91E00E94840C8AECED
:10217000D70112968C93ACCF8CE890E0909303013A
:1021800080930201809169008C6080936900E99AD4
:102190008DE890E0909301018093000180916900A7
:1021A000836080936900E89A30E020E050E040E0EE
:1021B0006AE070E0F701808191810E94F1020E9443
:1021C0008602D70113966D937D938D939C931697FA
:1021D000ED91FC910580F681E02D8EE68283F7017A
:1021E00083809480A580B680FEE18F0E911CA11C97
:1021F000B11C0E948602681579058A059B0508F0C6
:1022000096CFD701ED91FC9111970580F681E02DD5
:102210008AE0828312968C938ACF823821F08C38A0
:1022200091F0883729F5F7018381823061F40E94AB
:102230008602D70114966D937D938D939C93179787
:1022400086E912968C93F70184809580A680B780EA
:10225000FEE18F0E911CA11CB11C0E948602681524
:1022600079058A059B0520F480EAD70112968C93A4
:10227000E0915D03F0915E038281853608F48FC0A2
:102280007CE9C72E72E0D72EEEE8EE2EE2E0FE2EBD
:10229000F5E98F2EF2E09F2EB12CA12C0E94860230
:1022A000F601408051806280738064157505860553
:1022B000970540F40E948602D6016D937D938D931D
:1022C0009C931397F6014080518062807380FAE0FE
:1022D0004F0E511C611C711C0E948602641575050D
:1022E0008605970578F0F501E059FE4F80810E9440
:1022F000C401D7019C91F40120818213D0C0913098
:1023000009F41C92BFEFAB1ABB0AE4E0CE0ED11C5D
:10231000FFEFEF1AFF0A2FEF821A920A47E0A41686
:10232000B10409F0BBCFE12CFE2CFF0C84E091E05E
:10233000F80E8F2D0E944C028F2D0E944C0256E009
:10234000D52E0E9461022B013C014AE0842E912C83
:10235000A12CB12C0E9461026419750986099709A4
:10236000683E734081059105A8F391E0891A9108B0
:10237000A108B108A8EE4A0EA3E05A1E611C711C08
:1023800081149104A104B10429F78F2D0E944C02FD
:10239000DA94D110D6CFE394E8E0EE12C5CFE09105
:1023A0005B03F0915C038281853608F4FFC158011C
:1023B000FDE1AF0EB11CA801485F5F4FC957DF4F69
:1023C00059834883C758D0403EE5832E912C8C0E0C
:1023D0009D1E55E1850E911C89EB92E00E94EC0058
:1023E000181619060CF0E2C189EB92E00E94CA00AF
:1023F0009091B802292F30E08A3009F46CC0A1E036
:10240000B0E0AC0FBD1F2A0F3B1FF90180839F5F17
:10241000903408F45DC08FE38093B802DDCF87E08D
:102420000E94C40118161906ACF481E0D601139677
:102430008C93F7018087F701C080D180D6018C9101
:10244000882329F181E011968C9388E7D7011296B1
:102450008C93E9CED701CD90DC901197F601808165
:1024600018961C9218979EE112969C93882341F02F
:10247000D60111961C9282E3D70112968C93DBCF82
:1024800060E080E10E94ED01F6011182F4CF61E08D
:1024900080E10E94ED0181E0F6018183D6CF913089
:1024A000A1F41C928083F501EE0FFF1FEA59FE4F45
:1024B0000190F081E02D09950E948602D6016D936E
:1024C0007D938D939C9313971DCFE1E0EC93F4CF14
:1024D0009093B80281CF41E050E04C0F5D1F240F74
:1024E000351FD9011C921092B802CB57DF4F48819B
:1024F0005981C558D040F8015183408353834283AA
:10250000B582A482B782A682848580788487A096CB
:102510001FAF0EAFA09781E090E08C0F9D1FA29699
:102520009FAF8EAFA297A4969FAF8EAFA497A696AB
:102530001FAEA6974AE0C957DF4F68817981C75817
:10254000D040CE01825A9F4F0E94030AEC969FAF63
:102550008EAFEC97CE0186589F4F0E941906672BCD
:10256000B9F480FD15C0A5968FADA597882381F09D
:10257000D8011C968C91982F9F779C3019F08D77FD
:10258000883031F482E090E0EC969FAF8EAFEC970C
:10259000EC96EEACFFACEC97CF57DF4FF982E882B8
:1025A000C158D040CE018F579F4F0E941906672B0C
:1025B00009F059C080FD57C0F801848585FF0CCF14
:1025C000E084F184E114F10409F406CFA701B80115
:1025D000CE01825A9F4F0E945B0687E0FE01E25ABD
:1025E000FF4FDE01AD58BF4F01900D928A95E1F784
:1025F00087E0FE01ED58FF4FDE01A658BF4F019066
:102600000D928A95E1F78CE0C82E81E0D82ED60194
:1026100012960D90BC91A02DCD57DF4FB983A883A2
:10262000C358D040AB2B09F482C0F60160817181A0
:10263000EC968EAD9FADEC970E943717892B09F071
:10264000B1C0EF96EEADFFADEF97309751F08481BA
:102650008F77863009F459C008F04DC0843008F0F7
:102660006BC080E05DC0F6E0EF16F104E8F5F7011D
:10267000EE0FFF1FE958FE4FE080F180A0963FAEBD
:102680002EAEA097A2963FAE2EAEA297A4969FAE76
:102690008EAEA497A6969FAE8EAEA697AB968FAD44
:1026A000AB978078AB968FAFAB97AE01425A5F4F36
:1026B0006BEC71E0CA0108960E944E0CFC01892B5C
:1026C00049F094819078E114F10499F09460948336
:1026D000F182E08269EB72E0CE01825A9F4F0E9444
:1026E000C8090E94E50678CE9CEBE92E91E0F92E10
:1026F000C5CF9483EFCF883041F08C3009F0B1CF53
:1027000040805180628073802CC080819181A28141
:10271000B3818F3F9105A105B10511F008F0A1CF5C
:10272000CD57DF4FE881F981C358D0400995C701E3
:102730000E947A067C0146CF60817181CE01825A67
:102740009F4F0E941704A7968FADA797883019F165
:102750008C3009F086CFA6964CAC5DAC6EAC7FACED
:10276000A69720E030E0A901C301B2010E9436150E
:1027700087FD77CF20E030E04FE753E4C301B2019B
:102780000E94501418160CF46CCFC301B2010E94C1
:102790005514862FC5CFA2968CAD9DADAEADBFAD05
:1027A000A297B7CFF4E0CF0ED11C31CF80E090E0FC
:1027B000892B09F47CCC0E94F800882309F477CC9B
:1027C0000E94000074CC5058BB27AA270E94FB131C
:1027D0000C94FC140E94EE1438F00E94F51420F0C2
:1027E00039F49F3F19F426F40C94EB140EF4E095A1
:1027F000E7FB0C94E514E92F0E940D1558F3BA1766
:10280000620773078407950720F079F4A6F50C9406
:102810002F150EF4E0950B2EBA2FA02D0B01B90148
:1028200090010C01CA01A0011124FF27591B99F046
:10283000593F50F4503E68F11A16F040A22F232F52
:10284000342F4427585FF3CF469537952795A795A2
:10285000F0405395C9F77EF41F16BA0B620B730B49
:10286000840BBAF09150A1F0FF0FBB1F661F771FBA
:10287000881FC2F70EC0BA0F621F731F841F48F46F
:10288000879577956795B795F7959E3F08F0B0CFF8
:102890009395880F08F09927EE0F979587950895DF
:1028A0000E94C11408F481E008950E94151588F073
:1028B0009F5798F0B92F9927B751B0F0E1F0660F04
:1028C000771F881F991F1AF0BA95C9F714C0B13045
:1028D00091F00E942F15B1E008950C942F15672FE9
:1028E000782F8827B85F39F0B93FCCF38695779574
:1028F0006795B395D9F73EF490958095709561955D
:102900007F4F8F4F9F4F0895E89409C097FB3EF487
:1029100090958095709561957F4F8F4F9F4F99232C
:10292000A9F0F92F96E9BB279395F69587957795AA
:102930006795B795F111F8CFFAF4BB0F11F460FF6A
:102940001BC06F5F7F4F8F4F9F4F16C0882311F0C2
:1029500096E911C0772321F09EE8872F762F05C0D6
:10296000662371F096E8862F70E060E02AF09A9571
:10297000660F771F881FDAF7880F9695879597F966
:102980000895990F0008550FAA0BE0E8FEEF161600
:102990001706E807F907C0F012161306E407F50753
:1029A00098F0621B730B840B950B39F40A2661F0C7
:1029B000232B242B252B21F408950A2609F4A1406A
:1029C000A6958FEF811D811D089597F99F6780E877
:1029D00070E060E008959FEF80EC089500240A9471
:1029E0001616170618060906089500240A941216EA
:1029F0001306140605060895092E0394000C11F41D
:102A0000882352F0BB0F40F4BF2B11F460FF04C0C9
:102A10006F5F7F4F8F4F9F4F089557FD9058440F22
:102A2000551F59F05F3F71F04795880F97FB991F2D
:102A300061F09F3F79F087950895121613061406EA
:102A4000551FF2CF4695F1DF08C016161706180677
:102A5000991FF1CF86957105610508940895E89452
:102A6000BB2766277727CB0197F908950E94C114E9
:102A700008F48FEF08950E944E150C94FC140E94E8
:102A8000EE1438F00E94F51420F0952311F00C9408
:102A9000E5140C94EB1411240C9430150E940D15C0
:102AA00070F3959FC1F3950F50E0551F629FF001A1
:102AB000729FBB27F00DB11D639FAA27F00DB11DBA
:102AC000AA1F649F6627B00DA11D661F829F222743
:102AD000B00DA11D621F739FB00DA11D621F839FCA
:102AE000A00D611D221F749F3327A00D611D231FA0
:102AF000849F600D211D822F762F6A2F11249F57EE
:102B000050409AF0F1F088234AF0EE0FFF1FBB1FF0
:102B1000661F771F881F91505040A9F79E3F5105AF
:102B200080F00C94E5140C9430155F3FE4F3983E6C
:102B3000D4F3869577956795B795F795E7959F5F59
:102B4000C1F7FE2B880F911D9695879597F90895EB
:102B500097FB072E16F4009407D077FD09D00E944A
:102B6000E91507FC05D03EF4909581959F4F089597
:102B7000709561957F4F0895A1E21A2EAA1BBB1B89
:102B8000FD010DC0AA1FBB1FEE1FFF1FA217B30739
:102B9000E407F50720F0A21BB30BE40BF50B661F4F
:102BA000771F881F991F1A9469F760957095809513
:102BB00090959B01AC01BD01CF0108950E940316C1
:102BC000A59F900DB49F900DA49F800D911D112481
:102BD0000895AA1BBB1B51E107C0AA1FBB1FA61764
:102BE000B70710F0A61BB70B881F991F5A95A9F7B6
:102BF00080959095BC01CD010895EE0FFF1F0590C3
:102C0000F491E02D0994A29FB001B39FC001A39F4E
:102C1000700D811D1124911DB29F700D811D112415
:102C2000911D08950F931F93CF93DF9382309105E9
:102C300010F482E090E0E0916103F091620330E0F3
:102C400020E0B0E0A0E0309799F42115310509F4B7
:102C50004AC0281B390B24303105D8F58A819B8165
:102C60006115710589F1FB0193838283FE0111C017
:102C7000408151810281138148175907E0F04817BC
:102C8000590799F4109761F012960C9312971396C6
:102C90001C933296CF01DF91CF911F910F91089530
:102CA0000093610310936203F4CF2115310551F0B5
:102CB0004217530738F0A901DB019A01BD01DF017A
:102CC000F801C1CFEF01F9CF9093620380936103C4
:102CD000CDCFFE01E20FF31F819391932250310972
:102CE00039832883D7CF20915F0330916003232B52
:102CF00041F420911A0130911B013093600320931D
:102D00005F0320911801309119012115310541F41B
:102D10002DB73EB740911C0150911D01241B350B6E
:102D2000E0915F03F0916003E217F307A0F42E1B1C
:102D30003F0B2817390778F0AC014E5F5F4F24171F
:102D4000350748F04E0F5F1F5093600340935F03B9
:102D5000819391939FCFF0E0E0E09CCFCF93DF93FE
:102D60000097E9F0FC01329713821282A09161036F
:102D7000B0916203ED0130E020E01097A1F42081D2
:102D80003181820F931F20915F03309160032817D8
:102D9000390709F061C0F0936003E0935F03DF91AE
:102DA000CF910895EA01CE17DF07E8F54A815B81EC
:102DB0009E0141155105B1F7E901FB83EA83499171
:102DC0005991C40FD51FEC17FD0761F480819181E3
:102DD0000296840F951FE9019983888382819381EC
:102DE0009B838A83F0E0E0E012968D919C9113978B
:102DF0000097B9F52D913C911197CD010296820F64
:102E0000931F20915F03309160032817390739F62B
:102E1000309751F51092620310926103B0936003F2
:102E2000A0935F03BCCFD383C28340815181840FC1
:102E3000951FC817D90761F44E5F5F4F888199814C
:102E4000480F591F518340838A819B8193838283DA
:102E50002115310509F0B0CFF0936203E0936103CF
:102E60009ECFFD01DC01C0CF13821282D7CFFB01C0
:102E7000DC018D91019080190110D9F3990B08950F
:042E8000F894FFCFF4
:102E84009202920241304131413441351002170619
:102E94001502180600000000000063038000000013
:102EA400803FCDCCCC3D6F12833A95BFD6337D1D88
:102EB4009026B3CE010CCDCCCC3D0AD7233C17B71A
:102EC400D13877CC2B329595E6241FB14F0A0000F8
:102ED40020410000C84200401C4620BCBE4CCA1B16
:102EE4000E5AAEC59D740E070A0706070207FE06B2
:102EF40002030506080B0CD201D501E501F201FB22
:102F0400010802000000002E018E00BB007B01ECD2
:102F140000CA00DE002F2F22225C5C6208660C6E61
:102F24000A720D7409000D0A006E756C6C00652D33
:102F340000747275650066616C7365003F3F3F0005
:102F440064697370007374617465006572725365AB
:102F540072004F6B00496E636F6D706C65746549E8
:102F64006E70757400496E76616C6964496E707533
:102F740074004E6F4D656D6F7279004E6F745375AA
:102F840070706F7274656400546F6F44656570008F
:0A2F940070694F6E00737472420002
:00000001FF
