:100000000C9462000C946A0D0C94430D0C948A00BD
:100010000C948A000C948A000C94AC0E0C948A0008
:100020000C948A000C948A000C948A000C948A0028
:100030000C948A000C948A000C948A000C948A0018
:100040000C94F90C0C948A000C94C70C0C94A10C21
:100050000C948A000C948A000C948A000C948A00F8
:100060000C94910D0C948A000000000024002700DD
:100070002A0000000000250028002B0000000000DE
:1000800023002600290004040404040404040202DA
:100090000202020203030303030301020408102007
:1000A0004080010204081020010204081020000012
:1000B0000008000201000003040700000000000027
:1000C0000000C30E11241FBECFEFD8E0DEBFCDBFAE
:1000D00012E0A0E0B1E0E0E4FDE202C005900D9284
:1000E000A034B107D9F723E0A0E4B2E001C01D922B
:1000F000A13BB207E1F710E0C2E6D0E004C02197CF
:10010000FE010E947716C136D107C9F70E944B0F36
:100110000C949E160C9400001092D40284E090E09F
:1001200090939103809390030895AF92BF92CF92E2
:10013000DF92EF92FF920F931F93CF93DF936C01A7
:100140007B018B01040F151FEB015E01AE18BF0888
:10015000C017D10759F06991D601ED91FC9101903A
:10016000F081E02DC6010995892B79F7C501DF9152
:10017000CF911F910F91FF90EF90DF90CF90BF90A4
:10018000AF90089542E050E066EC71E087EE92E0B7
:100190000C949500FC01538D448D252F30E0842F65
:1001A00090E0821B930B541710F0CF96089501979F
:1001B0000895FC01918D828D981761F0A28DAE0F8C
:1001C000BF2FB11D5D968C91928D9F5F9F73928F13
:1001D00090E008958FEF9FEF0895FC01918D828D3F
:1001E000981731F0828DE80FF11D858D90E008950C
:1001F0008FEF9FEF0895FC01918D228D892F90E064
:10020000805C9F4F821B91098F739927089587EE19
:1002100092E00E94FB0021E0892B09F420E0822F6C
:10022000089580E090E0892B29F00E940701811158
:100230000C9400000895FC01A48DA80FB92FB11DE6
:10024000A35ABF4F2C91848D90E001968F7399270C
:10025000848FA689B7892C93A089B1898C918370EA
:1002600080648C93938D848D981306C00288F389E3
:10027000E02D80818F7D80830895EF92FF920F9310
:100280001F93CF93DF93EC0181E0888F9B8D8C8D42
:1002900098131AC0E889F989808185FF15C09FB736
:1002A000F894EE89FF896083E889F98980818370F9
:1002B000806480839FBF81E090E0DF91CF911F91A8
:1002C0000F91FF90EF900895F62E0B8D10E00F5FC9
:1002D0001F4F0F731127E02E8C8D8E110CC00FB69F
:1002E00007FCFACFE889F989808185FFF5CFCE0137
:1002F0000E941B01F1CFEB8DEC0FFD2FF11DE35A96
:10030000FF4FF0829FB7F8940B8FEA89FB898081B9
:100310008062CFCFCF93DF93EC01888D8823B9F033
:10032000AA89BB89E889F9898C9185FD03C0808100
:1003300086FD0DC00FB607FCF7CF8C9185FFF2CF7D
:10034000808185FFEDCFCE010E941B01E9CFDF91B7
:10035000CF910895833081F028F4813099F0823074
:10036000A9F008958730A9F08830C9F08430B1F43D
:10037000809180008F7D03C0809180008F77809373
:100380008000089584B58F7784BD089584B58F7DEE
:10039000FBCF8091B0008F778093B000089580915B
:1003A000B0008F7DF9CFCF93DF93282F30E0F90194
:1003B000E255FF4F8491F901E656FF4FD491F901C0
:1003C000EA57FF4FC491CC23A1F081110E94AA01EA
:1003D000EC2FF0E0EE0FFF1FE458FF4FA591B49112
:1003E000EC91ED2381E090E009F480E0DF91CF9182
:1003F000089580E090E0FACF1F93CF93DF93282FEA
:1004000030E0F901E255FF4F8491F901E656FF4FC4
:10041000D491F901EA57FF4FC491CC23A9F0162FCC
:1004200081110E94AA01EC2FF0E0EE0FFF1FEE58A1
:10043000FF4FA591B4918FB7F894EC91111108C0BA
:10044000D095DE23DC938FBFDF91CF911F9108956C
:10045000DE2BF8CFCF93DF9390E0FC01E656FF4F01
:1004600024918A579F4FFC0184918823D1F090E01A
:10047000880F991FFC01E859FF4FA591B491FC0129
:10048000EE58FF4FC591D49161110EC09FB7F894FB
:100490008C91E22FE0958E238C932881E223E883D0
:1004A0009FBFDF91CF9108958FB7F894EC91E22B25
:1004B000EC938FBFF6CF8E3008F08E50877080643B
:1004C00080937C0080917A00806480937A00809190
:1004D0007A0086FDFCCF8091780090917900089594
:1004E0003FB7F8948091B0029091B102A091B2020E
:1004F000B091B30226B5A89B05C02F3F19F0019615
:10050000A11DB11D3FBFBA2FA92F982F8827BC016D
:10051000CD01620F711D811D911D43E0660F771F94
:10052000881F991F4A95D1F708952FB7F8946091C5
:10053000AC027091AD028091AE029091AF022FBFDC
:100540000895089585ED8093BC008091BC0084FDE2
:10055000FCCF10928502089520916102260F332767
:10056000331F21323105ECF420918502FC0190E02B
:1005700080E0243069F082E00895A0916102219129
:10058000AC014F5B5D4FA40FB52FB11D2C930196AD
:10059000861798F380916102680F6093610280E092
:1005A000089581E0089508958FEF9FEF08958FEFEC
:1005B0009FEF08958091400290E091958195910977
:1005C0000895CF93DF93CB01EA01642F0E94AC0220
:1005D000CE01DF91CF910895CF93DF931F92CDB7D6
:1005E000DEB7698361E0CE0101960E94AC0281E032
:1005F00090E00F90DF91CF91089590E080E0089512
:100600004115510529F4EAE7F0E080818F77808376
:100610006A307105B9F0CB01880F991F880F991FB7
:10062000807267706860682B88E10FB6F894A895AF
:10063000809360000FBE60936000E0E6F0E0808190
:1006400080648083232BD9F483B7817F846083BF48
:10065000F89483B7816083BF85B7806685BF8F7D3F
:1006600085BF7894889583B78E7F83BF7894452B18
:1006700029F4EAE7F0E0808180688083089583B7F9
:10068000817F846083BFF89483B7816083BF78944F
:10069000889583B78E7F83BF7894E9CFCF93DF931C
:1006A000EC0188819981DC01ED91FC910190F08150
:1006B000E02D09952A813B81820F931F9B838A83BA
:1006C000DF91CF910895DC018D919C91DC01ED913A
:1006D000FC910280F381E02D0994EF92FF920F9339
:1006E0001F93CF93DF93CDB7DEB766970FB6F8941D
:1006F000DEBF0FBECDBF8C01CB01FE0177969F01FF
:100700004AE0E42EF12CB7010E942216805D82930C
:10071000CB010097C1F7A9014E1B5F0BBF01C801B8
:100720000E946303F80122813381820F931F938318
:10073000828366960FB6F894DEBF0FBECDBFDF9101
:10074000CF911F910F91FF90EF9008958F929F92FC
:10075000AF92BF92CF92DF92EF92FF920F931F93CF
:10076000CF93DF93CDB7DEB766970FB6F894DEBFB1
:100770000FBECDBF7C018E01095E1F4F68018AE06C
:10078000882E912CA12CB12CCB01BA01A50194018A
:100790000E943616942F852F605DF80162938F01B9
:1007A000A901692F782F411551056105710561F780
:1007B000A6014E1B5F0BBF01C7010E946303F70137
:1007C00022813381820F931F9383828366960FB6B3
:1007D000F894DEBF0FBECDBFDF91CF911F910F9177
:1007E000FF90EF90DF90CF90BF90AF909F908F9051
:1007F0000895EF92FF920F931F93CF93DF93EC0135
:100800007B0162E20E944E038701F80161918F0132
:10081000662391F0E9ECF1E0F280FF2049F0329696
:1008200081816813F9CF6CE5CE010E944E036F2DD4
:10083000CE010E944E03E9CF62E2CE01DF91CF915B
:100840001F910F91FF90EF900C944E034F925F9287
:100850006F927F928F929F92AF92BF92DF92EF92B0
:10086000FF920F931F93CF93DF938C01EB0188814D
:100870008B32D1F18D32C9F52196EE24E394888133
:1008800090ED980F9A3010F08E3289F560E070E0AC
:10089000CB01FE012191A0ED8A2E820E39E03815A0
:1008A00008F440C06A3929E97207820729E19207F2
:1008B00008F04DC0AAE0B0E09B01AC010E945816C0
:1008C000912CB12CA12C24013501409450946094BA
:1008D00070944616570668067906C8F1680D791DAA
:1008E0008A1D9B1DEF01D5CF2196E12CC8CFF801C1
:1008F000108211821282138214821582168217824C
:100900001086C801DF91CF911F910F91FF90EF905A
:10091000DF90BF90AF909F908F907F906F905F908F
:100920004F900895211113C0F80160837183828371
:1009300093830E94F214F8016483758386839783FE
:100940008AE0E11001C088E0F8018087DACFF12C5D
:10095000EAE08E2E912CA12CB12C61157105F0E8E6
:100960008F07910540F0A50194010E943616CA0137
:10097000B901F394F2CFFE01299130ED320F3A30F4
:1009800010F4F394F8CF2E32F1F4EF012196FE012A
:100990002196208150EDD52ED20E29E02D1598F00C
:1009A0006C3C3CEC73073CE08307910580F7AAE0C0
:1009B000B0E09B01AC010E9458166D0D711D811DA8
:1009C000911DFA94E4CF20812F7DD0E0C0E0253442
:1009D00009F04FC021812D32A9F53296BB24B39482
:1009E000DF01D0E0C0E02F2D0F2C000C330B4AE0CC
:1009F000A42EFD01DD9040ED4D0D4A30A8F5AC9ED2
:100A0000A001AD9E500D1124CD2DDD0CDD0BE09726
:100A1000C40FD51FAE01420F531F473251054CF38F
:100A2000BB20B9F080E090E0A0E0B0E8E11003C0A6
:100A300080E090E0DC01F80184839583A683B7838E
:100A40008CE083CF2B3219F03196B12CC9CF32967E
:100A5000FCCF80E090E0A0E8BFEFE110ECCF80E0B9
:100A600090E0A0E8BFE7E7CFBB2019F0D195C19592
:100A7000D109208121113BCFCF0DD11DF7FCDA9593
:100A80000E94F2141C161D06E4F4F12CC0FF0CC0E9
:100A900024E0F29EF0011124E05AFE4F20813181C2
:100AA000428153810E94A915D595C795F39420974B
:100AB00069F7E1109058F801648375838683978302
:100AC000BFCFD195C195D109F12C209791F3C0FFEB
:100AD0000CC024E0F29EF0011124E85BFE4F20815F
:100AE0003181428153810E94A915D595C795F39410
:100AF000ECCF80339CF08A3324F08F3524F08B3791
:100B000024F481E0089581344CF08B35D4F393EDD7
:100B1000980F81E09230B0F380E008958B32B9F7FE
:100B2000F0CFFC01878181110AC0A481B581CD017C
:100B30000196958384838C91868381E08783868167
:100B40000895FF920F931F93CF93DF93EC010A81D7
:100B50001B810E949105F82E1F82CE010E949105F3
:100B60001F82F816A9F181110AC061E070E080E0EF
:100B700090E0DF91CF911F910F91FF9008958C35F8
:100B8000F1F4CE010E949105882379F3853729F489
:100B900064E070E080E090E0ECCFE9ECF1E090817F
:100BA000992329F0891308C08181811107C062E06F
:100BB00070E080E090E0DDCF3296F1CF1F82EA81D5
:100BC000FB819F012F5F3F4F3B832A838083C5CFEB
:100BD000EA81FB81CF0101969B838A83108263E0C7
:100BE00070E080E090E00115110519F260E070E01E
:100BF000CB01C801BECF1F93CF93DF93EC01162F1B
:100C00000E949105811306C01F8281E0DF91CF9180
:100C10001F91089580E0FACFCF93DF93EC01CE01CE
:100C20000E9491058B303CF489304CF4882349F0C4
:100C300090E080E008C08D3011F08032C9F71F824B
:100C4000EECF81E090E0DF91CF910895089508956F
:100C5000089508950895089508950895FC018081E8
:100C60009181892B21F460E070E0CB0108956CE361
:100C700076E090E080E008950895CF93DF93DC0163
:100C8000EB01EC81FD818A819B810896E817F907C9
:100C900030F4F0E0E0E0CF01DF91CF910895389794
:100CA000FD83EC833097A9F31296CD91DC911397D5
:100CB000209791F0CF018C1B9D0B23E09595879594
:100CC0002A95E1F78D831396FC93EE931297158284
:100CD000148217821682DFCF1196FC93EE93F3CF26
:100CE000FC011182108281E08283148213821682B9
:100CF00015824115510591F0DA0116962D913C911E
:100D0000179714968C918095881F8827881F3183A8
:100D10002083828354834383768365830895FC0113
:100D20002581222339F0F8E02F0290011124820F4F
:100D3000931F089590E080E00895CF93DF93EC0136
:100D4000FB0101900020E9F73197AF01461B570BDB
:100D50000E9463032A813B81820F931F9B838A83B6
:100D6000DF91CF9108952F923F924F925F926F92B1
:100D70007F928F929F92AF92BF92CF92DF92EF922B
:100D8000FF920F931F93CF93DF93CDB7DEB76A9790
:100D90000FB6F894DEBF0FBECDBF8C014B01DC0156
:100DA00014968C9114978F77863009F46BC2C8F42F
:100DB000823000F1843008F04BC2F8014281538147
:100DC00060817181C4010E946303D40112962D9148
:100DD0003C911397820F931F13969C938E931297B7
:100DE000EBC18C3051F148F4883009F446C28A30A6
:100DF00009F434C26AED71E052C2803209F403C2D0
:100E00008034C1F76BE5C4010E944E03F8010081F4
:100E100011810115110509F4F1C1B401C8010E9445
:100E2000B306C8010E948F068C01892B09F4E6C124
:100E30006CE2C4010E944E03ECCFF8014080518067
:100E400062807380A3019201C301B2010E94BE14AB
:100E50008111D0CF20E030E0A901C301B2010E948E
:100E6000BE14882379F0A3019201C301B2010E944C
:100E700052149B01AC01C301B2010E94BE1488232D
:100E800009F4B8CF20E030E0A901C301B2010E940B
:100E9000BE1487FF08C06DE2C4010E944E0377FABA
:100EA000709477F8709420E836E948E15BE4C30178
:100EB000B2010E94A41587FD79C048E7E42E41E005
:100EC000F42E58E4C52E51E0D52E60E6A62E61E042
:100ED000B62E00E210E0312C212CD7015E914E910C
:100EE0003E912E917D01C301B2010E94A41587FDA0
:100EF0000DC0F6012489358946895789C301B2019D
:100F00000E94A9152B013C01200E311E1595079555
:100F1000F4E0CF1AD108AE14BF04F9F68FEF8B8B33
:100F200020E030E0A901C301B2010E94A415181607
:100F30000CF043C02CEA35EC47E257E3C301B201A1
:100F40000E94BE141816CCF1AB89B4E0AB0250017C
:100F50001124D12CC12CEB89EF3F79F17501EC0CF8
:100F6000FD1CF701E05DFE4FA301920160817181DC
:100F7000828193810E94A41518167CF4F701E05A2F
:100F8000FE4F2081318142815381C301B2010E9411
:100F9000A9152B013C01201A310A15950795FB89EB
:100FA000F150FB8B84E0C81AD108D5CF00E210E0E5
:100FB00095E09B8B312C212CB3CFC301B2010E9451
:100FC000C3146B8B7C8B8D8B9E8B6B017C0116E02D
:100FD00080E492E4AFE0B0E08F8B988FA98FBA8F56
:100FE000012F11509AE0C916D104E104F104C8F0B0
:100FF0006F89788D898D9A8D2AE030E040E050E04D
:101000000E9436162F8B388F498F5A8FC701B60131
:101010002AE030E040E050E00E94361669017A0193
:10102000DFCF6B897C898D899E890E94F2149B0198
:10103000AC01C301B2010E9451146B017C016F89A4
:10104000788D898D9A8D0E94F2149B01AC01C701A5
:10105000B6010E94A9152B013C010E94C3146B012B
:101060007C010E94F2149B01AC01C301B2010E94F9
:1010700051149B01AC010E9452140E94C314C60E6D
:10108000D71EE81EF91E8F89988DA98DBA8DC816B6
:10109000D906EA06FB0600F18B899C89AD89BE89D9
:1010A0000196A11DB11D8B8B9C8BAD8BBE8B21142A
:1010B000310439F10A97A105B10518F19FEF291AFA
:1010C000390AC12CD12C760181E090E0A0E0B0E09B
:1010D0008B8B9C8BAD8BBE8B9AE0492E512C612C57
:1010E000712CC701B601A30192010E943616672B2D
:1010F000682B692B51F4101644F469017A010150F0
:10110000F0CFC12CD12C7601E7CF4B895C896D895A
:101110007E89C4010E94A603002309F43FC05E013A
:1011200091E1A90EB11C102FBA8AA98A8AE0482E33
:10113000512C612C712C115068F0C701B601A3012C
:1011400092010E943616605DD5016E935D016901C2
:101150007A01F1CF802F90E0BC0160957095E9890C
:10116000FA89E81BF90B31978EE2808344275527D3
:10117000461B570BE1E1F0E0EC0FFD1F6E0F7F1FE8
:10118000C4010E946303D40112962D913C911397E0
:10119000820F931F13969C938E93129737FE25C050
:1011A0006FED71E0C4010E949D06662777276219E2
:1011B0007309C4010E946D036A960FB6F894DEBFEE
:1011C0000FBECDBFDF91CF911F910F91FF90EF9098
:1011D000DF90CF90BF90AF909F908F907F906F9057
:1011E0005F904F903F902F9008952114310421F388
:1011F00065E6C4010E944E03B101DBCF6DE5C40179
:101200000E944E03D9CF6BE7C4010E944E03D80160
:101210000D911C9101151105C9F0F80166817781C6
:10122000C4010E94F9036AE3C4010E944E03B401A1
:10123000C8010E94B306C8010E948F068C01892B49
:1012400029F06CE2C4010E944E03E4CF6DE7D7CFD2
:101250006D917C91C4010E94F903AECFF801C0806A
:10126000D180E280F3806DE2C4010E944E03B70199
:10127000A601C4010E94A6039FCF4D915D916D917F
:101280007C91F7CFF80180819181A281B38162EED8
:1012900071E0892B8A2B8B2B11F467EE71E0C4016E
:1012A0000E949D0689CFCF93DF9300D000D0CDB7A9
:1012B000DEB77A8369831C821B82BE016F5F7F4F1A
:1012C00008960E94B3068B819C810F900F900F901F
:1012D0000F90DF91CF9108950F931F93CF93DF93DA
:1012E0008B01EC01892BA1F06E817F816017710762
:1012F00079F00115110541F06115710529F0C8015A
:101300000E949516892B21F0CE010E948F06E9CF0D
:10131000CE01DF91CF911F910F9108958F929F92EF
:10132000AF92BF92CF92DF92EF92FF920F931F93F3
:10133000CF93DF93CDB7DEB7CB54D1090FB6F89476
:10134000DEBF0FBECDBF8C017B01D42E0E940C06E8
:101350002C969FAF8EAF2C97CE01865B9F4F0E943D
:101360002E06672B09F099C080FD97C0C8010E9426
:101370009105873209F48BC114F5823209F487C1D3
:10138000C8010E949105C82ECE0101964C01D12CB6
:101390005C018C2D0E947905882309F492C19FE39A
:1013A000D91609F48EC1D80117961C92D394F40172
:1013B000C1924F01C8010E949105C82EEACF8B351A
:1013C00009F485C08B37E1F6F7018481807880626B
:1013D00084831182108213821282DD2009F455C1A8
:1013E000D80117961C92C8010E940C069A83898323
:1013F000CE0101960E942E06672B09F0B4C080FD35
:10140000B2C06DE7C8010E94FB058111B7C0DA9434
:10141000C8010E949105873209F4BAC0823209F4EA
:10142000B7C0F80182809380C8010E949105A82E60
:101430000E94790522E030E0882361F1D8011796F7
:101440001C9217971296ED91FC911397CF0101967C
:1014500013969C938E931297A082C8010E949105C7
:10146000A82E0E9479058111E9CFD8011296ED913D
:10147000FC911397CF01019613969C938E9312972C
:10148000108223E030E08114910421F0B82CC92CA3
:1014900030E020E09B2CAC2C83C02B968FAD2B979B
:1014A0002C969FAD2C97C55BDF4F0FB6F894DEBF2F
:1014B0000FBECDBFDF91CF911F910F91FF90EF90A5
:1014C000DF90CF90BF90AF909F908F900895D701FD
:1014D00014968C9114978078806414968C9314974A
:1014E00011961C921E9213961C921E921297DD204A
:1014F00009F4CBC0F8011782C8010E940C069A8338
:101500008983CE0101960E942E06672B61F580FD2E
:101510002AC06DE5C8010E94FB0581112FC0DA9435
:10152000D8016D917C91C7010E943D06009709F496
:10153000A9C04D2DBC01C8010E948E099A838983E0
:10154000CE0101960E942E06672B69F480FD0BC028
:10155000C8010E940C069A838983CE0101960E94DD
:101560002E06672B19F089819A819DCF80FDFBCFD4
:101570006DE5C8010E94FB05882311F080E083C05F
:101580006CE2C8010E94FB058111CACF82E07BC0DA
:10159000C8010E94A1059B019B2CAC2CB82EC92E22
:1015A0003A832983CE0101960E942E06672BD9F635
:1015B00080FDD9CFC8010E940C069A838983CE0191
:1015C00001960E942E06672B71F680FDCCCF6AE350
:1015D000C8010E94FB058823C9F26B2D7C2DF70101
:1015E000808191810E946C09BC01892B81F4D80112
:1015F0006D917C91C7010E943D06FC01892B09F485
:1016000041C0848180688483B682C782BF014D2D2A
:10161000C8010E948E099A838983CE0101960E9497
:101620002E06672B09F09FCF80FD9DCFC8010E9439
:101630000C069A838983CE0101960E942E06672BA1
:1016400009F091CF80FD8FCF6DE7C8010E94FB05A7
:10165000811194CF6CE2C8010E94FB05882309F434
:1016600095CFC8010E940C069A838983CE0101960A
:101670000E942E06672B09F076CF80FD74CFB92C1F
:10168000CA2CC6CE83E090E00ECF85E0FCCFC80127
:101690000E94A10569837A838B839C83CE01019686
:1016A0000E942E06672B09F05ECF80FD5CCF2B8158
:1016B0003C81F70184818078856084833183208335
:1016C0005DCFF501ED0DF11D108289818437B9F4EC
:1016D000D70114968C9114978078866014968C9319
:1016E00081E090E0A0E0B0E0F70180839183A283E5
:1016F000B38390E0F4E0DF12D6CE80E0D4CE86361D
:1017000089F4D70114968C9114978078866014968A
:101710008C93F701108211821282138281E090E093
:10172000F5E0E9CF8E3631F481E090E024E0D2128A
:10173000BACEE3CFB501CE018F5B9F4F0E94260446
:1017400025964CAD5DAD6EAD7FAD25972A968FADDC
:101750002A978A3061F08C30C1F0883009F016CFBA
:10176000D70114968C9114978078886006C0D701B1
:1017700014968C91149780788A6014968C93F70154
:101780004083518362837383F9CE29964CAD5DAD5E
:101790006EAD7FAD2997D70114968C911497807800
:1017A0008C6014968C93F70140835183628373831A
:1017B000E5CEEF92FF920F931F93CF93DF93EC014F
:1017C0008C81982F9F7739F4807880628C8319827E
:1017D00018821B821A828C8185FF1EC061157105DB
:1017E000D9F07A018B01888199810E946C09009758
:1017F00061F4B701CE010E943D06009731F0FC0173
:1018000024812F77248317830683DF91CF911F9143
:101810000F91FF90EF90089590E080E0F6CFCF9386
:10182000DF93CDB7DEB765970FB6F894DEBF0FBE76
:10183000CDBFBC019E01225F3F4F3A8329833C8389
:101840002B83285F3F4F3E832D8338872F839D85D1
:1018500090789D87AE014F5F5F4FCE0109960E9441
:10186000D90BFC01892B61F0948190789860948366
:1018700081E090E0A0E0B0E080839183A283B38315
:1018800067EE72E0CE0101960E9453090E94C200E9
:1018900065960FB6F894DEBF0FBECDBFDF91CF9136
:1018A000089581E08093D4028091920390919303F4
:1018B000892B21F086E891E00E940F0C83E090E0F4
:1018C000909391038093900308950F931F93CF9368
:1018D000DF93DA01009799F16115710561F1FB0160
:1018E00001900020E9F7AF01461B570B1296CD91EE
:1018F000DC9113979E01240F351F1496ED91FC91F6
:101900001597E217F307B8F013963C932E931297AE
:10191000209789F08C01CE010E948C16F8018481F9
:10192000807885608483D183C08381E0DF91CF910B
:101930001F910F910895FC0124812078248380E079
:10194000F5CF1F920F920FB60F9211242F933F9352
:101950004F935F936F937F938F939F93AF93BF93B7
:10196000EF93FF9387EE92E00E941B01FF91EF91AE
:10197000BF91AF919F918F917F916F915F914F91A7
:101980003F912F910F900FBE0F901F9018951F92AF
:101990000F920FB60F9211242F938F939F93EF9373
:1019A000FF93E091F702F091F8028081E091FD024F
:1019B000F091FE0282FD1BC09081809100038F5F39
:1019C0008F7320910103821741F0E0910003F0E052
:1019D000E951FD4F958F80930003FF91EF919F9107
:1019E0008F912F910F900FBE0F901F9018958081AF
:1019F000F4CF1F920F920FB60F9211242F933F93A3
:101A00008F939F93AF93BF938091AC029091AD025F
:101A1000A091AE02B091AF023091AB0226E0230F4D
:101A20002D3758F50296A11DB11D2093AB0280936E
:101A3000AC029093AD02A093AE02B093AF0280913E
:101A4000B0029091B102A091B202B091B30201969E
:101A5000A11DB11D8093B0029093B102A093B20278
:101A6000B093B302BF91AF919F918F913F912F910E
:101A70000F900FBE0F901F90189529E8230F039623
:101A8000A11DB11DD2CF1F920F920FB60F9211243C
:101A90002F933F934F935F936F937F938F939F9376
:101AA000AF93BF93EF93FF93E0910201F091030195
:101AB0000995FF91EF91BF91AF919F918F917F9188
:101AC0006F915F914F913F912F910F900FBE0F90AB
:101AD0001F9018951F920F920FB60F9211242F93FB
:101AE0003F934F935F936F937F938F939F93AF93A6
:101AF000BF93EF93FF93E0910001F09101010995ED
:101B0000FF91EF91BF91AF919F918F917F916F91D5
:101B10005F914F913F912F910F900FBE0F901F90AB
:101B200018951F920F920FB60F9211242F933F9387
:101B30004F935F936F937F938F939F93AF93BF93D5
:101B4000EF93FF938091B900887F803609F44AC0F3
:101B5000F0F5883209F4A5C018F5803109F499C070
:101B6000B8F4882309F4F5C0883009F492C0FF91D5
:101B7000EF91BF91AF919F918F917F916F915F9105
:101B80004F913F912F910F900FBE0F901F9018957E
:101B9000883109F486C0803251F78093840214C0E2
:101BA000803409F49BC040F48033B9F38833F9F6EC
:101BB0008093840285ECAEC0803509F483C08835FB
:101BC00009F494C0883499F60E94A202D0CF8839D3
:101BD00009F48AC038F5883729F050F4883611F0B6
:101BE000803729F683E0809385021092830255C0E6
:101BF000883809F479C0803919F0803809F0B7CFF6
:101C000080918302803208F06FC0E091830281E00E
:101C10008E0F809383028091BB00F0E0ED59FD4F61
:101C200080833BC0803B39F0D0F4803A09F477C020
:101C3000883A09F09CCF84E080938502109262027A
:101C400010926102F0E0E0E009958091610281115B
:101C50000FC081E0809361021092410209C0803C74
:101C600009F4A8CF883C09F4A5CF883B09F07FCFC1
:101C7000E091620281E08E0F80936202F0E0EF5B00
:101C8000FD4F80818093BB00909162028091610240
:101C900029C08091AA028093BB0085EC8093BC0090
:101CA00066CF9091A9028091A802981758F5E0910B
:101CB000A90281E08E0F8093A902F0E0E857FD4F62
:101CC0008081E9CFE091A90281E08E0F8093A90283
:101CD0008091BB00F0E0E857FD4F80839091A9020E
:101CE0008091A8029817C8F285E8D8CFE091A902A0
:101CF00081E08E0F8093A9028091BB00F0E0E8574D
:101D0000FD4F80838091870281115ECF81E08093B7
:101D1000860284EA8093BC001092850228CF85EC6D
:101D20008093BC001092850280918302803230F44F
:101D3000E0918302F0E0ED59FD4F10826091830243
:101D400070E083E692E0F0E0E0E009951092830213
:101D50000ECF1092840238CF1F920F920FB60F92BF
:101D600011248F930FB6F894A89580916000886134
:101D700080936000109260000FBE8F910F900FBE95
:101D80000F901F9018951092EA021092E90288EEC7
:101D900093E0A0E0B0E08093EB029093EC02A0937C
:101DA000ED02B093EE0288EB91E09093E80280930D
:101DB000E70285EC90E09093F4028093F30284ECC8
:101DC00090E09093F6028093F50280EC90E090937F
:101DD000F8028093F70281EC90E09093FA028093EE
:101DE000F90282EC90E09093FC028093FB0286EC77
:101DF00090E09093FE028093FD02109200031092F7
:101E0000010310920203109203031092AC0310928C
:101E1000B0031092AF031092AD031092AE0361E0D5
:101E200080E10E942A028091AC03882351F1109234
:101E3000AD0361E084E00E942A028091AC03882314
:101E400029F11092AE0361E081E10E942A0260E074
:101E500081E10E94FC0160E087E00E942A0260E0CC
:101E600083E00E942A0260E082E00E942A0288E168
:101E7000E8E1F1E0A4E9B3E001900D928A95E1F781
:101E8000089560E080E10E94FC01D1CF60E084E031
:101E90000E94FC01D6CFCF93DF93CDB7DEB7C45AF3
:101EA000D1090FB6F894DEBF0FBECDBF789484B5CC
:101EB000826084BD84B5816084BD85B5826085BD46
:101EC00085B5816085BD80916E00816080936E00D4
:101ED00010928100809181008260809381008091C6
:101EE0008100816080938100809180008160809377
:101EF00080008091B10084608093B1008091B00037
:101F000081608093B00080917A00846080937A0031
:101F100080917A00826080937A0080917A008E7F2F
:101F200080937A0080917A00806880937A00109282
:101F3000C100E091F702F091F80282E08083E09125
:101F4000F302F091F4021082E091F502F091F602B2
:101F500087E680831092FF02E091FB02F091FC0281
:101F600086E08083E091F902F091FA02808180613D
:101F70008083E091F902F091FA0280818860808389
:101F8000E091F902F091FA02808180688083E0910B
:101F9000F902F091FA0280818F7D80838091AC03F9
:101FA000882309F47AC11092AD038091AC03882391
:101FB00009F478C11092AE0360E083E00E942A0227
:101FC00060E082E00E942A0206E811E03EEDE32E86
:101FD00032E0F32ED801DD908D0160E08D2D0E945E
:101FE0002A028D2D0E94D301F70181937F01F1E038
:101FF0000C381F0779F761E087E00E942A0260E051
:1020000087E00E94FC0161E08AE00E942A0260E011
:102010008AE00E94FC0161E08DE00E942A0260E0FB
:102020008DE00E94FC011E0121E4220E311CB10151
:10203000635F7F4FC156DF4F79836883CF59D040AC
:1020400086E790E08C0F9D1F0D96CF55DF4F99834B
:102050008883C15AD0408091900390919103813040
:10206000910509F43DC108F422C1039709F498C110
:102070009AEBC92E92E0D92E24EBE22E22E0F22E2A
:1020800010E000E0772473940E949502D6018D90B1
:102090009D90AD90BC90681579058A059B0538F434
:1020A0000E949502F6016083718382839383D60137
:1020B0008D909D90AD90BC90BAE08B0E911CA11CB0
:1020C000B11C0E949502681579058A059B0590F060
:1020D000F801EA57FE4F80810E94D301682FF80172
:1020E000E252FD4FD7018C91908169137AC1813002
:1020F00009F41C920F5F1F4FB4E0CB0ED11CEFEF21
:10210000EE1AFE0A0630110509F0BECF66ED72E048
:10211000C356DF4F79836883CD59D040CE010196F5
:10212000C556DF4F99838883CB59D04000E04C01DE
:1021300056E0A52E102F110FA4E0B1E01A0F812F49
:102140000E945B02812F0E945B0246E0B42E0E9437
:1021500070022B013C013AE0C32ED12CE12CF12C72
:102160000E9470026419750986099709683E7340D8
:1021700081059105A8F3B1E0CB1AD108E108F10877
:10218000E8EE4E0EE3E05E1E611C711CC114D1042A
:10219000E104F10429F7812F0E945B02BA94B11087
:1021A000D6CF6A2D0E941616C356DF4FA881B9817B
:1021B000CD59D0409D91C356DF4FB983A883CD59E7
:1021C000D040C556DF4FE881F981CB59D0404191CD
:1021D0005191C556DF4FF983E883CB59D040682F22
:1021E000691B770B9B0177FF03C03195219531095E
:1021F0004217530744F4C356DF4FE881F981CD59A4
:10220000D040319780830F5F083009F093CF8091E1
:102210009003909191030397029708F089C25101AE
:1022200075E3A70EB11CC1010896C356DF4F998311
:102230008883CD59D04026E7C22ED12CCC0EDD1E8E
:1022400095E1C90ED11CA6E7B0E0AC0FBD1F1896F2
:10225000CD55DF4FB983A883C35AD04087EE92E0B3
:102260000E94FB00181619060CF062C287EE92E07D
:102270000E94D9009091E402292F30E0280D391DE9
:102280008A3009F4DEC0F90180839F5F903408F43E
:10229000D5C08FE38093E402E1CF60E080E10E944B
:1022A000FC0181CE60E084E00E94FC0183CE0091BD
:1022B000840310918503D8018C91882309F44AC0C6
:1022C00011968C91119790E021E013962C9318169B
:1022D00019060CF043C081E0F801838380938B03DF
:1022E00081E59CE090930301809302018091690055
:1022F0008C6080936900E99A8CE890E090930101EA
:102300008093000180916900836080936900E89A5E
:1023100030E020E050E040E06AE070E0809184032B
:10232000909185030E9400030E94950260938C03A4
:1023300070938D0380938E0390938F030091840399
:1023400010918503D8018C91882311F181E01196B9
:102350008C938ECE87E00E94D301B9CF10928B036D
:102360000091840310918503D8018C91882349F052
:1023700011961C9281E090E09093910380939003DA
:10238000AFCF60E080E10E94FC01F8011182F2CF42
:1023900061E080E10E94FC0181E0F801818368CE68
:1023A000C0908C03D0908D03E0908E03F0908F034B
:1023B000FEE1CF0ED11CE11CF11C0E9495026C15B0
:1023C0007D058E059F0508F053CE10929303109261
:1023D000920381E08093D5021092910310929003B2
:1023E00047CE813041F51C926083F801EE0FFF1F4C
:1023F000EE0FFF1FEC57FC4F22893389D901B595A9
:10240000A795AC57BC4F0088F189E02D20FF08C08C
:102410008D919C911197E80FF91F0190F081E02DAB
:10242000CD0109950E949502D6016D937D938D9300
:102430009C9313975FCEF7017082F4CF9093E402E0
:102440000DCFD9011C921092E402C156DF4F688172
:102450007981CF59D040F1017183608373836283A6
:10246000B582A482B782A682848580788487E89624
:102470003FAE2EAEE897EA969FAE8EAEEA97EC9608
:102480009FAE8EAEEC97EE961FAEEE974AE0C35627
:10249000DF4F68817981CD59D040CE018A589F4F56
:1024A0000E948E09CE56DF4F99838883C259D0404F
:1024B000CE018E569F4F0E942E06672BC9F480FDD9
:1024C00017C0ED968FADED97882391F0D1011C9642
:1024D0008C91982F9F779C3019F08D77883041F43C
:1024E00082E090E0CE56DF4F99838883C259D04076
:1024F000CE56DF4F08811981C259D040C756DF4FF1
:1025000019830883C959D040CE0187569F4F0E9436
:102510002E06672B09F05DC080FD5BC0F10184854C
:1025200085FF9CCE008511850115110509F496CE15
:10253000A801B101CE018A589F4F0E94700687E022
:10254000FE01EA58FF4FDE01A557BF4F01900D92E3
:102550008A95E1F787E0FE01E557FF4FDE01AE56B1
:10256000BF4F01900D928A95E1F78CE0E82E81E053
:10257000F82ED70112960D90BC91A02DC556DF4FB5
:10258000B983A883CB59D040AB2B09F492C0F70193
:1025900060817181CE56DF4F88819981C259D040C8
:1025A0000E949516892B09F0BFC0CB56DF4FE881FA
:1025B000F981C559D040309751F084818F778630AA
:1025C00009F465C008F059C0843008F077C080E095
:1025D00069C00630110508F04BC0000F111FF8014B
:1025E000E855FE4F00811181CF55DF4F6881798119
:1025F000C15AD040E8967FAF6EAFE897EA967FAFBA
:102600006EAFEA97EC96DFAECEAEEC97EE96DFAE0D
:10261000CEAEEE97CE57DF4F8881C258D04080783B
:10262000CE57DF4F8883C258D040AE014A585F4F23
:1026300061EF71E0CD55DF4F88819981C35AD04059
:102640000E94D90BFC01892B49F0948190780115E7
:10265000110589F0946094831183008367EE72E022
:10266000CE018A589F4F0E9453090E94C200F6CDA6
:102670000DEE11E0B9CF9483F1CF883041F08C306A
:1026800009F0A5CF40805180628073802CC080818A
:102690009181A281B3818F3F9105A105B10511F010
:1026A00008F095CFC556DF4FE881F981CB59D0406E
:1026B0000995C8010E948F068C0136CF6081718117
:1026C000CE018A589F4F0E942604EF968FADEF9758
:1026D000883019F18C3009F07ACFEE964CAC5DACB5
:1026E0006EAC7FACEE9720E030E0A901C301B201EF
:1026F0000E94A41587FD6BCF20E030E04FE753E444
:10270000C301B2010E94BE1418160CF460CFC301BD
:10271000B2010E94C314862FC5CFEA968CAD9DAD41
:10272000AEADBFADEA97B7CFF4E0EF0EF11C21CF0D
:1027300080919203909193038130910509F481C0B7
:1027400080F0029709F491C080E090E0892B09F4B1
:1027500082CC0E940701882309F47DCC0E940000EE
:102760007ACC8091E602813009F06BC0CE010E96E2
:102770009A8389839C838B8340969E838D839887DD
:102780008F838D8580788D87A4016CE871E0CE0100
:1027900009960E94D90BA4016EED72E00E94650CAF
:1027A000A40163E971E0CE0109960E94D90BA4014E
:1027B00066ED72E00E94650CA4016AE971E0CE0149
:1027C00009960E94D90BFC014091D40250E070E0C0
:1027D00060E0892B41F094819078986094834083E5
:1027E000518362837383A40161EA71E0CE0109968B
:1027F0000E94D90BFC014091D50250E070E060E0EE
:10280000892B41F094819078986094834083518320
:102810006283738387EE92E0D10111969C938E932D
:1028200013961C921E921297B101CE0109960E9436
:10283000B3060E94C20081E090E0909393038093DE
:1028400092038091E602813081F40E9495026093A8
:102850008703709388038093890390938A0382E0AF
:1028600090E09093930380939203C0908703D0905D
:102870008803E0908903F0908A03BEE1CB0ED11C5F
:10288000E11CF11C0E9495026C157D058E059F05CB
:1028900008F05ACF10929303109292031092E6021E
:1028A00053CF5058BB27AA270E9469140C946A156D
:1028B0000E945C1538F00E94631520F039F49F3FA8
:1028C00019F426F40C9459150EF4E095E7FB0C94DA
:1028D0005315E92F0E947B1558F3BA176207730747
:1028E0008407950720F079F4A6F50C949D150EF455
:1028F000E0950B2EBA2FA02D0B01B90190010C0110
:10290000CA01A0011124FF27591B99F0593F50F427
:10291000503E68F11A16F040A22F232F342F44277F
:10292000585FF3CF469537952795A795F040539577
:10293000C9F77EF41F16BA0B620B730B840BBAF047
:102940009150A1F0FF0FBB1F661F771F881FC2F7B2
:102950000EC0BA0F621F731F841F48F487957795C6
:102960006795B795F7959E3F08F0B0CF9395880F80
:1029700008F09927EE0F9795879508950E942F15D7
:1029800008F481E008950E94831588F09F5798F01D
:10299000B92F9927B751B0F0E1F0660F771F881F64
:1029A000991F1AF0BA95C9F714C0B13091F00E947E
:1029B0009D15B1E008950C949D15672F782F8827F9
:1029C000B85F39F0B93FCCF3869577956795B395A5
:1029D000D9F73EF490958095709561957F4F8F4F14
:1029E0009F4F0895E89409C097FB3EF49095809519
:1029F000709561957F4F8F4F9F4F9923A9F0F92FC5
:102A000096E9BB279395F695879577956795B79542
:102A1000F111F8CFFAF4BB0F11F460FF1BC06F5F28
:102A20007F4F8F4F9F4F16C0882311F096E911C03A
:102A3000772321F09EE8872F762F05C0662371F05B
:102A400096E8862F70E060E02AF09A95660F771F6F
:102A5000881FDAF7880F9695879597F90895990F4B
:102A60000008550FAA0BE0E8FEEF16161706E80758
:102A7000F907C0F012161306E407F50798F0621B79
:102A8000730B840B950B39F40A2661F0232B242B4E
:102A9000252B21F408950A2609F4A140A6958FEF6D
:102AA000811D811D089597F99F6780E870E060E0BF
:102AB00008959FEF80EC089500240A9416161706D7
:102AC00018060906089500240A941216130614061F
:102AD00005060895092E0394000C11F4882352F082
:102AE000BB0F40F4BF2B11F460FF04C06F5F7F4F3A
:102AF0008F4F9F4F089557FD9058440F551F59F021
:102B00005F3F71F04795880F97FB991F61F09F3FDA
:102B100079F087950895121613061406551FF2CF03
:102B20004695F1DF08C0161617061806991FF1CF53
:102B300086957105610508940895E894BB2766277A
:102B40007727CB0197F908950E942F1508F48FEF8E
:102B500008950E94BC150C946A150E945C1538F00B
:102B60000E94631520F0952311F00C9453150C94DA
:102B7000591511240C949E150E947B1570F3959F96
:102B8000C1F3950F50E0551F629FF001729FBB2764
:102B9000F00DB11D639FAA27F00DB11DAA1F649F00
:102BA0006627B00DA11D661F829F2227B00DA11DB3
:102BB000621F739FB00DA11D621F839FA00D611D39
:102BC000221F749F3327A00D611D231F849F600D5A
:102BD000211D822F762F6A2F11249F5750409AF083
:102BE000F1F088234AF0EE0FFF1FBB1F661F771F0F
:102BF000881F91505040A9F79E3F510580F00C94DA
:102C000053150C949E155F3FE4F3983ED4F38695DC
:102C100077956795B795F795E7959F5FC1F7FE2B79
:102C2000880F911D9695879597F90895991B79E0DE
:102C300004C0991F961708F0961B881F7A95C9F74C
:102C40008095089597FB072E16F4009407D077FD22
:102C500009D00E94631607FC05D03EF4909581953B
:102C60009F4F0895709561957F4F0895A1E21A2EA8
:102C7000AA1BBB1BFD010DC0AA1FBB1FEE1FFF1F20
:102C8000A217B307E407F50720F0A21BB30BE40B70
:102C9000F50B661F771F881F991F1A9469F76095B7
:102CA0007095809590959B01AC01BD01CF01089571
:102CB0000E947D16A59F900DB49F900DA49F800D3E
:102CC000911D11240895AA1BBB1B51E107C0AA1F27
:102CD000BB1FA617B70710F0A61BB70B881F991FBD
:102CE0005A95A9F780959095BC01CD010895EE0FF6
:102CF000FF1F0590F491E02D0994A29FB001B39FAE
:102D0000C001A39F700D811D1124911DB29F700DF4
:102D1000811D1124911D0895FB01DC0102C0019069
:102D20000D9241505040D8F70895FB01DC018D9180
:102D3000019080190110D9F3990B0895F894FFCFF1
:102D4000A102A102413041314134413536022C0605
:102D50003B022D0600000000260600002B060000A6
:102D60002A060000290600002806000027060000A9
:102D70000000803FCDCCCC3D6F12833A95BFD63357
:102D80007D1D9026B3CE010CCDCCCC3D0AD7233C83
:102D900017B7D13877CC2B329595E6241FB14F0A5F
:102DA000000020410000C84200401C4620BCBE4C30
:102DB000CA1B0E5AAEC59D746177616B65000068D1
:102DC000616E64000000020305060B0C6469670075
:102DD000000000616E616C6F6700646973700000D1
:102DE000006F666600000000F801FB010B0218028C
:102DF00021022E02000000003D019500CA008A0158
:102E0000FB00D900ED000D0A002F2F22225C5C622E
:102E100008660C6E0A720D7409006E756C6C0065A4
:102E20002D00747275650066616C7365003F3F3FED
:102E300000657272536572004F6B00496E636F6D6F
:102E4000706C657465496E70757400496E76616C5E
:102E50006964496E707574004E6F4D656D6F72795F
:102E6000004E6F74537570706F7274656400546FA8
:102E70006F446565700070694F6E00737472420034
:107800000C94343C0C94513C0C94513C0C94513CE1
:107810000C94513C0C94513C0C94513C0C94513CB4
:107820000C94513C0C94513C0C94513C0C94513CA4
:107830000C94513C0C94513C0C94513C0C94513C94
:107840000C94513C0C94513C0C94513C0C94513C84
:107850000C94513C0C94513C0C94513C0C94513C74
:107860000C94513C0C94513C11241FBECFEFD8E036
:10787000DEBFCDBF11E0A0E0B1E0EAE8FFE702C063
:1078800005900D92A230B107D9F712E0A2E0B1E065
:1078900001C01D92AD30B107E1F70E942D3D0C945F
:1078A000C33F0C94003C982F95959595959595958B
:1078B000905D8F708A307CF0282F295A8091C0000B
:1078C00085FFFCCF9093C6008091C00085FFFCCF60
:1078D0002093C6000895282F205DF0CF982F809127
:1078E000C00085FFFCCF9093C6000895EF92FF92F1
:1078F0000F931F93EE24FF2487018091C00087FD22
:1079000017C00894E11CF11C011D111D81E2E8164D
:1079100081EAF80687E0080780E0180770F3E09135
:107920000401F091050109958091C00087FFE9CF1E
:107930008091C6001F910F91FF90EF9008950E94D3
:10794000763C982F8091C00085FFFCCF9093C600B5
:1079500091362CF490330CF09053892F089597555D
:10796000892F08951F930E949F3C182F0E949F3CCF
:107970001295107F810F1F9108951F93182F882350
:1079800021F00E94763C1150E1F71F9108951F935A
:10799000182F0E94763C803249F0809103018F5F5E
:1079A000809303018530C1F01F9108958091C0003C
:1079B00085FFFCCF84E18093C6008091C00085FFE5
:1079C000FCCF1093C6008091C00085FFFCCF80E102
:1079D0008093C6001F910895E0910401F091050184
:1079E00009951F9108950E94763C803241F0809164
:1079F00003018F5F80930301853081F008958091AA
:107A0000C00085FFFCCF84E18093C6008091C00058
:107A100085FFFCCF80E18093C6000895E0910401CA
:107A2000F09105010995089548EC50E08823A1F0F4
:107A30002D9A28EE33E0FA013197F1F721503040CA
:107A4000D1F72D9828EE33E0FA013197F1F7215064
:107A50003040D1F7815061F708953F924F925F9285
:107A60006F927F928F929F92AF92BF92CF92DF924E
:107A7000EF92FF920F931F93CF93DF93000082E06A
:107A80008093C00080E18093C4001092C50088E11B
:107A90008093C10086E08093C2005098589A259A3E
:107AA00081E00E94143D24E1F22E9EE1E92E85E959
:107AB000D82E0FE0C02E10E1B12EAA24A394B1E479
:107AC0009B2EA6E58A2EF2E57F2EE0E26E2E79E46B
:107AD000572E63E5462E50E5352E0E94763C8033C6
:107AE000B1F18133B9F1803409F46FC0813409F404
:107AF00076C0823409F485C0853409F488C08035A5
:107B000031F1823521F1813511F1853509F485C0D6
:107B1000863509F48DC0843609F496C0843709F49B
:107B200003C1853709F472C1863709F466C08091B4
:107B300003018F5F80930301853079F6E0910401A2
:107B4000F091050109950E94763C803351F60E9420
:107B5000F33CC3CF0E94763C803249F78091C0004D
:107B600085FFFCCFF092C6008091C00085FFFCCF5E
:107B70009092C6008091C00085FFFCCF8092C60025
:107B80008091C00085FFFCCF7092C6008091C0003C
:107B900085FFFCCF6092C6008091C00085FFFCCFBE
:107BA0005092C6008091C00085FFFCCF4092C60075
:107BB0008091C00085FFFCCF3092C6008091C0004C
:107BC00085FFFCCFB092C60088CF0E94763C8638F5
:107BD00008F4BDCF0E94763C0E94F33C7ECF0E9409
:107BE000763C803809F49CC0813809F40BC1823896
:107BF00009F430C1883909F48FC080E00E94C73C85
:107C00006CCF84E10E94BD3C0E94F33C66CF85E0CE
:107C10000E94BD3C0E94F33C60CF0E94763C809362
:107C200006010E94763C809307010E94F33C55CFE9
:107C30000E94763C803309F411C183E00E94BD3C70
:107C400080E00E94C73C49CF0E94763C80930902A5
:107C50000E94763C8093080280910C028E7F809374
:107C60000C020E94763C853409F409C18091080217
:107C700090910902892B89F000E010E00E94763C87
:107C8000F801E85FFE4F80830F5F1F4F809108026D
:107C9000909109020817190788F30E94763C8032F8
:107CA00009F045CF80910C0280FFF5C0609106017C
:107CB00070910701660F771F7093070160930601AB
:107CC000A0910802B09109021097C9F0E8E0F1E034
:107CD0009B01AD014E0F5F1FF999FECF32BD21BD53
:107CE000819180BDFA9AF99A2F5F3F4FE417F5070B
:107CF00099F76A0F7B1F70930701609306018091CB
:107D0000C00085FFFCCFF092C6008091C00085FFC7
:107D1000FCCFB092C600E1CE83E00E94C73CDDCE2E
:107D200082E00E94C73CD9CE0E94763C8093090233
:107D30000E94763C80930802809106019091070191
:107D4000880F991F90930701809306010E94763C4B
:107D5000853409F49AC080910C028E7F80930C02C6
:107D60000E94763C803209F0B8CE8091C00085FF39
:107D7000FCCFF092C600A0910802B09109021097C2
:107D8000C1F180910C02082F0170182F1695117007
:107D9000E0910601F0910701AF014F5F5F4FBA011B
:107DA00020E030E00023B1F4112339F49491809164
:107DB000C00085FFFCCF9093C6002F5F3F4FCB01E3
:107DC0000196FA012A173B0780F4BC014F5F5F4F11
:107DD000002351F3F999FECFF2BDE1BDF89A90B5B9
:107DE0008091C00085FFFCCFE6CF709307016093C0
:107DF00006018091C00085FDE5CE8091C00085FF21
:107E0000F8CFE0CE81E00E94C73C67CE0E94763C6E
:107E1000803209F08CCE8091C00085FFFCCFF092BB
:107E2000C6008091C00085FFFCCFE092C600809123
:107E3000C00085FFFCCFD092C6008091C00085FFB6
:107E4000FCCFC092C6008091C00085FFFCCFB092ED
:107E5000C60043CE80E10E94C73C3FCE0E94763CE4
:107E60000E94763C182F0E94763C112309F483C0AF
:107E7000113009F484C08FE00E94C73C2ECE80915F
:107E80000C02816080930C02F1CE80910C02816023
:107E900080930C0265CF809107018823880F880B9F
:107EA0008A2180930B028091060190910701880F2F
:107EB000991F90930701809306018091080280FF2B
:107EC00009C08091080290910902019690930902DD
:107ED00080930802F894F999FECF1127E0910601EA
:107EE000F0910701C8E0D1E0809108029091090269
:107EF000103091F40091570001700130D9F303E084
:107F000000935700E8950091570001700130D9F3B4
:107F100001E100935700E8950990199000915700EE
:107F200001700130D9F301E000935700E8951395F3
:107F3000103498F011270091570001700130D9F3E7
:107F400005E000935700E89500915700017001305B
:107F5000D9F301E100935700E8953296029709F0B2
:107F6000C7CF103011F00296E5CF11248091C000E8
:107F700085FFC5CEC8CE8EE10E94C73CAECD85E957
:0A7F80000E94C73CAACDF894FFCF81
:027F8A00800075
:040000030000780081
:00000001FF
