:100000000C9462000C94260E0C94FF0D0C948A0044
:100010000C948A000C948A000C94680F0C948A004B
:100020000C948A000C948A000C948A000C948A0028
:100030000C948A000C948A000C948A000C948A0018
:100040000C94B50D0C948A000C94830D0C945D0DEA
:100050000C948A000C948A000C948A000C948A00F8
:100060000C944D0E0C948A00000000002400270020
:100070002A0000000000250028002B0000000000DE
:1000800023002600290004040404040404040202DA
:100090000202020203030303030301020408102007
:1000A0004080010204081020010204081020000012
:1000B0000008000201000003040700000000000027
:1000C00000007F0F11241FBECFEFD8E0DEBFCDBFF1
:1000D00012E0A0E0B1E0ECE9F1E302C005900D927E
:1000E000AC35B107D9F723E0ACE5B2E001C01D9211
:1000F000A73DB207E1F710E0C2E6D0E004C02197C7
:10010000FE010E948618C136D107C9F70E9411105E
:100110000C94CC180C940000089581E080930203A5
:100120000895AF92BF92CF92DF92EF92FF920F931A
:100130001F93CF93DF936C017B018B01040F151F7D
:10014000EB015E01AE18BF08C017D10759F06991E5
:10015000D601ED91FC910190F081E02DC601099549
:10016000892B79F7C501DF91CF911F910F91FF90F6
:10017000EF90DF90CF90BF90AF90089542E050E0B5
:1001800062EE71E087E093E00C949100FC01538DE6
:10019000448D252F30E0842F90E0821B930B541761
:1001A00010F0CF96089501970895FC01918D828DEE
:1001B000981761F0A28DAE0FBF2FB11D5D968C9187
:1001C000928D9F5F9F73928F90E008958FEF9FEFC6
:1001D0000895FC01918D828D981731F0828DE80F82
:1001E000F11D858D90E008958FEF9FEF0895FC013C
:1001F000918D228D892F90E0805C9F4F821B910909
:100200008F739927089587E093E00E94F70021E01B
:10021000892B09F420E0822F089580E090E0892B5B
:1002200029F00E94030181110C9400000895FC0143
:10023000A48DA80FB92FB11DA35ABF4F2C91848D47
:1002400090E001968F739927848FA689B7892C93A4
:10025000A089B1898C91837080648C93938D848DF7
:10026000981306C00288F389E02D80818F7D8083FA
:100270000895EF92FF920F931F93CF93DF93EC01BA
:1002800081E0888F9B8D8C8D98131AC0E889F9893D
:10029000808185FF15C09FB7F894EE89FF89608340
:1002A000E889F98980818370806480839FBF81E0C1
:1002B00090E0DF91CF911F910F91FF90EF90089503
:1002C000F62E0B8D10E00F5F1F4F0F731127E02EDE
:1002D0008C8D8E110CC00FB607FCFACFE889F98916
:1002E000808185FFF5CFCE010E941701F1CFEB8D04
:1002F000EC0FFD2FF11DE35AFF4FF0829FB7F894EA
:100300000B8FEA89FB8980818062CFCFCF93DF9307
:10031000EC01888D8823B9F0AA89BB89E889F9891D
:100320008C9185FD03C0808186FD0DC00FB607FC52
:10033000F7CF8C9185FFF2CF808185FFEDCFCE0185
:100340000E941701E9CFDF91CF910895833081F0AA
:1003500028F4813099F08230A9F008958730A9F00F
:100360008830C9F08430B1F4809180008F7D03C063
:10037000809180008F7780938000089584B58F7777
:1003800084BD089584B58F7DFBCF8091B0008F77B9
:100390008093B00008958091B0008F7DF9CFCF9306
:1003A000DF93282F30E0F901E255FF4F8491F901E6
:1003B000E656FF4FD491F901EA57FF4FC491CC2381
:1003C000A1F081110E94A601EC2FF0E0EE0FFF1FBB
:1003D000E458FF4FA591B491EC91ED2381E090E0BA
:1003E00009F480E0DF91CF91089580E090E0FACFAA
:1003F0001F93CF93DF93282F30E0F901E255FF4F91
:100400008491F901E656FF4FD491F901EA57FF4F65
:10041000C491CC23A9F0162F81110E94A601EC2FC4
:10042000F0E0EE0FFF1FEE58FF4FA591B4918FB78C
:10043000F894EC91111108C0D095DE23DC938FBFA6
:10044000DF91CF911F910895DE2BF8CFCF93DF93EB
:1004500090E0FC01E656FF4F24918A579F4FFC0124
:1004600084918823C9F090E0880F991FFC01E85916
:10047000FF4FA591B491FC01EE58FF4FC591D49167
:1004800061110DC09FB7F8948C91209582238C93B5
:100490008881282328839FBFDF91CF910895623000
:1004A00051F49FB7F8943C91822F809583238C93CD
:1004B000E8812E2BEFCF8FB7F894EC912E2B2C9355
:1004C0008FBFEACF8E3008F08E50877080648093A3
:1004D0007C0080917A00806480937A0080917A0019
:1004E00086FDFCCF809178009091790008953FB708
:1004F000F8948091CC029091CD02A091CE02B0915F
:10050000CF0226B5A89B05C02F3F19F00196A11D6B
:10051000B11D3FBFBA2FA92F982F8827BC01CD014D
:10052000620F711D811D911D43E0660F771F881FAB
:10053000991F4A95D1F708952FB7F8946091C80292
:100540007091C9028091CA029091CB022FBF089589
:10055000089585ED8093BC008091BC0084FDFCCFA4
:100560001092A102089520917D02260F3327331F98
:1005700021323105ECF42091A102FC0190E080E0F1
:10058000243069F082E00895A0917D022191AC01B0
:10059000435A5D4FA40FB52FB11D2C9301968617BA
:1005A00098F380917D02680F60937D0280E008954A
:1005B00081E0089508958FEF9FEF08958FEF9FEFEB
:1005C000089580915C0290E091958195910908953C
:1005D000CF93DF93CB01EA01642F0E94B302CE01D7
:1005E000DF91CF910895CF93DF931F92CDB7DEB700
:1005F000698361E0CE0101960E94B30281E090E040
:100600000F90DF91CF91089590E080E0089541151B
:10061000510529F4EAE7F0E080818F7780836A3022
:100620007105B9F0CB01880F991F880F991F80724F
:1006300067706860682B88E10FB6F894A89580937E
:1006400060000FBE60936000E0E6F0E080818064AF
:100650008083232BD9F483B7817F846083BFF89490
:1006600083B7816083BF85B7806685BF8F7D85BF77
:100670007894889583B78E7F83BF7894452B29F42F
:10068000EAE7F0E0808180688083089583B7817F06
:10069000846083BFF89483B7816083BF7894889522
:1006A00083B78E7F83BF7894E9CFCF93DF93EC013C
:1006B00088819981DC01ED91FC910190F081E02D20
:1006C00009952A813B81820F931F9B838A83DF9147
:1006D000CF910895DC018D919C91DC01ED91FC910D
:1006E0000280F381E02D0994EF92FF920F931F9304
:1006F000CF93DF93CDB7DEB766970FB6F894DEBF22
:100700000FBECDBF8C01CB01FE0177969F014AE061
:10071000E42EF12CB7010E945018805D8293CB012A
:100720000097C1F7A9014E1B5F0BBF01C8010E94D2
:100730006A03F80122813381820F931F938382839E
:1007400066960FB6F894DEBF0FBECDBFDF91CF9196
:100750001F910F91FF90EF9008958F929F92AF920B
:10076000BF92CF92DF92EF92FF920F931F93CF939E
:10077000DF93CDB7DEB766970FB6F894DEBF0FBE36
:10078000CDBF7C018E01095E1F4F68018AE0882E73
:10079000912CA12CB12CCB01BA01A50194010E948E
:1007A0006418942F852F605DF80162938F01A90171
:1007B000692F782F411551056105710561F7A60173
:1007C0004E1B5F0BBF01C7010E946A03F701228124
:1007D0003381820F931F9383828366960FB6F894BA
:1007E000DEBF0FBECDBFDF91CF911F910F91FF9064
:1007F000EF90DF90CF90BF90AF909F908F90089533
:10080000EF92FF920F931F93CF93DF93EC017B0145
:1008100062E20E9455038701F80161918F0166230E
:1008200091F0E5EEF1E0F280FF2049F0329681810F
:100830006813F9CF6CE5CE010E9455036F2DCE01F0
:100840000E945503E9CF62E2CE01DF91CF911F9163
:100850000F91FF90EF900C9455034F925F926F921F
:100860007F928F929F92AF92BF92DF92EF92FF9210
:100870000F931F93CF93DF938C01EB0188818B3211
:10088000D1F18D32C9F52196EE24E394888190ED63
:10089000980F9A3010F08E3289F560E070E0CB014D
:1008A000FE012191A0ED8A2E820E39E0381508F460
:1008B00040C06A3929E97207820729E1920708F0E6
:1008C0004DC0AAE0B0E09B01AC010E948C18912CB5
:1008D000B12CA12C24013501409450946094709463
:1008E0004616570668067906C8F1680D791D8A1DF7
:1008F0009B1DEF01D5CF2196E12CC8CFF8011082C6
:100900001182128213821482158216821782108637
:10091000C801DF91CF911F910F91FF90EF90DF9071
:10092000BF90AF909F908F907F906F905F904F900F
:100930000895211113C0F80160837183828393832A
:100940000E942017F80164837583868397838AE069
:10095000E11001C088E0F8018087DACFF12CEAE0ED
:100960008E2E912CA12CB12C61157105F0E88F070A
:10097000910540F0A50194010E946418CA01B901D3
:10098000F394F2CFFE01299130ED320F3A3010F49A
:10099000F394F8CF2E32F1F4EF012196FE01219667
:1009A000208150EDD52ED20E29E02D1598F06C3C0B
:1009B0003CEC73073CE08307910580F7AAE0B0E0C8
:1009C0009B01AC010E948C186D0D711D811D911D44
:1009D000FA94E4CF20812F7DD0E0C0E0253409F0E7
:1009E0004FC021812D32A9F53296BB24B394DF018B
:1009F000D0E0C0E02F2D0F2C000C330B4AE0A42ECA
:100A0000FD01DD9040ED4D0D4A30A8F5AC9EA001F2
:100A1000AD9E500D1124CD2DDD0CDD0BE097C40FE4
:100A2000D51FAE01420F531F473251054CF3BB2077
:100A3000B9F080E090E0A0E0B0E8E11003C080E011
:100A400090E0DC01F80184839583A683B7838CE072
:100A500083CF2B3219F03196B12CC9CF3296FCCF0F
:100A600080E090E0A0E8BFEFE110ECCF80E090E004
:100A7000A0E8BFE7E7CFBB2019F0D195C195D10918
:100A8000208121113BCFCF0DD11DF7FCDA950E94BB
:100A900020171C161D06E4F4F12CC0FF0CC024E046
:100AA000F29EF0011124E05AFE4F208131814281F3
:100AB00053810E94D717D595C795F394209769F76E
:100AC000E1109058F8016483758386839783BFCFC4
:100AD000D195C195D109F12C209791F3C0FF0CC09D
:100AE00024E0F29EF0011124E85BFE4F2081318169
:100AF000428153810E94D717D595C795F394ECCFC7
:100B000080339CF08A3324F08F3524F08B3724F423
:100B100081E0089581344CF08B35D4F393ED980F38
:100B200081E09230B0F380E008958B32B9F7F0CFD6
:100B3000FC01878181110AC0A481B581CD01019694
:100B4000958384838C91868381E087838681089551
:100B5000FF920F931F93CF93DF93EC010A811B81C8
:100B60000E949805F82E1F82CE010E9498051F82D0
:100B7000F816A9F181110AC061E070E080E090E010
:100B8000DF91CF911F910F91FF9008958C35F1F473
:100B9000CE010E949805882379F3853729F464E013
:100BA00070E080E090E0ECCFE5EEF1E090819923F9
:100BB00029F0891308C08181811107C062E070E0CB
:100BC00080E090E0DDCF3296F1CF1F82EA81FB8199
:100BD0009F012F5F3F4F3B832A838083C5CFEA81EC
:100BE000FB81CF0101969B838A83108263E070E0D2
:100BF00080E090E00115110519F260E070E0CB0192
:100C0000C801BECF1F93CF93DF93EC01162F0E9434
:100C10009805811306C01F8281E0DF91CF911F915B
:100C2000089580E0FACFCF93DF93EC01CE010E94CC
:100C300098058B303CF489304CF4882349F090E0DF
:100C400080E008C08D3011F08032C9F71F82EECFEE
:100C500081E090E0DF91CF9108950895089508957F
:100C6000FC0167870895FC01618B0895FC01608B8E
:100C7000089508950895FC0180819181892B21F4C4
:100C800060E070E0CB01089569E476E090E080E0F8
:100C900008950895CF93DF93DC01EB01EC81FD8192
:100CA0008A819B810896E817F90730F4F0E0E0E0CC
:100CB000CF01DF91CF9108953897FD83EC83309772
:100CC000A9F31296CD91DC911397209791F0CF0163
:100CD0008C1B9D0B23E0959587952A95E1F78D83D5
:100CE0001396FC93EE931297158214821782168244
:100CF000DFCF1196FC93EE93F3CFFC0111821082AB
:100D000081E0828314821382168215824115510577
:100D100091F0DA0116962D913C91179714968C91CB
:100D20008095881F8827881F31832083828354837E
:100D30004383768365830895FC01892B51F0948168
:100D4000907898609483408351836283738381E0B9
:100D5000089580E00895FC012581222339F0F8E010
:100D60002F0290011124820F931F089590E080E0DC
:100D70000895EF92FF920F931F93CF93DF93EC01AF
:100D80007B018A01892B49F18C81982F9F7739F457
:100D9000807880648C83198218821B821A828C81ED
:100DA00086FF1BC088819981009741F0EF28B9F038
:100DB0000E94AB06009799F4F12CE12C90E080E0C2
:100DC00021E0E21AF1082EEFE2162FEFF20639F0D9
:100DD000B801CE010E944A06F3CF90E080E0DF9197
:100DE000CF911F910F91FF90EF900895CF93DF93D4
:100DF000C091A403D091A5038881882399F081E054
:100E00008983809102038130A9F48091B3038130FA
:100E100071F484E090E09093B7038093B603DF9180
:100E2000CF91089561E080E10E94F801E8CF85E06C
:100E300090E0F1CF83E090E0EECFCF93DF93EC0131
:100E4000FB0101900020E9F73197AF01461B570BDA
:100E50000E946A032A813B81820F931F9B838A83AE
:100E6000DF91CF9108952F923F924F925F926F92B0
:100E70007F928F929F92AF92BF92CF92DF92EF922A
:100E8000FF920F931F93CF93DF93CDB7DEB76A978F
:100E90000FB6F894DEBF0FBECDBF8C014B01DC0155
:100EA00014968C9114978F77863009F46BC2C8F42E
:100EB000823000F1843008F04BC2F8014281538146
:100EC00060817181C4010E946A03D40112962D9140
:100ED0003C911397820F931F13969C938E931297B6
:100EE000EBC18C3051F148F4883009F446C28A30A5
:100EF00009F434C266EF71E052C2803209F403C2D1
:100F00008034C1F76BE5C4010E945503F8010081EC
:100F100011810115110509F4F1C1B401C8010E9444
:100F20003307C8010E94AB068C01892B09F4E6C186
:100F30006CE2C4010E945503ECCFF801408051805F
:100F400062807380A3019201C301B2010E94EC167A
:100F50008111D0CF20E030E0A901C301B2010E948D
:100F6000EC16882379F0A3019201C301B2010E941B
:100F700080169B01AC01C301B2010E94EC168823CC
:100F800009F4B8CF20E030E0A901C301B2010E940A
:100F9000EC1687FF08C06DE2C4010E94550377FA82
:100FA000709477F8709420E836E948E15BE4C30177
:100FB000B2010E94D21787FD79C048E7E42E41E0D4
:100FC000F42E58E4C52E51E0D52E60E6A62E61E041
:100FD000B62E00E210E0312C212CD7015E914E910B
:100FE0003E912E917D01C301B2010E94D21787FD6F
:100FF0000DC0F6012489358946895789C301B2019C
:101000000E94D7172B013C01200E311E1595079524
:10101000F4E0CF1AD108AE14BF04F9F68FEF8B8B32
:1010200020E030E0A901C301B2010E94D2171816D6
:101030000CF043C02CEA35EC47E257E3C301B201A0
:101040000E94EC161816CCF1AB89B4E0AB0250014B
:101050001124D12CC12CEB89EF3F79F17501EC0CF7
:10106000FD1CF701E05DFE4FA301920160817181DB
:10107000828193810E94D21718167CF4F701E05AFE
:10108000FE4F2081318142815381C301B2010E9410
:10109000D7172B013C01201A310A15950795FB89BA
:1010A000F150FB8B84E0C81AD108D5CF00E210E0E4
:1010B00095E09B8B312C212CB3CFC301B2010E9450
:1010C000F1166B8B7C8B8D8B9E8B6B017C0116E0FC
:1010D00080E492E4AFE0B0E08F8B988FA98FBA8F55
:1010E000012F11509AE0C916D104E104F104C8F0AF
:1010F0006F89788D898D9A8D2AE030E040E050E04C
:101100000E9464182F8B388F498F5A8FC701B60100
:101110002AE030E040E050E00E94641869017A0162
:10112000DFCF6B897C898D899E890E9420179B0166
:10113000AC01C301B2010E947F166B017C016F8973
:10114000788D898D9A8D0E9420179B01AC01C70173
:10115000B6010E94D7172B013C010E94F1166B01CA
:101160007C010E9420179B01AC01C301B2010E94C7
:101170007F169B01AC010E9480160E94F116C60EDC
:10118000D71EE81EF91E8F89988DA98DBA8DC816B5
:10119000D906EA06FB0600F18B899C89AD89BE89D8
:1011A0000196A11DB11D8B8B9C8BAD8BBE8B211429
:1011B000310439F10A97A105B10518F19FEF291AF9
:1011C000390AC12CD12C760181E090E0A0E0B0E09A
:1011D0008B8B9C8BAD8BBE8B9AE0492E512C612C56
:1011E000712CC701B601A30192010E946418672BFC
:1011F000682B692B51F4101644F469017A010150EF
:10120000F0CFC12CD12C7601E7CF4B895C896D8959
:101210007E89C4010E94AD03002309F43FC05E0132
:1012200091E1A90EB11C102FBA8AA98A8AE0482E32
:10123000512C612C712C115068F0C701B601A3012B
:1012400092010E946418605DD5016E935D01690191
:101250007A01F1CF802F90E0BC0160957095E9890B
:10126000FA89E81BF90B31978EE2808344275527D2
:10127000461B570BE1E1F0E0EC0FFD1F6E0F7F1FE7
:10128000C4010E946A03D40112962D913C911397D8
:10129000820F931F13969C938E93129737FE25C04F
:1012A0006BEF71E0C4010E941D0766277727621962
:1012B0007309C4010E9474036A960FB6F894DEBFE6
:1012C0000FBECDBFDF91CF911F910F91FF90EF9097
:1012D000DF90CF90BF90AF909F908F907F906F9056
:1012E0005F904F903F902F9008952114310421F387
:1012F00065E6C4010E945503B101DBCF6DE5C40171
:101300000E945503D9CF6BE7C4010E945503D80151
:101310000D911C9101151105C9F0F80166817781C5
:10132000C4010E9400046AE3C4010E945503B40191
:10133000C8010E943307C8010E94AB068C01892BAB
:1013400029F06CE2C4010E945503E4CF6DE7D7CFCA
:101350006D917C91C4010E940004AECFF801C08061
:10136000D180E280F3806DE2C4010E945503B70191
:10137000A601C4010E94AD039FCF4D915D916D9177
:101380007C91F7CFF80180819181A281B3816EEFCA
:1013900071E0892B8A2B8B2B11F463E072E0C4017E
:1013A0000E941D0789CFCF93DF9300D000D0CDB727
:1013B000DEB77A8369831C821B82BE016F5F7F4F19
:1013C00008960E9433078B819C810F900F900F909D
:1013D0000F90DF91CF910895CF93DF9300D000D08D
:1013E000CDB7DEB77A8369831C821B82BE016F5F33
:1013F0007F4F08960E9433078B819C810F900F903E
:101400000F900F90DF91CF9108950F931F93CF937B
:10141000DF938B01EC01892BA1F06E817F81601736
:10142000710779F00115110541F06115710529F079
:10143000C8010E94C318892B21F0CE010E94AB067F
:10144000E9CFCE01DF91CF911F910F9108958F9237
:101450009F92AF92BF92CF92DF92EF92FF920F9343
:101460001F93CF93DF93CDB7DEB7CB54D1090FB61F
:10147000F894DEBF0FBECDBF8C017B01D42E0E943D
:1014800013062C969FAF8EAF2C97CE01865B9F4F95
:101490000E943B06672B09F099C080FD97C0C801E8
:1014A0000E949805873209F48BC114F5823209F441
:1014B00087C1C8010E949805C82ECE0101964C0133
:1014C000D12C5C018C2D0E948005882309F492C1E7
:1014D0009FE3D91609F48EC1D80117961C92D394B4
:1014E000F401C1924F01C8010E949805C82EEACFAD
:1014F0008B3509F485C08B37E1F6F701848180785C
:10150000806284831182108213821282DD2009F4AA
:1015100055C1D80117961C92C8010E9413069A83E0
:101520008983CE0101960E943B06672B09F0B4C067
:1015300080FDB2C06DE7C8010E9402068111B7C0EC
:10154000DA94C8010E949805873209F4BAC0823241
:1015500009F4B7C0F80182809380C8010E94980501
:10156000A82E0E94800522E030E0882361F1D80196
:1015700017961C9217971296ED91FC911397CF0135
:10158000019613969C938E931297A082C8010E9495
:101590009805A82E0E9480058111E9CFD8011296E6
:1015A000ED91FC911397CF01019613969C938E9326
:1015B0001297108223E030E08114910421F0B82CBE
:1015C000C92C30E020E09B2CAC2C83C02B968FAD37
:1015D0002B972C969FAD2C97C55BDF4F0FB6F894D9
:1015E000DEBF0FBECDBFDF91CF911F910F91FF9056
:1015F000EF90DF90CF90BF90AF909F908F90089525
:10160000D70114968C9114978078806414968C93EB
:10161000149711961C921E9213961C921E9212976A
:10162000DD2009F4CBC0F8011782C8010E9413061F
:101630009A838983CE0101960E943B06672B61F550
:1016400080FD2AC06DE5C8010E94020681112FC0ED
:10165000DA94D8016D917C91C7010E944A060097E7
:1016600009F4A9C04D2DBC01C8010E94270A9A8324
:101670008983CE0101960E943B06672B69F480FDA9
:101680000BC0C8010E9413069A838983CE0101967C
:101690000E943B06672B19F089819A819DCF80FDBE
:1016A000FBCF6DE5C8010E940206882311F080E09F
:1016B00083C06CE2C8010E9402068111CACF82E099
:1016C0007BC0C8010E94A8059B019B2CAC2CB82EA6
:1016D000C92E3A832983CE0101960E943B06672BCF
:1016E000D9F680FDD9CFC8010E9413069A83898359
:1016F000CE0101960E943B06672B71F680FDCCCF90
:101700006AE3C8010E9402068823C9F26B2D7C2D72
:10171000F701808191810E94050ABC01892B81F427
:10172000D8016D917C91C7010E944A06FC01892B6A
:1017300009F441C0848180688483B682C782BF0176
:101740004D2DC8010E94270A9A838983CE010196F4
:101750000E943B06672B09F09FCF80FD9DCFC801FB
:101760000E9413069A838983CE0101960E943B064C
:10177000672B09F091CF80FD8FCF6DE7C8010E94E4
:101780000206811194CF6CE2C8010E9402068823F0
:1017900009F495CFC8010E9413069A838983CE016C
:1017A00001960E943B06672B09F076CF80FD74CF2F
:1017B000B92CCA2CC6CE83E090E00ECF85E0FCCFDA
:1017C000C8010E94A80569837A838B839C83CE011C
:1017D00001960E943B06672B09F05ECF80FD5CCF2F
:1017E0002B813C81F70184818078856084833183FB
:1017F00020835DCFF501ED0DF11D108289818437C5
:10180000B9F4D70114968C91149780788660149659
:101810008C9381E090E0A0E0B0E0F70180839183B9
:10182000A283B38390E0F4E0DF12D6CE80E0D4CE82
:10183000863689F4D70114968C9114978078866047
:1018400014968C93F701108211821282138281E028
:1018500090E0F5E0E9CF8E3631F481E090E024E0CD
:10186000D212BACEE3CFB501CE018F5B9F4F0E945B
:101870002D0425964CAD5DAD6EAD7FAD25972A96B6
:101880008FAD2A978A3061F08C30C1F0883009F032
:1018900016CFD70114968C9114978078886006C073
:1018A000D70114968C91149780788A6014968C9343
:1018B000F7014083518362837383F9CE29964CAD3F
:1018C0005DAD6EAD7FAD2997D70114968C911497BD
:1018D00080788C6014968C93F701408351836283E7
:1018E0007383E5CEEF92FF920F931F93CF93DF9315
:1018F000EC018C81982F9F7739F4807880628C83FB
:10190000198218821B821A828C8185FF1EC0611584
:101910007105D9F07A018B01888199810E94050AAD
:10192000009761F4B701CE010E944A06009731F09A
:10193000FC0124812F77248317830683DF91CF91C5
:101940001F910F91FF90EF90089590E080E0F6CF07
:101950001F93CF93DF93CDB7DEB765970FB6F8949B
:10196000DEBF0FBECDBF2091B8033091B903232B4A
:1019700081F1E82FF0E0E050FD4F10819E01225FE1
:101980003F4F3A8329833C832B83285F3F4F3E831D
:101990002D8338872F839D8590789D8797E0899F39
:1019A000B001112461567E4FAE014F5F5F4FCE01F3
:1019B00009960E94720C412F50E070E060E00E9496
:1019C0009C0667E073E0CE0101960E94EC090E943C
:1019D000BE0065960FB6F894DEBF0FBECDBFDF9197
:1019E000CF911F910895CF93C82F0E949C026093BE
:1019F000AA037093AB038093AC039093AD03C093A1
:101A0000030383E00E94A80C87E090E0C33011F04C
:101A100086E090E09093B7038093B603CF9108954A
:101A200081E08093030383E00E94A80C0E949C0243
:101A3000E4EAF3E06683778380879187138A128ACA
:101A400008950F931F93CF93DF93DA01009799F1D5
:101A50006115710561F1FB0101900020E9F7AF010B
:101A6000461B570B1296CD91DC9113979E01240FC4
:101A7000351F1496ED91FC911597E217F307B8F016
:101A800013963C932E931297209789F08C01CE01E8
:101A90000E94BA18F8018481807885608483D1839C
:101AA000C08381E0DF91CF911F910F910895FC01D8
:101AB00024812078248380E0F5CF1F920F920FB607
:101AC0000F9211242F933F934F935F936F937F93C4
:101AD0008F939F93AF93BF93EF93FF9387E093E030
:101AE0000E941701FF91EF91BF91AF919F918F914C
:101AF0007F916F915F914F913F912F910F900FBE0A
:101B00000F901F9018951F920F920FB60F921124ED
:101B10002F938F939F93EF93FF93E0911703F0918F
:101B200018038081E0911D03F0911E0382FD1BC00C
:101B30009081809120038F5F8F7320912103821702
:101B400041F0E0912003F0E0E95FFC4F958F809336
:101B50002003FF91EF919F918F912F910F900FBED6
:101B60000F901F9018958081F4CF1F920F920FB69F
:101B70000F9211242F933F938F939F93AF93BF9313
:101B80008091C8029091C902A091CA02B091CB0283
:101B90003091C70226E0230F2D3758F50296A11D7C
:101BA000B11D2093C7028093C8029093C902A093ED
:101BB000CA02B093CB028091CC029091CD02A09149
:101BC000CE02B091CF020196A11DB11D8093CC022F
:101BD0009093CD02A093CE02B093CF02BF91AF916C
:101BE0009F918F913F912F910F900FBE0F901F905B
:101BF000189529E8230F0396A11DB11DD2CF1F927E
:101C00000F920FB60F9211242F933F934F935F9330
:101C10006F937F938F939F93AF93BF93EF93FF93B4
:101C2000E0910201F09103010995FF91EF91BF91BD
:101C3000AF919F918F917F916F915F914F913F9164
:101C40002F910F900FBE0F901F9018951F920F921B
:101C50000FB60F9211242F933F934F935F936F937F
:101C60007F938F939F93AF93BF93EF93FF93E091F5
:101C70000001F09101010995FF91EF91BF91AF91A2
:101C80009F918F917F916F915F914F913F912F9194
:101C90000F900FBE0F901F9018951F920F920FB6C6
:101CA0000F9211242F933F934F935F936F937F93E2
:101CB0008F939F93AF93BF93EF93FF938091B9005E
:101CC000887F803609F44AC0F0F5883209F4A5C04F
:101CD00018F5803109F499C0B8F4882309F4F5C0E7
:101CE000883009F492C0FF91EF91BF91AF919F911D
:101CF0008F917F916F915F914F913F912F910F90B5
:101D00000FBE0F901F901895883109F486C080325D
:101D100051F78093A00214C0803409F49BC040F4B2
:101D20008033B9F38833F9F68093A00285ECAEC016
:101D3000803509F483C0883509F494C0883499F655
:101D40000E94A902D0CF883909F48AC038F58837B3
:101D500029F050F4883611F0803729F683E080931B
:101D6000A10210929F0255C0883809F479C08039C9
:101D700019F0803809F0B7CF80919F02803208F0C7
:101D80006FC0E0919F0281E08E0F80939F0280914F
:101D9000BB00F0E0E158FD4F80833BC0803B39F051
:101DA000D0F4803A09F477C0883A09F09CCF84E0F7
:101DB0008093A10210927E0210927D02F0E0E0E09A
:101DC000099580917D0281110FC081E080937D0291
:101DD00010925D0209C0803C09F4A8CF883C09F448
:101DE000A5CF883B09F07FCFE0917E0281E08E0F86
:101DF00080937E02F0E0E35AFD4F80818093BB0028
:101E000090917E0280917D0229C08091C6028093CC
:101E1000BB0085EC8093BC0066CF9091C502809199
:101E2000C402981758F5E091C50281E08E0F8093A7
:101E3000C502F0E0EC55FD4F8081E9CFE091C5028D
:101E400081E08E0F8093C5028091BB00F0E0EC55DD
:101E5000FD4F80839091C5028091C4029817C8F20B
:101E600085E8D8CFE091C50281E08E0F8093C5024E
:101E70008091BB00F0E0EC55FD4F80838091A30280
:101E800081115ECF81E08093A20284EA8093BC003E
:101E90001092A10228CF85EC8093BC001092A10281
:101EA00080919F02803230F4E0919F02F0E0E1588F
:101EB000FD4F108260919F0270E08FE792E0F0E0AA
:101EC000E0E0099510929F020ECF1092A00238CF49
:101ED0001F920F920FB60F9211248F930FB6F894A2
:101EE000A8958091600088618093600010926000E6
:101EF0000FBE8F910F900FBE0F901F9018951092EC
:101F00000A031092090388EE93E0A0E0B0E080930A
:101F10000B0390930C03A0930D03B0930E0384ED79
:101F200091E0909308038093070385EC90E09093F1
:101F300014038093130384EC90E090931603809332
:101F4000150380EC90E0909318038093170381ECC5
:101F500090E090931A038093190382EC90E09093A1
:101F60001C0380931B0386EC90E090931E038093E8
:101F70001D0310922003109221031092220310924D
:101F800023031092D2031092D6031092D50310921D
:101F9000D3031092D40361E080E10E942602809175
:101FA000D2038823A1F11092D30361E084E00E9460
:101FB00026028091D203882379F11092D40361E044
:101FC00081E10E94260260E081E10E94F80160E068
:101FD00087E00E94260260E083E00E94260260E023
:101FE00082E00E94260288E1E8E1F1E0AAEBB3E09A
:101FF00001900D928A95E1F781E090E09093B7030C
:102000008093B6031092B9031092B803089560E06C
:1020100080E10E94F801C7CF60E084E00E94F801EF
:10202000CCCFCF93DF93CDB7DEB7CC5AD1090FB663
:10203000F894DEBF0FBECDBF789484B5826084BDB6
:1020400084B5816084BD85B5826085BD85B58160BC
:1020500085BD80916E00816080936E00109281003A
:1020600080918100826080938100809181008160F5
:1020700080938100809180008160809380008091B6
:10208000B10084608093B1008091B0008160809342
:10209000B00080917A00846080937A0080917A0009
:1020A000826080937A0080917A008E7F80937A009C
:1020B00080917A00806880937A001092C100E0914C
:1020C0001703F091180382E08083E0911303F091ED
:1020D00014031082E0911503F091160387E68083C4
:1020E00010921F03E0911B03F0911C0386E0808394
:1020F000E0911903F0911A03808180618083E0915F
:102100001903F0911A03808188608083E09119039C
:10211000F0911A03808180688083E0911903F09127
:102120001A0380818F7D80838091D203882309F4F4
:102130006CC01092D3038091D203882309F46AC043
:102140001092D40362E082E00E94260261E082E005
:102150000E94F8010EE811E037EFE32E32E0F32E93
:10216000D801DD908D0160E08D2D0E9426028D2D1D
:102170000E94CF01F70181937F01F1E003391F072E
:1021800079F761E087E00E94260260E087E00E9424
:10219000F80161E08AE00E94260260E08AE00E9485
:1021A000F80161E08DE00E94260260E08DE00E946F
:1021B000F8014E0121E4820E911CB401635F7F4F50
:1021C000C955DF4F79836883C75AD0408EE790E0C6
:1021D0008C0F9D1F0D96C755DF4F99838883C95A71
:1021E000D040E091B603F091B703E830F10508F074
:1021F0007CC0E350FF4E0C9486180F1143117511EB
:10220000BB12E1121413F312251360E080E10E9467
:10221000F8018FCF60E084E00E94F80191CF009137
:10222000A4031091A503D8018C91882309F478C1E7
:1022300011968C91119790E021E013962C9318162B
:1022400019060CF071C181E0F80183838093B20319
:10225000C090AA03D090AB03E090AC03F090AD0324
:10226000F0E3CF0EF5E7DF1EE11CF11C0E949C029B
:102270006C157D058E059F0530F484E08093030383
:1022800083E00E94A80C8CE890E090930301809377
:102290000201809169008C6080936900E99A8DE861
:1022A00090E0909301018093000180916900836028
:1022B00080936900E89A60E08DE00E94F80130E0C8
:1022C00020E050E040E06AE070E08091A40390914B
:1022D000A5030E94070361E08DE00E94F801809150
:1022E000B40381113BC11092020396EDC92E92E016
:1022F000D92E20EDE22E22E0F22E10E000E01E01A9
:102300008EE0280E311C5E0196E2A90EB11C0E94DF
:102310009C02D6014D905D906D907C906415750582
:102320008605970538F40E949C02F601608371834C
:1023300082839383D6014D905D906D907C90BAE03E
:102340004B0E511C611C711C0E949C02641575058A
:102350008605970590F0F801E357FE4F80810E94B3
:10236000CF01682FF801EA50FD4FD7018C91908181
:1023700069138DC1813009F41C920F5F1F4FB4E0C7
:10238000CB0ED11CEFEFEE1AFE0A0630110509F054
:10239000BECF6EEE72E0CB55DF4F79836883C55AAE
:1023A000D040CE010196CD55DF4F99838883C35A23
:1023B000D04000E01C0156E0A52E102F110FA4E024
:1023C000B1E01A0F812F0E946202812F0E946202E7
:1023D00046E0B42E0E9477026B017C013AE0432E66
:1023E000512C612C712C0E9477026C197D098E0989
:1023F0009F09683E734081059105A8F3B1E04B1A2F
:10240000510861087108E8EECE0EE3E0DE1EE11C23
:10241000F11C411451046104710429F7812F0E94B9
:102420006202BA94B110D6CF6A2D0E944418CB55DF
:10243000DF4FA881B981C55AD0409D91CB55DF4F60
:10244000B983A883C55AD040CD55DF4FE881F981C3
:10245000C35AD04041915191CD55DF4FF983E88364
:10246000C35AD040682F691B770B9B0177FF03C0CD
:102470003195219531094217530744F4CB55DF4F6D
:10248000E881F981C55AD040319780830F5F0830C9
:1024900009F093CF8091B6039091B7030397039708
:1024A00008F0FEC254017DE3A70EB11CC4010896DA
:1024B000CB55DF4F99838883C55AD0402EE7C22E73
:1024C000D12CCC0EDD1E95E1C90ED11CAEE7B0E0DB
:1024D000AC0FBD1F1896C555DF4FB983A883CB5AE3
:1024E000D04087E093E00E94F700181619060CF020
:1024F000D7C287E093E00E94D5009091FC02292F7B
:1025000030E0220D331D8A3009F43BC1F90180838C
:102510009F5F903408F432C18FE38093FC02E1CFD7
:1025200087E00E94CF018BCE1092B2030091A403EA
:102530001091A503D8018C91882349F011961C9223
:1025400081E090E09093B7038093B60381CE60E082
:1025500080E10E94F801F8011182F2CF0E949C02F2
:102560006093AE037093AF038093B0039093B10375
:102570000E94F606BACE8091B303813021F080919B
:10258000FF02813039F481E08093020382E00E94EF
:10259000A80CABCEC090AE03D090AF03E090B003D8
:1025A000F090B10320E3C20E25E7D21EE11CF11C1E
:1025B0000E949C026C157D058E059F0510F40E94FB
:1025C000100D8091B303811107C08091B503813054
:1025D00019F482E00E94F30C8091B403811103C0CE
:1025E00083E00E94F30CC090AA03D090AB03E0906C
:1025F000AC03F090AD0360E3C60E65E7D61EE11CA8
:10260000F11C0E949C026C157D058E059F0510F43F
:102610000E94100D8091B303813021F08091FF0260
:10262000813011F40E94F6068091B403811103C039
:1026300082E00E94F30C8091B303813031F484E096
:1026400090E09093B7038093B603C090AA03D09014
:10265000AB03E090AC03F090AD0370E3C70E75E7F9
:10266000D71EE11CF11C0E949C026C157D058E0595
:102670009F0510F40E94100D8091B403813009F47D
:1026800077CF8091FF02813009F02FCE71CF81305A
:1026900009F070C01C926083F801EE0FFF1FEE0F6F
:1026A000FF1FEC55FC4F208D318DD901B595A795B5
:1026B000AC55BC4F0688F789E02D20FF08C08D91EE
:1026C0009C911197E80FF91F0190F081E02DCD0149
:1026D00009958091B8039091B903892B09F441C001
:1026E0003A8229823C822B82BE82AD82B886AF823A
:1026F0008D8580788D87AE014F5F5F4F68E771E011
:10270000CE0109960E94720CAE014F5F5F4F70E0E0
:1027100060E00E94B9064091F60250E070E060E08F
:102720000E949C06AE014F5F5F4F68E771E0CE01EB
:1027300009960E94720CAE014F5F5F4F61E070E03E
:102740000E94B9064091F70250E070E060E00E94FC
:102750009C0667E073E0CE0101960E94D3090E94B7
:10276000BE000E949C02D6016D937D938D939C9335
:10277000139703CE21E0F7012083F3CF9093FC025F
:10278000B0CED9011C921092FC02C955DF4F68816E
:102790007981C75AD040F401718360837383628367
:1027A000B582A482B782A682848580788487C25845
:1027B000DF4F99828882CE57D040C058DF4F398290
:1027C0002882C058D040CE57DF4F39822882C25865
:1027D000D040CB57DF4F1882C558D0404AE0CB5588
:1027E000DF4F68817981C55AD040CE0182589F4F12
:1027F0000E94270AC656DF4F99838883CA59D04062
:10280000CE0186569F4F0E943B06672BD9F480FD70
:1028100019C0CC57DF4F8881C458D040882391F02D
:10282000D4011C968C91982F9F779C3019F08D774E
:10283000883041F482E090E0C656DF4F9983888368
:10284000CA59D040C656DF4F08811981CA59D040B5
:10285000CF55DF4F19830883C15AD040CE018F5521
:102860009F4F0E943B06672B09F05DC080FD5BC057
:10287000F401848585FF35CE00851185011511058C
:1028800009F42FCEA801B401CE0182589F4F0E94B7
:102890007D0687E0FE01E258FF4FDE01AD56BF4FD7
:1028A00001900D928A95E1F787E0FE01ED56FF4F0A
:1028B000DE01A656BF4F01900D928A95E1F78CE09C
:1028C000E82E81E0F82ED70112960D90BC91A02D34
:1028D000CD55DF4FB983A883C35AD040AB2B09F441
:1028E0009AC0F70160817181C656DF4F8881998156
:1028F000CA59D0400E94C318892B09F0CDC0C356D5
:10290000DF4FE881F981CD59D040309751F0848173
:102910008F77863009F46DC008F061C0843008F00C
:102920007FC080E071C00630110508F053C0000F71
:10293000111FF801ED56FE4F00811181C755DF4F81
:1029400068817981C95AD040C258DF4F7983688342
:10295000CE57D040C058DF4F79836883C058D040ED
:10296000CE57DF4FD982C882C258D040CC57DF4FF4
:10297000D982C882C458D040C657DF4F8881CA5810
:10298000D0408078C657DF4F8883CA58D040AE0108
:1029900042585F4F6DE072E0C555DF4F88819981E5
:1029A000CB5AD0400E94720CFC01892B49F09481D3
:1029B00090780115110589F0946094831183008348
:1029C00067E073E0CE0182589F4F0E94EC090E949D
:1029D000BE0087CD09E012E0B1CF9483F1CF8830FB
:1029E00041F08C3009F09DCF40805180628073802F
:1029F00030C080819181A281B3818F3F9105A10573
:102A0000B10511F008F08DCFCD55DF4FE881F98188
:102A1000C35AD0400995C8010E94AB068C012ECF45
:102A200060817181CE0182589F4F0E942D04CA5748
:102A3000DF4F8881C658D040883029F18C3009F0AA
:102A400070CFCE57DF4F488059806A807B80C25854
:102A5000D04020E030E0A901C301B2010E94D217AA
:102A600087FD5FCF20E030E04FE753E4C301B201C0
:102A70000E94EC1618160CF454CFC301B2010E9448
:102A8000F116862FC1CFC258DF4F88819981AA8164
:102A9000BB81CE57D040B1CFF4E0EF0EF11C13CF85
:102AA0008091B8039091B9038130910509F4BFC0BA
:102AB00080F0029709F4FAC080E090E0892B09F4D5
:102AC00090CB0E940301882309F48BCB0E94000065
:102AD00088CB8091FD02813009F084C08093060389
:102AE000CE010E969A8389839C838B8348969E831E
:102AF0008D8398878F838D8580788D87A1016FE97D
:102B000071E0CE0109960E94720CA10166EF72E09D
:102B10000E94210DA10166EA71E0CE0109960E9492
:102B2000720CA1016EEE72E00E94210DA1016DEA0E
:102B300071E0CE0109960E94720C4091020350E0B0
:102B400070E060E00E949C06A10164EB71E0CE01A0
:102B500009960E94720C4091030350E070E060E01F
:102B60000E949C06A1016BEB71E0CE0109960E94C8
:102B7000720C4091040350E070E060E00E949C06FB
:102B8000A10162EC71E0CE0109960E94720C4091A5
:102B9000050350E070E060E00E949C06A10169EC32
:102BA00071E0CE0109960E94720C41E050E060E0B5
:102BB00070E00E949C0667E073E0C1010E94D309A7
:102BC0000E94BE000E949C026093A6037093A7031C
:102BD0008093A8039093A90381E090E09093B903B8
:102BE0008093B803C090A603D090A703E090A803F9
:102BF000F090A90320E3C20E25E7D21EE11CF11CD0
:102C00000E949C026C157D058E059F0580F483E073
:102C10008093060386E00E94A80C0E949C026093A9
:102C2000A6037093A7038093A8039093A9038091B0
:102C3000FE028130B1F482E08093060386E00E94B8
:102C4000A80C0E949C026093A6037093A703809334
:102C5000A8039093A90382E090E09093B903809336
:102C6000B803C090A603D090A703E090A803F0900B
:102C7000A90360E3C60E65E7D61EE11CF11C0E94A5
:102C80009C026C157D058E059F0580F484E0809381
:102C9000060386E00E94A80C0E949C026093A60393
:102CA0007093A7038093A8039093A903C090A603F1
:102CB000D090A703E090A803F090A90370E3C70E9B
:102CC00075E7D71EE11CF11C0E949C026C157D0566
:102CD0008E059F0508F0F0CE1092FE0210920603BA
:102CE0000E949C026093A6037093A7038093A8039D
:102CF0009093A9031092B9031092B803DDCE5058F7
:102D0000BB27AA270E9497160C9498170E948A172F
:102D100038F00E94911720F039F49F3F19F426F4FF
:102D20000C9487170EF4E095E7FB0C948117E92FBC
:102D30000E94A91758F3BA1762077307840795070B
:102D400020F079F4A6F50C94CB170EF4E0950B2E39
:102D5000BA2FA02D0B01B90190010C01CA01A001ED
:102D60001124FF27591B99F0593F50F4503E68F148
:102D70001A16F040A22F232F342F4427585FF3CF89
:102D8000469537952795A795F0405395C9F77EF45A
:102D90001F16BA0B620B730B840BBAF09150A1F0A3
:102DA000FF0FBB1F661F771F881FC2F70EC0BA0F29
:102DB000621F731F841F48F4879577956795B795B1
:102DC000F7959E3F08F0B0CF9395880F08F09927AC
:102DD000EE0F9795879508950E945D1708F481E09E
:102DE00008950E94B11788F09F5798F0B92F99273E
:102DF000B751B0F0E1F0660F771F881F991F1AF0E6
:102E0000BA95C9F714C0B13091F00E94CB17B1E068
:102E100008950C94CB17672F782F8827B85F39F067
:102E2000B93FCCF3869577956795B395D9F73EF47E
:102E300090958095709561957F4F8F4F9F4F089526
:102E4000E89409C097FB3EF4909580957095619544
:102E50007F4F8F4F9F4F9923A9F0F92F96E9BB27FA
:102E60009395F695879577956795B795F111F8CF76
:102E7000FAF4BB0F11F460FF1BC06F5F7F4F8F4FE1
:102E80009F4F16C0882311F096E911C0772321F0D7
:102E90009EE8872F762F05C0662371F096E8862F6F
:102EA00070E060E02AF09A95660F771F881FDAF7C6
:102EB000880F9695879597F90895990F0008550FF3
:102EC000AA0BE0E8FEEF16161706E807F907C0F0B0
:102ED00012161306E407F50798F0621B730B840BB8
:102EE000950B39F40A2661F0232B242B252B21F492
:102EF00008950A2609F4A140A6958FEF811D811D32
:102F0000089597F99F6780E870E060E008959FEF6B
:102F100080EC089500240A94161617061806090670
:102F2000089500240A94121613061406050608953F
:102F3000092E0394000C11F4882352F0BB0F40F4C7
:102F4000BF2B11F460FF04C06F5F7F4F8F4F9F4F07
:102F5000089557FD9058440F551F59F05F3F71F089
:102F60004795880F97FB991F61F09F3F79F08795F0
:102F70000895121613061406551FF2CF4695F1DF79
:102F800008C0161617061806991FF1CF8695710509
:102F9000610508940895E894BB2766277727CB013D
:102FA00097F908950E945D1708F48FEF08950E9425
:102FB000EA170C9498170E948A1738F00E9491170C
:102FC00020F0952311F00C9481170C94871711248D
:102FD0000C94CC170E94A91770F3959FC1F3950F1D
:102FE00050E0551F629FF001729FBB27F00DB11D8D
:102FF000639FAA27F00DB11DAA1F649F6627B00D1D
:10300000A11D661F829F2227B00DA11D621F739F05
:10301000B00DA11D621F839FA00D611D221F749F13
:103020003327A00D611D231F849F600D211D822F5A
:10303000762F6A2F11249F5750409AF0F1F0882381
:103040004AF0EE0FFF1FBB1F661F771F881F9150AE
:103050005040A9F79E3F510580F00C9481170C94C5
:10306000CC175F3FE4F3983ED4F386957795679548
:10307000B795F795E7959F5FC1F7FE2B880F911DD8
:103080009695879597F90895991B79E004C0991F43
:10309000961708F0961B881F7A95C9F780950895B2
:1030A00097FB072E16F4009407D077FD09D00E94F5
:1030B000971807FC05D03EF4909581959F4F089591
:1030C000709561957F4F0895A1E21A2EAA1BBB1B34
:1030D000FD010DC0AA1FBB1FEE1FFF1FA217B307E4
:1030E000E407F50720F0A21BB30BE40BF50B661FFA
:1030F000771F881F991F1A9469F7609570958095BE
:1031000090959B01AC01BD01CF010895EE0FFF1F0B
:103110000590F491E02D09940E94AB18A59F900DA5
:10312000B49F900DA49F800D911D11240895AA1B9A
:10313000BB1B51E107C0AA1FBB1FA617B70710F0A2
:10314000A61BB70B881F991F5A95A9F780959095D4
:10315000BC01CD010895A29FB001B39FC001A39F00
:10316000700D811D1124911DB29F700D811D1124C0
:10317000911D0895FB01DC0102C001900D924150A8
:103180005040D8F70895FB01DC018D910190801922
:0C3190000110D9F3990B0895F894FFCFBB
:10319C00A802A8024130413141344135520239066E
:1031AC0057023A0600000000360600003306000005
:1031BC00300600002D0600002F0600002E06000031
:1031CC000000803FCDCCCC3D6F12833A95BFD633F7
:1031DC007D1D9026B3CE010CCDCCCC3D0AD7233C23
:1031EC0017B7D13877CC2B329595E6241FB14F0AFF
:1031FC00000020410000C84200401C4620BCBE4CD0
:10320C00CA1B0E5AAEC59D746177616B6500006870
:10321C00616E64000000616C697665000002030554
:10322C00060B0C14021702270234023D024A0264F8
:10323C00696700000000616E616C6F670064697300
:10324C00700000006F6666000000006D6F64650022
:10325C000000766F6C5377000068616E64000000AC
:10326C000000000039019100C6008601F700D5006E
:10327C00E9000D0A002F2F22225C5C6208660C6E9E
:10328C000A720D7409006E756C6C00652D007472F9
:10329C0075650066616C7365003F3F3F0065727237
:1032AC00536572004F6B00496E636F6D706C657483
:1032BC0065496E70757400496E76616C6964496E0F
:1032CC00707574004E6F4D656D6F7279004E6F7432
:1032DC00537570706F7274656400546F6F446565DC
:0C32EC00700070694F6E00737472420035
:00000001FF
