:100000000C9463000C941F140C94F8130C948B0044
:100010000C948B000C948B000C9461150C948B0049
:100020000C948B000C948B000C948B000C948B0024
:100030000C948B000C948B000C948B000C948B0014
:100040000C94AE130C948B000C947C130C945613EC
:100050000C948B000C948B000C948B000C948B00F4
:100060000C9446140C948B00000000002400270020
:100070002A0000000000250028002B0000000000DE
:1000800023002600290004040404040404040202DA
:100090000202020203030303030301020408102007
:1000A0004080010204081020010204081020000012
:1000B0000008000201000003040700000000000027
:1000C00000001A16361D11241FBECFEFD8E0DEBF88
:1000D000CDBF12E0A0E0B1E0EEE7F1E402C0059090
:1000E0000D92A038B107D9F724E0A0E8B2E001C032
:1000F0001D92A236B207E1F710E0C2E6D0E004C0DC
:100100002197FE010E94501FC136D107C9F70E94F6
:10011000F8170C94B2200C940000982F20915703EC
:1001200081E0213208F043C0809133038111FCCF7C
:100130008091560332E030933303909332039FEF64
:10014000909331031092300320932F03A6E3B3E082
:10015000EFE0F3E090E0291331C010920E0390918C
:100160000E03880F892B80930E0380910D0381303D
:1001700049F510920D0380910E038093BB0080918E
:10018000BC0083FDF8CF85EC8093BC0080913303E5
:100190008230E1F3809131038F3FB1F080913103E0
:1001A0008032A1F080913103803391F084E010928D
:1001B0003503109257031092340308953D91319303
:1001C0009F5FC9CF85EEE0CF80E0F1CF82E0EFCF37
:1001D00083E0EDCF089581E080932404089508958D
:1001E000AF92BF92CF92DF92EF92FF920F931F9345
:1001F000CF93DF936C017B018B01040F151FEB0183
:100200005E01AE18BF08C017D10759F06991D60139
:10021000ED91FC910190F081E02DC6010995892BAB
:1002200079F7C501DF91CF911F910F91FF90EF906A
:10023000DF90CF90BF90AF900895FC01538D448D17
:10024000252F30E0842F90E0821B930B541710F081
:10025000CF96089501970895FC01918D828D98178E
:1002600061F0A28DAE0FBF2FB11D5D968C91928D66
:100270009F5F9F73928F90E008958FEF9FEF089597
:10028000FC01918D828D981731F0828DE80FF11D60
:10029000858D90E008958FEF9FEF0895FC01918D7B
:1002A000228D892F90E0805C9F4F821B91098F7374
:1002B0009927089588E593E00E944E0121E0892B5B
:1002C00009F420E0822F089580E090E0892B29F046
:1002D0000E945A0181110C9400000895FC01A48D24
:1002E000A80FB92FB11DA35ABF4F2C91848D90E058
:1002F00001968F739927848FA689B7892C93A0893B
:10030000B1898C91837080648C93938D848D9813C4
:1003100006C00288F389E02D80818F7D8083089557
:10032000EF92FF920F931F93CF93DF93EC0181E045
:10033000888F9B8D8C8D98131AC0E889F9898081EC
:1003400085FF15C09FB7F894EE89FF896083E8891F
:10035000F98980818370806480839FBF81E090E011
:10036000DF91CF911F910F91FF90EF900895F62E9E
:100370000B8D10E00F5F1F4F0F731127E02E8C8D38
:100380008E110CC00FB607FCFACFE889F98980817D
:1003900085FFF5CFCE010E946E01F1CFEB8DEC0F02
:1003A000FD2FF11DE35AFF4FF0829FB7F8940B8F9A
:1003B000EA89FB8980818062CFCFCF93DF93EC0104
:1003C000888D8823B9F0AA89BB89E889F9898C913D
:1003D00085FD03C0808186FD0DC00FB607FCF7CFF9
:1003E0008C9185FFF2CF808185FFEDCFCE010E94F9
:1003F0006E01E9CFDF91CF910895833081F028F429
:10040000813099F08230A9F008958730A9F08830C2
:10041000C9F08430B1F4809180008F7D03C0809159
:1004200080008F7780938000089584B58F7784BD96
:10043000089584B58F7DFBCF8091B0008F77809336
:10044000B00008958091B0008F7DF9CFCF93DF93F6
:10045000282F30E0F901E255FF4F8491F901E6566B
:10046000FF4FD491F901EA57FF4FC491CC23A1F07B
:1004700081110E94FD01EC2FF0E0EE0FFF1FE45808
:10048000FF4FA591B491EC91ED2381E090E009F448
:1004900080E0DF91CF91089580E090E0FACF1F9344
:1004A000CF93DF93282F30E0F901E255FF4F84917D
:1004B000F901E656FF4FD491F901EA57FF4FC49175
:1004C000CC23A9F0162F81110E94FD01EC2FF0E042
:1004D000EE0FFF1FEE58FF4FA591B4918FB7F89420
:1004E000EC91111108C0D095DE23DC938FBFDF9112
:1004F000CF911F910895DE2BF8CFCF93DF9390E03B
:10050000FC01E656FF4F24918A579F4FFC018491CE
:100510008823C9F090E0880F991FFC01E859FF4F2C
:10052000A591B491FC01EE58FF4FC591D491611192
:100530000DC09FB7F8948C91209582238C9388816D
:10054000282328839FBFDF91CF910895623051F413
:100550009FB7F8943C91822F809583238C93E881F8
:100560002E2BEFCF8FB7F894EC912E2B2C938FBFBF
:10057000EACF8E3008F08E508770806480937C00C4
:1005800080917A00806480937A0080917A0086FD61
:10059000FCCF809178009091790008953FB7F8944E
:1005A0008091C8029091C902A091CA02B091CB0279
:1005B00026B5A89B05C02F3F19F00196A11DB11DBE
:1005C0003FBFBA2FA92F982F8827BC01CD01620FFA
:1005D000711D811D911D43E0660F771F881F991FB4
:1005E0004A95D1F708958F929F92AF92BF92CF9282
:1005F000DF92EF92FF920E94CE024B015C018AE0F3
:10060000C82ED12CE12CF12C0E94CE026819790958
:100610008A099B09683E734081059105A8F321E092
:10062000C21AD108E108F10888EE880E83E0981E0E
:10063000A11CB11CC114D104E104F10429F7FF90FD
:10064000EF90DF90CF90BF90AF909F908F900895E4
:100650002FB7F8946091C4027091C5028091C602D0
:100660009091C7022FBF089585ED8093BC008091C3
:10067000BC0084FDFCCF1092330308952091A002AA
:10068000260F3327331F21323105ECF42091330339
:10069000FC0190E080E0243069F082E00895A091B0
:1006A000A0022191AC0140585D4FA40FB52FB11DA0
:1006B0002C930196861798F38091A002680F60939F
:1006C000A00280E0089581E008950895E091EC0291
:1006D0008091EB02E81730F4F0E0E351FD4F8081A8
:1006E00090E008958FEF9FEF08959091EC02809134
:1006F000EB022FEF3FEF981748F4E92FF0E0E351BA
:10070000FD4F208130E09F5F9093EC02C901089576
:100710008091EB029091EC02891B990B0895CF9286
:10072000DF92EF92FF920F931F93CF93DF937C01A1
:10073000CB018A0120913403222389F0EB016B0164
:10074000C40ED51ECC15DD0569F06991D701ED9178
:10075000FC910190F081E02DC7010995F3CF642F42
:100760000E943E03C801DF91CF911F910F91FF902E
:10077000EF90DF90CF900895CF93DF931F92CDB786
:10078000DEB76983209134032223F9F020915703C7
:10079000203258F021E030E0FC013383228390E0E6
:1007A00080E00F90DF91CF91089580913503E82F7D
:1007B000F0E0EA5CFC4F998190838F5F8093350372
:1007C0008093570381E090E0ECCF61E0CE01019689
:1007D0000E943E03F7CFCF93DF93EB0191E090931C
:1007E000340398E690935603109235031092570302
:1007F000682F85EF93E00E94BC03688185EF93E04A
:100800000E94BC0381E0DF91CF910C948D0090E0B9
:1008100080E008954115510529F4EAE7F0E0808170
:100820008F7780836A307105B9F0CB01880F991FEB
:10083000880F991F807267706860682B88E10FB617
:10084000F894A895809360000FBE60936000E0E686
:10085000F0E0808180648083232BD9F483B7817F8B
:10086000846083BFF89483B7816083BF85B7806657
:1008700085BF8F7D85BF7894889583B78E7F83BF32
:100880007894452B29F4EAE7F0E080818068808342
:10089000089583B7817F846083BFF89483B78160B4
:1008A00083BF7894889583B78E7F83BF7894E9CF90
:1008B000FC01848195810895FC01848195810895CE
:1008C00008950895CF93DF93EC0188819981DC012D
:1008D000ED91FC910190F081E02D09952A813B81F9
:1008E000820F931F9B838A83DF91CF910895DC0150
:1008F0008D919C91DC01ED91FC910280F381E02DC2
:100900000994EF92FF920F931F93CF93DF93CDB78C
:10091000DEB766970FB6F894DEBF0FBECDBF8C0171
:10092000CB01FE0177969F014AE0E42EF12CB7013E
:100930000E941A1F805D8293CB010097C1F7A90125
:100940004E1B5F0BBF01C8010E947704F801228192
:100950003381820F931F9383828366960FB6F89438
:10096000DEBF0FBECDBFDF91CF911F910F91FF90E2
:10097000EF9008958F929F92AF92BF92CF92DF92A5
:10098000EF92FF920F931F93CF93DF93CDB7DEB714
:1009900066970FB6F894DEBF0FBECDBF7C018E0107
:1009A000095E1F4F68018AE0882E912CA12CB12C82
:1009B000CB01BA01A50194010E942E1F942F852F0F
:1009C000605DF80162938F01A901692F782F4115AD
:1009D00051056105710561F7A6014E1B5F0BBF0153
:1009E000C7010E947704F70122813381820F931F90
:1009F0009383828366960FB6F894DEBF0FBECDBF99
:100A0000DF91CF911F910F91FF90EF90DF90CF90EA
:100A1000BF90AF909F908F900895EF92FF920F93A9
:100A20001F93CF93DF93EC017B0162E20E9462048B
:100A30008701F80161918F01662391F0E8EEF1E002
:100A4000F280FF2049F0329681816813F9CF6CE57E
:100A5000CE010E9462046F2DCE010E946204E9CF94
:100A600062E2CE01DF91CF911F910F91FF90EF9045
:100A70000C9462044F925F926F927F928F929F923A
:100A8000AF92BF92DF92EF92FF920F931F93CF939B
:100A9000DF938C01EB0188818B32D1F18D32C9F566
:100AA0002196EE24E394888190ED980F9A3010F00F
:100AB0008E3289F560E070E0CB01FE012191A0ED5E
:100AC0008A2E820E39E0381508F440C06A3929E9C7
:100AD0007207820729E1920708F04DC0AAE0B0E052
:100AE0009B01AC010E94561F912CB12CA12C24011A
:100AF00035014094509460947094461657066806E9
:100B00007906C8F1680D791D8A1D9B1DEF01D5CFAF
:100B10002196E12CC8CFF801108211821282138233
:100B200014821582168217821086C801DF91CF9138
:100B30001F910F91FF90EF90DF90BF90AF909F902B
:100B40008F907F906F905F904F900895211113C008
:100B5000F80160837183828393830E94EA1DF80108
:100B600064837583868397838AE0E11001C088E0FF
:100B7000F8018087DACFF12CEAE08E2E912CA12C9F
:100B8000B12C61157105F0E88F07910540F0A501C2
:100B900094010E942E1FCA01B901F394F2CFFE0105
:100BA000299130ED320F3A3010F4F394F8CF2E3211
:100BB000F1F4EF012196FE012196208150EDD52E12
:100BC000D20E29E02D1598F06C3C3CEC73073CE00C
:100BD0008307910580F7AAE0B0E09B01AC010E9479
:100BE000561F6D0D711D811D911DFA94E4CF20815A
:100BF0002F7DD0E0C0E0253409F04FC021812D3297
:100C0000A9F53296BB24B394DF01D0E0C0E02F2DCC
:100C10000F2C000C330B4AE0A42EFD01DD9040EDBB
:100C20004D0D4A30A8F5AC9EA001AD9E500D11248B
:100C3000CD2DDD0CDD0BE097C40FD51FAE01420FAB
:100C4000531F473251054CF3BB20B9F080E090E0D0
:100C5000A0E0B0E8E11003C080E090E0DC01F80122
:100C600084839583A683B7838CE083CF2B3219F0DE
:100C70003196B12CC9CF3296FCCF80E090E0A0E84D
:100C8000BFEFE110ECCF80E090E0A0E8BFE7E7CF56
:100C9000BB2019F0D195C195D109208121113BCFFD
:100CA000CF0DD11DF7FCDA950E94EA1D1C161D061A
:100CB000E4F4F12CC0FF0CC024E0F29EF0011124FA
:100CC000EE59FE4F20813181428153810E94A11E45
:100CD000D595C795F394209769F7E1109058F801DE
:100CE0006483758386839783BFCFD195C195D109DE
:100CF000F12C209791F3C0FF0CC024E0F29EF0018C
:100D00001124E65BFE4F20813181428153810E9494
:100D1000A11ED595C795F394ECCFCF92DF92EF92B9
:100D2000FF920F931F93CF93DF93CDB7DEB7299731
:100D30000FB6F894DEBF0FBECDBFFC010281138158
:100D4000FA01309739F084818F77863071F020F482
:100D5000843038F560E014C0883039F08C30D1F739
:100D6000C080D180E280F3802BC080819181A281FC
:100D7000B381682F8F3F9105A105B10509F050F7A8
:100D8000F801608329960FB6F894DEBF0FBECDBF81
:100D9000DF91CF911F910F91FF90EF90DF90CF9057
:100DA000089560817181CE0101960E943A0589857E
:100DB0008830F9F08C3071F6CD80DE80EF80F884D9
:100DC00020E030E0A901C701B6010E949C1E87FD0A
:100DD000C1CF20E030E04FE753E4C701B6010E94E5
:100DE000AF1D18160CF4B6CFC701B6010E94BB1D8B
:100DF000C7CF89819A81AB81BC81BBCF80339CF006
:100E00008A3324F08F3524F08B3724F481E0089561
:100E100081344CF08B35D4F393ED980F81E0923010
:100E2000B0F380E008958B32B9F7F0CFFC018781F1
:100E300081110AC0A481B581CD0101969583848377
:100E40008C91868381E0878386810895FF920F933A
:100E50001F93CF93DF93EC010A811B810E94160739
:100E6000F82E1F82CE010E9416071F82F816A9F1E4
:100E700081110AC061E070E080E090E0DF91CF91E5
:100E80001F910F91FF9008958C35F1F4CE010E94CF
:100E90001607882379F3853729F464E070E080E051
:100EA00090E0ECCFE8EEF1E09081992329F08913EE
:100EB00008C08181811107C062E070E080E090E0AD
:100EC000DDCF3296F1CF1F82EA81FB819F012F5F38
:100ED0003F4F3B832A838083C5CFEA81FB81CF01CB
:100EE00001969B838A83108263E070E080E090E04B
:100EF0000115110519F260E070E0CB01C801BECF09
:100F00001F93CF93DF93EC01162F0E9416078113D6
:100F100006C01F8281E0DF91CF911F91089580E08C
:100F2000FACFCF93DF93EC01CE010E9416078B30EE
:100F30003CF489304CF4882349F090E080E008C00C
:100F40008D3011F08032C9F71F82EECF81E090E042
:100F5000DF91CF910895EF92FF920F931F93CF935C
:100F60008C017B01C0E0D8018C91C817E0F48C2F74
:100F700090E0880F991F1296ED91FC91E80FF91FF0
:100F800080819181009769F0FC0122813381E21612
:100F9000F30639F40190F081E02D0084F185E02D15
:100FA0000995CF5FE0CFCF911F910F91FF90EF9008
:100FB0000895CF93DF93C1E0D4E081E08CA365E294
:100FC00074E08A819B810E94AB070E942803698795
:100FD0007A878B879C871C82DF91CF910895CF936E
:100FE000C82F0E94280360930A0470930B04809317
:100FF0000C0490930D04C093250465E274E0809185
:101000000304909104040E94AB0787E0C33009F009
:1010100086E080930504CF9108950895089508957A
:10102000FC0165A70895FC0166A70895FC0191E005
:10103000611101C090E097A70895FC018081918122
:101040009383828386819781958384838485807846
:10105000806284871186108613861286BF01685FBE
:101060007F4FCF010895FC0180819181892B21F46C
:1010700060E070E0CB01089561E478E090E080E00A
:1010800008950895CF93FC0194819F77983029F0BB
:1010900078F4992359F0963079F4C1E080819181F8
:1010A000A281B381892B8A2B8B2B39F4C0E005C038
:1010B0009A3099F39C3021F0C1E08C2FCF910895A4
:1010C000C1E020E030E0A9016081718182819381DB
:1010D0000E94AF1D8111F1CFE9CFAB01009751F014
:1010E000FC01248126FF06C0382F292F632F722F81
:1010F000CA01089530E020E0F9CFCF93DF93DC01FF
:10110000EB01EC81FD818A819B810896E817F90744
:1011100030F4F0E0E0E0CF01DF91CF91089538970F
:10112000FD83EC833097A9F31296CD91DC91139750
:10113000209791F0CF018C1B9D0B23E0959587950F
:101140002A95E1F78D831396FC93EE9312971582FF
:10115000148217821682DFCF1196FC93EE93F3CFA1
:10116000FC011182108281E0828314821382168234
:1011700015824115510591F0DA0116962D913C9199
:10118000179714968C918095881F8827881F318324
:101190002083828354834383768365830895FC018F
:1011A0002581222339F0F8E02F0290011124820FCB
:1011B000931F089590E080E00895CF92DF92FF9210
:1011C0000F931F93CF93DF938C01CA010E946D0888
:1011D00061157105B1F0FB01C081D181F12C20971F
:1011E00081F0F801C280D380CF0CD11CCE010E94C7
:1011F0004208F6018083F394CE010E94CF08EC01EF
:10120000EECFDF91CF911F910F91FF90DF90CF90A4
:1012100008954F925F926F927F92BF92CF92DF922A
:10122000EF92FF920F931F93CF93DF93CDB7DEB76B
:1012300029970FB6F894DEBF0FBECDBF6C01CA016F
:101240000E946D086115710509F482C0FB010081DF
:101250001181B12C0115110509F47AC0EB2CF12C88
:10126000EE0CFF1CF60182819381E80EF91EF80155
:1012700084818F77863069F028F4843068F570E0D7
:1012800060E021C08A3091F08C3009F45CC0883075
:10129000B1F7F80180819181A281B3818115F0E8D5
:1012A0009F07A105B10558F7BC010DC08081918150
:1012B000A281B38166277727681B790B813090481C
:1012C000A105B105E0F6F70171836083B394C8010D
:1012D0000E94CF088C01BECF60817181CE01019642
:1012E0000E943A0589819A81AB81BC8129852A3087
:1012F00009F32C3051F0283011F6811520E89207BF
:10130000A105B10508F0BBCFCFCF4D805E806F80C7
:10131000788420E030E040E057ECC301B2010E9445
:101320009C1E87FDACCF20E03EEF4FEF56E4C3019B
:10133000B2010E94AF1D18160CF4A1CFC301B20177
:101340000E94B41DC0CF4080518062807380E1CF85
:1013500029960FB6F894DEBF0FBECDBFDF91CF91B7
:101360001F910F91FF90EF90DF90CF90BF907F90F3
:101370006F905F904F900895CF92DF92FF920F93FE
:101380001F93CF93DF938C01CA010E946D086115F2
:101390007105B1F0FB01C081D181F12C209781F062
:1013A000F801C280D380CF0CD11CCE010E9442082C
:1013B000F6018083F394CE010E94CF08EC01EECFBA
:1013C000DF91CF911F910F91FF90DF90CF90089503
:1013D000EF92FF920F931F93CF93DF93EC018B015A
:1013E0007A01892B29F18C81982F9F7739F48078A5
:1013F00080648C83198218821B821A828C8186FFFA
:1014000017C088819981009741F00115110591F06D
:101410000E94CF0801501109F6CF015011090E3F6B
:101420002FEF120739F0B701CE010E947D08F5CFEA
:1014300090E080E0DF91CF911F910F91FF90EF90AE
:101440000895CF93DF93EC0181E08093340388E625
:1014500080935603109235031092570385EF93E063
:101460000E94BC0381E00E948D00809133038111B2
:10147000FCCF81E080933303809332039FEF9093FE
:1014800031031092300310922F0380930E0380914A
:101490000E03806D80930E0380910D03813059F50A
:1014A00010920D0380910E038093BB008091BC00CD
:1014B00083FDF8CF85EC8093BC00809133038130AD
:1014C000E1F38091300391E0811102C090913003EB
:1014D000AFE0B3E0EDEEF2E080E089130EC01092D1
:1014E000EC028093EB0285EF93E00E947503888302
:1014F000DF91CF91089585EEDECF2D9121938F5FFF
:10150000ECCFCF93DF93C0910104D0910204888186
:10151000882381F081E0898380912404813089F4DB
:1015200080912E04813059F484E080930504DF918A
:10153000CF91089561E080E10E944F02EBCF85E0FA
:10154000F4CF83E0F2CF0F931F93CF93DF93EC019F
:101550008B01CB010E94841F080F191F009711F403
:1015600010E000E09A8389839C838B831E830D8324
:1015700018870F838D8580788D87DF91CF911F919C
:101580000F9108950C9420200C9420200C9420207E
:101590000C942020FC0181819281009711F00C9421
:1015A0002020089542E050E069EF71E088E593E083
:1015B0000C94F000CF93DF93EC01FB01019000202D
:1015C000E9F73197AF01461B570B0E9477042A8138
:1015D0003B81820F931F9B838A83DF91CF91089574
:1015E0002F923F924F925F926F927F928F929F9233
:1015F000AF92BF92CF92DF92EF92FF920F931F9321
:10160000CF93DF93CDB7DEB76A970FB6F894DEBFFE
:101610000FBECDBF8C014B01DC0114968C91149749
:101620008F77863009F46BC2C8F4823000F18430C1
:1016300008F04BC2F8014281538160817181C4017D
:101640000E947704D40112962D913C911397820F3A
:10165000931F13969C938E931297EBC18C3051F18C
:1016600048F4883009F446C28A3009F434C26CEF79
:1016700071E052C2803209F403C28034C1F76BE5D5
:10168000C4010E946204F801008111810115110555
:1016900009F4F1C1B401C8010E94F00AC8010E9416
:1016A000CF088C01892B09F4E6C16CE2C4010E94C9
:1016B0006204ECCFF8014080518062807380A30106
:1016C0009201C301B2010E94AF1D8111D0CF20E071
:1016D00030E0A901C301B2010E94AF1D882379F057
:1016E000A3019201C301B2010E94431D9B01AC0101
:1016F000C301B2010E94AF1D882309F4B8CF20E0D6
:1017000030E0A901C301B2010E94AF1D87FF08C0EC
:101710006DE2C4010E94620477FA709477F87094C5
:1017200020E836E948E15BE4C301B2010E949C1E57
:1017300087FD79C04AE7E42E41E0F42E5AE4C52E35
:1017400051E0D52E62E6A62E61E0B62E00E210E052
:10175000312C212CD7015E914E913E912E917D012D
:10176000C301B2010E949C1E87FD0DC0F6012489B1
:10177000358946895789C301B2010E94A11E2B01F8
:101780003C01200E311E15950795F4E0CF1AD108C3
:10179000AE14BF04F9F68FEF8B8B20E030E0A90187
:1017A000C301B2010E949C1E18160CF043C02CEA23
:1017B00035EC47E257E3C301B2010E94AF1D181692
:1017C000CCF1AB89B4E0AB0250011124D12CC12C77
:1017D000EB89EF3F79F17501EC0CFD1CF701EE5C34
:1017E000FE4FA301920160817181828193810E94E9
:1017F0009C1E18167CF4F701EE59FE4F20813181B2
:1018000042815381C301B2010E94A11E2B013C0100
:10181000201A310A15950795FB89F150FB8B84E05E
:10182000C81AD108D5CF00E210E095E09B8B312C8F
:10183000212CB3CFC301B2010E94BB1D6B8B7C8BEB
:101840008D8B9E8B6B017C0116E080E492E4AFE00F
:10185000B0E08F8B988FA98FBA8F012F11509AE02B
:10186000C916D104E104F104C8F06F89788D898D1F
:101870009A8D2AE030E040E050E00E942E1F2F8B2E
:10188000388F498F5A8FC701B6012AE030E040E017
:1018900050E00E942E1F69017A01DFCF6B897C899D
:1018A0008D899E890E94EA1D9B01AC01C301B20192
:1018B0000E94421D6B017C016F89788D898D9A8D04
:1018C0000E94EA1D9B01AC01C701B6010E94A11E46
:1018D0002B013C010E94BB1D6B017C010E94EA1D93
:1018E0009B01AC01C301B2010E94421D9B01AC01EE
:1018F0000E94431D0E94BB1DC60ED71EE81EF91E86
:101900008F89988DA98DBA8DC816D906EA06FB066F
:1019100000F18B899C89AD89BE890196A11DB11DFD
:101920008B8B9C8BAD8BBE8B2114310439F10A97C4
:10193000A105B10518F19FEF291A390AC12CD12C44
:10194000760181E090E0A0E0B0E08B8B9C8BAD8BCA
:10195000BE8B9AE0492E512C612C712CC701B60127
:10196000A30192010E942E1F672B682B692B51F453
:10197000101644F469017A010150F0CFC12CD12C2A
:101980007601E7CF4B895C896D897E89C4010E940D
:10199000BA04002309F43FC05E0191E1A90EB11C15
:1019A000102FBA8AA98A8AE0482E512C612C712CFA
:1019B000115068F0C701B601A30192010E942E1FC9
:1019C000605DD5016E935D0169017A01F1CF802FD1
:1019D00090E0BC0160957095E989FA89E81BF90BE4
:1019E00031978EE2808344275527461B570BE1E150
:1019F000F0E0EC0FFD1F6E0F7F1FC4010E94770403
:101A0000D40112962D913C911397820F931F139638
:101A10009C938E93129737FE25C061E072E0C4015B
:101A20000E94DA0A6627772762197309C4010E94A7
:101A300081046A960FB6F894DEBF0FBECDBFDF916A
:101A4000CF911F910F91FF90EF90DF90CF90BF90BB
:101A5000AF909F908F907F906F905F904F903F904E
:101A60002F9008952114310421F365E6C4010E94EA
:101A70006204B101DBCF6DE5C4010E946204D9CFDD
:101A80006BE7C4010E946204D8010D911C910115FD
:101A90001105C9F0F80166817781C4010E940D0526
:101AA0006AE3C4010E946204B401C8010E94F00A02
:101AB000C8010E94CF088C01892B29F06CE2C40177
:101AC0000E946204E4CF6DE7D7CF6D917C91C40191
:101AD0000E940D05AECFF801C080D180E280F38076
:101AE0006DE2C4010E946204B701A601C4010E9414
:101AF000BA049FCF4D915D916D917C91F7CFF80124
:101B000080819181A281B38164E072E0892B8A2B6C
:101B10008B2B11F469E072E0C4010E94DA0A89CFCC
:101B2000CF93DF9300D000D0CDB7DEB77A8369833F
:101B30001C821B82BE016F5F7F4F09960E94F00AD4
:101B40008B819C810F900F900F900F90DF91CF9120
:101B500008950F931F93CF93DF938B01EC01892B93
:101B6000A1F06E817F816017710779F00115110571
:101B700041F06115710529F0C8010E94A920892B47
:101B800021F0CE010E94CF08E9CFCE01DF91CF91A5
:101B90001F910F9108958F929F92AF92BF92CF9213
:101BA000DF92EF92FF920F931F93CF93DF93CDB706
:101BB000DEB7CB54D1090FB6F894DEBF0FBECDBF50
:101BC0008C017B01D42E0E9491072C969FAF8EAF83
:101BD0002C97CE01865B9F4F0E943308672B09F03C
:101BE00099C080FD97C0C8010E941607873209F48A
:101BF0008BC114F5823209F487C1C8010E9416070F
:101C0000C82ECE0101964C01D12C5C018C2D0E9476
:101C1000FE06882309F492C19FE3D91609F48EC108
:101C2000D80117961C92D394F401C1924F01C801B8
:101C30000E941607C82EEACF8B3509F485C08B3772
:101C4000E1F6F701848180788062848311821082BA
:101C500013821282DD2009F455C1D80117961C9217
:101C6000C8010E9491079A838983CE0101960E9440
:101C70003308672B09F0B4C080FDB2C06DE7C8011E
:101C80000E9480078111B7C0DA94C8010E9416072C
:101C9000873209F4BAC0823209F4B7C0F8018280F1
:101CA0009380C8010E941607A82E0E94FE0622E01B
:101CB00030E0882361F1D80117961C92179712968D
:101CC000ED91FC911397CF01019613969C938E93FF
:101CD0001297A082C8010E941607A82E0E94FE0635
:101CE0008111E9CFD8011296ED91FC911397CF01A4
:101CF000019613969C938E931297108223E030E006
:101D00008114910421F0B82CC92C30E020E09B2CE8
:101D1000AC2C83C02B968FAD2B972C969FAD2C9718
:101D2000C55BDF4F0FB6F894DEBF0FBECDBFDF91AE
:101D3000CF911F910F91FF90EF90DF90CF90BF90C8
:101D4000AF909F908F900895D70114968C9114971F
:101D50008078806414968C93149711961C921E922E
:101D600013961C921E921297DD2009F4CBC0F80145
:101D70001782C8010E9491079A838983CE01019638
:101D80000E943308672B61F580FD2AC06DE5C8010C
:101D90000E94800781112FC0DA94D8016D917C9147
:101DA000C7010E947D08009709F4A9C04D2DBC0110
:101DB000C8010E94CB0D9A838983CE0101960E94AF
:101DC0003308672B69F480FD0BC0C8010E9491079E
:101DD0009A838983CE0101960E943308672B19F0FC
:101DE00089819A819DCF80FDFBCF6DE5C8010E945E
:101DF0008007882311F080E083C06CE2C8010E9454
:101E000080078111CACF82E07BC0C8010E942607EB
:101E10009B019B2CAC2CB82EC92E3A832983CE0172
:101E200001960E943308672BD9F680FDD9CFC801EF
:101E30000E9491079A838983CE0101960E943308FC
:101E4000672B71F680FDCCCF6AE3C8010E94800742
:101E50008823C9F26B2D7C2DF701808191810E942E
:101E6000A90DBC01892B81F4D8016D917C91C7012A
:101E70000E947D08FC01892B09F441C0848180689F
:101E80008483B682C782BF014D2DC8010E94CB0D4D
:101E90009A838983CE0101960E943308672B09F04B
:101EA0009FCF80FD9DCFC8010E9491079A838983AF
:101EB000CE0101960E943308672B09F091CF80FD77
:101EC0008FCF6DE7C8010E948007811194CF6CE22B
:101ED000C8010E948007882309F495CFC8010E9499
:101EE00091079A838983CE0101960E943308672B5C
:101EF00009F076CF80FD74CFB92CCA2CC6CE83E012
:101F000090E00ECF85E0FCCFC8010E9426076983D0
:101F10007A838B839C83CE0101960E943308672BC2
:101F200009F05ECF80FD5CCF2B813C81F70184817D
:101F3000807885608483318320835DCFF501ED0D4A
:101F4000F11D108289818437B9F4D70114968C91E0
:101F500014978078866014968C9381E090E0A0E0DE
:101F6000B0E0F70180839183A283B38390E0F4E033
:101F7000DF12D6CE80E0D4CE863689F4D70114960F
:101F80008C9114978078866014968C93F701108258
:101F900011821282138281E090E0F5E0E9CF8E3663
:101FA00031F481E090E024E0D212BACEE3CFB50163
:101FB000CE018F5B9F4F0E943A0525964CAD5DADDB
:101FC0006EAD7FAD25972A968FAD2A978A3061F046
:101FD0008C30C1F0883009F016CFD70114968C915F
:101FE00014978078886006C0D70114968C91149756
:101FF00080788A6014968C93F701408351836283C2
:102000007383F9CE29964CAD5DAD6EAD7FAD29974A
:10201000D70114968C91149780788C6014968C93C9
:10202000F7014083518362837383E5CEEF92FF9281
:102030000F931F93CF93DF93009701F16115710503
:10204000E9F07A01EB018C01FC01808191810E9411
:10205000A90D009761F4B701C8010E947D0800979F
:1020600031F0FC0124812F772483D783C683DF914D
:10207000CF911F910F91FF90EF90089590E080E035
:10208000F6CF4F925F926F927F92AF92BF92CF92B4
:10209000DF92EF92FF920F931F93CF93DF9300D0C5
:1020A00000D000D01F92CDB7DEB76C012A013B01F2
:1020B00010E000E0F601E280F38064817581C201E6
:1020C0004A825B826C827D82AC80BD80A5010E94C9
:1020D0001610A501B8010E94E809FC01892B79F0CE
:1020E000D701A00FB11F8C91948190789660948352
:1020F00090E0B0E0A0E080839183A283B3830F5F80
:102100001F4F06301105B1F627960FB6F894DEBFC3
:102110000FBECDBFDF91CF911F910F91FF90EF9038
:10212000DF90CF90BF90AF907F906F905F904F9077
:1021300008954F925F926F927F92AF92BF92CF922B
:10214000DF92EF92FF920F931F93CF93DF9300D014
:1021500000D000D01F92CDB7DEB76C012A013B0141
:1021600010E000E0D6011296ED90FC9013971496C3
:102170006D917C91C2014A825B826C827D82AC80CF
:10218000BD80A5010E941610A501B8010E94E809B2
:10219000FC01892BB9F0C801880F991FE80EF91EC0
:1021A000D7012D913C91A901032E000C660B770BF2
:1021B0009481907837FD20C0986094834083518348
:1021C000628373830F5F1F4F0430110559F6279602
:1021D0000FB6F894DEBF0FBECDBFDF91CF911F9138
:1021E0000F91FF90EF90DF90CF90BF90AF907F90D6
:1021F0006F905F904F9008959A609483709560956A
:10220000509541955F4F6F4F7F4FD8CF4F925F9260
:102210006F927F92AF92BF92CF92DF92EF92FF9236
:102220000F931F93CF93DF93CDB7DEB765970FB6AC
:10223000F894DEBF0FBECDBF7C01DC0116966C9119
:1022400070E06F5F7F4F33E0660F771F3A95E1F7DD
:10225000CE0101960E94A30ACE0102960E941D089B
:102260002B013C0110E000E0F701C280D3806481C3
:102270007581C201488A598A6A8A7B8AAA88BB8882
:10228000A5010E941610A501B8010E94E809FC01F1
:10229000892BB9F0C801880F991FC80ED91ED60125
:1022A0002D913C91A901032E000C660B770B9481B4
:1022B000907837FD2CC0986094834083518362836B
:1022C00073830F5F1F4F0430110571F668E573E0EB
:1022D000CE0101960E94900D0E94D20ACE01019675
:1022E0000E94CA0A65960FB6F894DEBF0FBECDBF36
:1022F000DF91CF911F910F91FF90EF90DF90CF90E2
:10230000BF90AF907F906F905F904F9008959A60CC
:10231000948370956095509541955F4F6F4F7F4FB7
:10232000CCCFCF93DF93FC01DB01CA01C281D38103
:1023300064817581AD010E941610FC01892B61F04A
:102340008881948190789860948390E0B0E0A0E0D8
:1023500080839183A283B383DF91CF9108954F92BD
:102360005F926F927F92AF92BF92CF92DF92EF9285
:10237000FF920F931F93CF93DF9300D000D000D034
:102380001F92CDB7DEB76C012A013B0110E000E0DF
:10239000F601E280F38064817581C2014A825B822A
:1023A0006C827D82AC80BD80A5010E941610A501C3
:1023B000B8010E94E809FC01892B79F0D701A00F30
:1023C000B11F8C91948190789660948390E0B0E0F6
:1023D000A0E080839183A283B3830F5F1F4F0330FC
:1023E0001105B1F627960FB6F894DEBF0FBECDBF2C
:1023F000DF91CF911F910F91FF90EF90DF90CF90E1
:10240000BF90AF907F906F905F904F9008954F92E4
:102410005F926F927F92AF92BF92CF92DF92EF92D4
:10242000FF920F931F93CF93DF93CDB7DEB76597DE
:102430000FB6F894DEBF0FBECDBF8C01FC016681E4
:1024400070E06F5F7F4F83E0660F771F8A95E1F73B
:10245000CE0101960E94A30ACE0102960E941D0899
:102460002B013C01F12CE12CF801C280D380648166
:102470007581C201488A598A6A8A7B8AAA88BB8880
:10248000A5010E941610A501B7010E94E809FC01F0
:10249000892B79F0D601AE0DBF1D8C919481907877
:1024A0009660948390E0B0E0A0E080839183A28363
:1024B000B383FFEFEF1AFF0A83E0E816F104A1F6F9
:1024C00068E573E0CE0101960E94900D0E94D20A49
:1024D000CE0101960E94CA0A65960FB6F894DEBF37
:1024E0000FBECDBFDF91CF911F910F91FF90EF9065
:1024F000DF90CF90BF90AF907F906F905F904F90A4
:1025000008954F925F926F927F92AF92BF92CF9257
:10251000DF92EF92FF920F931F93CF93DF93CDB78C
:10252000DEB765970FB6F894DEBF0FBECDBF8C0146
:10253000FC01668170E06F5F7F4F83E0660F771F5D
:102540008A95E1F7CE0101960E94A30ACE01029678
:102550000E941D082B013C01F12CE12CF801C280E6
:10256000D38064817581C201488A598A6A8A7B8ACC
:10257000AA88BB88A5010E941610A501B7010E9478
:10258000E809FC01892B79F0D601AE0DBF1D8C91B5
:10259000948190789660948390E0B0E0A0E080838E
:1025A0009183A283B383FFEFEF1AFF0A86E0E81658
:1025B000F104A1F668E573E0CE0101960E94900D4A
:1025C0000E94D20ACE0101960E94CA0A65960FB6F1
:1025D000F894DEBF0FBECDBFDF91CF911F910F9159
:1025E000FF90EF90DF90CF90BF90AF907F906F9073
:1025F0005F904F900895CF92DF92EF92FF920F93EA
:102600001F93CF93DF93CDB7DEB769970FB6F894DA
:10261000DEBF0FBECDBF7C01CE010E969A838983AB
:102620009C838B838E010A5E1F4F1E830D83188748
:102630000F838D8580788D87CE0101960E941D08BD
:10264000DC01CB01F701C280D38064817581AD01CB
:102650000E941610FC01892B69F0D6018C9194819F
:1026600090789860948390E0B0E0A0E080839183BC
:10267000A283B38388E593E09F8B8E8B198E188E8F
:10268000B801CE0109960E94F00A0E94D20A69960A
:102690000FB6F894DEBF0FBECDBFDF91CF911F9173
:1026A0000F91FF90EF90DF90CF9008951F920F92BF
:1026B0000FB60F9211242F933F934F935F936F9315
:1026C0007F938F939F93AF93BF93EF93FF9388E58F
:1026D00093E00E946E01FF91EF91BF91AF919F91A6
:1026E0008F917F916F915F914F913F912F910F90BB
:1026F0000FBE0F901F9018951F920F920FB60F925A
:1027000011242F938F939F93EF93FF93E09168038E
:10271000F09169038081E0916E03F0916F0382FD77
:102720001BC09081809171038F5F8F732091720322
:10273000821741F0E0917103F0E0E85AFC4F958F69
:1027400080937103FF91EF919F918F912F910F9043
:102750000FBE0F901F9018958081F4CF1F920F929B
:102760000FB60F9211242F933F938F939F93AF93A4
:10277000BF938091C4029091C502A091C602B0910E
:10278000C7023091C30226E0230F2D3758F5029679
:10279000A11DB11D2093C3028093C4029093C50272
:1027A000A093C602B093C7028091C8029091C9025B
:1027B000A091CA02B091CB020196A11DB11D8093D8
:1027C000C8029093C902A093CA02B093CB02BF91F2
:1027D000AF919F918F913F912F910F900FBE0F90CE
:1027E0001F90189529E8230F0396A11DB11DD2CF84
:1027F0001F920F920FB60F9211242F933F934F9376
:102800005F936F937F938F939F93AF93BF93EF9358
:10281000FF93E0910201F09103010995FF91EF917F
:10282000BF91AF919F918F917F916F915F914F91E8
:102830003F912F910F900FBE0F901F9018951F92F0
:102840000F920FB60F9211242F933F934F935F93E4
:102850006F937F938F939F93AF93BF93EF93FF9368
:10286000E0910001F09101010995FF91EF91BF9175
:10287000AF919F918F917F916F915F914F913F9118
:102880002F910F900FBE0F901F9018951F920F92CF
:102890000FB60F9211242F933F934F935F936F9333
:1028A0007F938F939F93AF93BF93EF93FF93809109
:1028B000B900887F803609F44AC0F0F5883209F4FF
:1028C000A5C018F5803109F499C0B8F4882309F43B
:1028D000F5C0883009F492C0FF91EF91BF91AF919C
:1028E0009F918F917F916F915F914F913F912F9128
:1028F0000F900FBE0F901F901895883109F486C075
:10290000803251F78093310314C0803409F49BC0A6
:1029100040F48033B9F38833F9F68093310385ECC2
:10292000AEC0803509F483C0883509F494C088347A
:1029300099F60E943403D0CF883909F48AC038F55B
:10294000883729F050F4883611F0803729F683E073
:10295000809333031092C20255C0883809F479C0BD
:10296000803919F0803809F0B7CF8091C2028032E7
:1029700008F06FC0E091C20281E08E0F8093C20226
:102980008091BB00F0E0EE55FD4F80833BC0803B63
:1029900039F0D0F4803A09F477C0883A09F09CCF36
:1029A00084E0809333031092A1021092A002F0E021
:1029B000E0E009958091A00281110FC081E0809331
:1029C000A0021092800209C0803C09F4A8CF883C84
:1029D00009F4A5CF883B09F07FCFE091A10281E007
:1029E0008E0F8093A102F0E0E058FD4F808180932C
:1029F000BB009091A1028091A00229C080910E039A
:102A00008093BB0085EC8093BC0066CF909130032F
:102A100080912F03981758F5E091300381E08E0FD5
:102A200080933003F0E0E15FFC4F8081E9CFE091DB
:102A3000300381E08E0F809330038091BB00F0E083
:102A4000E15FFC4F80839091300380912F039817B2
:102A5000C8F285E8D8CFE091300381E08E0F8093F3
:102A600030038091BB00F0E0E15FFC4F80838091F8
:102A7000320381115ECF81E080930D0384EA80935D
:102A8000BC001092330328CF85EC8093BC001092D9
:102A900033038091C202803230F4E091C202F0E050
:102AA000EE55FD4F10826091C20270E082EA92E022
:102AB000F0E0E0E009951092C2020ECF10923103CF
:102AC00038CF1F920F920FB60F9211248F930FB62B
:102AD000F894A895809160008861809360001092BE
:102AE00060000FBE8F910F900FBE0F901F90189532
:102AF000BF92CF92DF92EF92FF920F931F93CF93EB
:102B0000DF93EC016B017A01B980BB20F1F08B2DD2
:102B100090E00196880F991F0E94841F8C018C8180
:102B20009D81F80120E0DF01A01BB10BA80FB91FA8
:102B30004D915C91419351932F5FB212F4CF009766
:102B400011F00E9420201D830C8386E090E00E94FB
:102B5000841FFC0186E291E091838083D382C2824C
:102B6000F582E4829981292F30E0220F331FAC8156
:102B7000BD81A20FB31FED93FC939F5F9983DF91FB
:102B8000CF911F910F91FF90EF90DF90CF90BF906A
:102B90000895BF92CF92DF92EF92FF920F931F930F
:102BA000CF93DF93EC016B017A01B880BB20F1F089
:102BB0008B2D90E00196880F991F0E94841F8C0135
:102BC0008A819B81F80120E0DF01A01BB10BA80FD7
:102BD000B91F4D915C91419351932F5FB212F4CF85
:102BE000009711F00E9420201B830A8386E090E06A
:102BF0000E94841FFC0186E291E091838083D3824E
:102C0000C282F582E4829881292F30E0220F331F9F
:102C1000AA81BB81A20FB31FED93FC939F5F9883A2
:102C2000DF91CF911F910F91FF90EF90DF90CF90A8
:102C3000BF900895CF92DF92EF92FF920F931F9370
:102C4000CF93DF9310925B0310925A0388EE93E0C8
:102C5000A0E0B0E080935C0390935D03A0935E03DB
:102C6000B0935F0328E931E0309359032093580370
:102C700025EC30E0309365032093640324EC30E0CE
:102C8000309367032093660320EC30E030936903B0
:102C90002093680321EC30E030936B0320936A03A8
:102CA00022EC30E030936D0320936C0326EC30E08F
:102CB00030936F0320936E0310927103109272038E
:102CC00010927303109274031092F8031092F7039A
:102CD0008093F9039093FA03A093FB03B093FC0352
:102CE0008AEA91E09093F6038093F50310925904D9
:102CF00010925D0410925C0410925A0410925B04CE
:102D000061E080E10E947D0280915904882309F4EA
:102D100010C110925A0461E084E00E947D0280910B
:102D20005904882309F40AC110925B0461E081E12F
:102D30000E947D0260E081E10E944F0260E087E036
:102D40000E947D0260E083E00E947D0260E082E0FC
:102D50000E947D0210924E04109254041092560468
:102D600080E490E0909358048093570482E090E0D0
:102D70000E94841F8C019093500480934F0482E042
:102D800090E00E94841F909352048093510489E53F
:102D900094E090930204809301048DE494E0909376
:102DA000040480930304E6E0FE2EF092130484E012
:102DB0008093140483E080931504F6E1CF2EF4E0B1
:102DC000DF2ED601EF2D1D92EA95E9F7ECE1F4E054
:102DD00088E0DF011D928A95E9F71092280410928D
:102DE000290410922A0481E090E0909332048093A9
:102DF0003104109234041092330488E1EAE0F1E0E7
:102E0000A5E3B4E001900D928A95E1F787E090E0A8
:102E10000E94841FEC018CED91E099838883DB8212
:102E2000CA828FE092E09D838C83FE82F801D18379
:102E3000C08381E080934D04F09253048093550445
:102E400084E090E00E94841F7C01DC01CD93DC9340
:102E50000115110519F0C8010E942020F0925004BC
:102E6000E0924F0487E090E00E94841FFC018CEC0C
:102E700091E0918380838CE194E09383828383E16A
:102E800092E09583848384E08683D7011396FC9334
:102E9000EE93129782E080934D04809355044AE1AB
:102EA00052E064E274E08DE494E00E94C9154FE1C1
:102EB00052E065E274E080910304909104040E9462
:102EC000C91543E252E066E274E0809103049091F8
:102ED00004040E94C91548E252E067E274E0809160
:102EE0000304909104040E94C915C0910304D09179
:102EF00004048981882379F190E00196880F991F55
:102F00000E94841F8C014C815D8190E0898198171B
:102F1000D0F4292F30E0220F331FFA01E20FF31F04
:102F200060817181200F311FF901718360839F5F80
:102F3000EDCF60E080E10E944F02EBCE60E084E0E4
:102F40000E944F02F1CE4115510519F0CA010E94AD
:102F500020201D830C8387E090E00E94841FFC01E9
:102F60008CEB91E09183808388E294E09383828369
:102F70008DE292E09583848393E096838981282F64
:102F800030E0220F331FAC81BD81A20FB31FED9340
:102F9000FC938F5F89838F81833008F49F838985B9
:102FA0008F5F898741E352E06BE274E08091030414
:102FB000909104040E94781548E252E06CE274E0BB
:102FC00080910304909104040E94781547E352E035
:102FD0006DE274E08091030490910404DF91CF913D
:102FE0001F910F91FF90EF90DF90CF900C94781588
:102FF000CF93DF93CDB7DEB7A8970FB6F894DEBFB7
:103000000FBECDBF789484B5826084BD84B58160E5
:1030100084BD85B5826085BD85B5816085BD8091A3
:103020006E00816080936E0010928100809181001B
:103030008260809381008091810081608093810013
:10304000809180008160809380008091B1008460D5
:103050008093B1008091B00081608093B000809136
:103060007A00846080937A0080917A0082608093F5
:103070007A0080917A008E7F80937A0080917A0026
:10308000806880937A001092C100E0916803F0910B
:10309000690382E08083E0916403F091650310820C
:1030A000E0916603F091670387E6808310927003D6
:1030B000E0916C03F0916D0386E08083E0916A03F8
:1030C000F0916B03808180618083E0916A03F091CD
:1030D0006B03808188608083E0916A03F0916B03C9
:1030E000808180688083E0916A03F0916B03808126
:1030F0008F7D808380915904882309F475C01092D4
:103100005A0480915904882309F473C010925B0417
:1031100062E082E00E947D020BE711E077E1E72E9A
:1031200074E0F72EE0E8AE2EE1E0BE2ED801DD908F
:103130008D0160E08D2D0E947D028D2D0E94260262
:1031400021E0892B09F420E0F70121937F01A016EB
:10315000B10661F761E087E00E947D0260E087E0F0
:103160000E944F0261E08AE00E947D0260E08AE0F6
:103170000E944F0261E08DE00E947D0260E08DE0E0
:103180000E944F026FE0CE0101960E94210A8981C0
:10319000886388A7BE01685D7F4F8FE00E94EB03C4
:1031A00060E0CE0101960E94210A1FA2BE01695D66
:1031B0007F4F81E00E94EB035E01F2E0AF0EB11C95
:1031C00077247394E0910504E83008F088C0F0E0BB
:1031D000E451F74E0C94501FFE1835196F19701AF0
:1031E0009A1ACD1AAC1ADB1A60E080E10E944F02F5
:1031F00086CF60E084E00E944F0288CF00910104F6
:1032000010910204D8018C91882309F442C11196CF
:103210008C91119790E013967C92181619060CF079
:103220003CC1F801738270921204C0900A04D090DD
:103230000B04E0900C04F0900D04F0E3CF0EF5E7E2
:10324000DF1EE11CF11C0E9428036C157D058E0514
:103250009F0558F484E08093250465E274E0809132
:103260000304909104040E94AB078AEE90E09093CF
:1032700003018093020180916900837F88608093BD
:103280006900E99A8BEE90E0909301018093000130
:10329000809169008C7F826080936900E89A30E0B9
:1032A00020E050E040E06AE070E0809101049091FD
:1032B00002040E940A04E9988FEE90E090930301C3
:1032C00080930201E89890930101809300010E948D
:1032D000F302809130048111F6C01092240452ED63
:1032E000C52E52E0D52E6CECE62E62E0F62E10E0F4
:1032F00000E00E942803D6012D913D914D915C91F3
:10330000621773078407950738F40E942803F601B3
:103310006083718382839383D6012D903D904D907D
:103320005C90BAE02B0E311C411C511C0E942803FA
:10333000621573058405950588F0F801E658FE4F7F
:1033400080810E942602F801EF5FFB4FD7019C911C
:103350002589821351C1913009F41C920F5F1F4FD0
:10336000B4E0CB0ED11CEFEFEE1AFE0A06301105C9
:1033700009F0BFCFBCE1EB2EB4E0FB2E9E012F5F26
:103380003F4F690100E010E8812E11E0912E86E0A8
:10339000682E102F110F180D812F0E94B902812F56
:1033A0000E94B902A6E05A2E0E94F302812F0E94C9
:1033B000B9025A945110F8CF662D0E940E1F90E06A
:1033C000D7012D913D917D01F601419151916F0100
:1033D000BC01621B730B9B0177FF03C031952195E4
:1033E00031094217530724F4F70132979183808300
:1033F0000F5F043071F66091280487E00E944F024D
:10340000609129048AE00E944F0260912A048DE0B5
:103410000E944F0200910304109104042DB63EB6A1
:10342000D8011A968D919C91EDB7FEB7E81BF90B68
:103430000FB6F894FEBF0FBEEDBF2DB73EB72F5F9E
:103440003F4F6901F2E04F2E512C88E593E00E9436
:103450004E01181619060CF0F6C188E593E00E949B
:103460002C019091EA02F601E90FF11D8A3009F46E
:1034700019C1808381E0890F8093EA02D8011A96EE
:103480002D913C918217130604F321502093EA02F8
:10349000DCCF87E00E942602C0CE10921204009179
:1034A000010410910204D8018C91882329F011960F
:1034B0001C9270920504B9CE60E080E10E944F0238
:1034C000F8011182F6CF0E94280360930E047093D6
:1034D0000F0480931004909311040E94810AFFCE80
:1034E00080912E04813021F080912D04813059F497
:1034F0007092240464E274E08091030490910404C7
:103500000E94AB07ECCEC0900E04D0900F04E09068
:103510001004F090110420E3C20E25E7D21EE11C36
:10352000F11C0E9428036C157D058E059F0510F483
:103530000E94D90780912E04811107C080912F0429
:10354000813019F482E00E94EF07809130048111EC
:1035500003C083E00E94EF07C0900A04D0900B04E0
:10356000E0900C04F0900D0430E3C30E35E7D31E59
:10357000E11CF11C0E9428036C157D058E059F053A
:1035800010F40E94D90780912E04813021F080919F
:103590002D04813011F40E94810A80913004811140
:1035A00003C082E00E94EF0780912E04813019F45D
:1035B00084E080930504C0900A04D0900B04E0904E
:1035C0000C04F0900D0440E3C40E45E7D41EE11C4A
:1035D000F11C0E9428036C157D058E059F0510F4D3
:1035E0000E94D90780913004811177CF80912D04FA
:1035F000813009F074CE71CF913009F048C01C922F
:1036000061E0811101C060E0658BF801EE0FFF1FE2
:10361000EE0FFF1FEF5FFB4F26A937A9C901959554
:1036200087958F5F9B4F04A8F5A9E02D20FF08C068
:10363000DC012D913C91E20FF31F0190F081E02D10
:1036400009958090030490900404612CF40180811A
:103650006816F8F4862D90E0880F991F0280F38198
:10366000E02DE80FF91F80819181009771F0DC0156
:1036700012962D913C912651344039F4DC01ED91A4
:10368000FC910084F185E02D09956394DFCFF7016B
:1036900070820E942803D6016D937D938D939C9335
:1036A00013975CCE10821092EA02F801918587810F
:1036B000618170E0989F600D711D1124E3E0660F39
:1036C000771FEA95E1F7CE0101960E94A30A8A814D
:1036D0009B819D838C83888599859F838E838E852E
:1036E00080788E87B88AAF86DA8AC98ADC8ACB8AE4
:1036F0001E8A4AE0BE01665F7F4FCE010F960E9490
:10370000CB0D9F8F8E8FCE014E960E943308672B74
:1037100079F480FD0DC08D89882351F08E85982F16
:103720009F779C3019F08D77883011F45F8E4E8E24
:10373000EE8CFF8CFEA2EDA2CE0185960E9433088E
:10374000672B61F480FD0AC08E85EA84FB8485FDC9
:1037500025C0CE0101960E94CA0A77CEF6E0EF1688
:10376000F104C8F4F701EE0FFF1FE857FE4F608128
:1037700071816115710561F0FB0101900020E9F78D
:103780003197AF01461B570B88E593E00E94F0008C
:103790000E94D20ADECF6DE372E0EECFE114F104B5
:1037A000C1F2A701B501CE010F960E94B00887E0D3
:1037B000FE013F96DE01579601900D928A95E1F742
:1037C00087E0FE017796DE015E9601900D928A9564
:1037D000E1F7612CD80111968C911197681660F56C
:1037E000862C912C880C991C1496ED91FC91E80D77
:1037F000F91D80819181DC01ED91FC910680F781BA
:10380000E02D0995BC018E8D9F8D0E94A920892BEA
:10381000C1F449A15AA16BA17CA1F80184819581D1
:10382000880E991ED4018D919C91DC01ED91FC9143
:103830000480F581E02D0995C7010E94CF087C0125
:10384000ADCF6394C7CF0FB6F8943EBE0FBE2DBE6A
:1038500080913304909134048130910509F494C02F
:1038600080F0029709F4D9C080E090E0892B09F438
:10387000A9CC0E945A01882309F4A2CC0E9400001E
:103880009FCC80912B04813009F054C08093270491
:103890000091030410910404F801908586816081F1
:1038A00070E0989F600D711D112433E0660F771F43
:1038B0003A95E1F7CE0101960E94A30AC5010E9444
:1038C0001D081B012C01F12CD8018C91F816B0F4C5
:1038D0008F2D90E0880F991F1296ED91FC91E80FC3
:1038E000F91F80819181DC01ED91FC910284F385C7
:1038F000E02DB201A1010995F394E6CF68E573E0EC
:10390000CE0101960E94900D0E94D20ACE0101962E
:103910000E94CA0A0E942803609306047093070459
:10392000809308049093090481E090E0909334041C
:1039300080933304C0900604D0900704E0900804FC
:10394000F0900904B0E3CB0EB5E7DB1EE11CF11CDF
:103950000E9428036C157D058E059F05A8F483E061
:103960008093270467E274E080910304909104043B
:103970000E94AB070E94280360930604709307041B
:10398000809308049093090480912C048130D9F429
:1039900082E08093270467E274E0809103049091B1
:1039A00004040E94AB070E942803609306047093EE
:1039B0000704809308049093090482E090E09093B8
:1039C000340480933304C0900604D0900704E09040
:1039D0000804F0900904E0E3CE0EE5E7DE1EE11CEA
:1039E000F11C0E9428036C157D058E059F05A8F427
:1039F00084E08093270467E274E08091030490914F
:103A000004040E94AB070E9428036093060470938D
:103A100007048093080490930904C0900604D09092
:103A20000704E0900804F0900904F0E3CF0EF5E7F6
:103A3000DF1EE11CF11C0E9428036C157D058E051C
:103A40009F0508F011CF10922C04109227040E94B9
:103A500028036093060470930704809308049093EE
:103A600009041092340410923304FECE86E194E0EF
:103A70000E9420208CE194E00E94202088E294E0C3
:103A80000C9420205058BB27AA270E945A1D0C9442
:103A9000621E0E94541E38F00E945B1E20F039F412
:103AA0009F3F19F426F40C94511E0EF4E095E7FBA9
:103AB0000C944B1EE92F0E94731E58F3BA1762072D
:103AC00073078407950720F079F4A6F50C94951EEA
:103AD0000EF4E0950B2EBA2FA02D0B01B901900129
:103AE0000C01CA01A0011124FF27591B99F0593F6D
:103AF00050F4503E68F11A16F040A22F232F342FB5
:103B00004427585FF3CF469537952795A795F04002
:103B10005395C9F77EF41F16BA0B620B730B840B17
:103B2000BAF09150A1F0FF0FBB1F661F771F881FCF
:103B3000C2F70EC0BA0F621F731F841F48F4879527
:103B400077956795B795F7959E3F08F0B0CF939519
:103B5000880F08F09927EE0F9795879508950E9492
:103B6000271E08F481E008950E94BB1D6894B111DE
:103B70000C94961E08950E947B1E88F09F5798F023
:103B8000B92F9927B751B0F0E1F0660F771F881F62
:103B9000991F1AF0BA95C9F714C0B13091F00E947C
:103BA000951EB1E008950C94951E672F782F8827F5
:103BB000B85F39F0B93FCCF3869577956795B395A3
:103BC000D9F73EF490958095709561957F4F8F4F12
:103BD0009F4F0895E89409C097FB3EF49095809517
:103BE000709561957F4F8F4F9F4F9923A9F0F92FC3
:103BF00096E9BB279395F695879577956795B79541
:103C0000F111F8CFFAF4BB0F11F460FF1BC06F5F26
:103C10007F4F8F4F9F4F16C0882311F096E911C038
:103C2000772321F09EE8872F762F05C0662371F059
:103C300096E8862F70E060E02AF09A95660F771F6D
:103C4000881FDAF7880F9695879597F90895990F49
:103C50000008550FAA0BE0E8FEEF16161706E80756
:103C6000F907C0F012161306E407F50798F0621B77
:103C7000730B840B950B39F40A2661F0232B242B4C
:103C8000252B21F408950A2609F4A140A6958FEF6B
:103C9000811D811D089597F99F6780E870E060E0BD
:103CA00008959FEF80EC089500240A9416161706D5
:103CB00018060906089500240A941216130614061D
:103CC00005060895092E0394000C11F4882352F080
:103CD000BB0F40F4BF2B11F460FF04C06F5F7F4F38
:103CE0008F4F9F4F089557FD9058440F551F59F01F
:103CF0005F3F71F04795880F97FB991F61F09F3FD9
:103D000079F087950895121613061406551FF2CF01
:103D10004695F1DF08C0161617061806991FF1CF51
:103D200086957105610508940895E894BB27662778
:103D30007727CB0197F908950E94271E08F48FEF8B
:103D400008950E94B41E0C94621E0E94541E38F006
:103D50000E945B1E20F0952311F00C944B1E0C94D6
:103D6000511E11240C94961E0E94731E70F3959F91
:103D7000C1F3950F50E0551F629FF001729FBB2762
:103D8000F00DB11D639FAA27F00DB11DAA1F649FFE
:103D90006627B00DA11D661F829F2227B00DA11DB1
:103DA000621F739FB00DA11D621F839FA00D611D37
:103DB000221F749F3327A00D611D231F849F600D58
:103DC000211D822F762F6A2F11249F5750409AF081
:103DD000F1F088234AF0EE0FFF1FBB1F661F771F0D
:103DE000881F91505040A9F79E3F510580F00C94D8
:103DF0004B1E0C94961E5F3FE4F3983ED4F38695D9
:103E000077956795B795F795E7959F5FC1F7FE2B77
:103E1000880F911D9695879597F90895991B79E0DC
:103E200004C0991F961708F0961B881F7A95C9F74A
:103E30008095089597FB072E16F4009407D077FD20
:103E400009D00E94611F07FC05D03EF49095819532
:103E50009F4F0895709561957F4F0895A1E21A2EA6
:103E6000AA1BBB1BFD010DC0AA1FBB1FEE1FFF1F1E
:103E7000A217B307E407F50720F0A21BB30BE40B6E
:103E8000F50B661F771F881F991F1A9469F76095B5
:103E90007095809590959B01AC01BD01CF0108956F
:103EA000EE0FFF1F0590F491E02D09940E94751FFD
:103EB000A59F900DB49F900DA49F800D911D11247E
:103EC0000895AA1BBB1B51E107C0AA1FBB1FA61761
:103ED000B70710F0A61BB70B881F991F5A95A9F7B3
:103EE00080959095BC01CD010895A29FB001B39F2C
:103EF000C001A39F700D811D1124911DB29F700DF3
:103F0000811D1124911D08950F931F93CF93DF936B
:103F10008230910510F482E090E0E0916004F0912D
:103F2000610430E020E0B0E0A0E0309799F4211582
:103F3000310509F44AC0281B390B24303105D8F566
:103F40008A819B816115710589F1FB0193838283CD
:103F5000FE0111C040815181028113814817590728
:103F6000E0F04817590799F4109761F012960C93F6
:103F7000129713961C933296CF01DF91CF911F9128
:103F80000F9108950093600410936104F4CF2115FC
:103F9000310551F04217530738F0A901DB019A01AE
:103FA000BD01DF01F801C1CFEF01F9CF90936104AA
:103FB00080936004CDCFFE01E20FF31F81939193B4
:103FC0002250310939832883D7CF20915E04309164
:103FD0005F04232B41F420910601309107013093B7
:103FE0005F0420935E0420910401309105012115A6
:103FF000310541F42DB73EB74091080150910901B8
:10400000241B350BE0915E04F0915F04E217F30787
:10401000A0F42E1B3F0B2817390778F0AC014E5F38
:104020005F4F2417350748F04E0F5F1F50935F0412
:1040300040935E04819391939FCFF0E0E0E09CCFAA
:10404000CF93DF930097E9F0FC013297138212823D
:10405000A0916004B0916104ED0130E020E0109780
:10406000A1F420813181820F931F20915E04309151
:104070005F042817390709F061C0F0935F04E093EB
:104080005E04DF91CF910895EA01CE17DF07E8F5CE
:104090004A815B819E0141155105B1F7E901FB831E
:1040A000EA8349915991C40FD51FEC17FD0761F4BC
:1040B000808191810296840F951FE90199838883FD
:1040C000828193819B838A83F0E0E0E012968D9158
:1040D0009C9113970097B9F52D913C911197CD01C3
:1040E0000296820F931F20915E0430915F0428177F
:1040F000390739F6309751F5109261041092600437
:10410000B0935F04A0935E04BCCFD383C28340818D
:104110005181840F951FC817D90761F44E5F5F4F17
:1041200088819981480F591F518340838A819B81DF
:10413000938382832115310509F0B0CFF093610498
:10414000E09360049ECFFD01DC01C0CF1382128298
:10415000D7CFFB01DC018D91019080190110D9F3BB
:10416000990B089510E0C2E6D0E004C0FE010E9461
:0E417000501F2196C336D107C9F7F894FFCF30
:10417E00EF00EF0000006204800016080000130834
:10418E000000100800000D0800000F0800000E08C7
:10419E000000000000006104C80A8D065C04FB12DA
:1041AE0091110000803FCDCCCC3D6F12833A95BF6C
:1041BE00D6337D1D9026B3CE010CCDCCCC3D0AD787
:1041CE00233C17B7D13877CC2B329595E6241FB107
:1041DE004F0A000020410000C84200401C4620BC8F
:1041EE00BE4CCA1B0E5AAEC59D74020305060B0CBF
:1041FE0041304131413441354102440254026102A1
:10420E006A027702000000009001F0001D01DD013E
:10421E004E012C01400100000000BC038F03070477
:10422E006503880375036603000000006004C20A7C
:10423E00BC0958040712AF11000000006004C60A42
:10424E000909580406119910000000006004C40A00
:10425E00DD085804811241102F2F22225C5C620867
:10426E00660C6E0A720D7409000D0A006E756C6C88
:10427E0000652D00747275650066616C736500646F
:10428E00696700616E616C6F670064697370006FBF
:10429E006666006D6F64650068616E64006F7574AC
:1042AE00006177616B6500616C697665003F3F3F29
:1042BE00004F6B00496E636F6D706C657465496E6F
:1042CE0070757400496E76616C6964496E707574B0
:1042DE00004E6F4D656D6F7279004E6F7453757031
:1042EE00706F7274656400546F6F44656570000082
:107800000C94343C0C94513C0C94513C0C94513CE1
:107810000C94513C0C94513C0C94513C0C94513CB4
:107820000C94513C0C94513C0C94513C0C94513CA4
:107830000C94513C0C94513C0C94513C0C94513C94
:107840000C94513C0C94513C0C94513C0C94513C84
:107850000C94513C0C94513C0C94513C0C94513C74
:107860000C94513C0C94513C11241FBECFEFD8E036
:10787000DEBFCDBF11E0A0E0B1E0EAE8FFE702C063
:1078800005900D92A230B107D9F712E0A2E0B1E065
:1078900001C01D92AD30B107E1F70E942D3D0C945F
:1078A000C33F0C94003C982F95959595959595958B
:1078B000905D8F708A307CF0282F295A8091C0000B
:1078C00085FFFCCF9093C6008091C00085FFFCCF60
:1078D0002093C6000895282F205DF0CF982F809127
:1078E000C00085FFFCCF9093C6000895EF92FF92F1
:1078F0000F931F93EE24FF2487018091C00087FD22
:1079000017C00894E11CF11C011D111D81E2E8164D
:1079100081EAF80687E0080780E0180770F3E09135
:107920000401F091050109958091C00087FFE9CF1E
:107930008091C6001F910F91FF90EF9008950E94D3
:10794000763C982F8091C00085FFFCCF9093C600B5
:1079500091362CF490330CF09053892F089597555D
:10796000892F08951F930E949F3C182F0E949F3CCF
:107970001295107F810F1F9108951F93182F882350
:1079800021F00E94763C1150E1F71F9108951F935A
:10799000182F0E94763C803249F0809103018F5F5E
:1079A000809303018530C1F01F9108958091C0003C
:1079B00085FFFCCF84E18093C6008091C00085FFE5
:1079C000FCCF1093C6008091C00085FFFCCF80E102
:1079D0008093C6001F910895E0910401F091050184
:1079E00009951F9108950E94763C803241F0809164
:1079F00003018F5F80930301853081F008958091AA
:107A0000C00085FFFCCF84E18093C6008091C00058
:107A100085FFFCCF80E18093C6000895E0910401CA
:107A2000F09105010995089548EC50E08823A1F0F4
:107A30002D9A28EE33E0FA013197F1F721503040CA
:107A4000D1F72D9828EE33E0FA013197F1F7215064
:107A50003040D1F7815061F708953F924F925F9285
:107A60006F927F928F929F92AF92BF92CF92DF924E
:107A7000EF92FF920F931F93CF93DF93000082E06A
:107A80008093C00080E18093C4001092C50088E11B
:107A90008093C10086E08093C2005098589A259A3E
:107AA00081E00E94143D24E1F22E9EE1E92E85E959
:107AB000D82E0FE0C02E10E1B12EAA24A394B1E479
:107AC0009B2EA6E58A2EF2E57F2EE0E26E2E79E46B
:107AD000572E63E5462E50E5352E0E94763C8033C6
:107AE000B1F18133B9F1803409F46FC0813409F404
:107AF00076C0823409F485C0853409F488C08035A5
:107B000031F1823521F1813511F1853509F485C0D6
:107B1000863509F48DC0843609F496C0843709F49B
:107B200003C1853709F472C1863709F466C08091B4
:107B300003018F5F80930301853079F6E0910401A2
:107B4000F091050109950E94763C803351F60E9420
:107B5000F33CC3CF0E94763C803249F78091C0004D
:107B600085FFFCCFF092C6008091C00085FFFCCF5E
:107B70009092C6008091C00085FFFCCF8092C60025
:107B80008091C00085FFFCCF7092C6008091C0003C
:107B900085FFFCCF6092C6008091C00085FFFCCFBE
:107BA0005092C6008091C00085FFFCCF4092C60075
:107BB0008091C00085FFFCCF3092C6008091C0004C
:107BC00085FFFCCFB092C60088CF0E94763C8638F5
:107BD00008F4BDCF0E94763C0E94F33C7ECF0E9409
:107BE000763C803809F49CC0813809F40BC1823896
:107BF00009F430C1883909F48FC080E00E94C73C85
:107C00006CCF84E10E94BD3C0E94F33C66CF85E0CE
:107C10000E94BD3C0E94F33C60CF0E94763C809362
:107C200006010E94763C809307010E94F33C55CFE9
:107C30000E94763C803309F411C183E00E94BD3C70
:107C400080E00E94C73C49CF0E94763C80930902A5
:107C50000E94763C8093080280910C028E7F809374
:107C60000C020E94763C853409F409C18091080217
:107C700090910902892B89F000E010E00E94763C87
:107C8000F801E85FFE4F80830F5F1F4F809108026D
:107C9000909109020817190788F30E94763C8032F8
:107CA00009F045CF80910C0280FFF5C0609106017C
:107CB00070910701660F771F7093070160930601AB
:107CC000A0910802B09109021097C9F0E8E0F1E034
:107CD0009B01AD014E0F5F1FF999FECF32BD21BD53
:107CE000819180BDFA9AF99A2F5F3F4FE417F5070B
:107CF00099F76A0F7B1F70930701609306018091CB
:107D0000C00085FFFCCFF092C6008091C00085FFC7
:107D1000FCCFB092C600E1CE83E00E94C73CDDCE2E
:107D200082E00E94C73CD9CE0E94763C8093090233
:107D30000E94763C80930802809106019091070191
:107D4000880F991F90930701809306010E94763C4B
:107D5000853409F49AC080910C028E7F80930C02C6
:107D60000E94763C803209F0B8CE8091C00085FF39
:107D7000FCCFF092C600A0910802B09109021097C2
:107D8000C1F180910C02082F0170182F1695117007
:107D9000E0910601F0910701AF014F5F5F4FBA011B
:107DA00020E030E00023B1F4112339F49491809164
:107DB000C00085FFFCCF9093C6002F5F3F4FCB01E3
:107DC0000196FA012A173B0780F4BC014F5F5F4F11
:107DD000002351F3F999FECFF2BDE1BDF89A90B5B9
:107DE0008091C00085FFFCCFE6CF709307016093C0
:107DF00006018091C00085FDE5CE8091C00085FF21
:107E0000F8CFE0CE81E00E94C73C67CE0E94763C6E
:107E1000803209F08CCE8091C00085FFFCCFF092BB
:107E2000C6008091C00085FFFCCFE092C600809123
:107E3000C00085FFFCCFD092C6008091C00085FFB6
:107E4000FCCFC092C6008091C00085FFFCCFB092ED
:107E5000C60043CE80E10E94C73C3FCE0E94763CE4
:107E60000E94763C182F0E94763C112309F483C0AF
:107E7000113009F484C08FE00E94C73C2ECE80915F
:107E80000C02816080930C02F1CE80910C02816023
:107E900080930C0265CF809107018823880F880B9F
:107EA0008A2180930B028091060190910701880F2F
:107EB000991F90930701809306018091080280FF2B
:107EC00009C08091080290910902019690930902DD
:107ED00080930802F894F999FECF1127E0910601EA
:107EE000F0910701C8E0D1E0809108029091090269
:107EF000103091F40091570001700130D9F303E084
:107F000000935700E8950091570001700130D9F3B4
:107F100001E100935700E8950990199000915700EE
:107F200001700130D9F301E000935700E8951395F3
:107F3000103498F011270091570001700130D9F3E7
:107F400005E000935700E89500915700017001305B
:107F5000D9F301E100935700E8953296029709F0B2
:107F6000C7CF103011F00296E5CF11248091C000E8
:107F700085FFC5CEC8CE8EE10E94C73CAECD85E957
:0A7F80000E94C73CAACDF894FFCF81
:027F8A00800075
:040000030000780081
:00000001FF
