:100000000C9462000C947F000C947F000C947F0091
:100010000C947F000C947F000C94F5020C947F00EC
:100020000C947F000C947F000C947F000C947F0054
:100030000C947F000C947F000C947F000C947F0044
:100040000C9490010C947F000C947F000C947F0022
:100050000C947F000C947F000C947F000C947F0024
:100060000C94DA010C947F000000000024002700AB
:100070002A0000000000250028002B0000000000DE
:1000800023002600290004040404040404040202DA
:100090000202020203030303030301020408102007
:1000A0004080010204081020010204081020000012
:1000B0000008000201000003040700000000000027
:1000C00000000C0311241FBECFEFD8E0DEBFCDBF70
:1000D00021E0A0E0B1E001C01D92A338B207E1F732
:1000E00010E0C2E6D0E004C02197FE010E940604A1
:1000F000C136D107C9F70E9448030C940C040C9434
:100100000000833081F028F4813099F08230A9F02A
:1001100008958730A9F08830C9F08430B1F4809117
:1001200080008F7D03C0809180008F778093800056
:10013000089584B58F7784BD089584B58F7DFBCFF6
:100140008091B0008F778093B00008958091B000C7
:100150008F7DF9CFCF93DF93282F30E0F901E2555F
:10016000FF4F8491F901E656FF4FD491F901EA5708
:10017000FF4FC491CC23A1F081110E948100EC2F8C
:10018000F0E0EE0FFF1FE458FF4FA591B491EC9102
:10019000ED2381E090E009F480E0DF91CF910895B4
:1001A00080E090E0FACF1F93CF93DF93282F30E0C9
:1001B000F901E255FF4F8491F901E656FF4FD491C2
:1001C000F901EA57FF4FC491CC23A9F0162F8111F2
:1001D0000E948100EC2FF0E0EE0FFF1FEE58FF4F62
:1001E000A591B4918FB7F894EC91111108C0D095F6
:1001F000DE23DC938FBFDF91CF911F910895DE2B1B
:10020000F8CFCF93DF9390E0FC01E656FF4F2491A7
:100210008A579F4FFC0184918823D1F090E0880F8A
:10022000991FFC01E859FF4FA591B491FC01EE58CC
:10023000FF4FC591D49161110EC09FB7F8948C9176
:10024000E22FE0958E238C932881E223E8839FBFE1
:10025000DF91CF9108958FB7F894EC91E22BEC9356
:100260008FBFF6CF85ED8093BC008091BC0084FDEC
:10027000FCCF10924501089520912101260F3327CC
:10028000331F21323105ECF420914501FC0190E04F
:1002900080E0243069F082E00895A091210121914D
:1002A000AC014F5F5E4FA40FB52FB11D2C9301968B
:1002B000861798F380912101680F6093210180E0F7
:1002C000089581E0089508958FEF9FEF08958FEFCF
:1002D0009FEF08958091000190E09195819591099B
:1002E0000895CF93DF93CB01EA01642F0E943C0174
:1002F000CE01DF91CF910895CF93DF931F92CDB7B9
:10030000DEB7698361E0CE0101960E943C0181E085
:1003100090E00F90DF91CF91089590E080E00895F4
:100320001F920F920FB60F9211242F933F938F932A
:100330009F93AF93BF938091700190917101A091B1
:100340007201B091730130916F0126E0230F2D37B8
:1003500058F50296A11DB11D20936F018093700185
:1003600090937101A0937201B093730180916B011E
:1003700090916C01A0916D01B0916E010196A11D4B
:10038000B11D80936B0190936C01A0936D01B093AC
:100390006E01BF91AF919F918F913F912F910F90DF
:1003A0000FBE0F901F90189529E8230F0396A11DEB
:1003B000B11DD2CF1F920F920FB60F9211242F931F
:1003C0003F934F935F936F937F938F939F93AF93DD
:1003D000BF93EF93FF938091B900887F803609F433
:1003E0004AC0F0F5883209F4A5C018F5803109F447
:1003F00099C0B8F4882309F4F5C0883009F492C094
:10040000FF91EF91BF91AF919F918F917F916F91EC
:100410005F914F913F912F910F900FBE0F901F90C2
:100420001895883109F486C0803251F780934401D1
:1004300014C0803409F49BC040F48033B9F388338E
:10044000F9F68093440185ECAEC0803509F483C091
:10045000883509F494C0883499F60E943201D0CFCF
:10046000883909F48AC038F5883729F050F488367D
:1004700011F0803729F683E0809345011092430103
:1004800055C0883809F479C0803919F0803809F0EE
:10049000B7CF80914301803208F06FC0E0914301F3
:1004A00081E08E0F809343018091BB00F0E0ED5D11
:1004B000FE4F80833BC0803B39F0D0F4803A09F492
:1004C00077C0883A09F09CCF84E080934501109270
:1004D000220110922101F0E0E0E0099580912101D4
:1004E00081110FC081E0809321011092010109C0A8
:1004F000803C09F4A8CF883C09F4A5CF883B09F0DB
:100500007FCFE091220181E08E0F80932201F0E005
:10051000EF5FFE4F80818093BB009091220180911C
:10052000210129C080916A018093BB0085EC8093F2
:10053000BC0066CF9091690180916801981758F5C9
:10054000E091690181E08E0F80936901F0E0E85B42
:10055000FE4F8081E9CFE091690181E08E0F8093A9
:1005600069018091BB00F0E0E85BFE4F80839091D1
:100570006901809168019817C8F285E8D8CFE091A9
:10058000690181E08E0F809369018091BB00F0E0EA
:10059000E85BFE4F80838091470181115ECF81E04F
:1005A0008093460184EA8093BC001092450128CFD5
:1005B00085EC8093BC00109245018091430180320C
:1005C00030F4E0914301F0E0ED5DFE4F1082609168
:1005D000430170E083E291E0F0E0E0E009951092E1
:1005E00043010ECF1092440138CF1F920F920FB6E5
:1005F0000F9211248F930FB6F894A8958091600004
:10060000886180936000109260000FBE8F910F9000
:100610000FBE0F901F90189510927E0110928201CC
:100620001092810110927F011092800161E080E1BF
:100630000E94010180917E01882301F110927F01C7
:1006400061E084E00E94010180917E018823D9F05D
:100650001092800161E081E10E94010160E081E18E
:100660000E94D30060E087E00E94010160E083E027
:100670000E94010160E082E00C94010160E080E1F1
:100680000E94D300DBCF60E084E00E94D300E0CF83
:10069000789484B5826084BD84B5816084BD85B55D
:1006A000826085BD85B5816085BD80916E00816069
:1006B00080936E001092810080918100826080930F
:1006C0008100809181008160809381008091800011
:1006D0008160809380008091B10084608093B1003C
:1006E0008091B00081608093B00080917A00846036
:1006F00080937A0080917A00826080937A00809162
:100700007A008E7F80937A0080917A00806880934F
:100710007A001092C10061E08DE00E94010160E06A
:1007200085E00E94010160E083E00E94010160E039
:1007300086E00E94010160E08CE00E94010160E01F
:100740008BE00E94010160E088E00E94010180913D
:100750007E01882309F450C081E080937F0180915D
:100760007E01882309F44DC01092800180E0A82EFC
:1007700080E0B82E85E00E94AA004C0190937D0194
:1007800080937C0183E00E94AA006C0190937B011E
:1007900080937A0186E00E94AA007C0190937901FF
:1007A000809378018CE00E94AA008C0190937701DD
:1007B000809376018BE00E94AA00EC019093750172
:1007C0008093740188E00E94AA00892859F0CD28FE
:1007D00049F0EF2839F0012B29F0CD2B19F060E01A
:1007E000892B09F461E08DE00E94D300A114B104CB
:1007F00009F20E940000BECF61E080E10E94D300B8
:10080000ABCF60E084E00E94D300AECFEE0FFF1FBD
:0C0810000590F491E02D0994F894FFCFBE
:107800000C94343C0C94513C0C94513C0C94513CE1
:107810000C94513C0C94513C0C94513C0C94513CB4
:107820000C94513C0C94513C0C94513C0C94513CA4
:107830000C94513C0C94513C0C94513C0C94513C94
:107840000C94513C0C94513C0C94513C0C94513C84
:107850000C94513C0C94513C0C94513C0C94513C74
:107860000C94513C0C94513C11241FBECFEFD8E036
:10787000DEBFCDBF11E0A0E0B1E0EAE8FFE702C063
:1078800005900D92A230B107D9F712E0A2E0B1E065
:1078900001C01D92AD30B107E1F70E942D3D0C945F
:1078A000C33F0C94003C982F95959595959595958B
:1078B000905D8F708A307CF0282F295A8091C0000B
:1078C00085FFFCCF9093C6008091C00085FFFCCF60
:1078D0002093C6000895282F205DF0CF982F809127
:1078E000C00085FFFCCF9093C6000895EF92FF92F1
:1078F0000F931F93EE24FF2487018091C00087FD22
:1079000017C00894E11CF11C011D111D81E2E8164D
:1079100081EAF80687E0080780E0180770F3E09135
:107920000401F091050109958091C00087FFE9CF1E
:107930008091C6001F910F91FF90EF9008950E94D3
:10794000763C982F8091C00085FFFCCF9093C600B5
:1079500091362CF490330CF09053892F089597555D
:10796000892F08951F930E949F3C182F0E949F3CCF
:107970001295107F810F1F9108951F93182F882350
:1079800021F00E94763C1150E1F71F9108951F935A
:10799000182F0E94763C803249F0809103018F5F5E
:1079A000809303018530C1F01F9108958091C0003C
:1079B00085FFFCCF84E18093C6008091C00085FFE5
:1079C000FCCF1093C6008091C00085FFFCCF80E102
:1079D0008093C6001F910895E0910401F091050184
:1079E00009951F9108950E94763C803241F0809164
:1079F00003018F5F80930301853081F008958091AA
:107A0000C00085FFFCCF84E18093C6008091C00058
:107A100085FFFCCF80E18093C6000895E0910401CA
:107A2000F09105010995089548EC50E08823A1F0F4
:107A30002D9A28EE33E0FA013197F1F721503040CA
:107A4000D1F72D9828EE33E0FA013197F1F7215064
:107A50003040D1F7815061F708953F924F925F9285
:107A60006F927F928F929F92AF92BF92CF92DF924E
:107A7000EF92FF920F931F93CF93DF93000082E06A
:107A80008093C00080E18093C4001092C50088E11B
:107A90008093C10086E08093C2005098589A259A3E
:107AA00081E00E94143D24E1F22E9EE1E92E85E959
:107AB000D82E0FE0C02E10E1B12EAA24A394B1E479
:107AC0009B2EA6E58A2EF2E57F2EE0E26E2E79E46B
:107AD000572E63E5462E50E5352E0E94763C8033C6
:107AE000B1F18133B9F1803409F46FC0813409F404
:107AF00076C0823409F485C0853409F488C08035A5
:107B000031F1823521F1813511F1853509F485C0D6
:107B1000863509F48DC0843609F496C0843709F49B
:107B200003C1853709F472C1863709F466C08091B4
:107B300003018F5F80930301853079F6E0910401A2
:107B4000F091050109950E94763C803351F60E9420
:107B5000F33CC3CF0E94763C803249F78091C0004D
:107B600085FFFCCFF092C6008091C00085FFFCCF5E
:107B70009092C6008091C00085FFFCCF8092C60025
:107B80008091C00085FFFCCF7092C6008091C0003C
:107B900085FFFCCF6092C6008091C00085FFFCCFBE
:107BA0005092C6008091C00085FFFCCF4092C60075
:107BB0008091C00085FFFCCF3092C6008091C0004C
:107BC00085FFFCCFB092C60088CF0E94763C8638F5
:107BD00008F4BDCF0E94763C0E94F33C7ECF0E9409
:107BE000763C803809F49CC0813809F40BC1823896
:107BF00009F430C1883909F48FC080E00E94C73C85
:107C00006CCF84E10E94BD3C0E94F33C66CF85E0CE
:107C10000E94BD3C0E94F33C60CF0E94763C809362
:107C200006010E94763C809307010E94F33C55CFE9
:107C30000E94763C803309F411C183E00E94BD3C70
:107C400080E00E94C73C49CF0E94763C80930902A5
:107C50000E94763C8093080280910C028E7F809374
:107C60000C020E94763C853409F409C18091080217
:107C700090910902892B89F000E010E00E94763C87
:107C8000F801E85FFE4F80830F5F1F4F809108026D
:107C9000909109020817190788F30E94763C8032F8
:107CA00009F045CF80910C0280FFF5C0609106017C
:107CB00070910701660F771F7093070160930601AB
:107CC000A0910802B09109021097C9F0E8E0F1E034
:107CD0009B01AD014E0F5F1FF999FECF32BD21BD53
:107CE000819180BDFA9AF99A2F5F3F4FE417F5070B
:107CF00099F76A0F7B1F70930701609306018091CB
:107D0000C00085FFFCCFF092C6008091C00085FFC7
:107D1000FCCFB092C600E1CE83E00E94C73CDDCE2E
:107D200082E00E94C73CD9CE0E94763C8093090233
:107D30000E94763C80930802809106019091070191
:107D4000880F991F90930701809306010E94763C4B
:107D5000853409F49AC080910C028E7F80930C02C6
:107D60000E94763C803209F0B8CE8091C00085FF39
:107D7000FCCFF092C600A0910802B09109021097C2
:107D8000C1F180910C02082F0170182F1695117007
:107D9000E0910601F0910701AF014F5F5F4FBA011B
:107DA00020E030E00023B1F4112339F49491809164
:107DB000C00085FFFCCF9093C6002F5F3F4FCB01E3
:107DC0000196FA012A173B0780F4BC014F5F5F4F11
:107DD000002351F3F999FECFF2BDE1BDF89A90B5B9
:107DE0008091C00085FFFCCFE6CF709307016093C0
:107DF00006018091C00085FDE5CE8091C00085FF21
:107E0000F8CFE0CE81E00E94C73C67CE0E94763C6E
:107E1000803209F08CCE8091C00085FFFCCFF092BB
:107E2000C6008091C00085FFFCCFE092C600809123
:107E3000C00085FFFCCFD092C6008091C00085FFB6
:107E4000FCCFC092C6008091C00085FFFCCFB092ED
:107E5000C60043CE80E10E94C73C3FCE0E94763CE4
:107E60000E94763C182F0E94763C112309F483C0AF
:107E7000113009F484C08FE00E94C73C2ECE80915F
:107E80000C02816080930C02F1CE80910C02816023
:107E900080930C0265CF809107018823880F880B9F
:107EA0008A2180930B028091060190910701880F2F
:107EB000991F90930701809306018091080280FF2B
:107EC00009C08091080290910902019690930902DD
:107ED00080930802F894F999FECF1127E0910601EA
:107EE000F0910701C8E0D1E0809108029091090269
:107EF000103091F40091570001700130D9F303E084
:107F000000935700E8950091570001700130D9F3B4
:107F100001E100935700E8950990199000915700EE
:107F200001700130D9F301E000935700E8951395F3
:107F3000103498F011270091570001700130D9F3E7
:107F400005E000935700E89500915700017001305B
:107F5000D9F301E100935700E8953296029709F0B2
:107F6000C7CF103011F00296E5CF11248091C000E8
:107F700085FFC5CEC8CE8EE10E94C73CAECD85E957
:0A7F80000E94C73CAACDF894FFCF81
:027F8A00800075
:040000030000780081
:00000001FF
