:100000000C9462000C947F000C947F000C947F0091
:100010000C947F000C947F000C9400030C947F00E0
:100020000C947F000C947F000C947F000C947F0054
:100030000C947F000C947F000C947F000C947F0044
:100040000C949B010C947F000C947F000C947F0017
:100050000C947F000C947F000C947F000C947F0024
:100060000C94E5010C947F000000000024002700A0
:100070002A0000000000250028002B0000000000DE
:1000800023002600290004040404040404040202DA
:100090000202020203030303030301020408102007
:1000A0004080010204081020010204081020000012
:1000B0000008000201000003040700000000000027
:1000C0000000170311241FBECFEFD8E0DEBFCDBF65
:1000D00021E0A0E0B1E001C01D92A538B207E1F730
:1000E00010E0C2E6D0E004C02197FE010E94240483
:1000F000C136D107C9F70E9453030C942A040C940B
:100100000000833081F028F4813099F08230A9F02A
:1001100008958730A9F08830C9F08430B1F4809117
:1001200080008F7D03C0809180008F778093800056
:10013000089584B58F7784BD089584B58F7DFBCFF6
:100140008091B0008F778093B00008958091B000C7
:100150008F7DF9CFCF93DF93282F30E0F901E2555F
:10016000FF4F8491F901E656FF4FD491F901EA5708
:10017000FF4FC491CC23A1F081110E948100EC2F8C
:10018000F0E0EE0FFF1FE458FF4FA591B491EC9102
:10019000ED2381E090E009F480E0DF91CF910895B4
:1001A00080E090E0FACF1F93CF93DF93282F30E0C9
:1001B000F901E255FF4F8491F901E656FF4FD491C2
:1001C000F901EA57FF4FC491CC23A9F0162F8111F2
:1001D0000E948100EC2FF0E0EE0FFF1FEE58FF4F62
:1001E000A591B4918FB7F894EC91111108C0D095F6
:1001F000DE23DC938FBFDF91CF911F910895DE2B1B
:10020000F8CFCF93DF9390E0FC01E656FF4F2491A7
:100210008A579F4FFC0184918823C9F090E0880F92
:10022000991FFC01E859FF4FA591B491FC01EE58CC
:10023000FF4FC591D49161110DC09FB7F8948C9177
:10024000209582238C938881282328839FBFDF9168
:10025000CF910895623051F49FB7F8943C91822F6A
:10026000809583238C93E8812E2BEFCF8FB7F89462
:10027000EC912E2B2C938FBFEACF85ED8093BC00A1
:100280008091BC0084FDFCCF10924501089520911F
:100290002101260F3327331F21323105ECF4209141
:1002A0004501FC0190E080E0243069F082E008958F
:1002B000A09121012191AC014F5F5E4FA40FB52F9A
:1002C000B11D2C930196861798F380912101680F38
:1002D0006093210180E0089581E0089508958FEFF3
:1002E0009FEF08958FEF9FEF08958091000190E0B8
:1002F0009195819591090895CF93DF93CB01EA0100
:10030000642F0E944701CE01DF91CF910895CF93D2
:10031000DF931F92CDB7DEB7698361E0CE0101960E
:100320000E94470181E090E00F90DF91CF91089506
:1003300090E080E008951F920F920FB60F92112463
:100340002F933F938F939F93AF93BF9380917001AF
:1003500090917101A0917201B091730130916F0180
:1003600026E0230F2D3758F50296A11DB11D2093CD
:100370006F018093700190937101A0937201B0930B
:10038000730180916B0190916C01A0916D01B0910E
:100390006E010196A11DB11D80936B0190936C01BC
:1003A000A0936D01B0936E01BF91AF919F918F911A
:1003B0003F912F910F900FBE0F901F90189529E835
:1003C000230F0396A11DB11DD2CF1F920F920FB61E
:1003D0000F9211242F933F934F935F936F937F93CB
:1003E0008F939F93AF93BF93EF93FF938091B90047
:1003F000887F803609F44AC0F0F5883209F4A5C038
:1004000018F5803109F499C0B8F4882309F4F5C0CF
:10041000883009F492C0FF91EF91BF91AF919F9105
:100420008F917F916F915F914F913F912F910F909D
:100430000FBE0F901F901895883109F486C0803246
:1004400051F78093440114C0803409F49BC040F4F8
:100450008033B9F38833F9F68093440185ECAEC05C
:10046000803509F483C0883509F494C0883499F63E
:100470000E943D01D0CF883909F48AC038F5883709
:1004800029F050F4883611F0803729F683E0809304
:1004900045011092430155C0883809F479C080396C
:1004A00019F0803809F0B7CF80914301803208F00D
:1004B0006FC0E091430181E08E0F809343018091F2
:1004C000BB00F0E0ED5DFE4F80833BC0803B39F028
:1004D000D0F4803A09F477C0883A09F09CCF84E0E0
:1004E000809345011092220110922101F0E0E0E09A
:1004F00009958091210181110FC081E08093210134
:100500001092010109C0803C09F4A8CF883C09F48D
:10051000A5CF883B09F07FCFE091220181E08E0FCB
:1005200080932201F0E0EF5FFE4F80818093BB005B
:10053000909122018091210129C080916A018093CC
:10054000BB0085EC8093BC0066CF909169018091DF
:100550006801981758F5E091690181E08E0F80934A
:100560006901F0E0E85BFE4F8081E9CFE09169012D
:1005700081E08E0F809369018091BB00F0E0E85B21
:10058000FE4F808390916901809168019817C8F2AD
:1005900085E8D8CFE091690181E08E0F80936901F1
:1005A0008091BB00F0E0E85BFE4F808380914701C3
:1005B00081115ECF81E08093460184EA8093BC0084
:1005C0001092450128CF85EC8093BC001092450124
:1005D00080914301803230F4E0914301F0E0ED5D21
:1005E000FE4F10826091430170E083E291E0F0E001
:1005F000E0E00995109243010ECF1092440138CFEC
:100600001F920F920FB60F9211248F930FB6F8948A
:10061000A8958091600088618093600010926000CE
:100620000FBE8F910F900FBE0F901F9018951092D4
:100630008001109284011092830110928101109226
:10064000820161E080E10E940101809180018823A4
:1006500001F11092810161E084E00E94010180912A
:1006600080018823D9F01092820161E081E10E942B
:10067000010160E081E10E94D30060E087E00E9418
:10068000010160E083E00E94010160E082E00C94DF
:10069000010160E080E10E94D300DBCF60E084E0F4
:1006A0000E94D300E0CF789484B5826084BD84B585
:1006B000816084BD85B5826085BD85B5816085BD5D
:1006C00080916E00816080936E0010928100809115
:1006D000810082608093810080918100816080939D
:1006E0008100809180008160809380008091B100C2
:1006F00084608093B1008091B00081608093B000ED
:1007000080917A00846080937A0080917A00826080
:1007100080937A0080917A008E7F80937A00809116
:100720007A00806880937A001092C10061E08DE0C9
:100730000E94010162E082E00E94010161E082E02A
:100740000E94D30060E085E00E94010160E083E048
:100750000E94010160E086E00E94010160E08CE0FF
:100760000E94010160E08BE00E94010160E088E0EE
:100770000E94010180918001882309F45BC081E01F
:100780008093810180918001882309F458C01092E0
:10079000820180E0682E80E0782E82E00E94AA002C
:1007A000EC0190937F0180937E0185E00E94AA0076
:1007B0004C0190937D0180937C0183E00E94AA000C
:1007C0005C0190937B0180937A0186E00E94AA00ED
:1007D0006C0190937901809378018CE00E94AA00CB
:1007E0007C0190937701809376018BE00E94AA00B0
:1007F0008C01909375018093740188E00E94AA0097
:10080000892851F0AB2841F0CD2831F0EF2821F0B4
:10081000012B11F0892B39F461E0CD2B09F060E058
:100820008DE00E94D3006114710409F4B6CF0E94D8
:100830000000B3CF61E080E10E94D300A0CF60E070
:1008400084E00E94D300A3CFEE0FFF1F0590F49128
:08085000E02D0994F894FFCF9C
:00000001FF
