:100000000C9462000C942F050C9408050C948A0043
:100010000C948A000C948A000C9471060C948A004B
:100020000C948A000C948A000C948A000C948A0028
:100030000C948A000C948A000C948A000C948A0018
:100040000C94BE040C948A000C948C040C946604EA
:100050000C948A000C948A000C948A000C948A00F8
:100060000C9456050C948A00000000002400270020
:100070002A0000000000250028002B0000000000DE
:1000800023002600290004040404040404040202DA
:100090000202020203030303030301020408102007
:1000A0004080010204081020010204081020000012
:1000B0000008000201000003040700000000000027
:1000C0000000880611241FBECFEFD8E0DEBFCDBFF1
:1000D00011E0A0E0B1E0E0EBF0E102C005900D928C
:1000E000A832B107D9F722E0A8E2B1E001C01D9221
:1000F000AF38B207E1F710E0C2E6D0E004C02197C4
:10010000FE010E945008C136D107C9F70E941807A6
:100110000C9456080C940000982F2091E00181E087
:10012000213208F043C08091BC018111FCCF809145
:10013000DF0132E03093BC019093BB019FEF9093BD
:10014000BA011092B9012093B801AFEBB1E0E8E930
:10015000F1E090E0291331C010929701909197013E
:10016000880F892B8093970180919601813049F502
:1001700010929601809197018093BB008091BC0002
:1001800083FDF8CF85EC8093BC008091BC01823068
:10019000E1F38091BA018F3FB1F08091BA018032D2
:1001A000A1F08091BA01803391F084E01092BE01F9
:1001B0001092E0011092BD0108953D9131939F5F2F
:1001C000C9CF85EEE0CF80E0F1CF82E0EFCF83E0D2
:1001D000EDCF08950895AF92BF92CF92DF92EF9244
:1001E000FF920F931F93CF93DF936C017B018B01E1
:1001F000040F151FEB015E01AE18BF08C017D10731
:1002000059F06991D601ED91FC910190F081E02DBA
:10021000C6010995892B79F7C501DF91CF911F910F
:100220000F91FF90EF90DF90CF90BF90AF90089527
:10023000FC01538D448D252F30E0842F90E0821BEC
:10024000930B541710F0CF96089501970895FC0171
:10025000918D828D981761F0A28DAE0FBF2FB11DC9
:100260005D968C91928D9F5F9F73928F90E0089521
:100270008FEF9FEF0895FC01918D828D981731F0DB
:10028000828DE80FF11D858D90E008958FEF9FEF2F
:100290000895FC01918D228D892F90E0805C9F4F05
:1002A000821B91098F739927089581EE91E00E9436
:1002B000490121E0892B09F420E0822F089580E094
:1002C00090E0892B29F00E94550181110C940000C7
:1002D0000895FC01A48DA80FB92FB11DA35ABF4FDB
:1002E0002C91848D90E001968F739927848FA68935
:1002F000B7892C93A089B1898C91837080648C9389
:10030000938D848D981306C00288F389E02D808137
:100310008F7D80830895EF92FF920F931F93CF9369
:10032000DF93EC0181E0888F9B8D8C8D98131AC030
:10033000E889F989808185FF15C09FB7F894EE8917
:10034000FF896083E889F989808183708064808374
:100350009FBF81E090E0DF91CF911F910F91FF90BF
:10036000EF900895F62E0B8D10E00F5F1F4F0F7367
:100370001127E02E8C8D8E110CC00FB607FCFACF22
:10038000E889F989808185FFF5CFCE010E94690156
:10039000F1CFEB8DEC0FFD2FF11DE35AFF4FF082F3
:1003A0009FB7F8940B8FEA89FB8980818062CFCF59
:1003B000CF93DF93EC01888D8823B9F0AA89BB899C
:1003C000E889F9898C9185FD03C0808186FD0DC087
:1003D0000FB607FCF7CF8C9185FFF2CF808185FFA8
:1003E000EDCFCE010E946901E9CFDF91CF91089551
:1003F000833081F028F4813099F08230A9F008959B
:100400008730A9F08830C9F08430B1F48091800041
:100410008F7D03C0809180008F7780938000089546
:1004200084B58F7784BD089584B58F7DFBCF80918F
:10043000B0008F778093B00008958091B0008F7DD9
:10044000F9CF1F93CF93DF93282F30E0F901E255C6
:10045000FF4F8491F901E656FF4FD491F901EA5715
:10046000FF4FC491CC23A9F0162F81110E94F801EF
:10047000EC2FF0E0EE0FFF1FEE58FF4FA591B49167
:100480008FB7F894EC91111108C0D095DE23DC935E
:100490008FBFDF91CF911F910895DE2BF8CFCF93BF
:1004A000DF9390E0FC01E656FF4F24918A579F4F5F
:1004B000FC0184918823C9F090E0880F991FFC010A
:1004C000E859FF4FA591B491FC01EE58FF4FC5913B
:1004D000D49161110DC09FB7F8948C91209582231F
:1004E0008C938881282328839FBFDF91CF91089523
:1004F000623051F49FB7F8943C91822F809583230A
:100500008C93E8812E2BEFCF8FB7F894EC912E2BA4
:100510002C938FBFEACF3FB7F894809170019091F0
:100520007101A0917201B091730126B5A89B05C01D
:100530002F3F19F00196A11DB11D3FBFBA2FA92F62
:10054000982F8827BC01CD01620F711D811D911D5F
:1005500043E0660F771F881F991F4A95D1F70895CA
:100560008F929F92AF92BF92CF92DF92EF92FF92C3
:100570004B015C010E948B026B017C010E948B028B
:100580006C197D098E099F09683E734081059105AC
:10059000A8F321E0821A9108A108B10888EEC80EDC
:1005A00083E0D81EE11CF11C81149104A104B10464
:1005B00029F7FF90EF90DF90CF90BF90AF909F9082
:1005C0008F90089585ED8093BC008091BC0084FDE0
:1005D000FCCF1092BC01089520914801260F3327CB
:1005E000331F21323105ECF42091BC01FC0190E075
:1005F00080E0243069F082E00895A09148012191C3
:10060000AC01485D5E4FA40FB52FB11D2C93019630
:10061000861798F380914801680F6093480180E045
:10062000089581E008950895E09175018091740125
:10063000E81730F4F0E0EA58FE4F808190E008952A
:100640008FEF9FEF089590917501809174012FEFC6
:100650003FEF981748F4E92FF0E0EA58FE4F208169
:1006600030E09F5F90937501C901089580917401F6
:1006700090917501891B990B0895CF92DF92EF92AB
:10068000FF920F931F93CF93DF937C01CB018A01DD
:100690002091BD01222389F0EB016B01C40ED51E10
:1006A000CC15DD0569F06991D701ED91FC910190C0
:1006B000F081E02DC7010995F3CF642F0E94EC0271
:1006C000C801DF91CF911F910F91FF90EF90DF90C4
:1006D000CF900895CF93DF931F92CDB7DEB7698394
:1006E0002091BD012223F9F02091E001203258F041
:1006F00021E030E0FC013383228390E080E00F9022
:10070000DF91CF9108958091BE01E82FF0E0E15490
:10071000FE4F998190838F5F8093BE018093E001AB
:1007200081E090E0ECCF61E0CE0101960E94EC0206
:10073000F7CFCF93DF93EB0191E09093BD0198E663
:100740009093DF011092BE011092E001682F8EE7B6
:1007500092E00E946A0368818EE792E00E946A0339
:1007600081E0DF91CF910C948C0090E080E00895BF
:100770004115510529F4EAE7F0E080818F77808305
:100780006A307105B9F0CB01880F991F880F991F46
:10079000807267706860682B88E10FB6F894A8953E
:1007A000809360000FBE60936000E0E6F0E080811F
:1007B00080648083232BD9F483B7817F846083BFD7
:1007C000F89483B7816083BF85B7806685BF8F7DCE
:1007D00085BF7894889583B78E7F83BF7894452BA7
:1007E00029F4EAE7F0E0808180688083089583B788
:1007F000817F846083BFF89483B7816083BF7894DE
:10080000889583B78E7F83BF7894E9CFCF93DF93AA
:10081000EC0181E08093BD0188E68093DF011092B6
:10082000BE011092E0018EE792E00E946A0381E02F
:100830000E948C008091BC018111FCCF81E08093EB
:10084000BC018093BB019FEF9093BA011092B90154
:100850001092B8018093970180919701806D8093E9
:10086000970180919601813059F5109296018091FF
:1008700097018093BB008091BC0083FDF8CF85EC8D
:100880008093BC008091BC018130E1F38091B9017B
:1008900091E0811102C09091B901A8E9B1E0E6E7C9
:1008A000F1E080E089130EC010927501809374010D
:1008B0008EE792E00E9423038883DF91CF91089511
:1008C00085EEDECF2D9121938F5FECCF1F920F929B
:1008D0000FB60F9211242F933F934F935F936F9313
:1008E0007F938F939F93AF93BF93EF93FF9381EE8B
:1008F00091E00E946901FF91EF91BF91AF919F91AB
:100900008F917F916F915F914F913F912F910F90B8
:100910000FBE0F901F9018951F920F920FB60F9257
:1009200011242F938F939F93EF93FF93E091F10105
:10093000F091F2018081E091F701F091F80182FDE0
:100940001BC090818091FA018F5F8F732091FB0112
:10095000821741F0E091FA01F0E0EF51FE4F958FE0
:100960008093FA01FF91EF919F918F912F910F90BA
:100970000FBE0F901F9018958081F4CF1F920F9299
:100980000FB60F9211242F933F938F939F93AF93A2
:10099000BF9380916C0190916D01A0916E01B09117
:1009A0006F0130916B0126E0230F2D3758F5029629
:1009B000A11DB11D20936B0180936C0190936D017B
:1009C000A0936E01B0936F018091700190917101BD
:1009D000A0917201B09173010196A11DB11D809388
:1009E000700190937101A0937201B0937301BF9154
:1009F000AF919F918F913F912F910F900FBE0F90CC
:100A00001F90189529E8230F0396A11DB11DD2CF81
:100A10001F920F920FB60F9211242F933F934F9373
:100A20005F936F937F938F939F93AF93BF93EF9356
:100A3000FF93E0910201F09103010995FF91EF917D
:100A4000BF91AF919F918F917F916F915F914F91E6
:100A50003F912F910F900FBE0F901F9018951F92EE
:100A60000F920FB60F9211242F933F934F935F93E2
:100A70006F937F938F939F93AF93BF93EF93FF9366
:100A8000E0910001F09101010995FF91EF91BF9173
:100A9000AF919F918F917F916F915F914F913F9116
:100AA0002F910F900FBE0F901F9018951F920F92CD
:100AB0000FB60F9211242F933F934F935F936F9331
:100AC0007F938F939F93AF93BF93EF93FF93809107
:100AD000B900887F803609F44AC0F0F5883209F4FD
:100AE000A5C018F5803109F499C0B8F4882309F439
:100AF000F5C0883009F492C0FF91EF91BF91AF919A
:100B00009F918F917F916F915F914F913F912F9125
:100B10000F900FBE0F901F901895883109F486C072
:100B2000803251F78093BA0114C0803409F49BC01D
:100B300040F48033B9F38833F9F68093BA0185EC39
:100B4000AEC0803509F483C0883509F494C0883478
:100B500099F60E94E202D0CF883909F48AC038F5AC
:100B6000883729F050F4883611F0803729F683E071
:100B70008093BC0110926A0155C0883809F479C08D
:100B8000803919F0803809F0B7CF80916A0180323E
:100B900008F06FC0E0916A0181E08E0F80936A01D6
:100BA0008091BB00F0E0E65BFE4F80833BC0803B62
:100BB00039F0D0F4803A09F477C0883A09F09CCF34
:100BC00084E08093BC011092490110924801F0E04A
:100BD000E0E009958091480181110FC081E0809388
:100BE00048011092280109C0803C09F4A8CF883C34
:100BF00009F4A5CF883B09F07FCFE091490181E05E
:100C00008E0F80934901F0E0E85DFE4F8081809374
:100C1000BB00909149018091480129C080919701C2
:100C20008093BB0085EC8093BC0066CF9091B901A6
:100C30008091B801981758F5E091B90181E08E0FC5
:100C40008093B901F0E0E856FE4F8081E9CFE09152
:100C5000B90181E08E0F8093B9018091BB00F0E073
:100C6000E856FE4F80839091B9018091B8019817A2
:100C7000C8F285E8D8CFE091B90181E08E0F80936A
:100C8000B9018091BB00F0E0E856FE4F808380916F
:100C9000BB0181115ECF81E08093960184EA80934D
:100CA000BC001092BC0128CF85EC8093BC00109250
:100CB000BC0180916A01803230F4E0916A01F0E079
:100CC000E65BFE4F108260916A0170E08AE491E079
:100CD000F0E0E0E0099510926A010ECF1092BA019F
:100CE00038CF1F920F920FB60F9211248F930FB629
:100CF000F894A895809160008861809360001092BC
:100D000060000FBE8F910F900FBE0F901F9018952F
:100D10001092E4011092E30188EE93E0A0E0B0E0CD
:100D20008093E5019093E601A093E701B093E80179
:100D300028E031E03093E2012093E10125EC30E03E
:100D40003093EE012093ED0124EC30E03093F0017C
:100D50002093EF0120EC30E03093F2012093F10179
:100D600021EC30E03093F4012093F30122EC30E0E9
:100D70003093F6012093F50126EC30E03093F80132
:100D80002093F7011092FA011092FB011092FC01DE
:100D90001092FD01109281021092800280938202D3
:100DA00090938302A0938402B09385028AE191E03C
:100DB00090937F0280937E0210928A0210928E029C
:100DC00010928D0210928B0210928C0261E080E1F1
:100DD0000E944F0280918A02882301F110928B02B7
:100DE00061E084E00E944F0280918A028823D9F05A
:100DF00010928C0261E081E10E944F0260E081E18B
:100E00000E94210260E087E00E944F0260E083E0E0
:100E10000E944F0260E082E00C944F0260E080E1AB
:100E20000E942102DBCF60E084E00E942102E0CF3B
:100E3000CF93DF9300D0CDB7DEB7789484B58260CE
:100E400084BD84B5816084BD85B5826085BD85B56E
:100E5000816085BD80916E00816080936E001092EC
:100E60008100809181008260809381008091810067
:100E700081608093810080918000816080938000F8
:100E80008091B10084608093B1008091B000816056
:100E90008093B00080917A00846080937A00809182
:100EA0007A00826080937A0080917A008E7F8093AE
:100EB0007A0080917A00806880937A001092C10055
:100EC00080918A02882309F4E6C010928C0260E0C7
:100ED00089E00E944F026FE0CE0101960E94060455
:100EE000898188638A83BE016E5F7F4F8FE00E9495
:100EF000990360E0CE0101960E9406041982BE01AA
:100F00006F5F7F4F81E00E94990361E08DE00E9456
:100F10004F0260E08DE00E94210262E082E00E94C8
:100F20004F02E091F101F091F20182E08083E091C3
:100F3000ED01F091EE011082E091EF01F091F001EE
:100F400087E680831092F901E091F501F091F601B6
:100F500086E08083E091F301F091F401808180616B
:100F60008083E091F301F091F401808188608083B7
:100F7000E091F301F091F401808180688083E09139
:100F8000F301F091F40180818F7D808309EE10E000
:100F90009AEEE92E90E0F92E20EB622E20E0722EE0
:100FA0003CE9C32E30E0D32E48E8A42E40E0B42E16
:100FB00050E0852E50E0952E109301010093000122
:100FC000809169008C7F826080936900E89A30E0AC
:100FD00020E050E040E06AE070E08AE892E00E94A1
:100FE000B803E898F0920101E092000161E08DE021
:100FF0000E94210268EE73E080E090E00E94B0025F
:1010000060E08DE00E94210268EE73E080E090E0F5
:101010000E94B002F3018491F6015490F5014490CE
:10102000442079F081110E94F801E42DF0E0EE0FE8
:10103000FF1FE458FF4FA591B4918C91582261E0B5
:1010400009F460E08DE00E94210268E873E180E02D
:1010500090E00E94B00261E08DE00E94210268EE03
:1010600073E080E090E00E94B00260E08DE00E94BA
:10107000210268EE73E080E090E00E94B0028114EB
:10108000910409F499CF0E945501882309F494CF63
:101090000E94000091CF60E084E00E94210215CF01
:1010A000EE0FFF1F0590F491E02D0994F894FFCF07
:1010B000EA00EA00000000008B01EB001801D801F3
:1010C000490127013B01000000006A033D03B5030D
:0810D00013033603230314038C
:00000001FF
