:100000000C9462000C947F000C947F000C947F0091
:100010000C947F000C947F000C947C030C947F0064
:100020000C947F000C947F000C947F000C947F0054
:100030000C947F000C947F000C947F000C947F0044
:100040000C9417020C947F000C947F000C947F009A
:100050000C947F000C947F000C947F000C947F0024
:100060000C9461020C947F00000000002400270023
:100070002A0000000000250028002B0000000000DE
:1000800023002600290004040404040404040202DA
:100090000202020203030303030301020408102007
:1000A0004080010204081020010204081020000012
:1000B0000008000201000003040700000000000027
:1000C0000000930311241FBECFEFD8E0DEBFCDBFE9
:1000D00021E0A0E0B1E001C01D92AA37B207E1F72C
:1000E00010E0C2E6D0E004C02197FE010E947C042B
:1000F000C136D107C9F70E94CF030C9482040C9437
:100100000000833081F028F4813099F08230A9F02A
:1001100008958730A9F08830C9F08430B1F4809117
:1001200080008F7D03C0809180008F778093800056
:10013000089584B58F7784BD089584B58F7DFBCFF6
:100140008091B0008F778093B00008958091B000C7
:100150008F7DF9CF1F93CF93DF93282F30E0F901E4
:10016000E255FF4F8491F901E656FF4FD491F90112
:10017000EA57FF4FC491CC23A9F0162F81110E949A
:100180008100EC2FF0E0EE0FFF1FEE58FF4FA5911E
:10019000B4918FB7F894EC91111108C0D095DE237B
:1001A000DC938FBFDF91CF911F910895DE2BF8CFA5
:1001B000CF93DF9390E0FC01E656FF4F24918A57DE
:1001C0009F4FFC0184918823C9F090E0880F991F0C
:1001D000FC01E859FF4FA591B491FC01EE58FF4F87
:1001E000C591D49161110DC09FB7F8948C91209561
:1001F00082238C938881282328839FBFDF91CF910E
:100200000895623051F49FB7F8943C91822F809505
:1002100083238C93E8812E2BEFCF8FB7F894EC914A
:100220002E2B2C938FBFEACF3FB7F89480917001AB
:1002300090917101A0917201B091730126B5A89BB4
:1002400005C02F3F19F00196A11DB11D3FBFBA2F68
:10025000A92F982F8827BC01CD01620F711D811D28
:10026000911D43E0660F771F881F991F4A95D1F7AC
:1002700008958F929F92AF92BF92CF92DF92EF92AA
:10028000FF924B015C010E9414016B017C010E94F2
:1002900014016C197D098E099F09683E7340810520
:1002A0009105A8F321E0821A9108A108B10888EE0F
:1002B000C80E83E0D81EE11CF11C81149104A10436
:1002C000B10429F7FF90EF90DF90CF90BF90AF90EF
:1002D0009F908F90089585ED8093BC008091BC0025
:1002E00084FDFCCF10924501089520912101260F35
:1002F0003327331F21323105ECF420914501FC01F5
:1003000090E080E0243069F082E00895A09121011E
:100310002191AC014F5F5E4FA40FB52FB11D2C93FF
:100320000196861798F380912101680F609321014F
:1003300080E0089581E0089508958FEF9FEF08957C
:100340008FEF9FEF08958091000190E09195819546
:1003500091090895CF93DF93CB01EA01642F0E94A6
:100360007501CE01DF91CF910895CF93DF931F9256
:10037000CDB7DEB7698361E0CE0101960E947501B9
:1003800081E090E00F90DF91CF91089590E080E0C0
:1003900008954115510529F4EAE7F0E080818F774F
:1003A00080836A307105B9F0CB01880F991F880FDF
:1003B000991F807267706860682B88E10FB6F894A7
:1003C000A895809360000FBE60936000E0E6F0E0C7
:1003D000808180648083232BD9F483B7817F8460FC
:1003E00083BFF89483B7816083BF85B7806685BF7C
:1003F0008F7D85BF7894889583B78E7F83BF7894EF
:10040000452B29F4EAE7F0E0808180688083089535
:1004100083B7817F846083BFF89483B7816083BF93
:100420007894889583B78E7F83BF7894E9CF1F92A5
:100430000F920FB60F9211242F933F938F939F9398
:10044000AF93BF9380916C0190916D01A0916E016B
:10045000B0916F0130916B0126E0230F2D3758F5D5
:100460000296A11DB11D20936B0180936C019093A6
:100470006D01A0936E01B0936F0180917001909116
:100480007101A0917201B09173010196A11DB11D7E
:100490008093700190937101A0937201B0937301E6
:1004A000BF91AF919F918F913F912F910F900FBE70
:1004B0000F901F90189529E8230F0396A11DB11DD9
:1004C000D2CF1F920F920FB60F9211242F933F930A
:1004D0004F935F936F937F938F939F93AF93BF934C
:1004E000EF93FF938091B900887F803609F44AC06A
:1004F000F0F5883209F4A5C018F5803109F499C0E7
:10050000B8F4882309F4F5C0883009F492C0FF914B
:10051000EF91BF91AF919F918F917F916F915F917B
:100520004F913F912F910F900FBE0F901F901895F4
:10053000883109F486C0803251F78093440114C099
:10054000803409F49BC040F48033B9F38833F9F662
:100550008093440185ECAEC0803509F483C08835B2
:1005600009F494C0883499F60E946B01D0CF883981
:1005700009F48AC038F5883729F050F4883611F02C
:10058000803729F683E0809345011092430155C0DE
:10059000883809F479C0803919F0803809F0B7CF6C
:1005A00080914301803208F06FC0E091430181E007
:1005B0008E0F809343018091BB00F0E0ED5DFE4F14
:1005C00080833BC0803B39F0D0F4803A09F477C097
:1005D000883A09F09CCF84E0809345011092220173
:1005E00010922101F0E0E0E0099580912101811154
:1005F0000FC081E0809321011092010109C0803C6D
:1006000009F4A8CF883C09F4A5CF883B09F07FCF37
:10061000E091220181E08E0F80932201F0E0EF5FF4
:10062000FE4F80818093BB00909122018091210137
:1006300029C080916A018093BB0085EC8093BC0047
:1006400066CF9091690180916801981758F5E09103
:10065000690181E08E0F80936901F0E0E85BFE4F55
:100660008081E9CFE091690181E08E0F809369017B
:100670008091BB00F0E0E85BFE4F808390916901C0
:10068000809168019817C8F285E8D8CFE091690198
:1006900081E08E0F809369018091BB00F0E0E85B00
:1006A000FE4F80838091470181115ECF81E080936E
:1006B000460184EA8093BC001092450128CF85EC66
:1006C0008093BC001092450180914301803230F448
:1006D000E0914301F0E0ED5DFE4F10826091430137
:1006E00070E083E291E0F0E0E0E0099510924301D0
:1006F0000ECF1092440138CF1F920F920FB60F9277
:1007000011248F930FB6F894A895809160008861AA
:1007100080936000109260000FBE8F910F900FBE0B
:100720000F901F90189510927501109279011092F8
:100730007801109276011092770161E080E10E94C9
:10074000D80080917501882301F11092760161E053
:1007500084E00E94D800809175018823D9F010921E
:10076000770161E081E10E94D80060E081E10E94B0
:10077000AA0060E087E00E94D80060E083E00E9469
:10078000D80060E082E00C94D80060E080E10E9434
:10079000AA00DBCF60E084E00E94AA00E0CF78945A
:1007A00084B5826084BD84B5816084BD85B5826076
:1007B00085BD85B5816085BD80916E008160809327
:1007C0006E00109281008091810082608093810090
:1007D00080918100816080938100809180008160A0
:1007E000809380008091B10084608093B1008091FB
:1007F000B00081608093B00080917A008460809323
:100800007A0080917A00826080937A0080917A00E9
:100810008E7F80937A0080917A00806880937A003E
:100820001092C10061E08DE00E94D80060E08DE090
:100830000E94AA0062E082E00E94D80061E082E0AB
:100840000E94AA00C0EBD0E00CE910E098E8E92E85
:1008500090E0F92E20E0C22E20E0D22E30E020E001
:1008600050E040E069E070E084E791E00E94C90157
:1008700062E082E00E94D80061E082E00E94AA006B
:10088000FE018491F801A490F701B490BB2079F0A7
:1008900081110E948100EB2DF0E0EE0FFF1FE45864
:1008A000FF4FA591B4918C91A82261E009F460E01A
:1008B0008DE00E94AA0068E873E180E090E00E9469
:1008C000390161E08DE00E94AA0068EE73E080E0EB
:1008D00090E00E94390160E08DE00E94AA0068EE7D
:1008E00073E080E090E00E943901C114D10409F462
:1008F000B5CF0E940000B2CFEE0FFF1F0590F4911C
:08090000E02D0994F894FFCFEB
:107800000C94343C0C94513C0C94513C0C94513CE1
:107810000C94513C0C94513C0C94513C0C94513CB4
:107820000C94513C0C94513C0C94513C0C94513CA4
:107830000C94513C0C94513C0C94513C0C94513C94
:107840000C94513C0C94513C0C94513C0C94513C84
:107850000C94513C0C94513C0C94513C0C94513C74
:107860000C94513C0C94513C11241FBECFEFD8E036
:10787000DEBFCDBF11E0A0E0B1E0EAE8FFE702C063
:1078800005900D92A230B107D9F712E0A2E0B1E065
:1078900001C01D92AD30B107E1F70E942D3D0C945F
:1078A000C33F0C94003C982F95959595959595958B
:1078B000905D8F708A307CF0282F295A8091C0000B
:1078C00085FFFCCF9093C6008091C00085FFFCCF60
:1078D0002093C6000895282F205DF0CF982F809127
:1078E000C00085FFFCCF9093C6000895EF92FF92F1
:1078F0000F931F93EE24FF2487018091C00087FD22
:1079000017C00894E11CF11C011D111D81E2E8164D
:1079100081EAF80687E0080780E0180770F3E09135
:107920000401F091050109958091C00087FFE9CF1E
:107930008091C6001F910F91FF90EF9008950E94D3
:10794000763C982F8091C00085FFFCCF9093C600B5
:1079500091362CF490330CF09053892F089597555D
:10796000892F08951F930E949F3C182F0E949F3CCF
:107970001295107F810F1F9108951F93182F882350
:1079800021F00E94763C1150E1F71F9108951F935A
:10799000182F0E94763C803249F0809103018F5F5E
:1079A000809303018530C1F01F9108958091C0003C
:1079B00085FFFCCF84E18093C6008091C00085FFE5
:1079C000FCCF1093C6008091C00085FFFCCF80E102
:1079D0008093C6001F910895E0910401F091050184
:1079E00009951F9108950E94763C803241F0809164
:1079F00003018F5F80930301853081F008958091AA
:107A0000C00085FFFCCF84E18093C6008091C00058
:107A100085FFFCCF80E18093C6000895E0910401CA
:107A2000F09105010995089548EC50E08823A1F0F4
:107A30002D9A28EE33E0FA013197F1F721503040CA
:107A4000D1F72D9828EE33E0FA013197F1F7215064
:107A50003040D1F7815061F708953F924F925F9285
:107A60006F927F928F929F92AF92BF92CF92DF924E
:107A7000EF92FF920F931F93CF93DF93000082E06A
:107A80008093C00080E18093C4001092C50088E11B
:107A90008093C10086E08093C2005098589A259A3E
:107AA00081E00E94143D24E1F22E9EE1E92E85E959
:107AB000D82E0FE0C02E10E1B12EAA24A394B1E479
:107AC0009B2EA6E58A2EF2E57F2EE0E26E2E79E46B
:107AD000572E63E5462E50E5352E0E94763C8033C6
:107AE000B1F18133B9F1803409F46FC0813409F404
:107AF00076C0823409F485C0853409F488C08035A5
:107B000031F1823521F1813511F1853509F485C0D6
:107B1000863509F48DC0843609F496C0843709F49B
:107B200003C1853709F472C1863709F466C08091B4
:107B300003018F5F80930301853079F6E0910401A2
:107B4000F091050109950E94763C803351F60E9420
:107B5000F33CC3CF0E94763C803249F78091C0004D
:107B600085FFFCCFF092C6008091C00085FFFCCF5E
:107B70009092C6008091C00085FFFCCF8092C60025
:107B80008091C00085FFFCCF7092C6008091C0003C
:107B900085FFFCCF6092C6008091C00085FFFCCFBE
:107BA0005092C6008091C00085FFFCCF4092C60075
:107BB0008091C00085FFFCCF3092C6008091C0004C
:107BC00085FFFCCFB092C60088CF0E94763C8638F5
:107BD00008F4BDCF0E94763C0E94F33C7ECF0E9409
:107BE000763C803809F49CC0813809F40BC1823896
:107BF00009F430C1883909F48FC080E00E94C73C85
:107C00006CCF84E10E94BD3C0E94F33C66CF85E0CE
:107C10000E94BD3C0E94F33C60CF0E94763C809362
:107C200006010E94763C809307010E94F33C55CFE9
:107C30000E94763C803309F411C183E00E94BD3C70
:107C400080E00E94C73C49CF0E94763C80930902A5
:107C50000E94763C8093080280910C028E7F809374
:107C60000C020E94763C853409F409C18091080217
:107C700090910902892B89F000E010E00E94763C87
:107C8000F801E85FFE4F80830F5F1F4F809108026D
:107C9000909109020817190788F30E94763C8032F8
:107CA00009F045CF80910C0280FFF5C0609106017C
:107CB00070910701660F771F7093070160930601AB
:107CC000A0910802B09109021097C9F0E8E0F1E034
:107CD0009B01AD014E0F5F1FF999FECF32BD21BD53
:107CE000819180BDFA9AF99A2F5F3F4FE417F5070B
:107CF00099F76A0F7B1F70930701609306018091CB
:107D0000C00085FFFCCFF092C6008091C00085FFC7
:107D1000FCCFB092C600E1CE83E00E94C73CDDCE2E
:107D200082E00E94C73CD9CE0E94763C8093090233
:107D30000E94763C80930802809106019091070191
:107D4000880F991F90930701809306010E94763C4B
:107D5000853409F49AC080910C028E7F80930C02C6
:107D60000E94763C803209F0B8CE8091C00085FF39
:107D7000FCCFF092C600A0910802B09109021097C2
:107D8000C1F180910C02082F0170182F1695117007
:107D9000E0910601F0910701AF014F5F5F4FBA011B
:107DA00020E030E00023B1F4112339F49491809164
:107DB000C00085FFFCCF9093C6002F5F3F4FCB01E3
:107DC0000196FA012A173B0780F4BC014F5F5F4F11
:107DD000002351F3F999FECFF2BDE1BDF89A90B5B9
:107DE0008091C00085FFFCCFE6CF709307016093C0
:107DF00006018091C00085FDE5CE8091C00085FF21
:107E0000F8CFE0CE81E00E94C73C67CE0E94763C6E
:107E1000803209F08CCE8091C00085FFFCCFF092BB
:107E2000C6008091C00085FFFCCFE092C600809123
:107E3000C00085FFFCCFD092C6008091C00085FFB6
:107E4000FCCFC092C6008091C00085FFFCCFB092ED
:107E5000C60043CE80E10E94C73C3FCE0E94763CE4
:107E60000E94763C182F0E94763C112309F483C0AF
:107E7000113009F484C08FE00E94C73C2ECE80915F
:107E80000C02816080930C02F1CE80910C02816023
:107E900080930C0265CF809107018823880F880B9F
:107EA0008A2180930B028091060190910701880F2F
:107EB000991F90930701809306018091080280FF2B
:107EC00009C08091080290910902019690930902DD
:107ED00080930802F894F999FECF1127E0910601EA
:107EE000F0910701C8E0D1E0809108029091090269
:107EF000103091F40091570001700130D9F303E084
:107F000000935700E8950091570001700130D9F3B4
:107F100001E100935700E8950990199000915700EE
:107F200001700130D9F301E000935700E8951395F3
:107F3000103498F011270091570001700130D9F3E7
:107F400005E000935700E89500915700017001305B
:107F5000D9F301E100935700E8953296029709F0B2
:107F6000C7CF103011F00296E5CF11248091C000E8
:107F700085FFC5CEC8CE8EE10E94C73CAECD85E957
:0A7F80000E94C73CAACDF894FFCF81
:027F8A00800075
:040000030000780081
:00000001FF
