:100000000C945D000C9485000C9485000C94850084
:100010000C9485000C9485000C94ED070C948500DD
:100020000C9485000C9485000C9485000C9485003C
:100030000C9485000C9485000C9485000C9485002C
:100040000C9488060C9485000C9456060C9430068B
:100050000C9485000C9485000C9485000C9485000C
:100060000C94D2060C9485000000000024002700A8
:100070002A0000000000250028002B0004040404CE
:100080000404040402020202020203030303030342
:10009000010204081020408001020408102001021F
:1000A00004081020000000080002010000030407FB
:1000B0000000000000000000040811241FBECFEF64
:1000C000D8E0DEBFCDBF11E0A0E0B1E0EEE4F7E1A3
:1000D00002C005900D92A638B107D9F722E0A6E834
:1000E000B1E001C01D92AC39B207E1F710E0CDE5F7
:1000F000D0E004C02197FE010E949F0BCC35D107B0
:10010000C9F70E9482080C94A50B0C940000AF92D2
:10011000BF92CF92DF92EF92FF920F931F93CF93F4
:10012000DF936C017B018B01040F151FEB015E0156
:10013000AE18BF08C017D10759F06991D601ED91EB
:10014000FC910190F081E02DC6010995892B79F78A
:10015000C501DF91CF911F910F91FF90EF90DF903C
:10016000CF90BF90AF900895FC01538D448D252F03
:1001700030E0842F90E0821B930B541710F0CF9641
:10018000089501970895FC01918D828D981761F073
:10019000A28DAE0FBF2FB11D5D968C91928D9F5F8A
:1001A0009F73928F90E008958FEF9FEF0895FC0169
:1001B000918D828D981731F0828DE80FF11D858D1C
:1001C00090E008958FEF9FEF0895FC01918D228DAF
:1001D000892F90E0805C9F4F821B91098F73992734
:1001E00008958AEF91E00E94E50021E0892B09F44F
:1001F00020E0822F089580E090E0892B29F00E9472
:10020000F10081110C9400000895FC01A48DA80F49
:10021000B92FB11DA35ABF4F2C91848D90E0019648
:100220008F739927848FA689B7892C93A089B18968
:100230008C91837080648C93938D848D981306C009
:100240000288F389E02D80818F7D80830895EF926D
:10025000FF920F931F93CF93DF93EC0181E0888F80
:100260009B8D8C8D98131AC0E889F989808185FF50
:1002700015C09FB7F894EE89FF896083E889F989F2
:1002800080818370806480839FBF81E090E0DF91F4
:10029000CF911F910F91FF90EF900895F62E0B8D47
:1002A00010E00F5F1F4F0F731127E02E8C8D8E1102
:1002B0000CC00FB607FCFACFE889F989808185FF69
:1002C000F5CFCE010E940501F1CFEB8DEC0FFD2F94
:1002D000F11DE35AFF4FF0829FB7F8940B8FEA8924
:1002E000FB8980818062CFCFCF93DF93EC01888D33
:1002F0008823B9F0AA89BB89E889F9898C9185FDA1
:1003000003C0808186FD0DC00FB607FCF7CF8C912E
:1003100085FFF2CF808185FFEDCFCE010E940501E0
:10032000E9CFDF91CF91089590E0FC01EC55FF4FAC
:100330002491FC01E057FF4F3491FC01E458FF4F3A
:10034000E491EE23C9F0222339F0233001F1A8F41F
:10035000213019F1223029F1F0E0EE0FFF1FEE58A5
:10036000FF4FA591B4918FB7F894EC91611126C01D
:1003700030953E233C938FBF08952730A9F0283055
:10038000C9F0243049F7809180008F7D03C08091AF
:1003900080008F7780938000DFCF84B58F7784BD16
:1003A000DBCF84B58F7DFBCF8091B0008F778093BA
:1003B000B000D2CF8091B0008F7DF9CF3E2BDACF45
:1003C000CF93DF9390E0FC01E057FF4F24918458D6
:1003D0009F4FFC0184918823D1F090E0880F991FF2
:1003E000FC01E859FF4FA591B491FC01EE58FF4F75
:1003F000C591D49161110EC09FB7F8948C91E22FF2
:10040000E0958E238C932881E223E8839FBFDF91C0
:10041000CF9108958FB7F894EC91E22BEC938FBFB6
:10042000F6CF3FB7F8948091F6019091F701A09133
:10043000F801B091F90126B5A89B05C02F3F19F02E
:100440000196A11DB11D3FBFBA2FA92F982F882754
:10045000BC01CD01620F711D811D911D43E0660F2E
:10046000771F881F991F4A95D1F7089585ED8093CE
:10047000BC008091BC0084FDFCCF1092CB0108959C
:100480002091A701260F3327331F21323105ECF4C9
:100490002091CB01FC0190E080E0243069F082E003
:1004A0000895A091A7012191AC0149575E4FA40F77
:1004B000B52FB11D2C930196861798F38091A70153
:1004C000680F6093A70180E0089581E00895089582
:1004D0008FEF9FEF08958FEF9FEF08958091860132
:1004E00090E09195819591090895CF93DF93CB0189
:1004F000EA01642F0E944002CE01DF91CF9108955E
:10050000CF93DF931F92CDB7DEB7698361E0CE0151
:1005100001960E94400281E090E00F90DF91CF9120
:10052000089590E080E00895CF93DF93EC018881F7
:100530009981DC01ED91FC910190F081E02D09950C
:100540002A813B81820F931F9B838A83DF91CF9106
:100550000895DC018D919C91DC01ED91FC9102806C
:10056000F381E02D0994EF92FF920F931F93CF93A5
:10057000DF93CDB7DEB766970FB6F894DEBF0FBE38
:10058000CDBF8C01CB01FE0177969F014AE0E42E9E
:10059000F12CB7010E94550B805D8293CB0100972F
:1005A000C1F7A9014E1B5F0BBF01C8010E94A90240
:1005B000F80122813381820F931F93838283669691
:1005C0000FB6F894DEBF0FBECDBFDF91CF911F9164
:1005D0000F91FF90EF9008958F929F92AF92BF92EC
:1005E000CF92DF92EF92FF920F931F93CF93DF93FF
:1005F000CDB7DEB766970FB6F894DEBF0FBECDBF9E
:100600007C018E01095E1F4F68018AE0882E912CC3
:10061000A12CB12CCB01BA01A50194010E94690B58
:10062000942F852F605DF80162938F01A901692FD6
:10063000782F411551056105710561F7A6014E1B23
:100640005F0BBF01C7010E94A902F701228133811C
:10065000820F931F9383828366960FB6F894DEBF52
:100660000FBECDBFDF91CF911F910F91FF90EF9003
:10067000DF90CF90BF90AF909F908F900895EF92B2
:10068000FF920F931F93CF93DF93EC017B0162E204
:100690000E9494028701F80161918F01662391F015
:1006A000EAE5F1E0F280FF2049F03296818168139B
:1006B000F9CF6CE5CE010E9494026F2DCE010E940D
:1006C0009402E9CF62E2CE01DF91CF911F910F91A9
:1006D000FF90EF900C949402FC012581222339F0C5
:1006E000F8E02F0290011124820F931F089590E0EB
:1006F00080E00895CF93DF93EC01FB01019000208F
:10070000E9F73197AF01461B570B0E94A9022A81D6
:100710003B81820F931F9B838A83DF91CF91089542
:100720002F923F924F925F926F927F928F929F9201
:10073000AF92BF92CF92DF92EF92FF920F931F93EF
:10074000CF93DF93CDB7DEB76A970FB6F894DEBFCD
:100750000FBECDBF8C014B01DC0114968C91149718
:100760008F77863009F46BC2C8F4823000F1843090
:1007700008F04BC2F8014281538160817181C4014C
:100780000E94A902D40112962D913C911397820FD9
:10079000931F13969C938E931297EBC18C3051F15B
:1007A00048F4883009F446C28A3009F434C26BE652
:1007B00071E052C2803209F403C28034C1F76BE5A4
:1007C000C4010E949402F8010081118101151105F4
:1007D00009F4F1C1B401C8010E949003C8010E944C
:1007E0006C038C01892B09F4E6C16CE2C4010E9400
:1007F0009402ECCFF8014080518062807380A301A5
:100800009201C301B2010E94FD098111D0CF20E005
:1008100030E0A901C301B2010E94FD09882379F0EB
:10082000A3019201C301B2010E9491099B01AC0195
:10083000C301B2010E94FD09882309F4B8CF20E06A
:1008400030E0A901C301B2010E94FD0987FF08C081
:100850006DE2C4010E94940277FA709477F8709464
:1008600020E836E948E15BE4C301B2010E94E30AF3
:1008700087FD79C048E4E42E41E0F42E58E1C52E0E
:1008800051E0D52E60E3A62E61E0B62E00E210E026
:10089000312C212CD7015E914E913E912E917D01FC
:1008A000C301B2010E94E30A87FD0DC0F60124894D
:1008B000358946895789C301B2010E94E80A2B0194
:1008C0003C01200E311E15950795F4E0CF1AD10892
:1008D000AE14BF04F9F68FEF8B8B20E030E0A90156
:1008E000C301B2010E94E30A18160CF043C02CEABF
:1008F00035EC47E257E3C301B2010E94FD09181627
:10090000CCF1AB89B4E0AB0250011124D12CC12C45
:10091000EB89EF3F79F17501EC0CFD1CF701E0501C
:10092000FF4FA301920160817181828193810E94B6
:10093000E30A18167CF4F701E05DFE4F2081318157
:1009400042815381C301B2010E94E80A2B013C019C
:10095000201A310A15950795FB89F150FB8B84E02D
:10096000C81AD108D5CF00E210E095E09B8B312C5E
:10097000212CB3CFC301B2010E94020A6B8B7C8B86
:100980008D8B9E8B6B017C0116E080E492E4AFE0DE
:10099000B0E08F8B988FA98FBA8F012F11509AE0FA
:1009A000C916D104E104F104C8F06F89788D898DEE
:1009B0009A8D2AE030E040E050E00E94690B2F8BD6
:1009C000388F498F5A8FC701B6012AE030E040E0E6
:1009D00050E00E94690B69017A01DFCF6B897C8945
:1009E0008D899E890E94310A9B01AC01C301B2012D
:1009F0000E9490096B017C016F89788D898D9A8D99
:100A00000E94310A9B01AC01C701B6010E94E80AAD
:100A10002B013C010E94020A6B017C010E94310AF9
:100A20009B01AC01C301B2010E9490099B01AC0182
:100A30000E9491090E94020AC60ED71EE81EF91EE6
:100A40008F89988DA98DBA8DC816D906EA06FB063E
:100A500000F18B899C89AD89BE890196A11DB11DCC
:100A60008B8B9C8BAD8BBE8B2114310439F10A9793
:100A7000A105B10518F19FEF291A390AC12CD12C13
:100A8000760181E090E0A0E0B0E08B8B9C8BAD8B99
:100A9000BE8B9AE0492E512C612C712CC701B601F6
:100AA000A30192010E94690B672B682B692B51F4FB
:100AB000101644F469017A010150F0CFC12CD12CF9
:100AC0007601E7CF4B895C896D897E89C4010E94DC
:100AD000EC02002309F43FC05E0191E1A90EB11CB4
:100AE000102FBA8AA98A8AE0482E512C612C712CC9
:100AF000115068F0C701B601A30192010E94690B71
:100B0000605DD5016E935D0169017A01F1CF802F9F
:100B100090E0BC0160957095E989FA89E81BF90BB2
:100B200031978EE2808344275527461B570BE1E11E
:100B3000F0E0EC0FFD1F6E0F7F1FC4010E94A902A1
:100B4000D40112962D913C911397820F931F139607
:100B50009C938E93129737FE25C060E771E0C40125
:100B60000E947A036627772762197309C4010E94DD
:100B7000B3026A960FB6F894DEBF0FBECDBFDF9109
:100B8000CF911F910F91FF90EF90DF90CF90BF908A
:100B9000AF909F908F907F906F905F904F903F901D
:100BA0002F9008952114310421F365E6C4010E94B9
:100BB0009402B101DBCF6DE5C4010E949402D9CF4C
:100BC0006BE7C4010E949402D8010D911C9101159C
:100BD0001105C9F0F80166817781C4010E943F03C5
:100BE0006AE3C4010E949402B401C8010E94900308
:100BF000C8010E946C038C01892B29F06CE2C401AE
:100C00000E949402E4CF6DE7D7CF6D917C91C4012F
:100C10000E943F03AECFF801C080D180E280F38014
:100C20006DE2C4010E949402B701A601C4010E94B2
:100C3000EC029FCF4D915D916D917C91F7CFF801C2
:100C400080819181A281B38163E771E0892B8A2B36
:100C50008B2B11F468E771E0C4010E947A0389CFFD
:100C60001F920F920FB60F9211242F933F934F9321
:100C70005F936F937F938F939F93AF93BF93EF9304
:100C8000FF938AEF91E00E940501FF91EF91BF91E0
:100C9000AF919F918F917F916F915F914F913F9114
:100CA0002F910F900FBE0F901F9018951F920F92CB
:100CB0000FB60F9211242F938F939F93EF93FF936F
:100CC000E0910A02F0910B028081E0911002F09114
:100CD000110282FD1BC09081809113028F5F8F7380
:100CE00020911402821741F0E0911302F0E0E650E7
:100CF000FE4F958F80931302FF91EF919F918F91FB
:100D00002F910F900FBE0F901F9018958081F4CFF8
:100D10001F920F920FB60F9211242F933F938F9330
:100D20009F93AF93BF938091F2019091F301A091B3
:100D3000F401B091F5013091F10126E0230F2D3738
:100D400058F50296A11DB11D2093F1018093F20187
:100D50009093F301A093F401B093F5018091F60113
:100D60009091F701A091F801B091F9010196A11DB0
:100D7000B11D8093F6019093F701A093F801B09311
:100D8000F901BF91AF919F918F913F912F910F905A
:100D90000FBE0F901F90189529E8230F0396A11DF1
:100DA000B11DD2CF1F920F920FB60F9211242F9325
:100DB0003F934F935F936F937F938F939F93AF93E3
:100DC000BF93EF93FF938091B900887F803609F439
:100DD0004AC0F0F5883209F4A5C018F5803109F44D
:100DE00099C0B8F4882309F4F5C0883009F492C09A
:100DF000FF91EF91BF91AF919F918F917F916F91F3
:100E00005F914F913F912F910F900FBE0F901F90C8
:100E10001895883109F486C0803251F78093CA0151
:100E200014C0803409F49BC040F48033B9F3883394
:100E3000F9F68093CA0185ECAEC0803509F483C011
:100E4000883509F494C0883499F60E943602D0CFD0
:100E5000883909F48AC038F5883729F050F4883683
:100E600011F0803729F683E08093CB011092C901FD
:100E700055C0883809F479C0803919F0803809F0F4
:100E8000B7CF8091C901803208F06FC0E091C901ED
:100E900081E08E0F8093C9018091BB00F0E0E7559F
:100EA000FE4F80833BC0803B39F0D0F4803A09F498
:100EB00077C0883A09F09CCF84E08093CB011092F0
:100EC000A8011092A701F0E0E0E009958091A70148
:100ED00081110FC081E08093A7011092870109C0A2
:100EE000803C09F4A8CF883C09F4A5CF883B09F0E1
:100EF0007FCFE091A80181E08E0F8093A801F0E000
:100F0000E957FE4F80818093BB009091A8018091AA
:100F1000A70129C08091F0018093BB0085EC8093EC
:100F2000BC0066CF9091EF018091EE01981758F5C3
:100F3000E091EF0181E08E0F8093EF01F0E0E2534A
:100F4000FE4F8081E9CFE091EF0181E08E0F809329
:100F5000EF018091BB00F0E0E253FE4F808390915F
:100F6000EF018091EE019817C8F285E8D8CFE091A3
:100F7000EF0181E08E0F8093EF018091BB00F0E0E4
:100F8000E253FE4F80838091CD0181115ECF81E0DD
:100F90008093CC0184EA8093BC001092CB0128CFCF
:100FA00085EC8093BC001092CB018091C901803206
:100FB00030F4E091C901F0E0E755FE4F10826091F6
:100FC000C90170E089EA91E0F0E0E0E00995109253
:100FD000C9010ECF1092CA0138CF1F920F920FB6DF
:100FE0000F9211248F930FB6F894A895809160000A
:100FF000886180936000109260000FBE8F910F9007
:101000000FBE0F901F9018951092FD011092FC01D9
:1010100088EE93E0A0E0B0E08093FE019093FF01A2
:10102000A0930002B09301028CE491E09093FB0145
:101030008093FA0185EC90E090930702809306027A
:1010400084EC90E0909309028093080280EC90E099
:1010500090930B0280930A0281EC90E090930D0232
:1010600080930C0282EC90E090930F0280930E022A
:1010700086EC90E09093110280931002109213027C
:1010800010921402109215021092160210929702FA
:1010900010929B0210929A0210929802109299025A
:1010A00061E080E10E94E00180919702882301F1D4
:1010B0001092980261E084E00E94E0018091970222
:1010C0008823D9F01092990261E081E10E94E00149
:1010D00060E081E10E94940160E087E00E94E0010D
:1010E00060E083E00E94E00160E082E00C94E001B7
:1010F00060E080E10E949401DBCF60E084E00E9428
:101100009401E0CFCF93DF93CDB7DEB769970FB6E9
:10111000F894DEBF0FBECDBF789484B5826084BDE5
:1011200084B5816084BD85B5826085BD85B58160EB
:1011300085BD80916E00816080936E001092810069
:101140008091810082608093810080918100816024
:1011500080938100809180008160809380008091E5
:10116000B10084608093B1008091B0008160809371
:10117000B00080917A00846080937A0080917A0038
:10118000826080937A0080917A008E7F80937A00CB
:1011900080917A00806880937A001092C1008091DB
:1011A0009702882309F4B2C01092980280919702A6
:1011B000882309F4B0C081E080939902E0910A028B
:1011C000F0910B0282E08083E0910602F091070229
:1011D0001082E0910802F091090287E68083109264
:1011E0001202E0910E02F0910F0286E08083E091FE
:1011F0000C02F0910D02808180618083E0910C02ED
:10120000F0910D02808188608083E0910C02F09162
:101210000D02808180688083E0910C02F0910D02C4
:1012200080818F7D808361E089E00E94E00160E041
:1012300089E00E9494018E01025F1F4F1E0126E18A
:10124000220E311C412C512C320143941A83098304
:101250001C830B8338862F828D85807880628D87F2
:101260001E830D831A8709871C870B871B8A8EE7CD
:1012700091E09D8B8C8B98E09A8B4E865F86688A76
:10128000798A8AEF91E09F8B8E8B198E188EB1012F
:10129000CE0109960E94900342E050E063E871E0BD
:1012A0008AEF91E00E9487000E9411024B015C01CD
:1012B00084EFC82EDD24D394E12CF12C0E9411027E
:1012C000681979098A099B09683E7340810591056F
:1012D000A8F391E0C91AD108E108F10828EE820EBE
:1012E00023E0921EA11CB11CC114D104E104F1043D
:1012F00029F780E090E0892B09F4A8CF0E94F10043
:10130000882309F4A3CF0E940000A0CF60E080E111
:101310000E94940149CF61E084E00E9494014BCF88
:101320005058BB27AA270E94A8090C94A90A0E941A
:101330009B0A38F00E94A20A20F039F49F3F19F46A
:1013400026F40C94980A0EF4E095E7FB0C94920AAC
:10135000E92F0E94BA0A58F3BA1762077307840785
:10136000950720F079F4A6F50C94DC0A0EF4E095CC
:101370000B2EBA2FA02D0B01B90190010C01CA014F
:10138000A0011124FF27591B99F0593F50F4503EFA
:1013900068F11A16F040A22F232F342F4427585FEC
:1013A000F3CF469537952795A795F0405395C9F704
:1013B0007EF41F16BA0B620B730B840BBAF09150BC
:1013C000A1F0FF0FBB1F661F771F881FC2F70EC05B
:1013D000BA0F621F731F841F48F48795779567952E
:1013E000B795F7959E3F08F0B0CF9395880F08F01A
:1013F0009927EE0F9795879508950E946E0A08F435
:1014000081E008950E94C20A88F09F5798F0B92F92
:101410009927B751B0F0E1F0660F771F881F991F29
:101420001AF0BA95C9F714C0B13091F00E94DC0AE5
:10143000B1E008950C94DC0A672F782F8827B85FF5
:1014400039F0B93FCCF3869577956795B395D9F781
:101450003EF490958095709561957F4F8F4F9F4F8B
:101460000895E89409C097FB3EF490958095709597
:1014700061957F4F8F4F9F4F9923A9F0F92F96E9E0
:10148000BB279395F695879577956795B795F11155
:10149000F8CFFAF4BB0F11F460FF1BC06F5F7F4FF2
:1014A0008F4F9F4F16C0882311F096E911C0772304
:1014B00021F09EE8872F762F05C0662371F096E80D
:1014C000862F70E060E02AF09A95660F771F881FDC
:1014D000DAF7880F9695879597F90895990F000880
:1014E000550FAA0BE0E8FEEF16161706E807F907F6
:1014F000C0F012161306E407F50798F0621B730B91
:10150000840B950B39F40A2661F0232B242B252B11
:1015100021F408950A2609F4A140A6958FEF811DB4
:10152000811D089597F99F6780E870E060E0089555
:101530009FEF80EC089500240A94161617061806EB
:101540000906089500240A941216130614060506C7
:101550000895092E0394000C11F4882352F0BB0F58
:1015600040F4BF2B11F460FF04C06F5F7F4F8F4FBB
:101570009F4F089557FD9058440F551F59F05F3FF6
:1015800071F04795880F97FB991F61F09F3F79F0A5
:1015900087950895121613061406551FF2CF469527
:1015A000F1DF08C0161617061806991FF1CF8695A9
:1015B0007105610508940895E894BB27662777278D
:1015C000CB0197F908950E946E0A08F48FEF0895F1
:1015D0000E94FB0A0C94A90A0E949B0A38F00E9400
:1015E000A20A20F0952311F00C94920A0C94980A08
:1015F00011240C94DD0A0E94BA0A70F3959FC1F37E
:10160000950F50E0551F629FF001729FBB27F00DB0
:10161000B11D639FAA27F00DB11DAA1F649F662705
:10162000B00DA11D661F829F2227B00DA11D621F54
:10163000739FB00DA11D621F839FA00D611D221F0E
:10164000749F3327A00D611D231F849F600D211DF2
:10165000822F762F6A2F11249F5750409AF0F1F075
:1016600088234AF0EE0FFF1FBB1F661F771F881FDE
:1016700091505040A9F79E3F510580F00C94920A7A
:101680000C94DD0A5F3FE4F3983ED4F3869577959A
:101690006795B795F795E7959F5FC1F7FE2B880F84
:1016A000911D9695879597F9089597FB072E16F447
:1016B000009407D077FD09D00E948B0B07FC05D062
:1016C0003EF4909581959F4F0895709561957F4F59
:1016D0000895A1E21A2EAA1BBB1BFD010DC0AA1F73
:1016E000BB1FEE1FFF1FA217B307E407F50720F08B
:1016F000A21BB30BE40BF50B661F771F881F991F06
:101700001A9469F760957095809590959B01AC014E
:10171000BD01CF010895AA1BBB1B51E107C0AA1F41
:10172000BB1FA617B70710F0A61BB70B881F991F82
:101730005A95A9F780959095BC01CD010895EE0FBB
:0E174000FF1F0590F491E02D0994F894FFCF5F
:10174E000000803FCDCCCC3D6F12833A95BFD6338F
:10175E007D1D9026B3CE010CCDCCCC3D0AD7233CBB
:10176E0017B7D13877CC2B329595E6241FB14F0A97
:10177E00000020410000C84200401C4620BCBE4C68
:10178E00CA1B0E5AAEC59D740000000027018700CB
:10179E00B4007401E500C300D7002F2F22225C5C39
:1017AE006208660C6E0A720D7409006E756C6C0020
:1017BE00652D00747275650066616C7365006B65EE
:0617CE007931000D0A0054
:00000001FF
