:100000000C945D000C9485000C9485000C94850084
:100010000C9485000C9485000C9436030C94850098
:100020000C9485000C9485000C9485000C9485003C
:100030000C9485000C9485000C9485000C9485002C
:100040000C94EC020C9485000C94BA020C9494026B
:100050000C9485000C9485000C9485000C9485000C
:100060000C944D030C948500000000002400270030
:100070002A0000000000250028002B0004040404CE
:100080000404040402020202020203030303030342
:10009000010204081020408001020408102001021F
:1000A00004081020000000080002010000030407FB
:1000B0000000000000000000680411241FBECFEF04
:1000C000D8E0DEBFCDBF11E0A0E0B1E0E0E7FCE0AA
:1000D00002C005900D92A631B107D9F722E0A6E142
:1000E000B1E001C01D92AC32B207E1F710E0CDE5FE
:1000F000D0E004C02197FE010E943006CC35D10724
:10010000C9F70E94E6040C9436060C940000AF92E6
:10011000BF92CF92DF92EF92FF920F931F93CF93F4
:10012000DF936C017B018B01040F151FEB015E0156
:10013000AE18BF08C017D10759F06991D601ED91EB
:10014000FC910190F081E02DC6010995892B79F78A
:10015000C501DF91CF911F910F91FF90EF90DF903C
:10016000CF90BF90AF900895FC01538D448D252F03
:1001700030E0842F90E0821B930B541710F0CF9641
:10018000089501970895FC01918D828D981761F073
:10019000A28DAE0FBF2FB11D5D968C91928D9F5F8A
:1001A0009F73928F90E008958FEF9FEF0895FC0169
:1001B000918D828D981731F0828DE80FF11D858D1C
:1001C00090E008958FEF9FEF0895FC01918D228DAF
:1001D000892F90E0805C9F4F821B91098F73992734
:1001E00008958AE891E00E94E50021E0892B09F456
:1001F00020E0822F089580E090E0892B29F00E9472
:10020000F10081110C9400000895FC01A48DA80F49
:10021000B92FB11DA35ABF4F2C91848D90E0019648
:100220008F739927848FA689B7892C93A089B18968
:100230008C91837080648C93938D848D981306C009
:100240000288F389E02D80818F7D80830895EF926D
:10025000FF920F931F93CF93DF93EC0181E0888F80
:100260009B8D8C8D98131AC0E889F989808185FF50
:1002700015C09FB7F894EE89FF896083E889F989F2
:1002800080818370806480839FBF81E090E0DF91F4
:10029000CF911F910F91FF90EF900895F62E0B8D47
:1002A00010E00F5F1F4F0F731127E02E8C8D8E1102
:1002B0000CC00FB607FCFACFE889F989808185FF69
:1002C000F5CFCE010E940501F1CFEB8DEC0FFD2F94
:1002D000F11DE35AFF4FF0829FB7F8940B8FEA8924
:1002E000FB8980818062CFCFCF93DF93EC01888D33
:1002F0008823B9F0AA89BB89E889F9898C9185FDA1
:1003000003C0808186FD0DC00FB607FCF7CF8C912E
:1003100085FFF2CF808185FFEDCFCE010E940501E0
:10032000E9CFDF91CF91089590E0FC01EC55FF4FAC
:100330002491FC01E057FF4F3491FC01E458FF4F3A
:10034000E491EE23C9F0222339F0233001F1A8F41F
:10035000213019F1223029F1F0E0EE0FFF1FEE58A5
:10036000FF4FA591B4918FB7F894EC91611126C01D
:1003700030953E233C938FBF08952730A9F0283055
:10038000C9F0243049F7809180008F7D03C08091AF
:1003900080008F7780938000DFCF84B58F7784BD16
:1003A000DBCF84B58F7DFBCF8091B0008F778093BA
:1003B000B000D2CF8091B0008F7DF9CF3E2BDACF45
:1003C000CF93DF9390E0FC01E057FF4F24918458D6
:1003D0009F4FFC0184918823D1F090E0880F991FF2
:1003E000FC01E859FF4FA591B491FC01EE58FF4F75
:1003F000C591D49161110EC09FB7F8948C91E22FF2
:10040000E0958E238C932881E223E8839FBFDF91C0
:10041000CF9108958FB7F894EC91E22BEC938FBFB6
:10042000F6CF3FB7F8948091860190918701A09113
:100430008801B091890126B5A89B05C02F3F19F00E
:100440000196A11DB11D3FBFBA2FA92F982F882754
:10045000BC01CD01620F711D811D911D43E0660F2E
:10046000771F881F991F4A95D1F7089585ED8093CE
:10047000BC008091BC0084FDFCCF10925B0108950C
:1004800020913701260F3327331F21323105ECF439
:1004900020915B01FC0190E080E0243069F082E073
:1004A0000895A09137012191AC01495E5E4FA40FE0
:1004B000B52FB11D2C930196861798F380913701C3
:1004C000680F6093370180E0089581E008950895F2
:1004D0008FEF9FEF08958FEF9FEF089580911601A2
:1004E00090E09195819591090895CF93DF93CB0189
:1004F000EA01642F0E944002CE01DF91CF9108955E
:10050000CF93DF931F92CDB7DEB7698361E0CE0151
:1005100001960E94400281E090E00F90DF91CF9120
:10052000089590E080E008951F920F920FB60F9209
:1005300011242F933F934F935F936F937F938F93E8
:100540009F93AF93BF93EF93FF938AE891E00E944C
:100550000501FF91EF91BF91AF919F918F917F9195
:100560006F915F914F913F912F910F900FBE0F9020
:100570001F9018951F920F920FB60F9211242F9370
:100580008F939F93EF93FF93E0919A01F0919B01DA
:100590008081E091A001F091A10182FD1BC09081BA
:1005A0008091A3018F5F8F732091A401821741F086
:1005B000E091A301F0E0E657FE4F958F8093A301F1
:1005C000FF91EF919F918F912F910F900FBE0F9000
:1005D0001F9018958081F4CF1F920F920FB60F9243
:1005E00011242F933F938F939F93AF93BF93809149
:1005F000820190918301A0918401B0918501309195
:10060000810126E0230F2D3758F50296A11DB11D5B
:10061000209381018093820190938301A0938401B0
:10062000B09385018091860190918701A091880106
:10063000B09189010196A11DB11D8093860190930F
:100640008701A0938801B0938901BF91AF919F91D9
:100650008F913F912F910F900FBE0F901F90189583
:1006600029E8230F0396A11DB11DD2CF1F920F922F
:100670000FB60F9211248F930FB6F894A89580911E
:100680006000886180936000109260000FBE8F91BF
:100690000F900FBE0F901F9018951F920F920FB6DC
:1006A0000F9211242F933F934F935F936F937F93F8
:1006B0008F939F93AF93BF93EF93FF938091B90074
:1006C000887F803609F44AC0F0F5883209F4A5C065
:1006D00018F5803109F499C0B8F4882309F4F5C0FD
:1006E000883009F492C0FF91EF91BF91AF919F9133
:1006F0008F917F916F915F914F913F912F910F90CB
:100700000FBE0F901F901895883109F486C0803273
:1007100051F780935A0114C0803409F49BC040F40F
:100720008033B9F38833F9F680935A0185ECAEC073
:10073000803509F483C0883509F494C0883499F66B
:100740000E943602D0CF883909F48AC038F588373C
:1007500029F050F4883611F0803729F683E0809331
:100760005B011092590155C0883809F479C080396D
:1007700019F0803809F0B7CF80915901803208F024
:100780006FC0E091590181E08E0F809359018091F3
:10079000BB00F0E0E75CFE4F80833BC0803B39F05C
:1007A000D0F4803A09F477C0883A09F09CCF84E00D
:1007B00080935B011092380110923701F0E0E0E085
:1007C00009958091370181110FC081E08093370135
:1007D0001092170109C0803C09F4A8CF883C09F4A5
:1007E000A5CF883B09F07FCFE091380181E08E0FE3
:1007F00080933801F0E0E95EFE4F80818093BB007A
:10080000909138018091370129C0809180018093B7
:10081000BB0085EC8093BC0066CF90917F018091F6
:100820007E01981758F5E0917F0181E08E0F80934B
:100830007F01F0E0E25AFE4F8081E9CFE0917F0135
:1008400081E08E0F80937F018091BB00F0E0E25A3F
:10085000FE4F808390917F0180917E019817C8F2AE
:1008600085E8D8CFE0917F0181E08E0F80937F01F2
:100870008091BB00F0E0E25AFE4F808380915D01E1
:1008800081115ECF81E080935C0184EA8093BC009B
:1008900010925B0128CF85EC8093BC0010925B0125
:1008A00080915901803230F4E0915901F0E0E75C29
:1008B000FE4F10826091590170E089E391E0F0E011
:1008C000E0E00995109259010ECF10925A0138CFED
:1008D00010928D0110928C0188EE93E0A0E0B0E0C0
:1008E00080938E0190938F01A0939001B09391011A
:1008F00084E091E090938B0180938A0185EC90E0F5
:10090000909397018093960184EC90E090939901E5
:100910008093980180EC90E090939B0180939A01E2
:1009200081EC90E090939D0180939C0182EC90E09B
:1009300090939F0180939E0186EC90E09093A1019B
:100940008093A0011092A3011092A4011092A5011E
:100950001092A6011092270210922B0210922A02E6
:10096000109228021092290261E080E10E94E001C9
:1009700080912702882301F11092280261E084E02F
:100980000E94E001809127028823D9F01092290269
:1009900061E081E10E94E00160E081E10E94940158
:1009A00060E087E00E94E00160E083E00E94E001F7
:1009B00060E082E00C94E00160E080E10E9494013C
:1009C000DBCF60E084E00E949401E0CFCF93DF931F
:1009D000CDB7DEB7A1970FB6F894DEBF0FBECDBF7F
:1009E000789484B5826084BD84B5816084BD85B50A
:1009F000826085BD85B5816085BD80916E00816016
:100A000080936E00109281008091810082608093BB
:100A100081008091810081608093810080918000BD
:100A20008160809380008091B10084608093B100E8
:100A30008091B00081608093B00080917A008460E2
:100A400080937A0080917A00826080937A0080910E
:100A50007A008E7F80937A0080917A0080688093FC
:100A60007A001092C100E0919A01F0919B0182E01E
:100A70008083E0919601F09197011082E0919801B6
:100A8000F091990187E680831092A201E0919E0186
:100A9000F0919F0186E08083E0919C01F0919D019F
:100AA000808180618083E0919C01F0919D01808133
:100AB00088608083E0919C01F0919D018081806835
:100AC0008083E0919C01F0919D0180818F7D8083E6
:100AD00061E089E00E94E00160E089E00E94940109
:100AE00093E4392E2AE0822E912CA12CB12C309245
:100AF0007C0080917A00806480937A0080917A00F3
:100B000086FDFCCF90917800809179008927982705
:100B100089272C01092E000C6608770897FF68C00A
:100B20006DE28AE891E00E94270122273327A9017C
:100B3000241935094609570919A28E010F5D1F4F67
:100B4000CA01B901A50194010E940E06605DF80179
:100B500062938F01211531054105510589F7011572
:100B6000110561F001900020E9F73197AF01401BBA
:100B7000510BB8018AE891E00E94870042E050E002
:100B800062E171E08AE891E00E9487000E94110210
:100B90006B017C0184EF482E55245394612C712CF9
:100BA0000E9411026C197D098E099F09683E7340ED
:100BB00081059105A8F3F1E04F1A51086108710809
:100BC00028EEC20E23E0D21EE11CF11C4114510498
:100BD0006104710429F780E090E0892B09F487CF44
:100BE0000E94F100882309F482CF0E9400007FCF89
:100BF000A301920119A28E010F5D1F4FCA01B90115
:100C0000A50194010E940E06605DF80162938F01B8
:100C1000211531054105510589F7A1CFA1E21A2E11
:100C2000AA1BBB1BFD010DC0AA1FBB1FEE1FFF1F90
:100C3000A217B307E407F50720F0A21BB30BE40BE0
:100C4000F50B661F771F881F991F1A9469F7609527
:100C50007095809590959B01AC01BD01CF010895E1
:100C6000EE0FFF1F0590F491E02D0994F894FFCF4B
:100C70000000000027018700B4007401E500C300F4
:060C8000D7000D0A000080
:107800000C94343C0C94513C0C94513C0C94513CE1
:107810000C94513C0C94513C0C94513C0C94513CB4
:107820000C94513C0C94513C0C94513C0C94513CA4
:107830000C94513C0C94513C0C94513C0C94513C94
:107840000C94513C0C94513C0C94513C0C94513C84
:107850000C94513C0C94513C0C94513C0C94513C74
:107860000C94513C0C94513C11241FBECFEFD8E036
:10787000DEBFCDBF11E0A0E0B1E0EAE8FFE702C063
:1078800005900D92A230B107D9F712E0A2E0B1E065
:1078900001C01D92AD30B107E1F70E942D3D0C945F
:1078A000C33F0C94003C982F95959595959595958B
:1078B000905D8F708A307CF0282F295A8091C0000B
:1078C00085FFFCCF9093C6008091C00085FFFCCF60
:1078D0002093C6000895282F205DF0CF982F809127
:1078E000C00085FFFCCF9093C6000895EF92FF92F1
:1078F0000F931F93EE24FF2487018091C00087FD22
:1079000017C00894E11CF11C011D111D81E2E8164D
:1079100081EAF80687E0080780E0180770F3E09135
:107920000401F091050109958091C00087FFE9CF1E
:107930008091C6001F910F91FF90EF9008950E94D3
:10794000763C982F8091C00085FFFCCF9093C600B5
:1079500091362CF490330CF09053892F089597555D
:10796000892F08951F930E949F3C182F0E949F3CCF
:107970001295107F810F1F9108951F93182F882350
:1079800021F00E94763C1150E1F71F9108951F935A
:10799000182F0E94763C803249F0809103018F5F5E
:1079A000809303018530C1F01F9108958091C0003C
:1079B00085FFFCCF84E18093C6008091C00085FFE5
:1079C000FCCF1093C6008091C00085FFFCCF80E102
:1079D0008093C6001F910895E0910401F091050184
:1079E00009951F9108950E94763C803241F0809164
:1079F00003018F5F80930301853081F008958091AA
:107A0000C00085FFFCCF84E18093C6008091C00058
:107A100085FFFCCF80E18093C6000895E0910401CA
:107A2000F09105010995089548EC50E08823A1F0F4
:107A30002D9A28EE33E0FA013197F1F721503040CA
:107A4000D1F72D9828EE33E0FA013197F1F7215064
:107A50003040D1F7815061F708953F924F925F9285
:107A60006F927F928F929F92AF92BF92CF92DF924E
:107A7000EF92FF920F931F93CF93DF93000082E06A
:107A80008093C00080E18093C4001092C50088E11B
:107A90008093C10086E08093C2005098589A259A3E
:107AA00081E00E94143D24E1F22E9EE1E92E85E959
:107AB000D82E0FE0C02E10E1B12EAA24A394B1E479
:107AC0009B2EA6E58A2EF2E57F2EE0E26E2E79E46B
:107AD000572E63E5462E50E5352E0E94763C8033C6
:107AE000B1F18133B9F1803409F46FC0813409F404
:107AF00076C0823409F485C0853409F488C08035A5
:107B000031F1823521F1813511F1853509F485C0D6
:107B1000863509F48DC0843609F496C0843709F49B
:107B200003C1853709F472C1863709F466C08091B4
:107B300003018F5F80930301853079F6E0910401A2
:107B4000F091050109950E94763C803351F60E9420
:107B5000F33CC3CF0E94763C803249F78091C0004D
:107B600085FFFCCFF092C6008091C00085FFFCCF5E
:107B70009092C6008091C00085FFFCCF8092C60025
:107B80008091C00085FFFCCF7092C6008091C0003C
:107B900085FFFCCF6092C6008091C00085FFFCCFBE
:107BA0005092C6008091C00085FFFCCF4092C60075
:107BB0008091C00085FFFCCF3092C6008091C0004C
:107BC00085FFFCCFB092C60088CF0E94763C8638F5
:107BD00008F4BDCF0E94763C0E94F33C7ECF0E9409
:107BE000763C803809F49CC0813809F40BC1823896
:107BF00009F430C1883909F48FC080E00E94C73C85
:107C00006CCF84E10E94BD3C0E94F33C66CF85E0CE
:107C10000E94BD3C0E94F33C60CF0E94763C809362
:107C200006010E94763C809307010E94F33C55CFE9
:107C30000E94763C803309F411C183E00E94BD3C70
:107C400080E00E94C73C49CF0E94763C80930902A5
:107C50000E94763C8093080280910C028E7F809374
:107C60000C020E94763C853409F409C18091080217
:107C700090910902892B89F000E010E00E94763C87
:107C8000F801E85FFE4F80830F5F1F4F809108026D
:107C9000909109020817190788F30E94763C8032F8
:107CA00009F045CF80910C0280FFF5C0609106017C
:107CB00070910701660F771F7093070160930601AB
:107CC000A0910802B09109021097C9F0E8E0F1E034
:107CD0009B01AD014E0F5F1FF999FECF32BD21BD53
:107CE000819180BDFA9AF99A2F5F3F4FE417F5070B
:107CF00099F76A0F7B1F70930701609306018091CB
:107D0000C00085FFFCCFF092C6008091C00085FFC7
:107D1000FCCFB092C600E1CE83E00E94C73CDDCE2E
:107D200082E00E94C73CD9CE0E94763C8093090233
:107D30000E94763C80930802809106019091070191
:107D4000880F991F90930701809306010E94763C4B
:107D5000853409F49AC080910C028E7F80930C02C6
:107D60000E94763C803209F0B8CE8091C00085FF39
:107D7000FCCFF092C600A0910802B09109021097C2
:107D8000C1F180910C02082F0170182F1695117007
:107D9000E0910601F0910701AF014F5F5F4FBA011B
:107DA00020E030E00023B1F4112339F49491809164
:107DB000C00085FFFCCF9093C6002F5F3F4FCB01E3
:107DC0000196FA012A173B0780F4BC014F5F5F4F11
:107DD000002351F3F999FECFF2BDE1BDF89A90B5B9
:107DE0008091C00085FFFCCFE6CF709307016093C0
:107DF00006018091C00085FDE5CE8091C00085FF21
:107E0000F8CFE0CE81E00E94C73C67CE0E94763C6E
:107E1000803209F08CCE8091C00085FFFCCFF092BB
:107E2000C6008091C00085FFFCCFE092C600809123
:107E3000C00085FFFCCFD092C6008091C00085FFB6
:107E4000FCCFC092C6008091C00085FFFCCFB092ED
:107E5000C60043CE80E10E94C73C3FCE0E94763CE4
:107E60000E94763C182F0E94763C112309F483C0AF
:107E7000113009F484C08FE00E94C73C2ECE80915F
:107E80000C02816080930C02F1CE80910C02816023
:107E900080930C0265CF809107018823880F880B9F
:107EA0008A2180930B028091060190910701880F2F
:107EB000991F90930701809306018091080280FF2B
:107EC00009C08091080290910902019690930902DD
:107ED00080930802F894F999FECF1127E0910601EA
:107EE000F0910701C8E0D1E0809108029091090269
:107EF000103091F40091570001700130D9F303E084
:107F000000935700E8950091570001700130D9F3B4
:107F100001E100935700E8950990199000915700EE
:107F200001700130D9F301E000935700E8951395F3
:107F3000103498F011270091570001700130D9F3E7
:107F400005E000935700E89500915700017001305B
:107F5000D9F301E100935700E8953296029709F0B2
:107F6000C7CF103011F00296E5CF11248091C000E8
:107F700085FFC5CEC8CE8EE10E94C73CAECD85E957
:0A7F80000E94C73CAACDF894FFCF81
:027F8A00800075
:040000030000780081
:00000001FF
